:020000000C945E
:1000020059000C9400000C9400000C9400000C9415
:1000120000000C9488000C9400000C9400000C94D6
:1000220000000C9400000C9400000C9400000C944E
:1000320000000C949E000C9400000C9400000C94A0
:1000420000000C9400000C9400000C9400000C942E
:10005200000000004B0000000000446F63746F72E8
:10006200206E6164657269002573002025342E318B
:1000720066672025342E3166672025342E31666767
:10008200000080C02D4E414E000001002D4E414E19
:1000920000494E460000010002005400060006001E
:1000A200560002006803840001006C038C0000000B
:1000B200F894EE27ECBBF1E0F5BFE5BFF8E1F1BD46
:1000C200E1BD8DE0A2E0BB27ED938A95E9F780E0E0
:1000D20098E0A0E6ED930197E9F7E8E9F0E0859171
:1000E2009591009761F0A591B59105901590BF018A
:1000F200F00105900D920197E1F7FB01F0CFEFE5DA
:10010200EDBFE8E0EEBFC0E6D2E00C94C100EA9396
:10011200FA93EFB7EA93E2EBE4BD6414750409F4D1
:10012200A998F20131962F01E4E6F0E04E165F063F
:1001320018F044245524A99A1EC0EA93FA93EFB703
:10014200EA931A930A931BB10CB1E12FEC7189F473
:10015200E92D9394F0E0E05BFC4F0083E8E1E915C0
:1001620009F49924B394E8E1EB1519F4BB246894DB
:1001720020F809911991E991EFBFF991E991189548
:10018200E0E0EBBBEABBE1E0E7BBE0E0E8BBE3E0D9
:10019200E4BBE0E0E5BBE6E1E1BBE0E0E2BBEBB9FA
:1001A200E8E9EAB9E6E8E0BDE0E0E0BDE3E3E9B9A9
:1001B2005AD282D2AAD2A0E10E949104ACE5B0E068
:1001C2000E948004A8EEB3E00E94D60BE0E0E2BDFC
:1001D200E7E0E5BDE2EBE4BDE0E0E3BDE0E4E9BF7A
:1001E2007894BED00E945D09E2E0EA93A2E3B3E014
:1001F2000E942D08E0EFF2E00E946809E2E3F3E0DA
:100202000E946F090E947809E2E0EA93ACE3B3E04E
:100212000E942D08ECEFF2E00E946809ECE3F3E0A3
:100222000E946F090E948309E2E0EA93A6E4B3E028
:100232000E942D08E8E0F3E00E946809E6E4F3E09A
:100242000E946F09E0EFF2E0FA93EA93ECEFF2E03A
:10025200FA93EA93A8E0B3E083D2E4E1F3E0FA93FD
:10026200EA93EDE6F0E0FA93EA930E945D090E94B8
:1002720078090E9483098CE00E94F90760960E9427
:100282005504E0E0EA93A0E00E944804A4E1B3E050
:100292000E947604AAE0B0E00E94D60BA2CFFFCF64
:1002A20024971A93839A92980E948E098399FECF7B
:1002B20010E0183160F4929A0E9494090E94990900
:1002C2009298839B02C00E94A0091F5FF2CF929A6C
:1002D2000E94AA0992980E94940918810C940B0515
:1002E20024971A93859A94980E948E098599FECF35
:1002F20010E0183160F4949A0E9494090E949909BE
:100302009498859B02C00E94A0091F5FF2CF949A25
:100312000E94AA0994980E94940918810C940B05D2
:1003220024971A93B19AC0980E948E09B199FECF70
:1003320010E0183160F4C09A0E9494090E94990951
:10034200C098B19B02C00E94A0091F5FF2CFC09A61
:100352000E94AA09C0980E94940918810C940B0566
:100362000E944D0EE0E0E0939002E0939102E09350
:100372009202E0939302E0939402E0939502E09359
:100382009602E0939702E0939802E0939902E09339
:100392009A02E0939B0220E030E02230E0E03E0748
:1003A20008F039C100E010E00730E0E01E0708F075
:1003B200E7C00E94B90974DF0E94C3090E94CC09F8
:1003C2000E94D5090E94C309E0916402F09165027E
:1003D20060916602709167020E94CC090E94460EEB
:1003E20068F5E0917802F091790260917A02709159
:1003F2007B020E94DC09A0916402B09165028091A7
:100402006602909167020E94E5090E94920D0E9485
:10041200DC090E94EE090E94F409A0E6B2E00E9403
:10042200FB09ACE9B2E00E94010AFF93EF930E943C
:10043200EE090E94060AAF91BF9105C0F801ACE92E
:10044200B2E00E940D0A0E94170E0E94160A48DFAF
:100452000E94200A0E94290A0E94D5090E94200AAD
:10046200E0916C02F0916D0260916E0270916F02E8
:100472000E94290A0E94460E68F5E0917C02F091E2
:100482007D0260917E0270917F020E94320AA091E9
:100492006C02B0916D0280916E0290916F020E9487
:1004A2003B0A0E94920D0E94320A0E94440A0E9454
:1004B200F409A8E6B2E00E94FB09A8EBB2E00E94B0
:1004C200010AFF93EF930E94440A0E94060AAF9129
:1004D200BF9105C0F801A8EBB2E00E940D0A0E948C
:1004E200170E0E944A0A1CDF0E94540A0E945D0AEB
:1004F2000E94D5090E94540AE0917402F09175029B
:1005020060917602709177020E945D0A0E94460E07
:1005120068F5E0918002F09181026091820270910F
:1005220083020E94660AA0917402B09175028091C2
:100532007602909177020E946F0A0E94920D0E94A9
:10054200660A0E94780A0E94F409A0E7B2E00E94BB
:10055200FB09A4EDB2E00E94010AFF93EF930E940F
:10056200780A0E94060AAF91BF9105C0F801A4ED76
:10057200B2E00E940D0A0E94170E0F5F1F4F14CFA8
:10058200ECE9F2E00E947E0AE091A802F091A90251
:100592006091AA027091AB020E94840A0E94860CAA
:1005A200E0939002F093910260939202709393020F
:1005B200E8EBF2E00E947E0AE091C402F091C502EB
:1005C2006091C6027091C7020E948D0A0E94860C39
:1005D200E0939402F09395026093960270939702CF
:1005E200E4EDF2E00E947E0AE091E002F091E10285
:1005F2006091E2027091E3020E94960A0E94860CC8
:10060200E0939802F093990260939A0270939B028E
:100612002F5F3F4FC2CE0E94840A0E949F0AE0933E
:100622008402F093850260938602709387020E948F
:100632008D0A0E949F0AE0938802F09389026093D8
:100642008A0270938B020E94960A0E949F0AE0938C
:100652008C02F0938D0260938E0270938F020E943F
:10066200540E249608950E94A60A0E94B90900E039
:1006720010E00A30E0E01E0764F412DE0E94CC09AA
:100682000E948D0D0E94C3090E94AB0A0F5F1F4F8B
:10069200F0CF0E94CC090E94B00A0E94C3090E94B6
:1006A200CC090E94D509E0936402F093650260933D
:1006B20066027093670251C00E94A60A0E94160A3F
:1006C20000E010E00A30E0E01E0764F409DE0E9458
:1006D200290A0E948D0D0E94200A0E94AB0A0F5F18
:1006E2001F4FF0CF0E94290A0E94B00A0E94200ADE
:1006F2000E94290A0E94D509E0936C02F0936D02D0
:1007020060936E0270936F0228C00E94A60A0E9434
:100712004A0A00E010E00A30E0E01E0764F400DE5E
:100722000E945D0A0E948D0D0E94540A0E94AB0A2B
:100732000F5F1F4FF0CF0E945D0A0E94B00A0E9415
:10074200540A0E945D0A0E94D509E0937402F09354
:100752007502609376027093770209911991089558
:10076200BA93AA93AC81BD810E94C504ACE20E94F7
:10077200BE04AA81BB810E94C504ACE20E94BE04F1
:10078200A881B9810E94C50426960895BA93AA93B6
:100792000E944D0E00E010E020E030E000E010E0AA
:1007A200EC81FD8131970E171F070CF04BC020E042
:1007B20030E0F8013196AC81BD810E943B0EEA1B0C
:1007C200FB0B2E173F07DCF5F9010E94B70A7F9356
:1007D2006F93FF93EF93F90131960E94B70AAF919D
:1007E200BF918F919F910E94690D09F008F424C076
:1007F2002297F9010E94C00A0E940D0E0E94130C5A
:10080200E883F983F901A885B9850E94010A0F01DD
:10081200F90131960E94C00A0E94110ED0010E9475
:10082200170EF90131960E94C00AE881F9810E94EF
:10083200C70A0E94170E22962F5F3F4FBACF0F5F53
:100842001F4FAECF0E94540E28960895AA93EBB381
:10085200EF70AE2FE881E07FEA2BEBBB8DE08A954B
:10086200F1F7DA9A8DE08A95F1F7DA988DE08A95B8
:10087200F1F70C94C304AA93A881E8DFE881E2951A
:10088200E883A881E3DF85E88A95F1F77BC0AA9324
:10089200E881F0E0E859FC4FE081A981AE0FEBDF7F
:1008A200A980D88022960895A2E00E94CC0AACE0EA
:1008B200E2DFA1E00E94CC0AE0E0DE2EAE2E089537
:1008C200AA93A881AA3011F0AC1448F0E0E0EA93B0
:1008D200D394AD2DDCDFA881AA3009F453C0A394D0
:1008E200D89AA881C8DFD8984DC0BA93AA931A9310
:1008F2000E94D20A19F0A12FE3DFFACF50C0BA93B7
:10090200AA931A93E981FA813196E983FA8331979E
:10091200E4911E2FE03019F0A12FD2DFF3CF3FC0B8
:10092200AA93EAB3E06FEABBD29AD09AD19ADA9844
:10093200D898D998C880E881E058E0936A03E881A2
:10094200E054E0936B03A4E1B0E00E94D60B0E9456
:10095200DA0A0E94DA0A0E94DA0AA0E277DF88EC59
:1009620090E00197F1F7A8E286DFA4E084DFA5E832
:1009720082DFA6E080DF98DF05C0AA935D9BFECFF1
:10098200E881ECB921960895BA93AA931A930E942A
:10099200D20A19F0A12FF1DFFACFAAE0EEDF188117
:1009A20023960895BA93AA931A930A93AA81BB81B4
:1009B20012960E940D0E309729F1AA81BB811496DE
:1009C2000E940D0E8F01309761F00230E0E01E07A9
:1009D20080F0F80131978F01AA81BB811496ED93C3
:1009E200FC93AA81BB8112960E94E20A3197AC81E4
:1009F200A083AA81BB810E940D0EFF2312F00E94E8
:100A0200E20A06C0AA81BB81EFEFFFEFED93FC93F0
:100A120019810881259608950E94E80AE0E8EA8390
:100A2200EFE3EB830E944D0EEE85FF85EF3FAFEFC4
:100A3200FA0749F4E885F985FA93EA93A6E8B0E063
:100A42000E94EF08B7C0EF3FAFE7FA0749F4E88525
:100A5200F985FA93EA93A7E8B0E00E94EF08AAC0EA
:100A6200AB85A73010F0E6E0EB871B85E12F115034
:100A7200E03019F00E94EF0AF9CFEC85FD856E8512
:100A82007F850E94420E21F430E00E94EF0A2DC0C1
:100A92003B850E94FE0A09F008F40BC00E94EF0A8F
:100AA2000E94FE0A28F00E94090B0E940E0BF8CF4A
:100AB2000DC00E94FE0A40F40E94090B0E941A0B0C
:100AC2000E94210B3150F5CF0E94EF0AEC85FD8583
:100AD2006E857F850E94260B0E94210B0E94FE0AD2
:100AE20020F00E94090B0E940E0B10E0EB85E1172B
:100AF200A8F1AC81BD818E819F810E942D0B0E9445
:100B0200260BDF01CB010E944609EC83FD836E8335
:100B12007F830E94090B0E94240D0E94130C0E2F4A
:100B22000E94340B0E943B0BFF27662777270E9407
:100B32004C0CAC81BD818E819F810E94D60C0E949B
:100B4200090B0E94400B0E94210BE12F1F5FE03036
:100B520069F60E94340BEEE2EC93C8CF0E94450B7B
:100B62003197AA85A08330302CF43195A885B985B8
:100B7200EDE203C0A885B985EBE2EC930E94450B38
:100B82000E94450B3197BF01A32FEAE00E94C70DD7
:100B9200E05DDB01EC930E94450B3197BF01A32F6F
:100BA200EAE00E94F10DE05DDB01EC93A885B985D6
:100BB200E0E0EC930E94540E60960895BA93AA93D3
:100BC200EF9761970E944B0E10E0FE01E85AFF4F2B
:100BD2000190F081E02DE887F987FE01EA5AFF4F84
:100BE2000190F081E02DEE83FF83AE81BF81E0E0D2
:100BF200F0E0ED93FC93DE01A45ABF4F0E94E20A9B
:100C02003197E4912E2FE03009F4E9C1E12FE03071
:100C120039F4253211F411E002C00E944B0BDEC1FF
:100C2200E130C1F4253219F40E944B0BD6C112E017
:100C3200E0E0ED8B00E02D3211F401E0CFC12B3268
:100C420019F4EBE2ED8BCAC1203219F4E0E2ED8B2C
:100C5200C5C102C0E23039F450E013E0203311F490
:100C62000068BCC102C0E33091F4203310F02A3393
:100C720008F007C0AAE05A9F502DE22FE0535E0F02
:100C8200ADC140E02E3211F414E0A8C10FC0E4302F
:100C920099F4203310F02A3308F008C00062AAE069
:100CA2004A9F402DE22FE0534E0F98C12C3619F483
:100CB200026015E093C103C0E53009F08FC1E22F55
:100CC200E33659F40E94520B0E94590B0E94520BB8
:100CD200A481AA930E94600B80C1E53411F0E5362D
:100CE20009F403C0E63609F048C0FE017696EE87A5
:100CF200FF870E94660B0E94110E0E946D0B0E94DC
:100D0200720BAD85AA2332F0AD89AB3259F0A03215
:100D120081F017C00E94740B0E94E00B0E946D0BC1
:100D2200EDE2ED8B07FF05C0ED89EA930E94600BAF
:100D320008C0EE85FF853196EE87FF873197AD8932
:100D4200A08305FF46E0263651F40E94740B0E94F0
:100D52002B0E4A93AB89BC890E942D0809C00E94C0
:100D6200740B0E942B0E4A932A93AC89BD8954DEE0
:100D7200FE0176960E94790B1EC0E33739F40E9479
:100D8200720B0E94810B0E94790B0EC0E037C1F4F6
:100D92000E94720B0E94810BEE87FF87AE85BF8592
:100DA2000E9408091E2F08600F77403011F041178A
:100DB20008F001C0142F40E0E0E0EC8B30E06DC0A1
:100DC200E43611F0E93611F4046002C0E537A1F40B
:100DD200EAE0EC8B01FF08C0E0E0FAEC6AE97BE3B1
:100DE2000E94860B1AE022C0E0E1F7E260E070E0C8
:100DF2000E94860B15E01AC0E83511F4086003C0A2
:100E0200E83709F0EAC0E0E1EC8B01FF08C0E0E05E
:100E1200F0E060E070E10E94860B18E007C0E0E0BD
:100E2200F0E160E070E00E94860B14E0403011F0C7
:100E32000F7701C041E001FF08C00E94720B0E94BF
:100E4200660B14960E94110E0FC002FF07C00E948B
:100E5200720B0E94810B0E94B40D06C00E94720B9D
:100E62000E94810B66277727EA87FB876C877D873D
:100E720002FF12C0AD85AA2342F40E94740B0E94A5
:100E82009C0D0E946D0BEDE2ED8BED89E03019F0C7
:100E92001F5F4F5F01C00B7F342F00FD14C0151779
:100EA20010F4351708F00FC007FF08C002FF04C096
:100EB2000B7F2D89115001C020E301C020E20E9466
:100EC2004B0B5150ECCF141790F4006102FF06C097
:100ED2000E948B0B09F0515011504150E0E3EA930C
:100EE2000E94600B503009F051504150ECCF312F2D
:100EF200EC89E030B9F43030A1F003FF06C0EE8592
:100F0200FF852591EE87FF8705C0AE85BF852D91B0
:100F1200AE87BF870E944B0B503009F051503150C1
:100F2200EACF51C00E949D0B0E94CC0D2E2F2A3079
:100F320030F003FF02C0295C01C0295A01C0205DC4
:100F420004FD21C0213360F4A889B9898A899B896B
:100F5200A130E0E0BE07E0E08E07E0E09E0709F482
:100F62000BC0431740F4531710F000FF01C010C02C
:100F720020E207FF08C020E3006102FF04C00E94D4
:100F82008B0B09F051500E944B0B503009F051501D
:100F920031500E949D0B0E94FD0D0E946D0BEC8949
:100FA200A889B9898A899B89FF27662777270E94A2
:100FB200CC0D0E94860BE889F9896A897B890E9497
:100FC200420E09F0AFCF00FF08C0503031F051504F
:100FD200E0E2EA930E94600BF8CF10E00CCEAE8103
:100FE200BF810E940D0E0E94520EEF966F960895D9
:100FF200FF92F82E26970E944D0E0E94A60B309764
:1010020019F4EFEFFFEF23C0DE0116960E94890D5F
:101012008D010E94A60BEE83FF83E0E0E887E9875B
:10102200DE011A960E94890D0E940D0EFA93EA9330
:101032001A930A93E3EDF4E0FA93EA93DE011A9627
:10104200BDDD9F01AE81BF81E0E0EC93F9010E941A
:10105200540E2A96FF9008950E94E80AE0E0EA837F
:10106200EFE3EB831A930A93EB85FC85EF3FAFEF37
:10107200FA0739F40E94AD0BAEE8B0E00E94EF0827
:10108200A9C0EF3FAFE7FA0739F40E94AD0BAFE812
:10109200B0E00E94EF089EC0AC85AA2362F4E98505
:1010A200FA856B857C850E94E00B0E94B20B0E9440
:1010B200B70BEDE2EC93A885A73010F0E6E0E887E5
:1010C2001885E12F1150E03039F00E94BE0B0E94CA
:1010D2002D0B0E94C30BF5CF0E94C80B0E94860CF9
:1010E2000E94B20B10E0E0E0F0E060E87FE30E94D3
:1010F200C30B0E94C80B0E94690D88F00E94BE0BB0
:101102000E941A0B0E94C30B1F5F173238F00E9415
:10111200AD0BA3E9B0E00E94EF085CC0EACF10304B
:1011220029F40E94B70BE0E3EC9329C0E12F1150A0
:10113200E03029F10E94BE0B0E942D0B0E94260B6B
:10114200DF01CB010E9446090E94C30B0E94C80B1B
:101152000E94240D0E94130C0E2F0E94B70B0E94B6
:101162003B0BF0E00E94BE0B0E94C70A0E94D60C05
:101172000E94D10B0E94400B0E94B20BD7CFE88590
:10118200E03021F10E94B70BEEE2EC93E885E150EA
:10119200E887EF5FD9F00E94D10B0E941A0B0E94E0
:1011A200B20BE985FA856B857C850E94130C0E2FA4
:1011B2000E94B70B0E943B0BF0E00E94D10B0E94F1
:1011C200C70A0E94400B0E94B20BE0CFAE81BF81E2
:1011D200E0E0EC93198108812D960895BA93AA93C1
:1011E200E991F991A991B991CD0105900D92002053
:1011F200E1F7FC010895BA93AA93A991B991EE2758
:10120200FF276D91662311F03196FBCF0895BA93B3
:10121200AA93AA27BB27E991F9910590002011F022
:101222001196FBCFFD0108950E94300E7B816A81E9
:10123200F981E88177FB770F67FD7160972F9E57E1
:1012420081F078F0983190F4AA27BB278827089478
:101252008795B795A7959A95D1F7EA23FB2368233B
:1012620005C0E8947727EE27FF2766276F777695E4
:1012720008F4606877F9A991B99189919991EA176F
:10128200FB076807790797FB08950E94300E0E94BA
:10129200210E0E9415090E94260E19F40E941C0EAE
:1012A20009C0E6F70E941C0EA0E0B0E080E89FE3D0
:1012B2000E947F0C24960895E0918402F0918502A9
:1012C20060918602709187020E942B0E0895FA9314
:1012D200EA93EAE6F0E0FA93EA930895662777271D
:1012E2000E942B0E84E00E94F90728960895E0914F
:1012F2008802F091890260918A0270918B020E94A9
:101302002B0E0895E0918C02F0918D0260918E0275
:1013120070918F020E942B0E0895E0E0E983EA8328
:10132200EB83EC830895E981FA816B817C810895D6
:101332000E94A90DE983FA836B837C830895F3DF0E
:10134200EF5FFF4F6F4F7F4FE983FA836B837C839D
:101352000895A981BA818B819C81E0E0F0E060E888
:1013620070E00E94970DE983FA836B837C83089572
:10137200E0E0E0937802E0937902E0937A02E0936E
:101382007B020895E0937802F093790260937A02E7
:1013920070937B020895A0917802B09179028091B6
:1013A2007A0290917B020895E4E6F0E060E070E05A
:1013B2000E94CC0D0895E0936002F0936102609365
:1013C2006202709363020895E0916002F0916102FB
:1013D20060916202709163020895F6DF0E944A0CE6
:1013E200DF01CB010895EDE4F0EA68EB7EE30E94B1
:1013F200240D08950E94130C0E94170EF8010895FF
:101402000E94A40DEA0FFB1F0895E0E0F0E060EFF8
:1014120071E40E94240D08950E94A40DAE0FBF1F17
:10142200E0E0F0E060E070E00895E0E0E0937C024C
:10143200E0937D02E0937E02E0937F020895E093C1
:101442007C02F0937D0260937E0270937F02089586
:10145200A0917C02B0917D0280917E0290917F02E8
:101462000895E0936802F093690260936A027093B0
:101472006B020895E0916802F091690260916A023C
:1014820070916B020895F6DF0E944A0CDF01CB01D6
:101492000895E0E0E0938002E0938102E09382020B
:1014A200E09383020895E0938002F09381026093B7
:1014B2008202709383020895A0918002B09181020A
:1014C20080918202909183020895E0937002F093DA
:1014D200710260937202709373020895E091700238
:1014E200F091710260917202709173020895F6DFB9
:1014F2000E944A0CDF01CB010895FA93EA93A7E018
:10150200B0E00C94C703A0919002B0919102809137
:101512009202909193020895A0919402B091950243
:1015220080919602909197020895A0919802B091AD
:10153200990280919A0290919B020895E0E0F0E076
:1015420060E070E40E94240D08951A930A9300E06B
:1015520010E0089588EE93E00197F1F70895EAE02C
:10156200F0E060E070E00E94CC0D0895AE81BF8192
:101572000E94A40DAE0FBF1F0E94110E0895A885F0
:10158200B9850E94A40DAE0FBF1F08950E94B40D2D
:101592000E944C0C08950E943C04A3E0B0E00C941D
:1015A200D60BA981BA81ED91A983BA831E2FE030AF
:1015B2000895A0E30E94270488EC90E00197F1F7D8
:1015C2000895ED91FD913196FE93EE930895BA93AD
:1015D200AA932497E0E0E883E9830895AC81BD8172
:1015E2008E819F81E0E0F0E060E271E40E94D60C1F
:1015F200EC83FD836E837F830895EC81FD816E8190
:101602007F81AC85BD858E859F850E94690D089579
:10161200AC85BD858E859F850895EDECFCEC6CEC68
:101622007DE30E94D60CEC87FD876E877F873F5F44
:101632000895E0E0F0E060E271E40E94D60C0895C3
:10164200EC87FD876E877F870895A0E0B0E080E099
:101652009FE30E94860C0895EDECFCEC6CEC7DE3BC
:101662000E94D60C0895A885B9851196A887B987D6
:1016720011970895E02FE05DEC93E02F08950E940A
:10168200350E0E947F0C0895E885F9853196E8872A
:10169200F98708952A93AF81B885E985FA85099576
:1016A2000895FE01E65AFF4F0190F081E02D089562
:1016B2003497DE01A65ABF4FED93FC930895AF8194
:1016C200B885E985FA8509950895DE01A65ABF4FC6
:1016D2000D90BC91A02D0895EA87FB876C877D87CA
:1016E2000895DFDFE5CFEA85FB856C857D8508956A
:1016F200EE87FF87AE85BF850E94FC081E2F0895E6
:10170200E4DF14960E940D0E0895E88BF98B6A8B24
:101712007B8B08950B7FED89EA93DE01A95ABF4FB7
:101722000D90BC91A02DFE01E75AFF4F0190F08170
:10173200E02D099550300895E889F9896A897B89F5
:10174200AA85BB858C859D850895DE011C960E9425
:10175200890D0E940D0E0895EE81FF81FA93EA939E
:101762000895E987FA876B877C870895AE81BF81E8
:101772001196AE83BF8311970895AA81BB818C8194
:101782009D810895EA83FB836C837D830895EA81BA
:10179200FB816C817D81A985BA858B859C850895A5
:1017A200A985BA858B859C850895109639F080EDC0
:1017B20097E00197F1F7A8951197C9F70895309727
:1017C2006040704009F070580895552342F4503833
:1017D20011F4E0FF04C03196691F791F6BF050E8E5
:1017E200572711F45F93CFC05F3F31F0660F000CB3
:1017F20057956795752F08955F9300200AF0CFC023
:10180200C8C050E8192E1522880F991F9527550F29
:10181200879550E8072E0522660F771F7527550F0B
:1018220067950895689401C0E8945F93F2DF703879
:1018320018F07F3F08F4A7C056E1571BAAF4519550
:1018420058300EF4593030F0EFEFFFEF6FEF7FE7D3
:1018520077F91AC077275523B9F0EE0FFF1F661FDD
:10186200771F5A95D1F710C07727583028F0EF2FFD
:10187200F62F672F5850F9CF552331F0769567959B
:10188200F795E7955A95D1F700200AF454D15F9164
:101892000895689401C0E894309760407040B1F0B8
:1018A200002426F0772312F4009445D1172E7EE10E
:1018B200112032F07A95EE0FFF1F661F111CF9CF2F
:1018C200EF2FF62F612D5F938ADF5F9108954F937B
:1018D200AF01FD01DA01AB01BC01CA01402D012CAF
:1018E200142E4F910895EA0FFB1F681F0895E0958B
:1018F200F0956095EF5FFF4F6F4F08955F9381DF23
:10190200903871F150E8152604C05F937ADF903861
:1019120039F1703821F1572F591B2BF112F4D7DF0F
:10192200FACF583118F0AA27BB278827583028F059
:10193200AB2FB82F88275850F9CF552329F0869519
:10194200B795A7955A95D9F7502D512572F0CBDF4F
:1019520038F46795F795E795739513F420C0B7DFD0
:101962003EDF5F910895D8F7FBCFEA1BFB0B680BB4
:1019720051F010F40094BBDF662392F3EE0FFF1FC9
:10198200661F7A95CBF7EE27FF27662777275F91A9
:101992000895EFEFFFEF6FE77FEF5F910895EFEFAD
:1019A200FFEF6FE77FE75F9108955F932ADF70385B
:1019B20051F3903841F301240894791F23F41CF366
:1019C20000203AF3ECCF0F921F932F933F934F9344
:1019D200112722279927689FA0018F9F302D410D43
:1019E200591F6B9F300D411D591F8E9F27D0BF9FDE
:1019F20025D06A9F23D0BE9F1DD0AF9F1BD0AE9F24
:101A0200110D291F391F491F591FE32FF42F652F6D
:101A1200522F4F913F912F911F910F9066232AF0E1
:101A2200550FEE1FFF1F661F02C073954BF2CDDEEE
:101A32005F910895100D211D391F02C0200D311D27
:101A4200491F591F08955F93DCDE703821F411207D
:101A52000AF49FCFA4CF903809F495CF01240894BB
:101A6200970B1BF4D4F30020F3CF792F1F932F93FE
:101A72003F934F93112411272227332744275527B9
:101A820090E2AE17BF078607410730F0AE1BBF0BCF
:101A9200860B410B089401C08894551F221F331FE7
:101AA200111CAA1FBB1F881F441F9A9551F7F901E9
:101AB200612D4F913F912F911F91662332F0550F67
:101AC200EE1FFF1F661F7A9543F27FDE5F91089536
:101AD20099239AF0772342F0971748F029F4AE172A
:101AE200BF07860720F031F098948894089598945F
:101AF200089408951894889408957723C2F7971745
:101B020098F3A9F7EA17FB07680788F399F3ECCF74
:101B12000024AF0DB01D0895EA0FFB1F681F791F47
:101B22000895EA1BFB0B680B790B0895EA27FB2744
:101B3200682779270895F09560957095E195FF4F94
:101B42006F4F7F4F0895EE0FFF1FEE0FFF1F089597
:101B5200EE0FFF1F661F771F0895FE2FFF0FFF0B6B
:101B62006F2F7F2F08956F2F660F660B762F0895C4
:101B7200002498E0AA0F001C0E1A10F40E0E01C0E9
:101B8200A1609A95B9F7EA2FA02D089539D0F0DF18
:101B92000EF4E19508953F934F935F93002411242F
:101BA2004427552730E2AA0FBB1F881F991F001C2C
:101BB200111C441F551F0E1A1F0A460B570B28F4FF
:101BC2000E0E1F1E461F571F01C0A1603A9559F7FE
:101BD200FD01BC01D001CA015F914F913F9108956F
:101BE200E894A7FF02C0A1956894E7FDE195C0DFE4
:101BF200EA2F0EF4E1950895CEDFFD01BC010895B0
:101C0200E894E7FF02C0E1956894A7FF04C0A1959C
:101C120000F8039400FA0895ED91FC91119708954C
:101C2200ED91FD916D917C9113970895ED93FD9344
:101C32006D937C930895E881F9816A817B8108958F
:101C4200A881B9818A819B810895E883F9836A8397
:101C52007B8308957A936A93FA93EA9308959A9309
:101C62008A93BA93AA930895182E862F612D192E5E
:101C7200972F712D1B2EBF2FF12D1A2EAE2FE12D76
:101C820008953097604070400895EA17FB0768078F
:101C9200790708955A934A933A932A931A930A9387
:101CA20008955D814C813B812A81198108810895C3
:00000001FF
