:0C0000000C945B000C9400000C940000B9
:10000C000C9400000C9400000C9400000C94000064
:10001C000C9400000C9400000C9400000C94000054
:10002C000C9400000C9400000C948A000C940000BA
:10003C000C9400000C9400000C9400000C94000034
:10004C000C9400000C94000000000000EE02000074
:10005C0000000000446F63746F72206E61646572FF
:10006C0069002573002025342E3166672025342E37
:10007C003166672025342E316667000080C02D4E16
:10008C00414E000001002D4E414E00494E460000ED
:10009C000100020054000A000400560002001C0477
:1000AC0088000100220490000000F894EE27ECBBBD
:1000BC00F1E0F5BFE5BFF8E1F1BDE1BD8DE0A2E0F7
:1000CC00BB27ED938A95E9F780E098E0A0E6ED93E5
:1000DC000197E9F7ECE9F0E085919591009761F0D3
:1000EC00A591B59105901590BF01F00105900D9269
:1000FC000197E1F7FB01F0CFEFE5EDBFE8E0EEBFD4
:10010C00C0E6D2E00C94AD00EA93FA93EFB7EA9311
:10011C001A930A931BB10CB1E12FEC7189F4EB2DFE
:10012C00B394F0E0EC5FFB4F0083E8E1EB1509F4CE
:10013C00BB24D394E8E1ED1519F4DD24689420F880
:10014C0009911991E991EFBFF991E9911895E0E0C6
:10015C00EBBBEABBE1E0E7BBE0E0E8BBE3E0E4BB20
:10016C00E0E0E5BBE6E1E1BBE0E0E2BBEBB9E8E9EE
:10017C00EAB9E6E8E0BDE0E0E0BDE3E3E9B93BD293
:10018C0069D297D2A0E10E94A304A0E6B0E00E943D
:10019C009204A8EEB3E00E94CE0BC1D039D1AFD1FE
:1001AC000E947209E2E0EA93A6EEB3E00E944008D6
:1001BC00E4EAF3E00E947D09E6EEF3E00E94840994
:1001CC000E948D09E2E0EA93A0EFB3E00E944008A0
:1001DC00E0EBF3E00E947D09E0EFF3E00E9484097C
:1001EC000E949809E2E0EA93AAEFB3E00E9440086B
:1001FC00ECEBF3E00E947D09EAEFF3E00E94840946
:10020C00E4EAF3E0FA93EA93E0EBF3E0FA93EA938F
:10021C00ACEBB3E0A2D2E8ECF3E0FA93EA93E1E7BB
:10022C00F0E0FA93EA930E9472090E948D090E94F1
:10023C0098098CE00E940C0860960E946104E0E032
:10024C00EA93A0E00E945204A8ECB3E00E94880458
:10025C00AAEFB0E00E94CE0B74D29FCFFFCF2497B1
:10026C001A93839A92980E94A3098399FECF10E067
:10027C00183160F4929A0E94A9090E94AE099298D2
:10028C00839B02C00E94B5091F5FF2CF929A0E9415
:10029C00BF0992980E94A90918810C941E052497F5
:1002AC001A93859A94980E94A3098599FECF10E021
:1002BC00183160F4949A0E94A9090E94AE0994988E
:1002CC00859B02C00E94B5091F5FF2CF949A0E94D1
:1002DC00BF0994980E94A90918810C941E052497B3
:1002EC001A93B19AC0980E94A309B199FECF10E05D
:1002FC00183160F4C09A0E94A9090E94AE09C098F6
:10030C00B19B02C00E94B5091F5FF2CFC09A0E9438
:10031C00BF09C0980E94A90918810C941E050E945F
:10032C00CE09E0936003E0936103E0936203E093F2
:10033C00630320E030E02530E0E03E07A4F500E068
:10034C0010E00531E0E01E07ACF489DF0E94D6090D
:10035C000E94DF090E94E8090E94D609F801A0E674
:10036C00B2E00E94EF090E94DF090E94F4090F5FBE
:10037C001F4FE7CF0E94F709E0918802F0918902A4
:10038C0060918A0270918B020E94FF090E94850D78
:10039C00E0936003F09361036093620370936303D3
:1003AC002F5F3F4FC8CF0E94FF090E94080AE093BD
:1003BC005C03F0935D0360935E0370935F030E9494
:1003CC000F0AA0917803B091790380917A039091F0
:1003DC007B030E94180A0E948A0D0E940F0A0E9439
:1003EC00210A0E94270AA4E7B3E00E942E0A0E9469
:1003FC00210A0E94330A0E941C0DE0939803F0938B
:10040C00990360939A0370939B030E94510E97C1BA
:10041C000E94CE09E0936803E0936903E0936A03BA
:10042C00E0936B0320E030E02530E0E03E07A4F5DC
:10043C0000E010E00531E0E01E07ACF430DF0E9474
:10044C00380A0E94410A0E94E8090E94380AF80101
:10045C00A4EBB2E00E94EF090E94410A0E94F40949
:10046C000F5F1F4FE7CF0E94F709E091DC02F0917C
:10047C00DD026091DE027091DF020E944A0A0E9446
:10048C00850DE0936803F093690360936A0370939E
:10049C006B032F5F3F4FC8CF0E944A0A0E94080A85
:1004AC00E0936403F09365036093660370936703B2
:1004BC000E94530AA0918003B09181038091820322
:1004CC00909183030E945C0A0E948A0D0E94530A39
:1004DC000E94650A0E94270AACE7B3E00E942E0A2C
:1004EC000E94650A0E946B0AE0939C03F0939D03A3
:1004FC0060939E0370939F030E94510E20C10E9433
:10050C00CE09E0937003E0937103E0937203E093E0
:10051C00730320E030E02530E0E03E07CCF500E04E
:10052C0010E00531E0E01E07ACF4D9DE0E94720A3F
:10053C000E947B0A0E94E8090E94720AF801A8E056
:10054C00B3E00E94EF090E947B0A0E94F4090F5F3E
:10055C001F4FE7CFE8E0F3E0FA93EA93A5E1B0E0B0
:10056C001ED1E0913003F091310360913203709110
:10057C0033030E94840A0E94850DE0937003F0936C
:10058C00710360937203709373032F5F3F4FC3CF5C
:10059C000E94840A0E94080AE0936C03F0936D0396
:1005AC0060936E0370936F030E948D0AA091880371
:1005BC00B091890380918A0390918B030E94960AD3
:1005CC000E948A0D0E948D0A0E949F0A0E94270A8F
:1005DC00A4E8B3E00E942E0A0E949F0A0E946B0AB4
:1005EC00E093A003F093A1036093A2037093A30381
:1005FC000E94510EA4C00E94A50AE0938C03E093C4
:10060C008D03E0938E03E0938F0300E010E00A303B
:10061C00E0E01E0764F423DE0E94DF090E94850DD2
:10062C000E94D6090E94AB0A0F5F1F4FF0CF0E94A9
:10063C00DF090E94B00A0E94D6090E94DF090E94BD
:10064C00E809E0937803F093790360937A0370934D
:10065C007B035DC00E94A50AE0939003E093910395
:10066C00E0939203E093930300E010E00A30E0E0A3
:10067C001E0764F414DE0E94410A0E94850D0E943C
:10068C00380A0E94AB0A0F5F1F4FF0CF0E94410A3D
:10069C000E94B00A0E94380A0E94410A0E94E8098E
:1006AC00E0938003F0938103609382037093830340
:1006BC002EC00E94A50AE0939403E0939503E09367
:1006CC009603E093970300E010E00A30E0E01E0789
:1006DC0064F405DE0E947B0A0E94850D0E94720A5A
:1006EC000E94AB0A0F5F1F4FF0CF0E947B0A0E9443
:1006FC00B00A0E94720A0E947B0A0E94E809E093E9
:10070C008803F093890360938A0370938B03099198
:10071C00199108950E942D0E882499240E94B70ADD
:10072C00D401882799270E94430E4CF0A1E0B0E039
:10073C000E94CE0BF40131964F013197EFCF2496E6
:10074C000895A898A99AD30188279927E3DFA99837
:10075C00D20188279927DEDF0895BA93AA93A1E4E2
:10076C000E94D104AC81BD810E94D804A5E40E94F2
:10077C00D104A2E40E94D104AA81BB810E94D804B6
:10078C00A5E40E94D104A3E40E94D104A881B981FC
:10079C000E94D804AEE40E94D10426960895BA9320
:1007AC00AA930E944A0E00E010E020E030E000E046
:1007BC0010E0EC81FD8131970E171F070CF047C03C
:1007CC0020E030E0F8013196AC81BD810E94380EFA
:1007DC00EA1BFB0B2E173F07BCF5F9010E94BA0A66
:1007EC007F936F93FF93EF93F90131960E94BA0AAE
:1007FC00AF91BF918F919F910E94430E10F522975C
:10080C00F9010E94C30A0E94050EE883F983F901DD
:10081C00A885B9850E94EF090F01F90131960E9454
:10082C00C30A0E94090ED0010E940F0EF9013196E5
:10083C000E94C30AE881F9810E94AC0D0E940F0E40
:10084C0022962F5F3F4FBECF0F5F1F4FB2CF0E943C
:10085C00510E28960895AA93EBB3EF70AE2FE88152
:10086C00E07FEA2BEBBB8DE08A95F1F7DA9A8DE00D
:10087C008A95F1F7DA988DE08A95F1F70C94D60405
:10088C00AA93A881E8DFE881E295E883A881E3DFF9
:10089C0085E88A95F1F784C0AA93E881F0E0E45EDC
:1008AC00FB4FE081A981AE0FEBDFC980E881E093BB
:1008BC00200422960895A2E00E94CA0AACE0E0DF70
:1008CC00A1E00E94CA0AE0E0E0932004CE2E089535
:1008DC00AA93A881AA3021F0E0912104CE1660F0F1
:1008EC00E0E0EA93A0912004AF5FA0932004D4DF52
:1008FC00A881AA3009F454C0C394D89AA881C0DF47
:10090C00D8984EC0BA93AA931A930E94D00A19F0A1
:10091C00A12FDEDFFACF51C0BA93AA931A93E981C3
:10092C00FA813196E983FA833197E4911E2FE030F6
:10093C0019F0A12FCDDFF3CF40C0AA93EAB3E06F3B
:10094C00EABBD29AD09AD19ADA98D898D998E881F9
:10095C00E0932104E058E0931E04E881E054E09316
:10096C001F04A4E1B0E00E94CE0B0E94D80A0E94A2
:10097C00D80A0E94D80AA0E26EDF88EC90E00197BA
:10098C00F1F7A8E27DDFA4E07BDFA5E879DFA6E044
:10099C0077DF91DF05C0AA935D9BFECFE881ECB9B0
:1009AC0021960895BA93AA931A930E94D00A19F02B
:1009BC00A12FF1DFFACFAAE0EEDF1881239608957C
:1009CC00BA93AA931A930A93AA81BB8112960E9496
:1009DC00050E309729F1AA81BB8114960E94050E51
:1009EC008F01309761F00230E0E01E0780F0F801D3
:1009FC0031978F01AA81BB811496ED93FC93AA8148
:100A0C00BB8112960E94E00A3197AC81A083AA8127
:100A1C00BB810E94050EFF2312F00E94E00A06C063
:100A2C00AA81BB81EFEFFFEFED93FC931981088155
:100A3C00259608950E94E60AE0E8EA83EFE3EB834B
:100A4C000E944A0EEE85FF85EF3FAFEFFA0749F49F
:100A5C00E885F985FA93EA93AAE8B0E00E940609C2
:100A6C00B7C0EF3FAFE7FA0749F4E885F985FA9389
:100A7C00EA93ABE8B0E00E940609AAC0AB85A730A8
:100A8C0010F0E6E0EB871B85E12F1150E03019F0F8
:100A9C000E94ED0AF9CFEC85FD856E857F850E945D
:100AAC003F0E21F430E00E94ED0A2DC03B850E94E0
:100ABC00F90A09F008F40BC00E94ED0A0E94F90A29
:100ACC0028F00E94040B0E94090BF8CF0DC00E9465
:100ADC00F90A40F40E94040B0E94150B0E94190B9A
:100AEC003150F5CF0E94ED0AEC85FD856E857F8532
:100AFC000E941E0B0E94190B0E94F90A20F00E9402
:100B0C00040B0E94090B10E0EB85E117A8F1AC81F6
:100B1C00BD818E819F810E94250B0E941E0BDF01DF
:100B2C00CB010E945D09EC83FD836E837F830E9461
:100B3C00040B0E941C0D0E940B0C0E2F0E942C0B00
:100B4C000E94330BFF27662777270E94440CAC8149
:100B5C00BD818E819F810E94CE0C0E94040B0E944D
:100B6C00380B0E94190BE12F1F5FE03069F60E94D1
:100B7C002C0BEEE2EC93C8CF0E943D0B3197AA856B
:100B8C00A08330302CF43195A885B985EDE203C0F3
:100B9C00A885B985EBE2EC930E943D0B0E943D0BBE
:100BAC003197BF01A32FEAE00E94BF0DE05DDB018E
:100BBC00EC930E943D0B3197BF01A32FEAE00E94FA
:100BCC00E90DE05DDB01EC93A885B985E0E0EC93E1
:100BDC000E94510E60960895BA93AA93EF9761976D
:100BEC000E94480E10E0FE01E85AFF4F0190F08180
:100BFC00E02DE887F987FE01EA5AFF4F0190F0815A
:100C0C00E02DEE83FF83AE81BF81E0E0F0E0ED9359
:100C1C00FC93DE01A45ABF4F0E94E00A3197E49185
:100C2C002E2FE03009F4E9C1E12FE03039F4253200
:100C3C0011F411E002C00E94430BDEC1E130C1F49B
:100C4C00253219F40E94430BD6C112E0E0E0ED8B83
:100C5C0000E02D3211F401E0CFC12B3219F4EBE29C
:100C6C00ED8BCAC1203219F4E0E2ED8BC5C102C094
:100C7C00E23039F450E013E0203311F40068BCC1C9
:100C8C0002C0E33091F4203310F02A3308F007C08F
:100C9C00AAE05A9F502DE22FE0535E0FADC140E009
:100CAC002E3211F414E0A8C10FC0E43099F42033B3
:100CBC0010F02A3308F008C00062AAE04A9F402DC9
:100CCC00E22FE0534E0F98C12C3619F4026015E058
:100CDC0093C103C0E53009F08FC1E22FE33659F41C
:100CEC000E944A0B0E94510B0E944A0BA481AA93AA
:100CFC000E94580B80C1E53411F0E53609F403C0AD
:100D0C00E63609F048C0FE017696EE87FF870E9412
:100D1C005E0B0E94090E0E94650B0E946A0BAD854A
:100D2C00AA2332F0AD89AB3259F0A03281F017C052
:100D3C000E946C0B0E94D80B0E94650BEDE2ED8BB0
:100D4C0007FF05C0ED89EA930E94580B08C0EE8599
:100D5C00FF853196EE87FF873197AD89A08305FF1C
:100D6C0046E0263651F40E946C0B0E94280E4A93E2
:100D7C00AB89BC890E94400809C00E946C0B0E9480
:100D8C00280E4A932A93AC89BD8954DEFE017696CF
:100D9C000E94710B1EC0E33739F40E946A0B0E944B
:100DAC00790B0E94710B0EC0E037C1F40E946A0BE4
:100DBC000E94790BEE87FF87AE85BF850E941F09C5
:100DCC001E2F08600F77403011F0411708F001C05A
:100DDC00142F40E0E0E0EC8B30E06DC0E43611F015
:100DEC00E93611F4046002C0E537A1F4EAE0EC8BBB
:100DFC0001FF08C0E0E0FAEC6AE97BE30E947E0B9D
:100E0C001AE022C0E0E1F7E260E070E00E947E0BA5
:100E1C0015E01AC0E83511F4086003C0E83709F092
:100E2C00EAC0E0E1EC8B01FF08C0E0E0F0E060E03C
:100E3C0070E10E947E0B18E007C0E0E0F0E160E09A
:100E4C0070E00E947E0B14E0403011F00F7701C06F
:100E5C0041E001FF08C00E946A0B0E945E0B1496D1
:100E6C000E94090E0FC002FF07C00E946A0B0E946D
:100E7C00790B0E94AC0D06C00E946A0B0E94790B84
:100E8C0066277727EA87FB876C877D8702FF12C06E
:100E9C00AD85AA2342F40E946C0B0E94940D0E9413
:100EAC00650BEDE2ED8BED89E03019F01F5F4F5FC4
:100EBC0001C00B7F342F00FD14C0151710F435172B
:100ECC0008F00FC007FF08C002FF04C00B7F2D897C
:100EDC00115001C020E301C020E20E94430B51508D
:100EEC00ECCF141790F4006102FF06C00E94830B34
:100EFC0009F0515011504150E0E3EA930E94580B15
:100F0C00503009F051504150ECCF312FEC89E0308A
:100F1C00B9F43030A1F003FF06C0EE85FF852591B2
:100F2C00EE87FF8705C0AE85BF852D91AE87BF8745
:100F3C000E94430B503009F051503150EACF51C050
:100F4C000E94950B0E94C40D2E2F2A3030F003FF07
:100F5C0002C0295C01C0295A01C0205D04FD21C0DA
:100F6C00213360F4A889B9898A899B89A130E0E092
:100F7C00BE07E0E08E07E0E09E0709F40BC04317C4
:100F8C0040F4531710F000FF01C010C020E207FF1F
:100F9C0008C020E3006102FF04C00E94830B09F02B
:100FAC0051500E94430B503009F0515031500E9467
:100FBC00950B0E94F50D0E94650BEC89A889B989E7
:100FCC008A899B89FF27662777270E94C40D0E9478
:100FDC007E0BE889F9896A897B890E943F0E09F0AA
:100FEC00AFCF00FF08C0503031F05150E0E2EA932F
:100FFC000E94580BF8CF10E00CCEAE81BF810E943E
:10100C00050E0E944F0EEF966F960895FF92F82EE4
:10101C0026970E944A0E0E949E0B309719F4EFEF10
:10102C00FFEF23C0DE0116960E94810D8D010E94F8
:10103C009E0BEE83FF83E0E0E887E987DE011A96DA
:10104C000E94810D0E94050EFA93EA931A930A935B
:10105C00E6EEF4E0FA93EA93DE011A96BDDD9F0109
:10106C00AE81BF81E0E0EC93F9010E94510E2A960B
:10107C00FF9008950E94E60AE0E0EA83EFE3EB8339
:10108C001A930A93EB85FC85EF3FAFEFFA0739F41F
:10109C000E94A50BA2E9B0E00E940609ADC0EF3F8B
:1010AC00AFE7FA0739F40E94A50BA3E9B0E00E9460
:1010BC000609A2C0AC85AA2362F4E985FA856B8582
:1010CC007C850E94D80B0E94AA0B0E94AF0BEDE20C
:1010DC00EC93A885A73010F0E6E0E8871885E12F9F
:1010EC001150E03039F00E94B60B0E94250B0E9483
:1010FC00BB0BF5CF0E94C00B0E947E0C0E94AA0B6A
:10110C0010E0E0E0F0E060E87FE30E94BB0B0E949F
:10111C00C00B0E94610D88F00E94B60B0E94150B4B
:10112C000E94BB0B1F5F173238F00E94A50BA7E97A
:10113C00B0E00E94060960C0EACF103029F40E948A
:10114C00AF0BE0E3EC932BC0E12F1150E03039F101
:10115C000E94B60B0E94250B0E941E0BDF01CB01D7
:10116C000E945D090E94BB0B0E94C00B0E941C0DCB
:10117C000E940B0C0E2F0E94AF0B0E94330BF0E061
:10118C000E94B60B0E94AC0D0E94440C0E94CE0C27
:10119C000E94C90B0E94380B0E94AA0BD5CFE88580
:1011AC00E03031F10E94AF0BEEE2EC93E885E150B8
:1011BC00E887EF5FE9F00E94C90B0E94150B0E94B3
:1011CC00AA0BE985FA856B857C850E940B0C0E2F8A
:1011DC000E94AF0B0E94330BF0E00E94C90B0E94DF
:1011EC00AC0D0E94440C0E94380B0E94AA0BDECF5F
:1011FC00AE81BF81E0E0EC93198108812D960895B2
:10120C00BA93AA93E991F991A991B991CD0105905D
:10121C000D920020E1F7FC010895BA93AA93A991CD
:10122C00B991EE27FF276D91662311F03196FBCF14
:10123C000895BA93AA93AA27BB27E991F99105902F
:10124C00002011F01196FBCFFD0108950E942D0E88
:10125C007B816A81F981E88177FB770F67FD71608B
:10126C00972F9E5781F078F0983190F4AA27BB27DE
:10127C00882708948795B795A7959A95D1F7EA236F
:10128C00FB23682305C0E8947727EE27FF27662702
:10129C006F77769508F4606877F9A991B99189917F
:1012AC009991EA17FB076807790797FB08950E9445
:1012BC002D0E0E94190E0E942C090E941E0E11F474
:1012CC0050D108C0EEF74DD1A0E0B0E080E89FE32C
:1012DC000E94770C24960895E0919803F09199035D
:1012EC0060919A0370919B030E94280E0895FA93C3
:1012FC00EA93EEE6F0E0FA93EA93089566277727EF
:10130C000E94280E84E00E940C0828960895E09113
:10131C009C03F0919D0360919E0370919F030E942A
:10132C00280E0895E091A003F091A1036091A2030F
:10133C007091A3030E94280E0895E0E0E983EA83EC
:10134C00EB83EC830895E981FA816B817C810895AC
:10135C000E94A10DE983FA836B837C830895F3DFEC
:10136C00EF5FFF4F6F4F7F4FE983FA836B837C8373
:10137C000895A981BA818B819C81E0E0F0E060E85E
:10138C0070E00E948F0DE983FA836B837C83089550
:10139C000E944A0E00E010E020E030E0E0E008950A
:1013AC00E0938C03F0938D0360938E0370938F0303
:1013BC000895A0918C03B0918D0380918E03909130
:1013CC008F030895E4E6F0E060E070E00E94C40D45
:1013DC0008950E949C0DEA0FFB1F08950E94230E96
:1013EC000895E4EBF2E0FA93EA93A5E1B0E00C94F3
:1013FC00D503A0916003B091610380916203909139
:10140C0063030895E5E0F0E060E070E00E94C40D35
:10141C000895E0937403F0937503609376037093CF
:10142C0077030895E0917403F0917503609176034E
:10143C00709177030895F6DF0E94420CDF01CB0117
:10144C000895EDE4F0EA68EB7EE30E941C0D08952C
:10145C000E940B0C0E940F0E0895E0E0F0E060E299
:10146C0071E40895E0939003F093910360939203D9
:10147C00709393030895A0919003B0919103809180
:10148C009203909193030895A0916803B09169031E
:10149C0080916A0390916B030895E0937C03F09321
:1014AC007D0360937E0370937F030895E0917C032A
:1014BC00F0917D0360917E0370917F030895F6DFB8
:1014CC000E94420CDF01CB010895E0E0F0E06AE7F6
:1014DC0074E40E941C0D0895E0939403F09395031B
:1014EC0060939603709397030895A0919403B09121
:1014FC00950380919603909197030895A0917003A2
:10150C00B091710380917203909173030895E093ED
:10151C008403F09385036093860370938703089587
:10152C00E0918403F09185036091860370918703A9
:10153C000895F6DF0E94420CDF01CB0108951A9347
:10154C000A9300E010E0E0E0089588EE93E0019744
:10155C00F1F70895EAE0F0E060E070E00E94C40D5D
:10156C0008950E94140E0895AE81BF810E949C0DB7
:10157C00AE0FBF1F0E94090E0895A885B9850E9461
:10158C009C0DAE0FBF1F08950E944604A3E0B0E06F
:10159C000C94CE0BA981BA81ED91A983BA831E2F2D
:1015AC00E0300895A0E30E94310488EC90E00197AC
:1015BC00F1F70895ED91FD913196FE93EE93089518
:1015CC00BA93AA932497E0E0E883E9830895AC8169
:1015DC00BD818E819F8141DF0E94CE0CEC83FD8307
:1015EC006E837F830895EC81FD816E817F81AC8554
:1015FC00BD858E859F850E94610D0895AC85BD8546
:10160C008E859F850895EDECFCEC6CEC7DE30E94DF
:10161C00CE0CEC87FD876E877F873F5F08951DDFBB
:10162C000E94CE0C0895EC87FD876E877F87089506
:10163C00A0E0B0E080E09FE30E947E0C0895EDEC0A
:10164C00FCEC6CEC7DE30E94CE0C0895A885B9856A
:10165C001196A887B98711970895E02FE05DEC9358
:10166C00E02F08950E94320E0E94770C0895E885B1
:10167C00F9853196E887F98708952A93AF81B88563
:10168C00E985FA8509950895FE01E65AFF4F019008
:10169C00F081E02D08953497DE01A65ABF4FED93EB
:1016AC00FC930895AF81B885E985FA85099508956D
:1016BC00DE01A65ABF4F0D90BC91A02D0895EA876C
:1016CC00FB876C877D870895DFDFE5CFEA85FB8597
:1016DC006C857D850895EE87FF87AE85BF850E945A
:1016EC0013091E2F0895E4DF14960E94050E089529
:1016FC00E88BF98B6A8B7B8B08950B7FED89EA93D2
:10170C00DE01A95ABF4F0D90BC91A02DFE01E75AE6
:10171C00FF4F0190F081E02D099550300895E88934
:10172C00F9896A897B89AA85BB858C859D850895F5
:10173C00DE011C960E94810D0E94050E0895EE811B
:10174C00FF81FA93EA930895E987FA876B877C8780
:10175C000895AE81BF811196AE83BF831197089512
:10176C00AA81BB818C819D810895EA83FB836C8364
:10177C007D830895EA81FB816C817D81A985BA8581
:10178C008B859C850895A985BA858B859C85089544
:10179C00109639F080ED97E00197F1F7A895119725
:1017AC00C9F7089530976040704009F0705808955B
:1017BC00552342F4503811F4E0FF04C03196691FF0
:1017CC00791F6BF050E8572711F45F93CFC05F3F40
:1017DC0031F0660F000C57956795752F08955F9340
:1017EC0000200AF0CFC0C8C050E8192E1522880F6F
:1017FC00991F9527550F879550E8072E0522660FE0
:10180C00771F7527550F67950895689401C0E89464
:10181C005F93F2DF703818F07F3F08F4A7C056E1F1
:10182C00571BAAF4519558300EF4593030F0EFEFA5
:10183C00FFEF6FEF7FE777F91AC077275523B9F0E1
:10184C00EE0FFF1F661F771F5A95D1F710C0772731
:10185C00583028F0EF2FF62F672F5850F9CF55231B
:10186C0031F076956795F795E7955A95D1F7002065
:10187C000AF454D15F910895689401C0E8943097AC
:10188C0060407040B1F0002426F0772312F40094ED
:10189C0045D1172E7EE1112032F07A95EE0FFF1F05
:1018AC00661F111CF9CFEF2FF62F612D5F938ADF86
:1018BC005F9108954F93AF01FD01DA01AB01BC01BB
:1018CC00CA01402D012C142E4F910895EA0FFB1FD5
:1018DC00681F0895E095F0956095EF5FFF4F6F4F8F
:1018EC0008955F9381DF903871F150E8152604C09C
:1018FC005F937ADF903839F1703821F1572F591BEB
:10190C002BF112F4D7DFFACF583118F0AA27BB27E6
:10191C008827583028F0AB2FB82F88275850F9CF8C
:10192C00552329F08695B795A7955A95D9F7502D3B
:10193C00512572F0CBDF38F46795F795E7957395E1
:10194C0013F420C0B7DF3EDF5F910895D8F7FBCFCB
:10195C00EA1BFB0B680B51F010F40094BBDF662301
:10196C0092F3EE0FFF1F661F7A95CBF7EE27FF273A
:10197C00662777275F910895EFEFFFEF6FE77FEF13
:10198C005F910895EFEFFFEF6FE77FE75F910895A9
:10199C005F932ADF703851F3903841F30124089497
:1019AC00791F23F41CF300203AF3ECCF0F921F9312
:1019BC002F933F934F93112722279927689FA001BC
:1019CC008F9F302D410D591F6B9F300D411D591F9D
:1019DC008E9F27D0BF9F25D06A9F23D0BE9F1DD03E
:1019EC00AF9F1BD0AE9F110D291F391F491F591FC7
:1019FC00E32FF42F652F522F4F913F912F911F9171
:101A0C000F9066232AF0550FEE1FFF1F661F02C0B2
:101A1C0073954BF2CDDE5F910895100D211D391F8A
:101A2C0002C0200D311D491F591F08955F93DCDE44
:101A3C00703821F411200AF49FCFA4CF903809F408
:101A4C0095CF01240894970B1BF4D4F30020F3CF0B
:101A5C00792F1F932F933F934F93112411272227F4
:101A6C0033274427552790E2AE17BF078607410757
:101A7C0030F0AE1BBF0B860B410B089401C0889451
:101A8C00551F221F331F111CAA1FBB1F881F441F69
:101A9C009A9551F7F901612D4F913F912F911F911B
:101AAC00662332F0550FEE1FFF1F661F7A9543F227
:101ABC007FDE5F91089599239AF0772342F0971770
:101ACC0048F029F4AE17BF07860720F031F0989440
:101ADC008894089598940894089518948894089577
:101AEC007723C2F7971798F3A9F7EA17FB0768074C
:101AFC0088F399F3ECCF0024AF0DB01D0895EA0FD5
:101B0C00FB1F681F791F0895EA1BFB0B680B790BF1
:101B1C000895EA27FB27682779270895F0956095A3
:101B2C007095E195FF4F6F4F7F4F0895EE0FFF1F9C
:101B3C00EE0FFF1F0895EE0FFF1F661F771F08950E
:101B4C00FE2FFF0FFF0B6F2F7F2F08956F2F660F48
:101B5C00660B762F0895002498E0AA0F001C0E1A2D
:101B6C0010F40E0E01C0A1609A95B9F7EA2FA02DC2
:101B7C00089539D0F0DF0EF4E19508953F934F931B
:101B8C005F93002411244427552730E2AA0FBB1F72
:101B9C00881F991F001C111C441F551F0E1A1F0A69
:101BAC00460B570B28F40E0E1F1E461F571F01C065
:101BBC00A1603A9559F7FD01BC01D001CA015F91B2
:101BCC004F913F910895E894A7FF02C0A1956894A6
:101BDC00E7FDE195C0DFEA2F0EF4E1950895CEDF25
:101BEC00FD01BC010895E894E7FF02C0E1956894FB
:101BFC00A7FF04C0A19500F8039400FA0895ED9195
:101C0C00FC9111970895ED91FD916D917C91139735
:101C1C000895ED93FD936D937C930895E881F9817C
:101C2C006A817B810895A881B9818A819B810895FD
:101C3C00E883F9836A837B830895A083B1838283CD
:101C4C00938308957A936A93FA93EA9308959A93F7
:101C5C008A93BA93AA930895182E862F612D192E64
:101C6C00972F712D1B2EBF2FF12D1A2EAE2FE12D7C
:101C7C0008953097604070400895EA17FB07680795
:101C8C00790708955A934A933A932A931A930A938D
:101C9C0008955D814C813B812A81198108810895C9
:00000001FF
