:020000000C945E
:100002005C000C9400000C9400000C9400000C9412
:1000120000000C9400000C9400000C9400000C945E
:1000220000000C9400000C9400000C9400000C944E
:1000320000000C948B000C9400000C9400000C94B3
:1000420000000C9400000C9400000C9400000C942E
:10005200000000004B0000000000446F63746F72E8
:10006200206E61646572690025730025342E316645
:10007200672025342E3166672025342E31666720AD
:1000820025342E316667000080C02D4E414E00009F
:1000920001002D4E414E00494E4600000100020073
:1000A2005400060006005600020068038A000100A0
:1000B2006C0392000000F894EE27ECBBF1E0F5BF70
:1000C200E5BFF8E1F1BDE1BD8DE0A2E0BB27ED9314
:1000D2008A95E9F780E098E0A0E6ED930197E9F7C9
:1000E200EEE9F0E085919591009761F0A591B591C7
:1000F20005901590BF01F00105900D920197E1F76F
:10010200FB01F0CFEFE5EDBFE8E0EEBFC0E6D2E0E5
:100112000C94AE00EA93FA93EFB7EA931A930A9318
:100122001BB10CB1E12FEC7189F4E92D9394F0E04D
:10013200E05BFC4F0083E8E1E91509F49924B394EC
:10014200E8E1EB1519F4BB24689420F809911991A0
:10015200E991EFBFF991E9911895E0E0EBBBEABBB9
:10016200E1E0E7BBE0E0E8BBE3E0E4BBE0E0E5BB05
:10017200E6E9E1BBE0E0E2BBEBB9E8E9EAB9E6E8CF
:10018200E0BDE0E0E0BDE3E3E9B94DD275D29DD236
:10019200A0E10E947104ACE5B0E00E946004A8EE08
:1001A200B3E00E94AB0BE0E0E2BDEEE6E5BDE0E0CD
:1001B200E4BDE0E5E3BDE0E0E9BF7894EAD00E9467
:1001C2003D09E2E0EA93A8E3B3E00E940D08E4EF00
:1001D200F2E00E944809E8E3F3E00E944F090E941E
:1001E20058090E94180EE2E0EA93A0E4B3E00E94EC
:1001F2000D08E0E0F3E00E944809E0E4F3E00E9429
:100202004F090E946109E2E0EA93A8E4B3E00E9488
:100212000D08ECE0F3E00E944809E8E4F3E00E94F4
:100222004F090E945809A0918802B09189028091D9
:100232008A0290918B020E945B0CA0919002B09175
:10024200910280919202909193020E945B0CE09342
:100252008402F09385026093860270938702E4EF32
:10026200F2E0FA93EA93E0E0F3E0FA93EA93ACE087
:10027200B3E056D2E8E1F3E0FA93EA93EDE6F0E078
:10028200FA93EA930E943D090E9458090E94180EAF
:100292000E946109E0918402F091850260918602D8
:1002A200709187020E94180E80E10E94D90764961D
:1002B2000E943504E0E0EA93A0E00E942804A8E14D
:1002C200B3E00E945604AAE0B0E00E94AB0B76CFE6
:1002D200FFCF24971A93839A92980E946C0983996C
:1002E200FECF10E0183160F4929A0E9472090E94C7
:1002F20077099298839B02C00E947E091F5FF2CF0A
:10030200929A0E94880992980E94720918810C940C
:10031200EB0424971A93859A94980E946C09859904
:10032200FECF10E0183160F4949A0E9472090E9484
:1003320077099498859B02C00E947E091F5FF2CFC5
:10034200949A0E94880994980E94720918810C94C8
:10035200EB0424971A93B19AC0980E946C09B19940
:10036200FECF10E0183160F4C09A0E9472090E9418
:100372007709C098B19B02C00E947E091F5FF2CF2D
:10038200C09A0E948809C0980E94720918810C9430
:10039200EB040E94350EE0E0E0939402E0939502B4
:1003A200E0939602E0939702E0939802E093990219
:1003B200E0939A02E0939B02E0939C02E0939D02F9
:1003C200E0939E02E0939F0220E030E02230E0E0E2
:1003D2003E0708F000C100E010E00730E0E01E0731
:1003E20008F0AEC00E94970974DF0E94A1090E9422
:1003F200AA090E94B3090E94A109E0917802F09132
:10040200790260917A0270917B020E94BA09A091EE
:100412006402B091650280916602909167020E9427
:10042200C3090E94670D0E94BA090E94CC090E946A
:10043200D209A0E6B2E00E94D909A0EAB2E00E9485
:10044200DF09FF93EF930E94CC090E94E409AF9168
:10045200BF910E94040E0E94EB095BDF0E94F50926
:100462000E94FE090E94B3090E94F509E0917C02F4
:10047200F0917D0260917E0270917F020E94070AD4
:10048200A0916C02B0916D0280916E0290916F0208
:100492000E94100A0E94670D0E94070A0E94190A10
:1004A2000E94D209A8E6B2E00E94D909ACEBB2E000
:1004B2000E94DF09FF93EF930E94190A0E94E40948
:1004C200AF91BF910E94040E0E941F0A42DF0E9458
:1004D200290A0E94320A0E94B3090E94290AE09165
:1004E2008002F091810260918202709183020E94E7
:1004F2003B0AA0917402B0917502809176029091AC
:1005020077020E94440A0E94670D0E943B0A0E94E1
:100512004D0A0E94D209A0E7B2E00E94D909A8EDD3
:10052200B2E00E94DF09FF93EF930E944D0A0E94FE
:10053200E409AF91BF910E94040E0F5F1F4F4DCF90
:10054200E0EAF2E00E94530AE091AC02F091AD02BF
:100552006091AE027091AF020E94590A0E945B0C38
:10056200E0939402F093950260939602709397023F
:10057200ECEBF2E00E94530AE091C802F091C9024A
:100582006091CA027091CB020E94620A0E945B0CC7
:10059200E0939802F093990260939A0270939B02FF
:1005A200E8EDF2E00E94530AE091E402F091E502E4
:1005B2006091E6027091E7020E946B0A0E945B0C56
:1005C200E0939C02F0939D0260939E0270939F02BF
:1005D2002F5F3F4FFBCE0E94590A0E94740AE0939C
:1005E2008802F093890260938A0270938B020E94C0
:1005F200620A0E94740AE0938C02F0938D02609367
:100602008E0270938F020E946B0A0E94740AE0931A
:100612009002F093910260939202709393020E946F
:100622003C0E249608950E947B0A0E94970900E0DE
:1006320010E00A30E0E01E0764F44BDE0E94AA09D3
:100642000E94620D0E94A1090E94800A0F5F1F4F43
:10065200F0CF0E94AA090E94850A0E94A1090E9465
:10066200AA090E94B309E0936402F09365026093C1
:1006720066027093670251C00E947B0A0E94EB09D6
:1006820000E010E00A30E0E01E0764F442DE0E945F
:10069200FE090E94620D0E94F5090E94800A0F5F06
:1006A2001F4FF0CF0E94FE090E94850A0E94F509A1
:1006B2000E94FE090E94B309E0936C02F0936D025E
:1006C20060936E0270936F0228C00E947B0A0E94A0
:1006D2001F0A00E010E00A30E0E01E0764F439DE91
:1006E2000E94320A0E94620D0E94290A0E94800A18
:1006F2000F5F1F4FF0CF0E94320A0E94850A0E94AC
:10070200290A0E94320A0E94B309E0937402F0930C
:100712007502609376027093770209911991089598
:10072200BA93AA93AC81BD810E94A504ACE20E9457
:100732009E04AA81BB810E94A504ACE20E949E0491
:10074200A881B9810E94A50426960895BA93AA9316
:100752000E94350E00E010E020E030E000E010E002
:10076200EC81FD8131970E171F070CF04BC020E082
:1007720030E0F8013196AC81BD810E94280EEA1B5F
:10078200FB0B2E173F07DCF5F9010E948C0A7F93C1
:100792006F93FF93EF93F90131960E948C0AAF9108
:1007A200BF918F919F910E943E0D09F008F424C0E1
:1007B2002297F9010E94950A0E94FA0D0E94E80B05
:1007C200E883F983F901A885B9850E94DF090F0141
:1007D200F90131960E94950A0E94FE0DD0010E94F5
:1007E200040EF90131960E94950AE881F9810E946E
:1007F2009C0A0E94040E22962F5F3F4FBACF0F5FD2
:100802001F4FAECF0E943C0E28960895AA93EBB3D9
:10081200EF70AE2FE881E07FEA2BEBBB8DE08A958B
:10082200F1F7DA9A8DE08A95F1F7DA988DE08A95F8
:10083200F1F70C94A304AA93A881E8DFE881E2957A
:10084200E883A881E3DF85E88A95F1F77BC0AA9364
:10085200E881F0E0E859FC4FE081A981AE0FEBDFBF
:10086200A980D88022960895A2E00E94A10AACE055
:10087200E2DFA1E00E94A10AE0E0DE2EAE2E0895A2
:10088200AA93A881AA3011F0AC1448F0E0E0EA93F0
:10089200D394AD2DDCDFA881AA3009F453C0A39410
:1008A200D89AA881C8DFD8984DC0BA93AA931A9350
:1008B2000E94A70A19F0A12FE3DFFACF50C0BA9322
:1008C200AA931A93E981FA813196E983FA833197DF
:1008D200E4911E2FE03019F0A12FD2DFF3CF3FC0F9
:1008E200AA93EAB3E06FEABBD29AD09AD19ADA9885
:1008F200D898D998C880E881E058E0936A03E881E3
:10090200E054E0936B03A4E1B0E00E94AB0B0E94C1
:10091200AF0A0E94AF0A0E94AF0AA0E277DF88EC1A
:1009220090E00197F1F7A8E286DFA4E084DFA5E872
:1009320082DFA6E080DF98DF05C0AA935D9BFECF31
:10094200E881ECB921960895BA93AA931A930E946A
:10095200A70A19F0A12FF1DFFACFAAE0EEDF188182
:1009620023960895BA93AA931A930A93AA81BB81F4
:1009720012960E94FA0D309729F1AA81BB81149632
:100982000E94FA0D8F01309761F00230E0E01E07FD
:1009920080F0F80131978F01AA81BB811496ED9303
:1009A200FC93AA81BB8112960E94B70A3197AC814F
:1009B200A083AA81BB810E94FA0DFF2312F00E943C
:1009C200B70A06C0AA81BB81EFEFFFEFED93FC935C
:1009D20019810881259608950E94BD0AE0E8EA83FC
:1009E200EFE3EB830E94350EEE85FF85EF3FAFEF1D
:1009F200FA0749F4E885F985FA93EA93ACE8B0E09E
:100A02000E94CF08B7C0EF3FAFE7FA0749F4E88585
:100A1200F985FA93EA93ADE8B0E00E94CF08AAC044
:100A2200AB85A73010F0E6E0EB871B85E12F115074
:100A3200E03019F00E94C40AF9CFEC85FD856E857D
:100A42007F850E942F0E21F430E00E94C40A2DC03F
:100A52003B850E94D30A09F008F40BC00E94C40A25
:100A62000E94D30A28F00E94DE0A0E94E30AF8CF0D
:100A72000DC00E94D30A40F40E94DE0A0E94EF0ACF
:100A82000E94F60A3150F5CF0E94C40AEC85FD851A
:100A92006E857F850E94FB0A0E94F60A0E94D30A95
:100AA20020F00E94DE0A0E94E30A10E0EB85E117C3
:100AB200A8F1AC81BD818E819F810E94020B0E94B0
:100AC200FB0ADF01CB010E942609EC83FD836E83C2
:100AD2007F830E94DE0A0E94F90C0E94E80B0E2F0F
:100AE2000E94090B0E94100BFF27662777270E949E
:100AF200210CAC81BD818E819F810E94AB0C0E9432
:100B0200DE0A0E94150B0E94F60AE12F1F5FE030F9
:100B120069F60E94090BEEE2EC93C8CF0E941A0B11
:100B22003197AA85A08330302CF43195A885B985F8
:100B3200EDE203C0A885B985EBE2EC930E941A0BA3
:100B42000E941A0B3197BF01A32FEAE00E949C0D6D
:100B5200E05DDB01EC930E941A0B3197BF01A32FDA
:100B6200EAE00E94CB0DE05DDB01EC93A885B9853C
:100B7200E0E0EC930E943C0E60960895BA93AA932B
:100B8200EF9761970E94330E10E0FE01E85AFF4F83
:100B92000190F081E02DE887F987FE01EA5AFF4FC4
:100BA2000190F081E02DEE83FF83AE81BF81E0E012
:100BB200F0E0ED93FC93DE01A45ABF4F0E94B70A06
:100BC2003197E4912E2FE03009F4E9C1E12FE030B2
:100BD20039F4253211F411E002C00E94200BDEC16B
:100BE200E130C1F4253219F40E94200BD6C112E083
:100BF200E0E0ED8B00E02D3211F401E0CFC12B32A9
:100C020019F4EBE2ED8BCAC1203219F4E0E2ED8B6C
:100C1200C5C102C0E23039F450E013E0203311F4D0
:100C22000068BCC102C0E33091F4203310F02A33D3
:100C320008F007C0AAE05A9F502DE22FE0535E0F42
:100C4200ADC140E02E3211F414E0A8C10FC0E4306F
:100C520099F4203310F02A3308F008C00062AAE0A9
:100C62004A9F402DE22FE0534E0F98C12C3619F4C3
:100C7200026015E093C103C0E53009F08FC1E22F95
:100C8200E33659F40E94270B0E942E0B0E94270B79
:100C9200A481AA930E94350B80C1E53411F0E53698
:100CA20009F403C0E63609F048C0FE017696EE87E5
:100CB200FF870E943B0B0E94FE0D0E94420B0E9486
:100CC200470BAD85AA2332F0AD89AB3259F0A03281
:100CD20081F017C00E94490B0E94B50B0E94420B83
:100CE200EDE2ED8B07FF05C0ED89EA930E94350B1B
:100CF20008C0EE85FF853196EE87FF873197AD8973
:100D0200A08305FF46E0263651F40E94490B0E945B
:100D1200180E4A93AB89BC890E940D0809C00E9433
:100D2200490B0E94180E4A932A93AC89BD8954DE5E
:100D3200FE0176960E944E0B1EC0E33739F40E94E4
:100D4200470B0E94560B0E944E0B0EC0E037C1F4B7
:100D52000E94470B0E94560BEE87FF87AE85BF8528
:100D62000E94E8081E2F08600F77403011F04117EB
:100D720008F001C0142F40E0E0E0EC8B30E06DC0E1
:100D8200E43611F0E93611F4046002C0E537A1F44B
:100D9200EAE0EC8B01FF08C0E0E0FAEC6AE97BE3F1
:100DA2000E945B0B1AE022C0E0E1F7E260E070E033
:100DB2000E945B0B15E01AC0E83511F4086003C00D
:100DC200E83709F0EAC0E0E1EC8B01FF08C0E0E09F
:100DD200F0E060E070E10E945B0B18E007C0E0E029
:100DE200F0E160E070E00E945B0B14E0403011F033
:100DF2000F7701C041E001FF08C00E94470B0E942B
:100E02003B0B14960E94FE0D0FC002FF07C00E940A
:100E1200470B0E94560B0E94890D06C00E94470B89
:100E22000E94560B66277727EA87FB876C877D87A8
:100E320002FF12C0AD85AA2342F40E94490B0E9410
:100E4200710D0E94420BEDE2ED8BED89E03019F05D
:100E52001F5F4F5F01C00B7F342F00FD14C01517B9
:100E620010F4351708F00FC007FF08C002FF04C0D6
:100E72000B7F2D89115001C020E301C020E20E94A6
:100E8200200B5150ECCF141790F4006102FF06C002
:100E92000E94600B09F0515011504150E0E3EA9377
:100EA2000E94350B503009F051504150ECCF312F98
:100EB200EC89E030B9F43030A1F003FF06C0EE85D2
:100EC200FF852591EE87FF8705C0AE85BF852D91F1
:100ED200AE87BF870E94200B503009F0515031502D
:100EE200EACF51C00E94720B0E94A10D2E2F2A3010
:100EF20030F003FF02C0295C01C0295A01C0205D05
:100F020004FD21C0213360F4A889B9898A899B89AB
:100F1200A130E0E0BE07E0E08E07E0E09E0709F4C2
:100F22000BC0431740F4531710F000FF01C010C06C
:100F320020E207FF08C020E3006102FF04C00E9414
:100F4200600B09F051500E94200B503009F05150B3
:100F520031500E94720B0E94D70D0E94420BEC8905
:100F6200A889B9898A899B89FF27662777270E94E2
:100F7200A10D0E945B0BE889F9896A897B890E942D
:100F82002F0E09F0AFCF00FF08C0503031F05150A2
:100F9200E0E2EA930E94350BF8CF10E00CCEAE816E
:100FA200BF810E94FA0D0E943A0EEF966F96089545
:100FB200FF92F82E26970E94350E0E947B0B3097E7
:100FC20019F4EFEFFFEF23C0DE0116960E945E0DCB
:100FD2008D010E947B0BEE83FF83E0E0E887E987C7
:100FE200DE011A960E945E0D0E94FA0DFA93EA93B0
:100FF2001A930A93E3EBF4E0FA93EA93DE011A966A
:10100200BDDD9F01AE81BF81E0E0EC93F9010E945A
:101012003C0E2A96FF9008950E94BD0AE0E0EA8302
:10102200EFE3EB831A930A93EB85FC85EF3FAFEF77
:10103200FA0739F40E94820BA4E9B0E00E94CF08BB
:10104200A9C0EF3FAFE7FA0739F40E94820BA5E986
:10105200B0E00E94CF089EC0AC85AA2362F4E98565
:10106200FA856B857C850E94B50B0E94870B0E94D6
:101072008C0BEDE2EC93A885A73010F0E6E0E88750
:101082001885E12F1150E03039F00E94930B0E9435
:10109200020B0E94980BF5CF0E949D0B0E945B0CE5
:1010A2000E94870B10E0E0E0F0E060E87FE30E943E
:1010B200980B0E949D0B0E943E0D88F00E94930B9C
:1010C2000E94EF0A0E94980B1F5F173238F00E94AD
:1010D200820BA9E9B0E00E94CF085CC0EACF1030D1
:1010E20029F40E948C0BE0E3EC9329C0E12F11500C
:1010F200E03029F10E94930B0E94020B0E94FB0A2E
:10110200DF01CB010E9426090E94980B0E949D0BD1
:101112000E94F90C0E94E80B0E2F0E948C0B0E9479
:10112200100BF0E00E94930B0E949C0A0E94AB0CF1
:101132000E94A60B0E94150B0E94870BD7CFE88551
:10114200E03021F10E948C0BEEE2EC93E885E15055
:10115200E887EF5FD9F00E94A60B0E94EF0A0E9477
:10116200870BE985FA856B857C850E94E80B0E2F3B
:101172000E948C0B0E94100BF0E00E94A60B0E94B2
:101182009C0A0E94150B0E94870BE0CFAE81BF81A3
:10119200E0E0EC93198108812D960895BA93AA9301
:1011A200E991F991A991B991CD0105900D92002093
:1011B200E1F7FC010895BA93AA93A991B991EE2798
:1011C200FF276D91662311F03196FBCF0895BA93F4
:1011D200AA93AA27BB27E991F9910590002011F063
:1011E2001196FBCFFD0108950E941D0E7B816A813D
:1011F200F981E88177FB770F67FD7160972F9E5722
:1012020081F078F0983190F4AA27BB2788270894B8
:101212008795B795A7959A95D1F7EA23FB2368237B
:1012220005C0E8947727EE27FF2766276F77769524
:1012320008F4606877F9A991B99189919991EA17AF
:10124200FB076807790797FB08950E941D0E0E940D
:101252000E0E0E94F5080E94130E19F40E94090E48
:1012620009C0E6F70E94090EA0E0B0E080E89FE323
:101272000E94540C24960895E0918802F09189020C
:1012820060918A0270918B020E94180E0895FA935F
:10129200EA93EAE6F0E0FA93EA930895662777275D
:1012A2000E94180E84E00E94D90728960895E091C2
:1012B2008C02F0918D0260918E0270918F020895DE
:1012C200E0919002F09191026091920270919302EA
:1012D2000E94180E0895E0E0E983EA83EB83EC8331
:1012E2000895E981FA816B817C8108950E947E0DC7
:1012F200E983FA836B837C830895F3DFEF5FFF4F0B
:101302006F4F7F4FE983FA836B837C830895A981B2
:10131200BA818B819C81E0E0F0E060E870E00E949D
:101322006C0DE983FA836B837C830895E0E0E0939C
:101332007802E0937902E0937A02E0937B020895C7
:10134200E0937802F093790260937A0270937B02C1
:101352000895A0917802B091790280917A029091D9
:101362007B020895E4E6F0E060E070E00E94C60DC2
:101372000895E0936002F0936102609362027093B9
:1013820063020895E0916002F0916102609162024D
:10139200709163020895F6DF0E94210CDF01CB01F8
:1013A2000895EDE4F0EA68EB7EE30E94F90C0895FB
:1013B2000E94EA0B0E94040EF80108950E94790D22
:1013C200EA0FFB1F0895E0E0F0E060EF71E40E9495
:1013D200F90C0895E0E0E0937C02E0937D02E09353
:1013E2007E02E0937F020895E0937C02F0937D02F7
:1013F20060937E0270937F020895A0917C02B09167
:101402007D0280917E0290917F020895E0936802AE
:10141200F093690260936A0270936B020895E091FF
:101422006802F091690260916A0270916B020895FC
:10143200F6DF0E94210CDF01CB010895E0E0E0938A
:101442008002E0938102E0938202E0938302089596
:10145200E0938002F0938102609382027093830290
:101462000895A0918002B0918102809182029091B0
:1014720083020895E0937002F09371026093720206
:10148200709373020895E0917002F091710260917D
:101492007202709173020895F6DF0E94210CDF013F
:1014A200CB010895FA93EA93A7E0B0E00C94A70366
:1014B200A0919402B0919502809196029091970228
:1014C2000895A0919802B091990280919A02909108
:1014D2009B020895A0919C02B0919D0280919E0270
:1014E20090919F020895E0E0F0E060E070E40E94D5
:1014F200F90C08951A930A9300E010E0089588EE1B
:1015020093E00197F1F70895EAE0F0E060E070E01F
:101512000E94C60D0895AE81BF810E94790DAE0F63
:10152200BF1F0E94FE0D0895A885B9850E94790DFE
:10153200AE0FBF1F08950E94890D0E94210C0895CD
:101542000E941C04A3E0B0E00C94AB0BA981BA8109
:10155200ED91A983BA831E2FE0300895A0E30E9483
:10156200070488EC90E00197F1F70895ED91FD9161
:101572003196FE93EE930895BA93AA932497E0E0EE
:10158200E883E9830895AC81BD818E819F81E0E08B
:10159200F0E060E271E40E94AB0CEC83FD836E83A9
:1015A2007F830895EC81FD816E817F81AC85BD854D
:1015B2008E859F850E943E0D0895AC85BD858E85E2
:1015C2009F850895EDECFCEC6CEC7DE30E94AB0C86
:1015D200EC87FD876E877F873F5F0895E0E0F0E04C
:1015E20060E271E40E94AB0C0895EC87FD876E8780
:1015F2007F870895A0E0B0E080E09FE30E945B0C4B
:101602000895EDECFCEC6CEC7DE30E94AB0C0895CC
:10161200A885B9851196A887B98711970895E02FF3
:10162200E05DEC93E02F08950E94220E0E94540C7C
:101632000895E885F9853196E887F98708952A9310
:10164200AF81B885E985FA8509950895FE01E65AC4
:10165200FF4F0190F081E02D08953497DE01A65AE4
:10166200BF4FED93FC930895AF81B885E985FA8564
:1016720009950895DE01A65ABF4F0D90BC91A02D89
:101682000895EA87FB876C877D870895DFDFE5CFC2
:10169200EA85FB856C857D850895EE87FF87AE859B
:1016A200BF850E94DC081E2F0895E4DF14960E9475
:1016B200FA0D0895E88BF98B6A8B7B8B08950B7F6B
:1016C200ED89EA93DE01A95ABF4F0D90BC91A02D7E
:1016D200FE01E75AFF4F0190F081E02D099550304D
:1016E2000895E889F9896A897B89AA85BB858C85F1
:1016F2009D850895DE011C960E945E0D0E94FA0DE2
:101702000895EE81FF81FA93EA930895E987FA87B3
:101712006B877C870895AE81BF811196AE83BF83AC
:1017220011970895AA81BB818C819D810895EA83D6
:10173200FB836C837D830895EA81FB816C817D81CB
:10174200A985BA858B859C850895A985BA858B85DF
:101752009C850895109639F080ED97E00197F1F796
:10176200A8951197C9F7089530976040704009F025
:1017720070580895552342F4503811F4E0FF04C024
:101782003196691F791F6BF050E8572711F45F9368
:10179200CFC05F3F31F0660F000C57956795752FEC
:1017A20008955F9300200AF0CFC0C8C050E8192EF8
:1017B2001522880F991F9527550F879550E8072EF8
:1017C2000522660F771F7527550F67950895689450
:1017D20001C0E8945F93F2DF703818F07F3F08F49D
:1017E200A7C056E1571BAAF4519558300EF4593050
:1017F20030F0EFEFFFEF6FEF7FE777F91AC077274F
:101802005523B9F0EE0FFF1F661F771F5A95D1F7C8
:1018120010C07727583028F0EF2FF62F672F585037
:10182200F9CF552331F076956795F795E7955A9557
:10183200D1F700200AF454D15F910895689401C051
:10184200E894309760407040B1F0002426F077238E
:1018520012F4009445D1172E7EE1112032F07A95D0
:10186200EE0FFF1F661F111CF9CFEF2FF62F612D10
:101872005F938ADF5F9108954F93AF01FD01DA0113
:10188200AB01BC01CA01402D012C142E4F910895C9
:10189200EA0FFB1F681F0895E095F0956095EF5FD2
:1018A200FF4F6F4F08955F9381DF903871F150E8D9
:1018B200152604C05F937ADF903839F1703821F130
:1018C200572F591B2BF112F4D7DFFACF583118F0EA
:1018D200AA27BB278827583028F0AB2FB82F882794
:1018E2005850F9CF552329F08695B795A7955A9563
:1018F200D9F7502D512572F0CBDF38F46795F79563
:10190200E795739513F420C0B7DF3EDF5F9108952A
:10191200D8F7FBCFEA1BFB0B680B51F010F40094D5
:10192200BBDF662392F3EE0FFF1F661F7A95CBF79C
:10193200EE27FF27662777275F910895EFEFFFEFE6
:101942006FE77FEF5F910895EFEFFFEF6FE77FE7BC
:101952005F9108955F932ADF703851F3903841F315
:1019620001240894791F23F41CF300203AF3ECCFEE
:101972000F921F932F933F934F931127222799275B
:10198200689FA0018F9F302D410D591F6B9F300D15
:10199200411D591F8E9F27D0BF9F25D06A9F23D0FC
:1019A200BE9F1DD0AF9F1BD0AE9F110D291F391FA7
:1019B200491F591FE32FF42F652F522F4F913F914B
:1019C2002F911F910F9066232AF0550FEE1FFF1FD4
:1019D200661F02C073954BF2CDDE5F910895100D24
:1019E200211D391F02C0200D311D491F591F0895A5
:1019F2005F93DCDE703821F411200AF49FCFA4CF6C
:101A0200903809F495CF01240894970B1BF4D4F372
:101A12000020F3CF792F1F932F933F934F931124DD
:101A22001127222733274427552790E2AE17BF07F5
:101A32008607410730F0AE1BBF0B860B410B0894A3
:101A420001C08894551F221F331F111CAA1FBB1FE0
:101A5200881F441F9A9551F7F901612D4F913F91CB
:101A62002F911F91662332F0550FEE1FFF1F661F45
:101A72007A9543F27FDE5F91089599239AF0772356
:101A820042F0971748F029F4AE17BF07860720F0F7
:101A920031F098948894089598940894089518942D
:101AA200889408957723C2F7971798F3A9F7EA174E
:101AB200FB07680788F399F3ECCF0024AF0DB01D44
:101AC2000895EA0FFB1F681F791F0895EA1BFB0B9D
:101AD200680B790B0895EA27FB2768277927089571
:101AE200F09560957095E195FF4F6F4F7F4F089588
:101AF200EE0FFF1FEE0FFF1F0895EE0FFF1F661F71
:101B0200771F0895FE2FFF0FFF0B6F2F7F2F089572
:101B12006F2F660F660B762F0895002498E0AA0FA8
:101B2200001C0E1A10F40E0E01C0A1609A95B9F7AE
:101B3200EA2FA02D08953ED0F0DF0EF4E19508952E
:101B42003F934F935F93002411244427552730E29B
:101B5200AA0FBB1F881F991F001C111C441F551F71
:101B62000E1A1F0A460B570B28F40E0E1F1E461F95
:101B7200571F01C0A1603A9559F7FD01BC01D00180
:101B8200CA015F914F913F91089520D0D9DF0EF4A1
:101B9200A7DF0895E894A7FF02C0A1956894E7FD26
:101BA200E195BBDFEA2F0EF4E1950895C9DFFD014F
:101BB200BC010895E894E7FF02C0E1956894A7FF8D
:101BC20004C0A19500F8039400FA0895E89477FF01
:101BD20002C086DF689497FF0BC00024A095B095E1
:101BE200809590951196801D901D00F8039400FA3F
:101BF2000895ED91FC9111970895ED91FD916D91EC
:101C02007C9113970895ED93FD936D937C930895C2
:101C1200E881F9816A817B810895A881B9818A81ED
:101C22009B810895E883F9836A837B8308957A937D
:101C32006A93FA93EA9308959A938A93BA93AA932A
:101C42000895182E862F612D192E972F712D1B2E78
:101C5200BF2FF12D1A2EAE2FE12D0895309760403F
:101C6200704008955A934A933A932A931A930A9387
:101C720008955D814C813B812A81198108810895F3
:00000001FF
