:0A0000000C9459000C9400000C94BD
:10000A0000000C9400000C9400000C9488000C94DE
:10001A0000000C9400000C9400000C9400000C9456
:10002A0000000C9400000C9400000C949E000C94A8
:10003A0000000C9400000C9400000C9400000C9436
:10004A0000000C9400000C94000000004B0000001B
:10005A000000446F63746F72206E61646572690098
:10006A002573002025342E3166672025342E31660B
:10007A00672025342E316667000080C02D4E414E20
:10008A00000001002D4E414E00494E46000001007D
:10009A00020054000600060056000200EC0284002A
:1000AA000100F0028C000000F894EE27ECBBF1E0AE
:1000BA00F5BFE5BFF8E1F1BDE1BD8DE0A2E0BB27E8
:1000CA00ED938A95E9F780E098E0A0E6ED93019731
:1000DA00E9F7E8E9F0E085919591009761F0A5913B
:1000EA00B59105901590BF01F00105900D92019709
:1000FA00E1F7FB01F0CFEFE5EDBFE8E0EEBFC0E6C8
:10010A00D2E00C94C100EA93FA93EFB7EA93E2EBD8
:10011A00E4BD6414750409F4A998F20131962F011B
:10012A00E4E6F0E04E165F0618F044245524A99A36
:10013A001EC0EA93FA93EFB7EA931A930A931BB194
:10014A000CB1E12FEC7189F4E92D9394F0E0EC52B3
:10015A00FD4F0083E8E1E91509F49924B394E8E135
:10016A00EB1519F4BB24689420F809911991E991C7
:10017A00EFBFF991E9911895E0E0EBBBEABBE1E04A
:10018A00E7BBE0E0E8BBE3E0E4BBE0E0E5BBE6E1D7
:10019A00E1BBE0E0E2BBEBB9E8E9EAB9E6E8E0BDD9
:1001AA00E0E0E0BDE3E3E9B9E1D109D231D2A0E16F
:1001BA000E94A203ACE5B0E00E949103A8EEB3E06E
:1001CA000E94770AE0E0E2BDE7E0E5BDE2EBE4BDCC
:1001DA00E0E0E3BDE0E4E9BF78942297D4D023D1EC
:1001EA0072D10E947208A0918802B091890280910E
:1001FA008A0290918B020E94270BA0919002B091E3
:10020A00910280919202909193020E94270BE093AF
:10021A008402F093850260938602709387020E949B
:10022A00C70CE2E0EA93AAECB2E00E943E07E0EAD9
:10023A00F2E0FA93EA93EAE6F0E0FA93EA93EAEC58
:10024A00F2E0662777270E94C70C84E00E940A071B
:10025A002896A0EAB2E00E94D603ECEAF2E0FA930A
:10026A00EA93EDE6F0E0FA93EA93E0918802F091DE
:10027A00890260918A0270918B020E94C70C0E94C7
:10028A0072080E94C70CE0919002F091910260916D
:10029A009202709193020E94C70C8CE00E940A0796
:1002AA0060960E946603E0E0EA93A0E00E94590388
:1002BA00ACEAB2E00E948703AAE0B0E00E94770AA3
:1002CA0022968BCFFFCF24971A93839A92980E94F3
:1002DA007B088399FECF10E0183160F4929A0E944D
:1002EA0081080E9486089298839B02C00E948D080A
:1002FA001F5FF2CF929A0E94970892980E948108F3
:10030A0018810C941C0424971A93859A94980E9435
:10031A007B088599FECF10E0183160F4949A0E9408
:10032A0081080E9486089498859B02C00E948D08C5
:10033A001F5FF2CF949A0E94970894980E948108AE
:10034A0018810C941C0424971A93B19AC0980E949D
:10035A007B08B199FECF10E0183160F4C09A0E9470
:10036A0081080E948608C098B19B02C00E948D082D
:10037A001F5FF2CFC09A0E949708C0980E94810816
:10038A0018810C941C040E94E90CE0E0E0939402AA
:10039A00E0939502E0939602E09397020E94A608E2
:1003AA0092DF0E94B0080E94B9080E94C2080E9407
:1003BA00B008E0916402F091650260916602709162
:1003CA0067020E94B9080E94E20C60F5E091780287
:1003DA00F091790260917A0270917B020E94C908B9
:1003EA00A0916402B09165028091660290916702C1
:1003FA000E94D2080E94330C0E94C9080E94DB089E
:10040A000E94E108A0E6B2E00E94E8080E94DB0828
:10041A000E94ED08E0938802F093890260938A02B1
:10042A0070938B029FC00E94E90CE0E0E09398026F
:10043A00E0939902E0939A02E0939B020E94F408E7
:10044A0062DF0E94FE080E9407090E94C2080E94F9
:10045A00FE08E0916C02F0916D0260916E0270915B
:10046A006F020E9407090E94E20C60F5E0917C028B
:10047A00F0917D0260917E0270917F020E941009C4
:10048A00A0916C02B0916D0280916E0290916F0200
:10049A000E9419090E94330C0E9410090E94220925
:1004AA000E94E108A8E6B2E00E94E8080E94220938
:1004BA000E94ED08E0938C02F0938D0260938E0205
:1004CA0070938F024FC00E94E90CE0E0E0939C0217
:1004DA00E0939D02E0939E02E0939F020E94280906
:1004EA0032DF0E9432090E943B090E94C2080E9420
:1004FA003209E0917402F09175026091760270916E
:10050A0077020E943B090E94E20C60F5E0918002AA
:10051A00F091810260918202709183020E944409E3
:10052A00A0917402B091750280917602909177023F
:10053A000E944D090E94330C0E9444090E945609E8
:10054A000E94E108A0E7B2E00E94E8080E9456096A
:10055A000E94ED08E0939002F09391026093920258
:10056A00709393020E94F00C249608950E945C09ED
:10057A000E94A60800E010E00A30E0E01E0764F4DA
:10058A00A2DE0E94B9080E942E0C0E94B0080E94A6
:10059A0061090F5F1F4FF0CF0E94B9080E946609D8
:1005AA000E94B0080E94B9080E94C208E09364023F
:1005BA00F0936502609366027093670251C00E94CD
:1005CA005C090E94F40800E010E00A30E0E01E072F
:1005DA0064F499DE0E9407090E942E0C0E94FE080C
:1005EA000E9461090F5F1F4FF0CF0E9407090E9406
:1005FA0066090E94FE080E9407090E94C208E09349
:10060A006C02F0936D0260936E0270936F0228C0C1
:10061A000E945C090E94280900E010E00A30E0E02C
:10062A001E0764F490DE0E943B090E942E0C0E9471
:10063A0032090E9461090F5F1F4FF0CF0E943B09E8
:10064A000E9466090E9432090E943B090E94C20860
:10065A00E0937402F09375026093760270937702C6
:10066A00099119910895AA93EBB3EF70AE2FE8811F
:10067A00E07FEA2BEBBB8DE08A95F1F7DA9A8DE001
:10068A008A95F1F7DA988DE08A95F1F70C94D403FC
:10069A00AA93A881E8DFE881E295E883A881E3DFED
:1006AA0085E88A95F1F77BC0AA93E881F0E0E451E6
:1006BA00FD4FE081A981AE0FEBDFA980D880229699
:1006CA000895A2E00E946D09ACE0E2DFA1E00E9479
:1006DA006D09E0E0DE2EAE2E0895AA93A881AA3015
:1006EA0011F0AC1448F0E0E0EA93D394AD2DDCDFCE
:1006FA00A881AA3009F453C0A394D89AA881C8DF64
:10070A00D8984DC0BA93AA931A930E94730919F004
:10071A00A12FE3DFFACF50C0BA93AA931A93E981C3
:10072A00FA813196E983FA833197E4911E2FE030FA
:10073A0019F0A12FD2DFF3CF3FC0AA93EAB3E06F3B
:10074A00EABBD29AD09AD19ADA98D898D998C8801E
:10075A00E881E058E093EE02E881E054E093EF028A
:10076A00A4E1B0E00E94770A0E947B090E947B09FB
:10077A000E947B09A0E277DF88EC90E00197F1F70D
:10078A00A8E286DFA4E084DFA5E882DFA6E080DFB6
:10079A0098DF05C0AA935D9BFECFE881ECB921964C
:1007AA000895BA93AA931A930E94730919F0A12F74
:1007BA00F1DFFACFAAE0EEDF188123960895BA9303
:1007CA00AA931A930A93AA81BB8112960E94A90C32
:1007DA00309729F1AA81BB8114960E94A90C8F0136
:1007EA00309761F00230E0E01E0780F0F80131979F
:1007FA008F01AA81BB811496ED93FC93AA81BB81D8
:10080A0012960E9483093197AC81A083AA81BB8189
:10081A000E94A90CFF2312F00E94830906C0AA8134
:10082A00BB81EFEFFFEFED93FC93198108812596C9
:10083A0008950E948909E0E8EA83EFE3EB830E94C6
:10084A00E90CEE85FF85EF3FAFEFFA0749F4E8853B
:10085A00F985FA93EA93A6E8B0E00E940408B7C0C3
:10086A00EF3FAFE7FA0749F4E885F985FA93EA9387
:10087A00A7E8B0E00E940408AAC0AB85A73010F030
:10088A00E6E0EB871B85E12F1150E03019F00E945A
:10089A009009F9CFEC85FD856E857F850E94DE0C77
:1008AA0021F430E00E9490092DC03B850E949F09E7
:1008BA0009F008F40BC00E9490090E949F0928F0D1
:1008CA000E94AA090E94AF09F8CF0DC00E949F0991
:1008DA0040F40E94AA090E94BB090E94C209315031
:1008EA00F5CF0E949009EC85FD856E857F850E9473
:1008FA00C7090E94C2090E949F0920F00E94AA0902
:10090A000E94AF0910E0EB85E117A8F1AC81BD8127
:10091A008E819F810E94CE090E94C709DF01CB0107
:10092A000E945B08EC83FD836E837F830E94AA0981
:10093A000E94C50B0E94B40A0E2F0E94D5090E947C
:10094A00DC09FF27662777270E94ED0AAC81BD8163
:10095A008E819F810E94770B0E94AA090E94E10959
:10096A000E94C209E12F1F5FE03069F60E94D50993
:10097A00EEE2EC93C8CF0E94E6093197AA85A083DC
:10098A0030302CF43195A885B985EDE203C0A885ED
:10099A00B985EBE2EC930E94E6090E94E6093197D9
:1009AA00BF01A32FEAE00E94630CE05DDB01EC9338
:1009BA000E94E6093197BF01A32FEAE00E948D0C3D
:1009CA00E05DDB01EC93A885B985E0E0EC930E9439
:1009DA00F00C60960895BA93AA93EF9761970E94D4
:1009EA00E70C10E0FE01E85AFF4F0190F081E02D7C
:1009FA00E887F987FE01EA5AFF4F0190F081E02D5E
:100A0A00EE83FF83AE81BF81E0E0F0E0ED93FC93DB
:100A1A00DE01A45ABF4F0E9483093197E4912E2F19
:100A2A00E03009F4E9C1E12FE03039F4253211F45C
:100A3A0011E002C00E94EC09DEC1E130C1F42532A6
:100A4A0019F40E94EC09D6C112E0E0E0ED8B00E057
:100A5A002D3211F401E0CFC12B3219F4EBE2ED8B08
:100A6A00CAC1203219F4E0E2ED8BC5C102C0E230FE
:100A7A0039F450E013E0203311F40068BCC102C01D
:100A8A00E33091F4203310F02A3308F007C0AAE0CB
:100A9A005A9F502DE22FE0535E0FADC140E02E3237
:100AAA0011F414E0A8C10FC0E43099F4203310F017
:100ABA002A3308F008C00062AAE04A9F402DE22FBC
:100ACA00E0534E0F98C12C3619F4026015E093C119
:100ADA0003C0E53009F08FC1E22FE33659F40E94D2
:100AEA00F3090E94FA090E94F309A481AA930E94B9
:100AFA00010A80C1E53411F0E53609F403C0E6368F
:100B0A0009F048C0FE017696EE87FF870E94070A21
:100B1A000E94AD0C0E940E0A0E94130AAD85AA23F8
:100B2A0032F0AD89AB3259F0A03281F017C00E9481
:100B3A00150A0E94810A0E940E0AEDE2ED8B07FF58
:100B4A0005C0ED89EA930E94010A08C0EE85FF8577
:100B5A003196EE87FF873197AD89A08305FF46E07E
:100B6A00263651F40E94150A0E94C70C4A93AB8993
:100B7A00BC890E943E0709C00E94150A0E94C70C40
:100B8A004A932A93AC89BD8954DEFE0176960E9467
:100B9A001A0A1EC0E33739F40E94130A0E94220A75
:100BAA000E941A0A0EC0E037C1F40E94130A0E947A
:100BBA00220AEE87FF87AE85BF850E941D081E2F79
:100BCA0008600F77403011F0411708F001C0142F68
:100BDA0040E0E0E0EC8B30E06DC0E43611F0E9363D
:100BEA0011F4046002C0E537A1F4EAE0EC8B01FFDE
:100BFA0008C0E0E0FAEC6AE97BE30E94270A1AE0FF
:100C0A0022C0E0E1F7E260E070E00E94270A15E006
:100C1A001AC0E83511F4086003C0E83709F0EAC0E1
:100C2A00E0E1EC8B01FF08C0E0E0F0E060E070E199
:100C3A000E94270A18E007C0E0E0F0E160E070E0F7
:100C4A000E94270A14E0403011F00F7701C041E0FA
:100C5A0001FF08C00E94130A0E94070A14960E9404
:100C6A00AD0C0FC002FF07C00E94130A0E94220A9D
:100C7A000E94500C06C00E94130A0E94220A66278C
:100C8A007727EA87FB876C877D8702FF12C0AD85CD
:100C9A00AA2342F40E94150A0E943D0C0E940E0AE1
:100CAA00EDE2ED8BED89E03019F01F5F4F5F01C077
:100CBA000B7F342F00FD14C0151710F4351708F0F8
:100CCA000FC007FF08C002FF04C00B7F2D89115017
:100CDA0001C020E301C020E20E94EC095150ECCF90
:100CEA00141790F4006102FF06C00E942C0A09F052
:100CFA00515011504150E0E3EA930E94010A5030EA
:100D0A0009F051504150ECCF312FEC89E030B9F461
:100D1A003030A1F003FF06C0EE85FF852591EE87EE
:100D2A00FF8705C0AE85BF852D91AE87BF870E941C
:100D3A00EC09503009F051503150EACF51C00E94AD
:100D4A003E0A0E94680C2E2F2A3030F003FF02C0A0
:100D5A00295C01C0295A01C0205D04FD21C021334C
:100D6A0060F4A889B9898A899B89A130E0E0BE0725
:100D7A00E0E08E07E0E09E0709F40BC0431740F459
:100D8A00531710F000FF01C010C020E207FF08C08F
:100D9A0020E3006102FF04C00E942C0A09F05150AE
:100DAA000E94EC09503009F0515031500E943E0A1D
:100DBA000E94990C0E940E0AEC89A889B9898A892D
:100DCA009B89FF27662777270E94680C0E94270ABB
:100DDA00E889F9896A897B890E94DE0C09F0AFCF1C
:100DEA0000FF08C0503031F05150E0E2EA930E940F
:100DFA00010AF8CF10E00CCEAE81BF810E94A90C87
:100E0A000E94EE0CEF966F960895FF92F82E2697A1
:100E1A000E94E90C0E94470A309719F4EFEFFFEF9E
:100E2A0023C0DE0116960E942A0C8D010E94470AF1
:100E3A00EE83FF83E0E0E887E987DE011A960E94E5
:100E4A002A0C0E94A90CFA93EA931A930A93E4EEE5
:100E5A00F3E0FA93EA93DE011A96BDDD9F01AE81B3
:100E6A00BF81E0E0EC93F9010E94F00C2A96FF9012
:100E7A0008950E948909E0E0EA83EFE3EB831A937D
:100E8A000A93EB85FC85EF3FAFEFFA0739F40E942E
:100E9A004E0AAEE8B0E00E940408ADC0EF3FAFE7EB
:100EAA00FA0739F40E944E0AAFE8B0E00E9404083B
:100EBA00A2C0AC85AA2362F4E985FA856B857C8594
:100ECA000E94810A0E94530A0E94580AEDE2EC939A
:100EDA00A885A73010F0E6E0E8871885E12F1150C1
:100EEA00E03039F00E945F0A0E94CE090E94640A2B
:100EFA00F5CF0E94690A0E94270B0E94530A10E04C
:100F0A00E0E0F0E060E87FE30E94640A0E94690A78
:100F1A000E940A0C88F00E945F0A0E94BB090E9484
:100F2A00640A1F5F173238F00E944E0AA3E9B0E044
:100F3A000E94040860C0EACF103029F40E94580ABF
:100F4A00E0E3EC932BC0E12F1150E03039F10E941D
:100F5A005F0A0E94CE090E94C709DF01CB010E94E5
:100F6A005B080E94640A0E94690A0E94C50B0E94DB
:100F7A00B40A0E2F0E94580A0E94DC09F0E00E946F
:100F8A005F0A0E94500C0E94ED0A0E94770B0E9491
:100F9A00720A0E94E1090E94530AD5CFE885E0301F
:100FAA0031F10E94580AEEE2EC93E885E150E887B5
:100FBA00EF5FE9F00E94720A0E94BB090E94530A7D
:100FCA00E985FA856B857C850E94B40A0E2F0E94FA
:100FDA00580A0E94DC09F0E00E94720A0E94500C32
:100FEA000E94ED0A0E94E1090E94530ADECFAE81F7
:100FFA00BF81E0E0EC93198108812D960895BA9398
:10100A00AA93E991F991A991B991CD0105900D920F
:10101A000020E1F7FC010895BA93AA93A991B99126
:10102A00EE27FF276D91662311F03196FBCF0895C5
:10103A00BA93AA93AA27BB27E991F99105900020B0
:10104A0011F01196FBCFFD0108950E94CC0C7B8113
:10105A006A81F981E88177FB770F67FD7160972FC5
:10106A009E5781F078F0983190F4AA27BB278827F9
:10107A0008948795B795A7959A95D1F7EA23FB2304
:10108A00682305C0E8947727EE27FF2766276F773E
:10109A00769508F4606877F9A991B991899199913F
:1010AA00EA17FB076807790797FB08950E94CC0C9B
:1010BA000E94BD0C0E942A080E94C20C19F40E94C8
:1010CA00B80C09C0E6F70E94B80CA0E0B0E080E8CE
:1010DA009FE30E94200B24960895E0918C02F091E0
:1010EA008D0260918E0270918F020895E0E0E9838B
:1010FA00EA83EB83EC830895E981FA816B817C8131
:10110A0008950E94450CE983FA836B837C830895D2
:10111A00F3DFEF5FFF4F6F4F7F4FE983FA836B83F4
:10112A007C830895A981BA818B819C81E0E0F0E0FB
:10113A0060E870E00E94380CE983FA836B837C8351
:10114A000895E0E0E0937802E0937902E0937A026E
:10115A00E0937B020895E0937802F093790260931A
:10116A007A0270937B020895A0917802B091790275
:10117A0080917A0290917B020895E4E6F0E060E0C3
:10118A0070E00E94680C0895E0936002F093610297
:10119A0060936202709363020895E0916002F09195
:1011AA00610260916202709163020895F6DF0E9403
:1011BA00EB0ADF01CB010895EDE4F0EA68EB7EE388
:1011CA000E94C50B08950E94B40A0E94B30C0895A8
:1011DA00E0E0F0E060EF71E40E94C50B0895E0E002
:1011EA00E0937C02E0937D02E0937E02E0937F022B
:1011FA000895E0937C02F0937D0260937E027093DF
:10120A007F020895A0917C02B0917D0280917E02B6
:10121A0090917F020895E0936802F09369026093C7
:10122A006A0270936B020895E0916802F091690274
:10123A0060916A0270916B020895F6DF0E94EB0AD0
:10124A00DF01CB010895E0E0E0938002E0938102A0
:10125A00E0938202E09383020895E0938002F09380
:10126A00810260938202709383020895A0918002A2
:10127A00B091810280918202909183020895E09355
:10128A007002F09371026093720270937302089570
:10129A00E0917002F0917102609172027091730292
:1012AA000895F6DF0E94EB0ADF01CB0108951A9335
:1012BA000A9300E010E0089588EE93E00197F1F7B1
:1012CA000895EAE0F0E060E070E00E94680C08959A
:1012DA000E944D03A3E0B0E00C94770AA981BA8179
:1012EA00ED91A983BA831E2FE0300895A0E30E94EE
:1012FA00380388EC90E00197F1F70895ED91FD919C
:10130A003196FE93EE930895BA93AA932497E0E058
:10131A00E883E9830895AC81BD818E819F81E0E0F5
:10132A00F0E060E271E40E94770BEC83FD836E8348
:10133A007F830895EC81FD816E817F81AC85BD85B7
:10134A008E859F850E940A0C0895AC85BD858E8581
:10135A009F850895EDECFCEC6CEC7DE30E94770B25
:10136A00EC87FD876E877F873F5F0895E0E0F0E0B6
:10137A0060E271E40E94770B0895EC87FD876E871F
:10138A007F870895A0E0B0E080E09FE30E94270BEA
:10139A000895EDECFCEC6CEC7DE30E94770B08956C
:1013AA00A885B9851196A887B98711970895E02F5E
:1013BA00E05DEC93E02F08950E94D10C0E94200B6F
:1013CA000895E885F9853196E887F98708952A937B
:1013DA00AF81B885E985FA8509950895FE01E65A2F
:1013EA00FF4F0190F081E02D08953497DE01A65A4F
:1013FA00BF4FED93FC930895AF81B885E985FA85CF
:10140A0009950895DE01A65ABF4F0D90BC91A02DF3
:10141A000895EA87FB876C877D870895DFDFE5CF2C
:10142A00EA85FB856C857D850895EE87FF87AE8505
:10143A00BF850E9411081E2F0895E4DF14960E94AA
:10144A00A90C0895E88BF98B6A8B7B8B08950B7F27
:10145A00ED89EA93DE01A95ABF4F0D90BC91A02DE8
:10146A00FE01E75AFF4F0190F081E02D09955030B7
:10147A000895E889F9896A897B89AA85BB858C855B
:10148A009D850895DE011C960E942A0C0E94A90CD3
:10149A000895EE81FF81FA93EA930895E987FA871E
:1014AA006B877C870895AE81BF811196AE83BF8317
:1014BA0011970895AA81BB818C819D810895EA8341
:1014CA00FB836C837D830895EA81FB816C817D8136
:1014DA00A985BA858B859C850895A985BA858B854A
:1014EA009C850895109639F080ED97E00197F1F701
:1014FA00A8951197C9F7089530976040704009F090
:10150A0070580895552342F4503811F4E0FF04C08E
:10151A003196691F791F6BF050E8572711F45F93D2
:10152A00CFC05F3F31F0660F000C57956795752F56
:10153A0008955F9300200AF0CFC0C8C050E8192E62
:10154A001522880F991F9527550F879550E8072E62
:10155A000522660F771F7527550F679508956894BA
:10156A0001C0E8945F93F2DF703818F07F3F08F407
:10157A00A7C056E1571BAAF4519558300EF45930BA
:10158A0030F0EFEFFFEF6FEF7FE777F91AC07727B9
:10159A005523B9F0EE0FFF1F661F771F5A95D1F733
:1015AA0010C07727583028F0EF2FF62F672F5850A2
:1015BA00F9CF552331F076956795F795E7955A95C2
:1015CA00D1F700200AF454D15F910895689401C0BC
:1015DA00E894309760407040B1F0002426F07723F9
:1015EA0012F4009445D1172E7EE1112032F07A953B
:1015FA00EE0FFF1F661F111CF9CFEF2FF62F612D7B
:10160A005F938ADF5F9108954F93AF01FD01DA017D
:10161A00AB01BC01CA01402D012C142E4F91089533
:10162A00EA0FFB1F681F0895E095F0956095EF5F3C
:10163A00FF4F6F4F08955F9381DF903871F150E843
:10164A00152604C05F937ADF903839F1703821F19A
:10165A00572F591B2BF112F4D7DFFACF583118F054
:10166A00AA27BB278827583028F0AB2FB82F8827FE
:10167A005850F9CF552329F08695B795A7955A95CD
:10168A00D9F7502D512572F0CBDF38F46795F795CD
:10169A00E795739513F420C0B7DF3EDF5F91089595
:1016AA00D8F7FBCFEA1BFB0B680B51F010F4009440
:1016BA00BBDF662392F3EE0FFF1F661F7A95CBF707
:1016CA00EE27FF27662777275F910895EFEFFFEF51
:1016DA006FE77FEF5F910895EFEFFFEF6FE77FE727
:1016EA005F9108955F932ADF703851F3903841F380
:1016FA0001240894791F23F41CF300203AF3ECCF59
:10170A000F921F932F933F934F93112722279927C5
:10171A00689FA0018F9F302D410D591F6B9F300D7F
:10172A00411D591F8E9F27D0BF9F25D06A9F23D066
:10173A00BE9F1DD0AF9F1BD0AE9F110D291F391F11
:10174A00491F591FE32FF42F652F522F4F913F91B5
:10175A002F911F910F9066232AF0550FEE1FFF1F3E
:10176A00661F02C073954BF2CDDE5F910895100D8E
:10177A00211D391F02C0200D311D491F591F08950F
:10178A005F93DCDE703821F411200AF49FCFA4CFD6
:10179A00903809F495CF01240894970B1BF4D4F3DD
:1017AA000020F3CF792F1F932F933F934F93112448
:1017BA001127222733274427552790E2AE17BF0760
:1017CA008607410730F0AE1BBF0B860B410B08940E
:1017DA0001C08894551F221F331F111CAA1FBB1F4B
:1017EA00881F441F9A9551F7F901612D4F913F9136
:1017FA002F911F91662332F0550FEE1FFF1F661FB0
:10180A007A9543F27FDE5F91089599239AF07723C0
:10181A0042F0971748F029F4AE17BF07860720F061
:10182A0031F0989488940895989408940895189497
:10183A00889408957723C2F7971798F3A9F7EA17B8
:10184A00FB07680788F399F3ECCF0024AF0DB01DAE
:10185A000895EA0FFB1F681F791F0895EA1BFB0B07
:10186A00680B790B0895EA27FB27682779270895DB
:10187A00F09560957095E195FF4F6F4F7F4F0895F2
:10188A00EE0FFF1F661F771F0895FE2FFF0FFF0B36
:10189A006F2F7F2F08956F2F660F660B762F08958F
:1018AA00002498E0AA0F001C0E1A10F40E0E01C0B4
:1018BA00A1609A95B9F7EA2FA02D089539D0F0DFE3
:1018CA000EF4E19508953F934F935F9300241124FA
:1018DA004427552730E2AA0FBB1F881F991F001CF7
:1018EA00111C441F551F0E1A1F0A460B570B28F4CA
:1018FA000E0E1F1E461F571F01C0A1603A9559F7C9
:10190A00FD01BC01D001CA015F914F913F91089539
:10191A00E894A7FF02C0A1956894E7FDE195C0DFAE
:10192A00EA2F0EF4E1950895CEDFFD01BC0108957A
:10193A00E894E7FF02C0E1956894A7FF04C0A19567
:10194A0000F8039400FA0895ED91FC911197089517
:10195A00ED91FD916D917C9113970895ED93FD930F
:10196A006D937C930895E881F9816A817B8108955A
:10197A00A881B9818A819B810895E883F9836A8362
:10198A007B8308957A936A93FA93EA9308959A93D4
:10199A008A93BA93AA930895182E862F612D192E29
:1019AA00972F712D1B2EBF2FF12D1A2EAE2FE12D41
:1019BA0008953097604070400895EA17FB0768075A
:1019CA00790708955A934A933A932A931A930A9352
:1019DA0008955D814C813B812A811981088108958E
:00000001FF
