:0E0000000C9459000C9400000C9400000C9419
:10000E0000000C9400000C9488000C9400000C94DA
:10001E0000000C9400000C9400000C9400000C9452
:10002E0000000C9400000C949E000C9400000C94A4
:10003E0000000C9400000C9400000C9400000C9432
:10004E0000000C94000000004B0000000000446F04
:10005E0063746F72206E616465726900257300208F
:10006E0025342E3166672025342E316667202534DF
:10007E002E316667000080C02D4E414E00000100FB
:10008E002D4E414E00494E46000001000200540024
:10009E0006000600560002009803840001009C032F
:1000AE008C000000F894EE27ECBBF1E0F5BFE5BF45
:1000BE00F8E1F1BDE1BD8DE0A2E0BB27ED938A959D
:1000CE00E9F780E098E0A0E6ED930197E9F7E8E91B
:1000DE00F0E085919591009761F0A591B59105900D
:1000EE001590BF01F00105900D920197E1F7FB010C
:1000FE00F0CFEFE5EDBFE8E0EEBFC0E6D2E00C9446
:10010E00C100EA93FA93EFB7EA93E2EBE4BD64140D
:10011E00750409F4A998F20131962F01E4E6F0E096
:10012E004E165F0618F044245524A99A1EC0EA9371
:10013E00FA93EFB7EA931A930A931BB10CB1E12F1E
:10014E00EC7189F4E92D9394F0E0E058FC4F0083B4
:10015E00E8E1E91509F49924B394E8E1EB1519F4F3
:10016E00BB24689420F809911991E991EFBFF99198
:10017E00E9911895E0E0EBBBEABBE1E0E7BBE0E01C
:10018E00E8BBE3E0E4BBE0E0E5BBE6E1E1BBE0E0D9
:10019E00E2BBEBB9E8E9EAB9E6E8E0BDE0E0E0BDD4
:1001AE00E3E3E9B98CD2B4D2DCD2A0E10E94CF0451
:1001BE00ACE5B0E00E94BE04A8EEB3E00E94140CC1
:1001CE00E0E0E2BDE7E0E5BDE2EBE4BDE0E0E3BD8B
:1001DE00E0E4E9BF7894C0D04FD1DED10E949B09F4
:1001EE00E2E0EA93A2E6B3E00E946B08E0E2F3E0FD
:1001FE000E94A609E2E6F3E00E94AD090E94B6094C
:10020E00E2E0EA93ACE6B3E00E946B08ECE2F3E0C6
:10021E000E94A609ECE6F3E00E94AD090E94C10916
:10022E00E2E0EA93A6E7B3E00E946B08E8E3F3E0AE
:10023E000E94A609E6E7F3E00E94AD09E0E2F3E0D2
:10024E00FA93EA93ECE2F3E0FA93EA93A8E3B3E0CD
:10025E00B3D2E4E4F3E0FA93EA93EDE6F0E0FA9336
:10026E00EA930E949B090E94B6090E94C1098CE084
:10027E000E94370860960E949304E0E0EA93A0E0A3
:10028E000E948604A4E4B3E00E94B404AAE0B0E0A5
:10029E000E94140CA0CFFFCF24971A93839A9298A2
:1002AE000E94CC098399FECF10E0183160F4929A27
:1002BE000E94D2090E94D7099298839B02C00E9485
:1002CE00DE091F5FF2CF929A0E94E80992980E946F
:1002DE00D20918810C94490524971A93859A9498FB
:1002EE000E94CC098599FECF10E0183160F4949AE3
:1002FE000E94D2090E94D7099498859B02C00E9441
:10030E00DE091F5FF2CF949A0E94E80994980E942A
:10031E00D20918810C94490524971A93B19AC09862
:10032E000E94CC09B199FECF10E0183160F4C09A4A
:10033E000E94D2090E94D709C098B19B02C00E94A8
:10034E00DE091F5FF2CFC09A0E94E809C0980E9492
:10035E00D20918810C9449050E948B0EE0E0E093BF
:10036E009002E0939102E0939202E093930220E0D8
:10037E0030E02330E0E03E0708F071C000E010E00E
:10038E000B30E0E01E0708F04FC00E94F70984DF33
:10039E000E94010A0E940A0A0E94130A0E94010A80
:1003AE00E0916402F09165026091660270916702BD
:1003BE000E940A0A0E94840E68F5E0917802F0917C
:1003CE00790260917A0270917B020E941A0AA091C2
:1003DE006402B091650280916602909167020E945C
:1003EE00230A0E94D00D0E941A0A0E942C0A0E9413
:1003FE00320AA0E6B2E00E94390AACE9B2E00E94ED
:10040E003F0AFF93EF930E942C0A0E94440AAF9179
:10041E00BF9105C0F801ACE9B2E00E944B0A0E9400
:10042E00550E0F5F1F4FACCFECE9F2E00E94540A5D
:10043E00E091B002F091B1026091B2027091B302FC
:10044E000E945A0A0E94C40CE0939002F09391020B
:10045E0060939202709393022F5F3F4F8ACF0E9458
:10046E005A0A0E94630AE0938402F0938502609315
:10047E008602709387021FC10E948B0EE0E0E0930C
:10048E009402E0939502E0939602E093970220E0A7
:10049E0030E02330E0E03E0708F071C000E010E0ED
:1004AE000B30E0E01E0708F04FC00E946A0A14DF0E
:1004BE000E94740A0E947D0A0E94130A0E94740A06
:1004CE00E0916C02F0916D0260916E0270916F027C
:1004DE000E947D0A0E94840E68F5E0917C02F091E4
:1004EE007D0260917E0270917F020E94860AA09129
:1004FE006C02B0916D0280916E0290916F020E941B
:10050E008F0A0E94D00D0E94860A0E94980A0E94AD
:10051E00320AA8E6B2E00E94390AA8ECB2E00E94C4
:10052E003F0AFF93EF930E94980A0E94440AAF91EC
:10053E00BF9105C0F801A8ECB2E00E944B0A0E94E0
:10054E00550E0F5F1F4FACCFE8ECF2E00E94540A3D
:10055E00E091DC02F091DD026091DE027091DF022B
:10056E000E949E0A0E94C40CE0939402F09395029E
:10057E0060939602709397022F5F3F4F8ACF0E942F
:10058E009E0A0E94630AE0938802F09389026093A8
:10059E008A0270938B028FC00E948B0EE0E0E09374
:1005AE009802E0939902E0939A02E0939B0220E076
:1005BE0030E02330E0E03E0708F071C000E010E0CC
:1005CE000B30E0E01E0708F04FC00E94A70AA4DE21
:1005DE000E94B10A0E94BA0A0E94130A0E94B10A2E
:1005EE00E0917402F091750260917602709177023B
:1005FE000E94BA0A0E94840E68F5E0918002F09182
:10060E00810260918202709183020E94C30AA091BE
:10061E007402B091750280917602909177020E94D9
:10062E00CC0A0E94D00D0E94C30A0E94D50A0E94D5
:10063E00320AA0E7B2E00E94390AA4EFB2E00E94AB
:10064E003F0AFF93EF930E94D50A0E94440AAF918E
:10065E00BF9105C0F801A4EFB2E00E944B0A0E94C0
:10066E00550E0F5F1F4FACCFE4EFF2E00E94540A1D
:10067E00E0910803F091090360910A0370910B0356
:10068E000E94DB0A0E94C40CE0939802F093990238
:10069E0060939A0270939B022F5F3F4F8ACF0E9406
:1006AE00DB0A0E94630AE0938C02F0938D02609342
:1006BE008E0270938F020E94920E249608950E94CD
:1006CE00E40A0E94F70900E010E00A30E0E01E079D
:1006DE0064F4E2DD0E940A0A0E94CB0D0E94010A18
:1006EE000E94E90A0F5F1F4FF0CF0E940A0A0E9474
:1006FE00EE0A0E94010A0E940A0A0E94130AE0935F
:10070E006402F0936502609366027093670251C0B3
:10071E000E94E40A0E946A0A00E010E00A30E0E05B
:10072E001E0764F4D9DD0E947D0A0E94CB0D0E9443
:10073E00740A0E94E90A0F5F1F4FF0CF0E947D0AD4
:10074E000E94EE0A0E94740A0E947D0A0E94130AF9
:10075E00E0936C02F0936D0260936E0270936F02E1
:10076E0028C00E94E40A0E94A70A00E010E00A30A6
:10077E00E0E01E0764F4D0DD0E94BA0A0E94CB0DA1
:10078E000E94B10A0E94E90A0F5F1F4FF0CF0E942C
:10079E00BA0A0E94EE0A0E94B10A0E94BA0A0E9488
:1007AE00130AE0937402F0937502609376027093CD
:1007BE007702099119910895BA93AA93A1E40E9420
:1007CE00FC04AC81BD810E940305A5E40E94FC04DB
:1007DE00A2E40E94FC04AA81BB810E940305A5E449
:1007EE000E94FC04A3E40E94FC04A881B9810E942B
:1007FE000305AEE40E94FC0426960895BA93AA93CC
:10080E000E948B0E00E010E020E030E000E010E0EF
:10081E00EC81FD8131970E171F070CF04BC020E0C5
:10082E0030E0F8013196AC81BD810E94790EEA1B51
:10083E00FB0B2E173F07DCF5F9010E94F50A7F939B
:10084E006F93FF93EF93F90131960E94F50AAF91E2
:10085E00BF918F919F910E94A70D09F008F424C0BB
:10086E002297F9010E94FE0A0E944B0E0E94510C23
:10087E00E883F983F901A885B9850E943F0A0F0123
:10088E00F90131960E94FE0A0E944F0ED0010E947D
:10089E00550EF90131960E94FE0AE881F9810E94F7
:1008AE00050B0E94550E22962F5F3F4FBACF0F5F5A
:1008BE001F4FAECF0E94920E28960895AA93EBB3C7
:1008CE00EF70AE2FE881E07FEA2BEBBB8DE08A95CF
:1008DE00F1F7DA9A8DE08A95F1F7DA988DE08A953C
:1008EE00F1F70C940105AA93A881E8DFE881E2955F
:1008FE00E883A881E3DF85E88A95F1F77BC0AA93A8
:10090E00E881F0E0E856FC4FE081A981AE0FEBDF05
:10091E00A980D88022960895A2E00E940A0BACE02E
:10092E00E2DFA1E00E940A0BE0E0DE2EAE2E08957B
:10093E00AA93A881AA3011F0AC1448F0E0E0EA9333
:10094E00D394AD2DDCDFA881AA3009F453C0A39453
:10095E00D89AA881C8DFD8984DC0BA93AA931A9393
:10096E000E94100B19F0A12FE3DFFACF50C0BA93FB
:10097E00AA931A93E981FA813196E983FA83319722
:10098E00E4911E2FE03019F0A12FD2DFF3CF3FC03C
:10099E00AA93EAB3E06FEABBD29AD09AD19ADA98C8
:1009AE00D898D998C880E881E058E0939A03E881F6
:1009BE00E054E0939B03A4E1B0E00E94140C0E946B
:1009CE00180B0E94180B0E94180BA0E277DF88EC20
:1009DE0090E00197F1F7A8E286DFA4E084DFA5E8B6
:1009EE0082DFA6E080DF98DF05C0AA935D9BFECF75
:1009FE00E881ECB921960895BA93AA931A930E94AE
:100A0E00100B19F0A12FF1DFFACFAAE0EEDF18815B
:100A1E0023960895BA93AA931A930A93AA81BB8137
:100A2E0012960E944B0E309729F1AA81BB81149623
:100A3E000E944B0E8F01309761F00230E0E01E07EE
:100A4E0080F0F80131978F01AA81BB811496ED9346
:100A5E00FC93AA81BB8112960E94200B3197AC8128
:100A6E00A083AA81BB810E944B0EFF2312F00E942D
:100A7E00200B06C0AA81BB81EFEFFFEFED93FC9335
:100A8E0019810881259608950E94260BE0E8EA83D5
:100A9E00EFE3EB830E948B0EEE85FF85EF3FAFEF0A
:100AAE00FA0749F4E885F985FA93EA93A6E8B0E0E7
:100ABE000E942D09B7C0EF3FAFE7FA0749F4E8856A
:100ACE00F985FA93EA93A7E8B0E00E942D09AAC02F
:100ADE00AB85A73010F0E6E0EB871B85E12F1150B8
:100AEE00E03019F00E942D0BF9CFEC85FD856E8557
:100AFE007F850E94800E21F430E00E942D0B2DC0C8
:100B0E003B850E943C0B09F008F40BC00E942D0B94
:100B1E000E943C0B28F00E94470B0E944C0BF8CF12
:100B2E000DC00E943C0B40F40E94470B0E94580BD4
:100B3E000E945F0B3150F5CF0E942D0BEC85FD8589
:100B4E006E857F850E94640B0E945F0B0E943C0B9A
:100B5E0020F00E94470B0E944C0B10E0EB85E11732
:100B6E00A8F1AC81BD818E819F810E946B0B0E948A
:100B7E00640BDF01CB010E948409EC83FD836E833D
:100B8E007F830E94470B0E94620D0E94510C0E2F14
:100B9E000E94720B0E94790BFF27662777270E940F
:100BAE008A0CAC81BD818E819F810E94140D0E94A2
:100BBE00470B0E947E0B0E945F0BE12F1F5FE03000
:100BCE0069F60E94720BEEE2EC93C8CF0E94830B83
:100BDE003197AA85A08330302CF43195A885B9853C
:100BEE00EDE203C0A885B985EBE2EC930E94830B7E
:100BFE000E94830B3197BF01A32FEAE00E94050EDE
:100C0E00E05DDB01EC930E94830B3197BF01A32FB4
:100C1E00EAE00E942F0EE05DDB01EC93A885B9851A
:100C2E00E0E0EC930E94920E60960895BA93AA9318
:100C3E00EF9761970E94890E10E0FE01E85AFF4F70
:100C4E000190F081E02DE887F987FE01EA5AFF4F07
:100C5E000190F081E02DEE83FF83AE81BF81E0E055
:100C6E00F0E0ED93FC93DE01A45ABF4F0E94200BDF
:100C7E003197E4912E2FE03009F4E9C1E12FE030F5
:100C8E0039F4253211F411E002C00E94890BDEC145
:100C9E00E130C1F4253219F40E94890BD6C112E05D
:100CAE00E0E0ED8B00E02D3211F401E0CFC12B32EC
:100CBE0019F4EBE2ED8BCAC1203219F4E0E2ED8BB0
:100CCE00C5C102C0E23039F450E013E0203311F414
:100CDE000068BCC102C0E33091F4203310F02A3317
:100CEE0008F007C0AAE05A9F502DE22FE0535E0F86
:100CFE00ADC140E02E3211F414E0A8C10FC0E430B3
:100D0E0099F4203310F02A3308F008C00062AAE0EC
:100D1E004A9F402DE22FE0534E0F98C12C3619F406
:100D2E00026015E093C103C0E53009F08FC1E22FD8
:100D3E00E33659F40E94900B0E94970B0E94900B81
:100D4E00A481AA930E949E0B80C1E53411F0E53672
:100D5E0009F403C0E63609F048C0FE017696EE8728
:100D6E00FF870E94A40B0E944F0E0E94AB0B0E94A5
:100D7E00B00BAD85AA2332F0AD89AB3259F0A0325B
:100D8E0081F017C00E94B20B0E941E0C0E94AB0B8A
:100D9E00EDE2ED8B07FF05C0ED89EA930E949E0BF5
:100DAE0008C0EE85FF853196EE87FF873197AD89B6
:100DBE00A08305FF46E0263651F40E94B20B0E9436
:100DCE00690E4A93AB89BC890E946B0809C00E94C8
:100DDE00B20B0E94690E4A932A93AC89BD8954DEE8
:100DEE00FE0176960E94B70B1EC0E33739F40E94BF
:100DFE00B00B0E94BF0B0E94B70B0EC0E037C1F4C0
:100E0E000E94B00B0E94BF0BEE87FF87AE85BF8599
:100E1E000E9446091E2F08600F77403011F04117CF
:100E2E0008F001C0142F40E0E0E0EC8B30E06DC024
:100E3E00E43611F0E93611F4046002C0E537A1F48E
:100E4E00EAE0EC8B01FF08C0E0E0FAEC6AE97BE334
:100E5E000E94C40B1AE022C0E0E1F7E260E070E00D
:100E6E000E94C40B15E01AC0E83511F4086003C0E7
:100E7E00E83709F0EAC0E0E1EC8B01FF08C0E0E0E2
:100E8E00F0E060E070E10E94C40B18E007C0E0E003
:100E9E00F0E160E070E00E94C40B14E0403011F00D
:100EAE000F7701C041E001FF08C00E94B00B0E9405
:100EBE00A40B14960E944F0E0FC002FF07C00E9493
:100ECE00B00B0E94BF0B0E94F20D06C00E94B00B29
:100EDE000E94BF0B66277727EA87FB876C877D8783
:100EEE0002FF12C0AD85AA2342F40E94B20B0E94EB
:100EFE00DA0D0E94AB0BEDE2ED8BED89E03019F0CF
:100F0E001F5F4F5F01C00B7F342F00FD14C01517FC
:100F1E0010F4351708F00FC007FF08C002FF04C019
:100F2E000B7F2D89115001C020E301C020E20E94E9
:100F3E00890B5150ECCF141790F4006102FF06C0DC
:100F4E000E94C90B09F0515011504150E0E3EA9351
:100F5E000E949E0B503009F051504150ECCF312F72
:100F6E00EC89E030B9F43030A1F003FF06C0EE8515
:100F7E00FF852591EE87FF8705C0AE85BF852D9134
:100F8E00AE87BF870E94890B503009F05150315007
:100F9E00EACF51C00E94DB0B0E940A0E2E2F2A3080
:100FAE0030F003FF02C0295C01C0295A01C0205D48
:100FBE0004FD21C0213360F4A889B9898A899B89EF
:100FCE00A130E0E0BE07E0E08E07E0E09E0709F406
:100FDE000BC0431740F4531710F000FF01C010C0B0
:100FEE0020E207FF08C020E3006102FF04C00E9458
:100FFE00C90B09F051500E94890B503009F0515025
:10100E0031500E94DB0B0E943B0E0E94AB0BEC8911
:10101E00A889B9898A899B89FF27662777270E9425
:10102E000A0E0E94C40BE889F9896A897B890E949D
:10103E00800E09F0AFCF00FF08C0503031F0515094
:10104E00E0E2EA930E949E0BF8CF10E00CCEAE8148
:10105E00BF810E944B0E0E94900EEF966F960895E0
:10106E00FF92F82E26970E948B0E0E94E40B30976B
:10107E0019F4EFEFFFEF23C0DE0116960E94C70DA5
:10108E008D010E94E40BEE83FF83E0E0E887E987A1
:10109E00DE011A960E94C70D0E944B0EFA93EA9338
:1010AE001A930A93E1E1F5E0FA93EA93DE011A96B8
:1010BE00BDDD9F01AE81BF81E0E0EC93F9010E949E
:1010CE00920E2A96FF9008950E94260BE0E0EA8386
:1010DE00EFE3EB831A930A93EB85FC85EF3FAFEFBB
:1010EE00FA0739F40E94EB0BAEE8B0E00E942D092E
:1010FE00A9C0EF3FAFE7FA0739F40E94EB0BAFE858
:10110E00B0E00E942D099EC0AC85AA2362F4E98549
:10111E00FA856B857C850E941E0C0E94F00B0E9446
:10112E00F50BEDE2EC93A885A73010F0E6E0E8872A
:10113E001885E12F1150E03039F00E94FC0B0E940F
:10114E006B0B0E94010CF5CF0E94060C0E94C40C82
:10115E000E94F00B10E0E0E0F0E060E87FE30E9418
:10116E00010C0E94060C0E94A70D88F00E94FC0B39
:10117E000E94580B0E94010C1F5F173238F00E941C
:10118E00EB0BA3E9B0E00E942D095CC0EACF103052
:10119E0029F40E94F50BE0E3EC9329C0E12F1150E6
:1011AE00E03029F10E94FC0B0E946B0B0E94640B35
:1011BE00DF01CB010E9484090E94010C0E94060CE3
:1011CE000E94620D0E94510C0E2F0E94F50B0E9480
:1011DE00790BF0E00E94FC0B0E94050B0E94140D8F
:1011EE000E940F0C0E947E0B0E94F00BD7CFE88559
:1011FE00E03021F10E94F50BEEE2EC93E885E15030
:10120E00E887EF5FD9F00E940F0C0E94580B0E94E6
:10121E00F00BE985FA856B857C850E94510C0E2FAB
:10122E000E94F50B0E94790BF0E00E940F0C0E94B9
:10123E00050B0E947E0B0E94F00BE0CFAE81BF81AA
:10124E00E0E0EC93198108812D960895BA93AA9344
:10125E00E991F991A991B991CD0105900D920020D6
:10126E00E1F7FC010895BA93AA93A991B991EE27DB
:10127E00FF276D91662311F03196FBCF0895BA9337
:10128E00AA93AA27BB27E991F9910590002011F0A6
:10129E001196FBCFFD0108950E946E0E7B816A812F
:1012AE00F981E88177FB770F67FD7160972F9E5765
:1012BE0081F078F0983190F4AA27BB2788270894FC
:1012CE008795B795A7959A95D1F7EA23FB236823BF
:1012DE0005C0E8947727EE27FF2766276F77769568
:1012EE0008F4606877F9A991B99189919991EA17F3
:1012FE00FB076807790797FB08950E946E0E0E9400
:10130E005F0E0E9453090E94640E19F40E945A0E39
:10131E0009C0E6F70E945A0EA0E0B0E080E89FE315
:10132E000E94BD0C24960895E0918402F0918502EE
:10133E0060918602709187020E94690E0895FA9359
:10134E00EA93EAE6F0E0FA93EA93089566277727A0
:10135E000E94690E84E00E94370828960895E09155
:10136E008802F091890260918A0270918B020E942C
:10137E00690E0895E0918C02F0918D0260918E02BB
:10138E0070918F020E94690E0895E0E0E983EA836E
:10139E00EB83EC830895E981FA816B817C8108955A
:1013AE000E94E70DE983FA836B837C830895F3DF54
:1013BE00EF5FFF4F6F4F7F4FE983FA836B837C8321
:1013CE000895A981BA818B819C81E0E0F0E060E80C
:1013DE0070E00E94D50DE983FA836B837C830895B8
:1013EE00E0E0E0937802E0937902E0937A02E093F2
:1013FE007B020895E0937802F093790260937A026B
:10140E0070937B020895A0917802B0917902809139
:10141E007A0290917B020895E4E6F0E060E070E0DD
:10142E000E940A0E0895E0936002F09361026093A9
:10143E006202709363020895E0916002F09161027E
:10144E0060916202709163020895F6DF0E94880C2B
:10145E00DF01CB010895EDE4F0EA68EB7EE30E9434
:10146E00620D08950E94510C0E94550EF8010895C8
:10147E000E94E20DEA0FFB1F0895E0E0F0E060EF3E
:10148E0071E40E94620D08950E94E20DAE0FBF1F1F
:10149E00E0E0F0E060E070E00895FA93EA93ABE0EC
:1014AE00B0E00C940504A0919002B091910280914D
:1014BE009202909193020895E0E0F0E060E470E40F
:1014CE000E94620D0895E0E0E0937C02E0937D02BD
:1014DE00E0937E02E0937F020895E0937C02F09306
:1014EE007D0260937E0270937F020895A0917C022C
:1014FE00B0917D0280917E0290917F020895E093DB
:10150E006802F093690260936A0270936B02089509
:10151E00E0916802F091690260916A0270916B022B
:10152E000895F6DF0E94880CDF01CB010895A0918B
:10153E009402B0919502809196029091970208952F
:10154E00E0E0E0938002E0938102E0938202E09378
:10155E0083020895E0938002F093810260938202E9
:10156E00709383020895A0918002B09181028091C0
:10157E008202909183020895E0937002F0937102BB
:10158E0060937202709373020895E0917002F0916D
:10159E00710260917202709173020895F6DF0E94DB
:1015AE00880CDF01CB010895A0919802B0919902A9
:1015BE0080919A0290919B0208951A930A9300E0EB
:1015CE0010E0089588EE93E00197F1F70895EAE0B0
:1015DE00F0E060E070E00E940A0E0895AE81BF81D7
:1015EE000E94E20DAE0FBF1F0E944F0E0895A885F8
:1015FE00B9850E94E20DAE0FBF1F08950E94F20D35
:10160E000E948A0C08950E947A04A3E0B0E00C9424
:10161E00140CA981BA81ED91A983BA831E2FE030F3
:10162E000895A0E30E94650488EC90E00197F1F71D
:10163E000895ED91FD913196FE93EE930895BA9330
:10164E00AA932497E0E0E883E9830895AC81BD81F5
:10165E008E819F81E0E0F0E060E271E40E94140D63
:10166E00EC83FD836E837F830895EC81FD816E8113
:10167E007F81AC85BD858E859F850E94A70D0895BF
:10168E00AC85BD858E859F850895EDECFCEC6CECEC
:10169E007DE30E94140DEC87FD876E877F873F5F89
:1016AE000895E0E0F0E060E271E40E94140D089508
:1016BE00EC87FD876E877F870895A0E0B0E080E01D
:1016CE009FE30E94C40C0895EDECFCEC6CEC7DE302
:1016DE000E94140D0895A885B9851196A887B9871B
:1016EE0011970895E02FE05DEC93E02F08950E948E
:1016FE00730E0E94BD0C0895E885F9853196E88732
:10170E00F98708952A93AF81B885E985FA850995F9
:10171E000895FE01E65AFF4F0190F081E02D0895E5
:10172E003497DE01A65ABF4FED93FC930895AF8117
:10173E00B885E985FA8509950895DE01A65ABF4F49
:10174E000D90BC91A02D0895EA87FB876C877D874D
:10175E000895DFDFE5CFEA85FB856C857D850895ED
:10176E00EE87FF87AE85BF850E943A091E2F08952A
:10177E00E4DF14960E944B0E0895E88BF98B6A8B6A
:10178E007B8B08950B7FED89EA93DE01A95ABF4F3B
:10179E000D90BC91A02DFE01E75AFF4F0190F081F4
:1017AE00E02D099550300895E889F9896A897B8979
:1017BE00AA85BB858C859D850895DE011C960E94A9
:1017CE00C70D0E944B0E0895EE81FF81FA93EA93A6
:1017DE000895E987FA876B877C870895AE81BF816C
:1017EE001196AE83BF8311970895AA81BB818C8118
:1017FE009D810895EA83FB836C837D830895EA813E
:10180E00FB816C817D81A985BA858B859C85089528
:10181E00A985BA858B859C850895109639F080ED43
:10182E0097E00197F1F7A8951197C9F708953097AA
:10183E006040704009F070580895552342F45038B6
:10184E0011F4E0FF04C03196691F791F6BF050E868
:10185E00572711F45F93CFC05F3F31F0660F000C36
:10186E0057956795752F08955F9300200AF0CFC0A6
:10187E00C8C050E8192E1522880F991F9527550FAD
:10188E00879550E8072E0522660F771F7527550F8F
:10189E0067950895689401C0E8945F93F2DF7038FD
:1018AE0018F07F3F08F4A7C056E1571BAAF45195D4
:1018BE0058300EF4593030F0EFEFFFEF6FEF7FE757
:1018CE0077F91AC077275523B9F0EE0FFF1F661F61
:1018DE00771F5A95D1F710C07727583028F0EF2F81
:1018EE00F62F672F5850F9CF552331F0769567951F
:1018FE00F795E7955A95D1F700200AF454D15F91E8
:10190E000895689401C0E894309760407040B1F03B
:10191E00002426F0772312F4009445D1172E7EE191
:10192E00112032F07A95EE0FFF1F661F111CF9CFB2
:10193E00EF2FF62F612D5F938ADF5F9108954F93FE
:10194E00AF01FD01DA01AB01BC01CA01402D012C32
:10195E00142E4F910895EA0FFB1F681F0895E0950E
:10196E00F0956095EF5FFF4F6F4F08955F9381DFA6
:10197E00903871F150E8152604C05F937ADF9038E5
:10198E0039F1703821F1572F591B2BF112F4D7DF93
:10199E00FACF583118F0AA27BB278827583028F0DD
:1019AE00AB2FB82F88275850F9CF552329F086959D
:1019BE00B795A7955A95D9F7502D512572F0CBDFD3
:1019CE0038F46795F795E795739513F420C0B7DF54
:1019DE003EDF5F910895D8F7FBCFEA1BFB0B680B38
:1019EE0051F010F40094BBDF662392F3EE0FFF1F4D
:1019FE00661F7A95CBF7EE27FF27662777275F912D
:101A0E000895EFEFFFEF6FE77FEF5F910895EFEF30
:101A1E00FFEF6FE77FE75F9108955F932ADF7038DE
:101A2E0051F3903841F301240894791F23F41CF3E9
:101A3E0000203AF3ECCF0F921F932F933F934F93C7
:101A4E00112722279927689FA0018F9F302D410DC6
:101A5E00591F6B9F300D411D591F8E9F27D0BF9F61
:101A6E0025D06A9F23D0BE9F1DD0AF9F1BD0AE9FA7
:101A7E00110D291F391F491F591FE32FF42F652FF1
:101A8E00522F4F913F912F911F910F9066232AF065
:101A9E00550FEE1FFF1F661F02C073954BF2CDDE72
:101AAE005F910895100D211D391F02C0200D311DAB
:101ABE00491F591F08955F93DCDE703821F4112001
:101ACE000AF49FCFA4CF903809F495CF012408943F
:101ADE00970B1BF4D4F30020F3CF792F1F932F9382
:101AEE003F934F931124112722273327442755273D
:101AFE0090E2AE17BF078607410730F0AE1BBF0B53
:101B0E00860B410B089401C08894551F221F331F6A
:101B1E00111CAA1FBB1F881F441F9A9551F7F9016C
:101B2E00612D4F913F912F911F91662332F0550FEA
:101B3E00EE1FFF1F661F7A9543F27FDE5F910895B9
:101B4E0099239AF0772342F0971748F029F4AE17AD
:101B5E00BF07860720F031F09894889408959894E2
:101B6E00089408951894889408957723C2F79717C8
:101B7E0098F3A9F7EA17FB07680788F399F3ECCFF8
:101B8E000024AF0DB01D0895EA0FFB1F681F791FCB
:101B9E000895EA1BFB0B680B790B0895EA27FB27C8
:101BAE00682779270895F09560957095E195FF4F18
:101BBE006F4F7F4F0895EE0FFF1FEE0FFF1F08951B
:101BCE00EE0FFF1F661F771F0895FE2FFF0FFF0BEF
:101BDE006F2F7F2F08956F2F660F660B762F089548
:101BEE00002498E0AA0F001C0E1A10F40E0E01C06D
:101BFE00A1609A95B9F7EA2FA02D089539D0F0DF9C
:101C0E000EF4E19508953F934F935F9300241124B2
:101C1E004427552730E2AA0FBB1F881F991F001CAF
:101C2E00111C441F551F0E1A1F0A460B570B28F482
:101C3E000E0E1F1E461F571F01C0A1603A9559F781
:101C4E00FD01BC01D001CA015F914F913F910895F2
:101C5E00E894A7FF02C0A1956894E7FDE195C0DF67
:101C6E00EA2F0EF4E1950895CEDFFD01BC01089533
:101C7E00E894E7FF02C0E1956894A7FF04C0A19520
:101C8E0000F8039400FA0895ED91FC9111970895D0
:101C9E00ED91FD916D917C9113970895ED93FD93C8
:101CAE006D937C930895E881F9816A817B81089513
:101CBE00A881B9818A819B810895E883F9836A831B
:101CCE007B8308957A936A93FA93EA9308959A938D
:101CDE008A93BA93AA930895182E862F612D192EE2
:101CEE00972F712D1B2EBF2FF12D1A2EAE2FE12DFA
:101CFE0008953097604070400895EA17FB07680713
:101D0E00790708955A934A933A932A931A930A930A
:101D1E0008955D814C813B812A8119810881089546
:00000001FF
