:060000000C9459000C9461
:1000060000000C9400000C9400000C9400000C946A
:1000160000000C9400000C9400000C9400000C945A
:1000260000000C9400000C9400000C9400000C944A
:1000360088000C9400000C9400000C9400000C94B2
:1000460000000C9400000C9400000C9400000000CA
:100056004B0000000000446F63746F72206E616491
:10006600657269002573002025342E3166672025C8
:10007600342E3166672025342E316667000080C035
:100086002D4E414E000001002D4E414E00494E4678
:10009600000001000200540006000600560002009F
:1000A6006803840001006C038C000000F894EE27BE
:1000B600ECBBF1E0F5BFE5BFF8E1F1BDE1BD8DE0D8
:1000C600A2E0BB27ED938A95E9F780E098E0A0E6E9
:1000D600ED930197E9F7E8E9F0E0859195910097AE
:1000E60061F0A591B59105901590BF01F0010590BD
:1000F6000D920197E1F7FB01F0CFEFE5EDBFE8E0E8
:10010600EEBFC0E6D2E00C94AB00EA93FA93EFB7E9
:10011600EA931A930A931BB10CB1E12FEC7189F49F
:10012600E92D9394F0E0E05BFC4F0083E8E1E915EC
:1001360009F49924B394E8E1EB1519F4BB24689407
:1001460020F809911991E991EFBFF991E991189574
:10015600E0E0EBBBEABBE1E0E7BBE0E0E8BBE3E005
:10016600E4BBE0E0E5BBE6E9E1BBE0E0E2BBEBB91E
:10017600E8E9EAB9E6E8E0BDE0E0E0BDE3E3E9B9D5
:100186005AD282D2AAD2A0E10E947B04ACE5B0E0AA
:100196000E946A04A8EEB3E00E94C00BE0E0E2BD54
:1001A600EEE6E5BDE0E0E4BDE0E5E3BDE0E0E9BFA5
:1001B6007894BED00E944709E2E0EA93A2E3B3E056
:1001C6000E941708E0EFF2E00E945209E2E3F3E032
:1001D6000E9459090E946209E2E0EA93ACE3B3E0A7
:1001E6000E941708ECEFF2E00E945209ECE3F3E0FC
:1001F6000E9459090E946D09E2E0EA93A6E4B3E081
:100206000E941708E8E0F3E00E945209E6E4F3E0F2
:100216000E945909E0EFF2E0FA93EA93ECEFF2E07C
:10022600FA93EA93A8E0B3E083D2E4E1F3E0FA9329
:10023600EA93EDE6F0E0FA93EA930E9447090E94FA
:1002460062090E946D098CE00E94E30760960E9495
:100256003F04E0E0EA93A0E00E943204A4E1B3E0A8
:100266000E946004AAE0B0E00E94C00BA2CFFFCFBC
:1002760024971A93839A92980E9478098399FECFBD
:1002860010E0183160F4929A0E947E090E94830958
:100296009298839B02C00E948A091F5FF2CF929AAE
:1002A6000E94940992980E947E0918810C94F50484
:1002B60024971A93859A94980E9478098599FECF77
:1002C60010E0183160F4949A0E947E090E94830916
:1002D6009498859B02C00E948A091F5FF2CF949A68
:1002E6000E94940994980E947E0918810C94F50442
:1002F60024971A93B19AC0980E947809B199FECFB3
:1003060010E0183160F4C09A0E947E090E948309A9
:10031600C098B19B02C00E948A091F5FF2CFC09AA3
:100326000E949409C0980E947E0918810C94F504D5
:100336000E94370EE0E0E0939002E0939102E09392
:100346009202E0939302E0939402E0939502E09385
:100356009602E0939702E0939802E0939902E09365
:100366009A02E0939B0220E030E02230E0E03E0774
:1003760008F039C100E010E00730E0E01E0708F0A1
:10038600E7C00E94A30974DF0E94AD090E94B60966
:100396000E94BF090E94AD09E0916402F0916502D6
:1003A60060916602709167020E94B6090E94300E43
:1003B60068F5E0917802F091790260917A02709185
:1003C6007B020E94C609A0916402B09165028091E9
:1003D6006602909167020E94CF090E947C0D0E94DE
:1003E600C6090E94D8090E94DE09A0E6B2E00E9472
:1003F600E509ACE9B2E00E94EB09FF93EF930E9496
:10040600D8090E94F009AF91BF9105C0F801ACE987
:10041600B2E00E94F7090E94010E0E94000A48DF1E
:100426000E940A0A0E94130A0E94BF090E940A0A31
:10043600E0916C02F0916D0260916E0270916F0214
:100446000E94130A0E94300E68F5E0917C02F0913A
:100456007D0260917E0270917F020E941C0AA0912B
:100466006C02B0916D0280916E0290916F020E94B3
:10047600250A0E947C0D0E941C0A0E942E0A0E94D8
:10048600DE09A8E6B2E00E94E509A8EBB2E00E9408
:10049600EB09FF93EF930E942E0A0E94F009AF9199
:1004A600BF9105C0F801A8EBB2E00E94F7090E94CF
:1004B600010E0E94340A1CDF0E943E0A0E94470A6F
:1004C6000E94BF090E943E0AE0917402F0917502F3
:1004D60060917602709177020E94470A0E94300E60
:1004E60068F5E0918002F09181026091820270913C
:1004F60083020E94500AA0917402B0917502809105
:100506007602909177020E94590A0E947C0D0E9401
:10051600500A0E94620A0E94DE09A0E7B2E00E9429
:10052600E509A4EDB2E00E94EB09FF93EF930E9468
:10053600620A0E94F009AF91BF9105C0F801A4EDCF
:10054600B2E00E94F7090E94010E0F5F1F4F14CF01
:10055600ECE9F2E00E94680AE091A802F091A90293
:100566006091AA027091AB020E946E0A0E94700C02
:10057600E0939002F093910260939202709393023B
:10058600E8EBF2E00E94680AE091C402F091C5022D
:100596006091C6027091C7020E94770A0E94700C91
:1005A600E0939402F09395026093960270939702FB
:1005B600E4EDF2E00E94680AE091E002F091E102C7
:1005C6006091E2027091E3020E94800A0E94700C20
:1005D600E0939802F093990260939A0270939B02BB
:1005E6002F5F3F4FC2CE0E946E0A0E94890AE09397
:1005F6008402F093850260938602709387020E94BC
:10060600770A0E94890AE0938802F0938902609330
:100616008A0270938B020E94800A0E94890AE093E4
:100626008C02F0938D0260938E0270938F020E946B
:100636003E0E249608950E94900A0E94A30900E0A7
:1006460010E00A30E0E01E0764F412DE0E94B609EC
:100656000E94770D0E94AD090E94950A0F5F1F4FF9
:10066600F0CF0E94B6090E949A0A0E94AD090E9424
:10067600B6090E94BF09E0936402F0936502609395
:1006860066027093670251C00E94900A0E94000A97
:1006960000E010E00A30E0E01E0764F409DE0E9484
:1006A600130A0E94770D0E940A0A0E94950A0F5F9C
:1006B6001F4FF0CF0E94130A0E949A0A0E940A0A4C
:1006C6000E94130A0E94BF09E0936C02F0936D0228
:1006D60060936E0270936F0228C00E94900A0E9477
:1006E600340A00E010E00A30E0E01E0764F400DEA1
:1006F6000E94470A0E94770D0E943E0A0E94950AB0
:100706000F5F1F4FF0CF0E94470A0E949A0A0E946D
:100716003E0A0E94470A0E94BF09E0937402F093C2
:100726007502609376027093770209911991089584
:10073600BA93AA93AC81BD810E94AF04ACE20E9439
:10074600A804AA81BB810E94AF04ACE20E94A8045F
:10075600A881B9810E94AF0426960895BA93AA93F8
:100766000E94370E00E010E020E030E000E010E0EC
:10077600EC81FD8131970E171F070CF04BC020E06E
:1007860030E0F8013196AC81BD810E94250EEA1B4E
:10079600FB0B2E173F07DCF5F9010E94A10A7F9398
:1007A6006F93FF93EF93F90131960E94A10AAF91DF
:1007B600BF918F919F910E94530D09F008F424C0B8
:1007C6002297F9010E94AA0A0E94F70D0E94FD0BCA
:1007D600E883F983F901A885B9850E94EB090F0121
:1007E600F90131960E94AA0A0E94FB0DD0010E94CF
:1007F600010EF90131960E94AA0AE881F9810E9448
:10080600B10A0E94010E22962F5F3F4FBACF0F5FAB
:100816001F4FAECF0E943E0E28960895AA93EBB3C3
:10082600EF70AE2FE881E07FEA2BEBBB8DE08A9577
:10083600F1F7DA9A8DE08A95F1F7DA988DE08A95E4
:10084600F1F70C94AD04AA93A881E8DFE881E2955C
:10085600E883A881E3DF85E88A95F1F77BC0AA9350
:10086600E881F0E0E859FC4FE081A981AE0FEBDFAB
:10087600A980D88022960895A2E00E94B60AACE02C
:10088600E2DFA1E00E94B60AE0E0DE2EAE2E089579
:10089600AA93A881AA3011F0AC1448F0E0E0EA93DC
:1008A600D394AD2DDCDFA881AA3009F453C0A394FC
:1008B600D89AA881C8DFD8984DC0BA93AA931A933C
:1008C6000E94BC0A19F0A12FE3DFFACF50C0BA93F9
:1008D600AA931A93E981FA813196E983FA833197CB
:1008E600E4911E2FE03019F0A12FD2DFF3CF3FC0E5
:1008F600AA93EAB3E06FEABBD29AD09AD19ADA9871
:10090600D898D998C880E881E058E0936A03E881CE
:10091600E054E0936B03A4E1B0E00E94C00B0E9498
:10092600C40A0E94C40A0E94C40AA0E277DF88ECC7
:1009360090E00197F1F7A8E286DFA4E084DFA5E85E
:1009460082DFA6E080DF98DF05C0AA935D9BFECF1D
:10095600E881ECB921960895BA93AA931A930E9456
:10096600BC0A19F0A12FF1DFFACFAAE0EEDF188159
:1009760023960895BA93AA931A930A93AA81BB81E0
:1009860012960E94F70D309729F1AA81BB81149621
:100996000E94F70D8F01309761F00230E0E01E07EC
:1009A60080F0F80131978F01AA81BB811496ED93EF
:1009B600FC93AA81BB8112960E94CC0A3197AC8126
:1009C600A083AA81BB810E94F70DFF2312F00E942B
:1009D600CC0A06C0AA81BB81EFEFFFEFED93FC9333
:1009E60019810881259608950E94D20AE0E8EA83D3
:1009F600EFE3EB830E94370EEE85FF85EF3FAFEF07
:100A0600FA0749F4E885F985FA93EA93A6E8B0E08F
:100A16000E94D908B7C0EF3FAFE7FA0749F4E88567
:100A2600F985FA93EA93A7E8B0E00E94D908AAC02C
:100A3600AB85A73010F0E6E0EB871B85E12F115060
:100A4600E03019F00E94D90AF9CFEC85FD856E8554
:100A56007F850E942C0E21F430E00E94D90A2DC019
:100A66003B850E94E80A09F008F40BC00E94D90AE7
:100A76000E94E80A28F00E94F30A0E94F80AF8CFBA
:100A86000DC00E94E80A40F40E94F30A0E94040B7B
:100A96000E940B0B3150F5CF0E94D90AEC85FD85DB
:100AA6006E857F850E94100B0E940B0B0E94E80A40
:100AB60020F00E94F30A0E94F80A10E0EB85E11785
:100AC600A8F1AC81BD818E819F810E94170B0E9487
:100AD600100BDF01CB010E943009EC83FD836E838E
:100AE6007F830E94F30A0E940E0D0E94FD0B0E2FBB
:100AF6000E941E0B0E94250BFF27662777270E9460
:100B0600360CAC81BD818E819F810E94C00C0E94F3
:100B1600F30A0E942A0B0E940B0BE12F1F5FE030A5
:100B260069F60E941E0BEEE2EC93C8CF0E942F0BD3
:100B36003197AA85A08330302CF43195A885B985E4
:100B4600EDE203C0A885B985EBE2EC930E942F0B7A
:100B56000E942F0B3197BF01A32FEAE00E94B10D2F
:100B6600E05DDB01EC930E942F0B3197BF01A32FB1
:100B7600EAE00E94DB0DE05DDB01EC93A885B98518
:100B8600E0E0EC930E943E0E60960895BA93AA9315
:100B9600EF9761970E94350E10E0FE01E85AFF4F6D
:100BA6000190F081E02DE887F987FE01EA5AFF4FB0
:100BB6000190F081E02DEE83FF83AE81BF81E0E0FE
:100BC600F0E0ED93FC93DE01A45ABF4F0E94CC0ADD
:100BD6003197E4912E2FE03009F4E9C1E12FE0309E
:100BE60039F4253211F411E002C00E94350BDEC142
:100BF600E130C1F4253219F40E94350BD6C112E05A
:100C0600E0E0ED8B00E02D3211F401E0CFC12B3294
:100C160019F4EBE2ED8BCAC1203219F4E0E2ED8B58
:100C2600C5C102C0E23039F450E013E0203311F4BC
:100C36000068BCC102C0E33091F4203310F02A33BF
:100C460008F007C0AAE05A9F502DE22FE0535E0F2E
:100C5600ADC140E02E3211F414E0A8C10FC0E4305B
:100C660099F4203310F02A3308F008C00062AAE095
:100C76004A9F402DE22FE0534E0F98C12C3619F4AF
:100C8600026015E093C103C0E53009F08FC1E22F81
:100C9600E33659F40E943C0B0E94430B0E943C0B26
:100CA600A481AA930E944A0B80C1E53411F0E5366F
:100CB60009F403C0E63609F048C0FE017696EE87D1
:100CC600FF870E94500B0E94FB0D0E94570B0E944B
:100CD6005C0BAD85AA2332F0AD89AB3259F0A03258
:100CE60081F017C00E945E0B0E94CA0B0E94570B30
:100CF600EDE2ED8B07FF05C0ED89EA930E944A0BF2
:100D060008C0EE85FF853196EE87FF873197AD895E
:100D1600A08305FF46E0263651F40E945E0B0E9432
:100D2600150E4A93AB89BC890E94170809C00E9418
:100D36005E0B0E94150E4A932A93AC89BD8954DE38
:100D4600FE0176960E94630B1EC0E33739F40E94BB
:100D56005C0B0E946B0B0E94630B0EC0E037C1F464
:100D66000E945C0B0E946B0BEE87FF87AE85BF85EA
:100D76000E94F2081E2F08600F77403011F04117CD
:100D860008F001C0142F40E0E0E0EC8B30E06DC0CD
:100D9600E43611F0E93611F4046002C0E537A1F437
:100DA600EAE0EC8B01FF08C0E0E0FAEC6AE97BE3DD
:100DB6000E94700B1AE022C0E0E1F7E260E070E00A
:100DC6000E94700B15E01AC0E83511F4086003C0E4
:100DD600E83709F0EAC0E0E1EC8B01FF08C0E0E08B
:100DE600F0E060E070E10E94700B18E007C0E0E000
:100DF600F0E160E070E00E94700B14E0403011F00A
:100E06000F7701C041E001FF08C00E945C0B0E9401
:100E1600500B14960E94FB0D0FC002FF07C00E94E4
:100E26005C0B0E946B0B0E949E0D06C00E945C0B21
:100E36000E946B0B66277727EA87FB876C877D877F
:100E460002FF12C0AD85AA2342F40E945E0B0E94E7
:100E5600860D0E94570BEDE2ED8BED89E03019F01F
:100E66001F5F4F5F01C00B7F342F00FD14C01517A5
:100E760010F4351708F00FC007FF08C002FF04C0C2
:100E86000B7F2D89115001C020E301C020E20E9492
:100E9600350B5150ECCF141790F4006102FF06C0D9
:100EA6000E94750B09F0515011504150E0E3EA934E
:100EB6000E944A0B503009F051504150ECCF312F6F
:100EC600EC89E030B9F43030A1F003FF06C0EE85BE
:100ED600FF852591EE87FF8705C0AE85BF852D91DD
:100EE600AE87BF870E94350B503009F05150315004
:100EF600EACF51C00E94870B0E94B60D2E2F2A30D2
:100F060030F003FF02C0295C01C0295A01C0205DF0
:100F160004FD21C0213360F4A889B9898A899B8997
:100F2600A130E0E0BE07E0E08E07E0E09E0709F4AE
:100F36000BC0431740F4531710F000FF01C010C058
:100F460020E207FF08C020E3006102FF04C00E9400
:100F5600750B09F051500E94350B503009F0515075
:100F660031500E94870B0E94E70D0E94570BEC89B7
:100F7600A889B9898A899B89FF27662777270E94CE
:100F8600B60D0E94700BE889F9896A897B890E94EF
:100F96002C0E09F0AFCF00FF08C0503031F0515091
:100FA600E0E2EA930E944A0BF8CF10E00CCEAE8145
:100FB600BF810E94F70D0E943C0EEF966F96089532
:100FC600FF92F82E26970E94370E0E94900B3097BC
:100FD60019F4EFEFFFEF23C0DE0116960E94730DA2
:100FE6008D010E94900BEE83FF83E0E0E887E9879E
:100FF600DE011A960E94730D0E94F70DFA93EA938A
:101006001A930A93EDEBF4E0FA93EA93DE011A964B
:10101600BDDD9F01AE81BF81E0E0EC93F9010E9446
:101026003E0E2A96FF9008950E94D20AE0E0EA83D7
:10103600EFE3EB831A930A93EB85FC85EF3FAFEF63
:10104600FA0739F40E94970BAEE8B0E00E94D9087F
:10105600A9C0EF3FAFE7FA0739F40E94970BAFE854
:10106600B0E00E94D9089EC0AC85AA2362F4E98547
:10107600FA856B857C850E94CA0B0E949C0B0E9498
:10108600A10BEDE2EC93A885A73010F0E6E0E88727
:101096001885E12F1150E03039F00E94A80B0E940C
:1010A600170B0E94AD0BF5CF0E94B20B0E94700C7D
:1010B6000E949C0B10E0E0E0F0E060E87FE30E9415
:1010C600AD0B0E94B20B0E94530D88F00E94A80B34
:1010D6000E94040B0E94AD0B1F5F173238F00E946E
:1010E600970BA3E9B0E00E94D9085CC0EACF1030A4
:1010F60029F40E94A10BE0E3EC9329C0E12F1150E3
:10110600E03029F10E94A80B0E94170B0E94100BD9
:10111600DF01CB010E9430090E94AD0B0E94B20B89
:101126000E940E0D0E94FD0B0E2F0E94A10B0E9425
:10113600250BF0E00E94A80B0E94B10A0E94C00C89
:101146000E94BB0B0E942A0B0E949C0BD7CFE885FE
:10115600E03021F10E94A10BEEE2EC93E885E1502C
:10116600E887EF5FD9F00E94BB0B0E94040B0E9438
:101176009C0BE985FA856B857C850E94FD0B0E2FFD
:101186000E94A10B0E94250BF0E00E94BB0B0E945F
:10119600B10A0E942A0B0E949C0BE0CFAE81BF8150
:1011A600E0E0EC93198108812D960895BA93AA93ED
:1011B600E991F991A991B991CD0105900D9200207F
:1011C600E1F7FC010895BA93AA93A991B991EE2784
:1011D600FF276D91662311F03196FBCF0895BA93E0
:1011E600AA93AA27BB27E991F9910590002011F04F
:1011F6001196FBCFFD0108950E941A0E7B816A812C
:10120600F981E88177FB770F67FD7160972F9E570D
:1012160081F078F0983190F4AA27BB2788270894A4
:101226008795B795A7959A95D1F7EA23FB23682367
:1012360005C0E8947727EE27FF2766276F77769510
:1012460008F4606877F9A991B99189919991EA179B
:10125600FB076807790797FB08950E941A0E0E94FC
:101266000B0E0E94FF080E94100E19F40E94060E33
:1012760009C0E6F70E94060EA0E0B0E080E89FE312
:101286000E94690C24960895E0918402F0918502EB
:1012960060918602709187020E94150E0895FA9356
:1012A600EA93EAE6F0E0FA93EA9308956627772749
:1012B6000E94150E84E00E94E30728960895E091A7
:1012C6008802F091890260918A0270918B020E94D5
:1012D600150E0895E0918C02F0918D0260918E02B8
:1012E60070918F020E94150E0895E0E0E983EA836B
:1012F600EB83EC830895E981FA816B817C81089503
:101306000E94930DE983FA836B837C830895F3DF50
:10131600EF5FFF4F6F4F7F4FE983FA836B837C83C9
:101326000895A981BA818B819C81E0E0F0E060E8B4
:1013360070E00E94810DE983FA836B837C830895B4
:10134600E0E0E0937802E0937902E0937A02E0939A
:101356007B020895E0937802F093790260937A0213
:1013660070937B020895A0917802B09179028091E2
:101376007A0290917B020895E4E6F0E060E070E086
:101386000E94B60D0895E0936002F09361026093A7
:101396006202709363020895E0916002F091610227
:1013A60060916202709163020895F6DF0E94340C28
:1013B600DF01CB010895EDE4F0EA68EB7EE30E94DD
:1013C6000E0D08950E94FD0B0E94010EF80108956E
:1013D6000E948E0DEA0FFB1F0895E0E0F0E060EF3B
:1013E60071E40E940E0D08950E948E0DAE0FBF1F70
:1013F600E0E0F0E060E070E00895E0E0E0937C0279
:10140600E0937D02E0937E02E0937F020895E093ED
:101416007C02F0937D0260937E0270937F020895B2
:10142600A0917C02B0917D0280917E0290917F0214
:101436000895E0936802F093690260936A027093DC
:101446006B020895E0916802F091690260916A0268
:1014560070916B020895F6DF0E94340CDF01CB0118
:101466000895E0E0E0938002E0938102E093820237
:10147600E09383020895E0938002F09381026093E3
:101486008202709383020895A0918002B091810236
:1014960080918202909183020895E0937002F09306
:1014A600710260937202709373020895E091700264
:1014B600F091710260917202709173020895F6DFE5
:1014C6000E94340CDF01CB010895FA93EA93A7E05A
:1014D600B0E00C94B103A0919002B091910280917A
:1014E6009202909193020895A0919402B091950270
:1014F60080919602909197020895A0919802B091DA
:10150600990280919A0290919B020895E0E0F0E0A2
:1015160060E070E40E940E0D08951A930A9300E0AD
:1015260010E0089588EE93E00197F1F70895EAE058
:10153600F0E060E070E00E94B60D0895AE81BF81D4
:101546000E948E0DAE0FBF1F0E94FB0D0895A88549
:10155600B9850E948E0DAE0FBF1F08950E949E0D85
:101566000E94360C08950E942604A3E0B0E00C9475
:10157600C00BA981BA81ED91A983BA831E2FE030F1
:101586000895A0E30E94110488EC90E00197F1F71A
:101596000895ED91FD913196FE93EE930895BA93D9
:1015A600AA932497E0E0E883E9830895AC81BD819E
:1015B6008E819F81E0E0F0E060E271E40E94C00C61
:1015C600EC83FD836E837F830895EC81FD816E81BC
:1015D6007F81AC85BD858E859F850E94530D0895BC
:1015E600AC85BD858E859F850895EDECFCEC6CEC95
:1015F6007DE30E94C00CEC87FD876E877F873F5F87
:101606000895E0E0F0E060E271E40E94C00C089505
:10161600EC87FD876E877F870895A0E0B0E080E0C5
:101626009FE30E94700C0895EDECFCEC6CEC7DE3FE
:101636000E94C00C0895A885B9851196A887B98718
:1016460011970895E02FE05DEC93E02F08950E9436
:101656001F0E0E94690C0895E885F9853196E88782
:10166600F98708952A93AF81B885E985FA850995A2
:101676000895FE01E65AFF4F0190F081E02D08958E
:101686003497DE01A65ABF4FED93FC930895AF81C0
:10169600B885E985FA8509950895DE01A65ABF4FF2
:1016A6000D90BC91A02D0895EA87FB876C877D87F6
:1016B6000895DFDFE5CFEA85FB856C857D85089596
:1016C600EE87FF87AE85BF850E94E6081E2F089528
:1016D600E4DF14960E94F70D0895E88BF98B6A8B68
:1016E6007B8B08950B7FED89EA93DE01A95ABF4FE4
:1016F6000D90BC91A02DFE01E75AFF4F0190F0819D
:10170600E02D099550300895E889F9896A897B8921
:10171600AA85BB858C859D850895DE011C960E9451
:10172600730D0E94F70D0895EE81FF81FA93EA93F7
:101736000895E987FA876B877C870895AE81BF8114
:101746001196AE83BF8311970895AA81BB818C81C0
:101756009D810895EA83FB836C837D830895EA81E6
:10176600FB816C817D81A985BA858B859C850895D1
:10177600A985BA858B859C850895109639F080EDEC
:1017860097E00197F1F7A8951197C9F70895309753
:101796006040704009F070580895552342F450385F
:1017A60011F4E0FF04C03196691F791F6BF050E811
:1017B600572711F45F93CFC05F3F31F0660F000CDF
:1017C60057956795752F08955F9300200AF0CFC04F
:1017D600C8C050E8192E1522880F991F9527550F56
:1017E600879550E8072E0522660F771F7527550F38
:1017F60067950895689401C0E8945F93F2DF7038A6
:1018060018F07F3F08F4A7C056E1571BAAF451957C
:1018160058300EF4593030F0EFEFFFEF6FEF7FE7FF
:1018260077F91AC077275523B9F0EE0FFF1F661F09
:10183600771F5A95D1F710C07727583028F0EF2F29
:10184600F62F672F5850F9CF552331F076956795C7
:10185600F795E7955A95D1F700200AF454D15F9190
:101866000895689401C0E894309760407040B1F0E4
:10187600002426F0772312F4009445D1172E7EE13A
:10188600112032F07A95EE0FFF1F661F111CF9CF5B
:10189600EF2FF62F612D5F938ADF5F9108954F93A7
:1018A600AF01FD01DA01AB01BC01CA01402D012CDB
:1018B600142E4F910895EA0FFB1F681F0895E095B7
:1018C600F0956095EF5FFF4F6F4F08955F9381DF4F
:1018D600903871F150E8152604C05F937ADF90388E
:1018E60039F1703821F1572F591B2BF112F4D7DF3C
:1018F600FACF583118F0AA27BB278827583028F086
:10190600AB2FB82F88275850F9CF552329F0869545
:10191600B795A7955A95D9F7502D512572F0CBDF7B
:1019260038F46795F795E795739513F420C0B7DFFC
:101936003EDF5F910895D8F7FBCFEA1BFB0B680BE0
:1019460051F010F40094BBDF662392F3EE0FFF1FF5
:10195600661F7A95CBF7EE27FF27662777275F91D5
:101966000895EFEFFFEF6FE77FEF5F910895EFEFD9
:10197600FFEF6FE77FE75F9108955F932ADF703887
:1019860051F3903841F301240894791F23F41CF392
:1019960000203AF3ECCF0F921F932F933F934F9370
:1019A600112722279927689FA0018F9F302D410D6F
:1019B600591F6B9F300D411D591F8E9F27D0BF9F0A
:1019C60025D06A9F23D0BE9F1DD0AF9F1BD0AE9F50
:1019D600110D291F391F491F591FE32FF42F652F9A
:1019E600522F4F913F912F911F910F9066232AF00E
:1019F600550FEE1FFF1F661F02C073954BF2CDDE1B
:101A06005F910895100D211D391F02C0200D311D53
:101A1600491F591F08955F93DCDE703821F41120A9
:101A26000AF49FCFA4CF903809F495CF01240894E7
:101A3600970B1BF4D4F30020F3CF792F1F932F932A
:101A46003F934F93112411272227332744275527E5
:101A560090E2AE17BF078607410730F0AE1BBF0BFB
:101A6600860B410B089401C08894551F221F331F13
:101A7600111CAA1FBB1F881F441F9A9551F7F90115
:101A8600612D4F913F912F911F91662332F0550F93
:101A9600EE1FFF1F661F7A9543F27FDE5F91089562
:101AA60099239AF0772342F0971748F029F4AE1756
:101AB600BF07860720F031F098948894089598948B
:101AC600089408951894889408957723C2F7971771
:101AD60098F3A9F7EA17FB07680788F399F3ECCFA1
:101AE6000024AF0DB01D0895EA0FFB1F681F791F74
:101AF6000895EA1BFB0B680B790B0895EA27FB2771
:101B0600682779270895F09560957095E195FF4FC0
:101B16006F4F7F4F0895EE0FFF1FEE0FFF1F0895C3
:101B2600EE0FFF1F661F771F0895FE2FFF0FFF0B97
:101B36006F2F7F2F08956F2F660F660B762F0895F0
:101B4600002498E0AA0F001C0E1A10F40E0E01C015
:101B5600A1609A95B9F7EA2FA02D089539D0F0DF44
:101B66000EF4E19508953F934F935F93002411245B
:101B76004427552730E2AA0FBB1F881F991F001C58
:101B8600111C441F551F0E1A1F0A460B570B28F42B
:101B96000E0E1F1E461F571F01C0A1603A9559F72A
:101BA600FD01BC01D001CA015F914F913F9108959B
:101BB600E894A7FF02C0A1956894E7FDE195C0DF10
:101BC600EA2F0EF4E1950895CEDFFD01BC010895DC
:101BD600E894E7FF02C0E1956894A7FF04C0A195C9
:101BE60000F8039400FA0895ED91FC911197089579
:101BF600ED91FD916D917C9113970895ED93FD9371
:101C06006D937C930895E881F9816A817B810895BB
:101C1600A881B9818A819B810895E883F9836A83C3
:101C26007B8308957A936A93FA93EA9308959A9335
:101C36008A93BA93AA930895182E862F612D192E8A
:101C4600972F712D1B2EBF2FF12D1A2EAE2FE12DA2
:101C560008953097604070400895EA17FB076807BB
:101C6600790708955A934A933A932A931A930A93B3
:101C760008955D814C813B812A81198108810895EF
:00000001FF
