:100000000C945F000C9400000C9400000C94000011
:100010000C9400000C948E000C9400000C940000D2
:100020000C9400000C9400000C9400000C94000050
:100030000C9400000C94A4000C9400000C9400009C
:100040000C9400000C9400000C9400000C94000030
:100050000C94000000004B000000000000000000B5
:100060000000000000000000446F63746F72206E97
:100070006164657269002573002025342E3166673E
:100080002025342E3166672025342E316667000026
:1000900080C02D4E414E000001002D4E414E0049C2
:1000A0004E46000001000200540006000600560003
:1000B0000200400490000100440498000000F894FD
:1000C000EE27ECBBF1E0F5BFE5BFF8E1F1BDE1BD26
:1000D0008DE0A2E0BB27ED938A95E9F780E098E0F8
:1000E000A0E6ED930197E9F7E4EAF0E085919591B8
:1000F000009761F0A591B59105901590BF01F001B1
:1001000005900D920197E1F7FB01F0CFEFE5EDBF10
:10011000E8E0EEBFC0E6D2E00C94C700EA93FA93A1
:10012000EFB7EA93E2EBE4BD6414750409F4A9980F
:10013000F20131962F01E4E6F0E04E165F0618F06A
:1001400044245524A99A1EC0EA93FA93EFB7EA9380
:100150001A930A931BB10CB1E12FEC7189F4E92DCC
:100160009394F0E0E85DFB4F0083E8E1E91509F4C2
:100170009924B394E8E1EB1519F4BB24689420F8B2
:1001800009911991E991EFBFF991E9911895E0E092
:10019000EBBBEABBE1E0E7BBE0E0E8BBE3E0E4BBEC
:1001A000E0E0E5BBE6E1E1BBE0E0E2BBEBB9E8E9BA
:1001B000EAB9E6E8E0BDE0E0E0BDE3E3E9B951D249
:1001C000A0E10E948204A8E6B0E00E947104A8EEBB
:1001D000B3E00E94F10BE0E0E2BDE7E0E5BDE2EB59
:1001E000E4BDE0E0E3BDE0E4E9BF7894E8D00E943C
:1001F0004A09E2E0EA93AAE0B4E00E941E08E8ECB3
:10020000F3E00E945509EAE0F4E00E945C090E94D4
:100210006509E2E0EA93A4E1B4E00E941E08E4ED7F
:10022000F3E00E945509E4E1F4E00E945C090E94B9
:100230007009E2E0EA93AEE1B4E00E941E08E0EE4D
:10024000F3E00E945509EEE1F4E00E945C09E8EC5D
:10025000F3E0FA93EA93E4EDF3E0FA93EA93A0EE85
:10026000B3E064D2ECEEF3E0FA93EA93E9E7F0E06E
:10027000FA93EA930E944A090E9465090E94700954
:100280008CE00E94EA0760960E944604E0E0EA9350
:10029000A0E00E943904ACEEB3E00E946704AAE03B
:1002A000B0E00E94F10BA2CFFFCF2C978CE0A0E032
:1002B000B0E0ECE5F0E00E94790E1A93E0E0E09304
:1002C0007802E0937902E0937A02E0937B02E09374
:1002D0007C02E0937D02E0937E02E0937F02E09354
:1002E0008002E0938102E0938202E0938302839A8A
:1002F0009298859A9498B19AC0988399FECF10E00D
:10030000183190F5929A949AC09A0E947B090E94A3
:10031000C40D0E9480090E9485090E94C40D0E949C
:100320008A090E948F090E94C40D0E949409929824
:100330009498C098839B06C00E947B090E949909EB
:100340000E948009859B06C00E9485090E94990928
:100350000E948A09B19B06C00E948F090E949909D8
:100360000E9494091F5FCCCF929A949AC09A0E94DF
:100370009E090E94A3090E948009AD81BE818F81E0
:1003800098850E94A3090E948A09A981BA818B815C
:100390009C810E94A3090E94940992989498C09805
:1003A0000E947B090E94AA090E9485090E94B30944
:1003B0000E948F090E94BC0918812D9608950E9401
:1003C0006D0E0E94C50920E030E02430E0E03E07D9
:1003D00008F00DC100E010E00931E0E01E0708F070
:1003E000C7C063DF0E94DF090E94E8090E94AA09D2
:1003F000E0916402F091650260916602709167027B
:100400000E94DF090E94660E38F50E94EF090E94E3
:10041000F809A0916402B091650280916602909102
:1004200067020E94010A0E94AD0D0E94F8090E9415
:100430000A0A0E94100AA0E6B2E00E94170AACE97C
:10044000B2E00E941D0AFF93EF930E940A0A0E94E5
:10045000220AAF91BF9105C0F801ACE9B2E00E9459
:10046000290A0E94320E0E94320A0E94E8090E9464
:10047000B309E0916C02F0916D0260916E0270918F
:100480006F020E94320A0E94660E38F50E943B0AF3
:100490000E94440AA0916C02B0916D0280916E029C
:1004A00090916F020E944D0A0E94AD0D0E94440A75
:1004B0000E94560A0E94100AA8E6B2E00E94170A9B
:1004C000A0E0B3E00E941D0AFF93EF930E94560A3A
:1004D0000E94220AAF91BF9105C0F801A0E0B3E0ED
:1004E0000E94290A0E94320E0E945C0A0E94E809BA
:1004F0000E94BC09E0917402F0917502609176024D
:10050000709177020E945C0A0E94660E38F50E9484
:10051000650A0E946E0AA0917402B09175028091E2
:100520007602909177020E94770A0E94AD0D0E9498
:100530006E0A0E94800A0E94100AA0E7B2E00E94A0
:10054000170AA4E6B3E00E941D0AFF93EF930E94EE
:10055000800A0E94220AAF91BF9105C0F801A4E66B
:10056000B3E00E94290A0E94320E0F5F1F4F34CF62
:10057000ECE9F2E00E94860AE0E0F3E00E94860ADD
:10058000E4E6F3E00E94860AA091CC02B091CD028D
:100590008091CE029091CF020E948C0A0E94930A11
:1005A0000E949C0A0E94A10AA0913003B0913103DD
:1005B00080913203909133030E948C0A0E94AA0A10
:1005C0000E949C0A0E94B30AA0919403B0919503E3
:1005D00080919603909197030E948C0A0E94BC0A16
:1005E0000E949C0A0E94C50A2F5F3F4FEECEE09109
:1005F0008402F091850260918602709187020E94C8
:10060000CE0AE0939002F09391026093920270936D
:100610009302E0918802F091890260918A027091C0
:100620008B020E94CE0AE0939402F09395026093AD
:10063000960270939702E0918C02F0918D02609186
:100640008E0270918F020E94CE0AE0939802F0937E
:10065000990260939A0270939B020E94740E2496F2
:1006600008951A930A9300E010E00E94C50900E083
:1006700010E00A30E0E01E0704F517DE0E94EF09E3
:100680000E94930A0E94A80D0E94A10A0E943B0AA0
:100690000E94AA0A0E94A80D0E94B30A0E94650A3D
:1006A0000E94BC0A0E94A80D0E94C50A88EE93E031
:1006B0000197F1F70F5F1F4FDCCF0E94930A0E9452
:1006C000D90A0E94A10A0E94930A0E94E809E093B5
:1006D0006402F093650260936602709367020E9461
:1006E000AA0A0E94D90A0E94B30A0E94AA0A0E947A
:1006F000E809E0936C02F0936D0260936E027093D0
:100700006F020E94BC0A0E94D90A0E94C50A0E9478
:10071000BC0A0E94E809E0937402F09375026093AA
:10072000760270937702099119910895BA93AA936A
:10073000A1E40E94AF04AC81BD810E94B604A5E48F
:100740000E94AF04A2E40E94AF04AA81BB810E9470
:10075000B604A5E40E94AF04A3E40E94AF04A881FC
:10076000B9810E94B604AEE40E94AF0426960895B3
:10077000BA93AA930E946D0E00E010E020E030E0F2
:1007800000E010E0EC81FD8131970E171F070CF09F
:100790004BC020E030E0F8013196AC81BD810E9471
:1007A0005B0EEA1BFB0B2E173F07DCF5F9010E94DD
:1007B000E00A7F936F93FF93EF93F90131960E94C4
:1007C000E00AAF91BF918F919F910E94840D09F033
:1007D00008F424C02297F9010E94E90A0E94280E19
:1007E0000E942E0CE883F983F901A885B9850E943F
:1007F0001D0A0F01F90131960E94E90A0E942C0E90
:10080000D0010E94320EF90131960E94E90AE88176
:10081000F9810E94F00A0E94320E22962F5F3F4F0C
:10082000BACF0F5F1F4FAECF0E94740E2896089567
:10083000AA93EBB3EF70AE2FE881E07FEA2BEBBB1E
:100840008DE08A95F1F7DA9A8DE08A95F1F7DA98DA
:100850008DE08A95F1F70C94B404AA93A881E8DF9F
:10086000E881E295E883A881E3DF85E88A95F1F7DE
:100870007BC0AA93E881F0E0E05CFB4FE081A981B6
:10088000AE0FEBDFA980D88022960895A2E00E94E7
:10089000F50AACE0E2DFA1E00E94F50AE0E0DE2E1E
:1008A000AE2E0895AA93A881AA3011F0AC1448F096
:1008B000E0E0EA93D394AD2DDCDFA881AA3009F4FF
:1008C00053C0A394D89AA881C8DFD8984DC0BA93D2
:1008D000AA931A930E94FB0A19F0A12FE3DFFACF23
:1008E00050C0BA93AA931A93E981FA813196E983A9
:1008F000FA833197E4911E2FE03019F0A12FD2DF57
:10090000F3CF3FC0AA93EAB3E06FEABBD29AD09A82
:10091000D19ADA98D898D998C880E881E058E093BD
:100920004204E881E054E0934304A4E1B0E00E9473
:10093000F10B0E94030B0E94030B0E94030BA0E229
:1009400077DF88EC90E00197F1F7A8E286DFA4E07A
:1009500084DFA5E882DFA6E080DF98DF05C0AA93E8
:100960005D9BFECFE881ECB921960895BA93AA93D6
:100970001A930E94FB0A19F0A12FF1DFFACFAAE027
:10098000EEDF188123960895BA93AA931A930A93D7
:10099000AA81BB8112960E94280E309729F1AA8164
:1009A000BB8114960E94280E8F01309761F00230AF
:1009B000E0E01E0780F0F80131978F01AA81BB812A
:1009C0001496ED93FC93AA81BB8112960E940B0BA7
:1009D0003197AC81A083AA81BB810E94280EFF239E
:1009E00012F00E940B0B06C0AA81BB81EFEFFFEF54
:1009F000ED93FC9319810881259608950E94110BAF
:100A0000E0E8EA83EFE3EB830E946D0EEE85FF855D
:100A1000EF3FAFEFFA0749F4E885F985FA93EA93D7
:100A2000A2E9B0E00E94DC08B7C0EF3FAFE7FA07E9
:100A300049F4E885F985FA93EA93A3E9B0E00E94C6
:100A4000DC08AAC0AB85A73010F0E6E0EB871B8579
:100A5000E12F1150E03019F00E94180BF9CFEC850E
:100A6000FD856E857F850E94620E21F430E00E9434
:100A7000180B2DC03B850E94270B09F008F40BC012
:100A80000E94180B0E94270B28F00E94320B0E9434
:100A9000370BF8CF0DC00E94270B40F40E94320B99
:100AA0000E94430B0E944A0B3150F5CF0E94180B55
:100AB000EC85FD856E857F850E944F0B0E944A0B59
:100AC0000E94270B20F00E94320B0E94370B10E08F
:100AD000EB85E117A8F1AC81BD818E819F810E94D9
:100AE000560B0E944F0BDF01CB010E943309EC83B0
:100AF000FD836E837F830E94320B0E943F0D0E9414
:100B00002E0C0E2F0E945D0B0E94640BFF276627A0
:100B100077270E94670CAC81BD818E819F810E94E6
:100B2000F10C0E94320B0E94690B0E944A0BE12FCC
:100B30001F5FE03069F60E945D0BEEE2EC93C8CFD8
:100B40000E946E0B3197AA85A08330302CF431952A
:100B5000A885B985EDE203C0A885B985EBE2EC93E1
:100B60000E946E0B0E946E0B3197BF01A32FEAE02B
:100B70000E94E20DE05DDB01EC930E946E0B319769
:100B8000BF01A32FEAE00E940C0EE05DDB01EC93B5
:100B9000A885B985E0E0EC930E94740E60960895F4
:100BA000BA93AA93EF9761970E946B0E10E0FE0133
:100BB000E85AFF4F0190F081E02DE887F987FE01A8
:100BC000EA5AFF4F0190F081E02DEE83FF83AE8162
:100BD000BF81E0E0F0E0ED93FC93DE01A45ABF4F4B
:100BE0000E940B0B3197E4912E2FE03009F4E9C1FC
:100BF000E12FE03039F4253211F411E002C00E94F7
:100C0000740BDEC1E130C1F4253219F40E94740B7B
:100C1000D6C112E0E0E0ED8B00E02D3211F401E0EE
:100C2000CFC12B3219F4EBE2ED8BCAC1203219F49B
:100C3000E0E2ED8BC5C102C0E23039F450E013E0D0
:100C4000203311F40068BCC102C0E33091F42033BA
:100C500010F02A3308F007C0AAE05A9F502DE22F67
:100C6000E0535E0FADC140E02E3211F414E0A8C194
:100C70000FC0E43099F4203310F02A3308F008C094
:100C80000062AAE04A9F402DE22FE0534E0F98C128
:100C90002C3619F4026015E093C103C0E53009F069
:100CA0008FC1E22FE33659F40E947B0B0E94820B26
:100CB0000E947B0BA481AA930E94890B80C1E5341A
:100CC00011F0E53609F403C0E63609F048C0FE012C
:100CD0007696EE87FF870E948F0B0E942C0E0E9453
:100CE000960B0E949B0BAD85AA2332F0AD89AB32E7
:100CF00059F0A03281F017C00E949D0B0E94FB0B9F
:100D00000E94960BEDE2ED8B07FF05C0ED89EA939B
:100D10000E94890B08C0EE85FF853196EE87FF871C
:100D20003197AD89A08305FF46E0263651F40E9435
:100D30009D0B0E94460E4A93AB89BC890E941E08F7
:100D400009C00E949D0B0E94460E4A932A93AC89CB
:100D5000BD8954DEFE0176960E94A20B1EC0E337C9
:100D600039F40E949B0B0E94AA0B0E94A20B0EC09A
:100D7000E037C1F40E949B0B0E94AA0BEE87FF870D
:100D8000AE85BF850E94F5081E2F08600F774030A2
:100D900011F0411708F001C0142F40E0E0E0EC8BA7
:100DA00030E06DC0E43611F0E93611F4046002C0A1
:100DB000E537A1F4EAE0EC8B01FF08C0E0E0FAECD3
:100DC0006AE97BE30E94AF0B1AE022C0E0E1F7E2A0
:100DD00060E070E00E94AF0B15E01AC0E83511F436
:100DE000086003C0E83709F0EAC0E0E1EC8B01FFDE
:100DF00008C0E0E0F0E060E070E10E94AF0B18E0B6
:100E000007C0E0E0F0E160E070E00E94AF0B14E0AA
:100E1000403011F00F7701C041E001FF08C00E948F
:100E20009B0B0E948F0B14960E942C0E0FC002FF8A
:100E300007C00E949B0B0E94AA0B0E94CF0D06C008
:100E40000E949B0B0E94AA0B66277727EA87FB87E5
:100E50006C877D8702FF12C0AD85AA2342F40E94F1
:100E60009D0B0E94B70D0E94960BEDE2ED8BED8974
:100E7000E03019F01F5F4F5F01C00B7F342F00FD82
:100E800014C0151710F4351708F00FC007FF08C07D
:100E900002FF04C00B7F2D89115001C020E301C067
:100EA00020E20E94740B5150ECCF141790F40061B3
:100EB00002FF06C00E94B40B09F05150115041507E
:100EC000E0E3EA930E94890B503009F05150415001
:100ED000ECCF312FEC89E030B9F43030A1F003FFD2
:100EE00006C0EE85FF852591EE87FF8705C0AE859C
:100EF000BF852D91AE87BF870E94740B503009F0DB
:100F000051503150EACF51C00E94C60B0E94E70DEC
:100F10002E2F2A3030F003FF02C0295C01C0295A6D
:100F200001C0205D04FD21C0213360F4A889B98986
:100F30008A899B89A130E0E0BE07E0E08E07E0E00F
:100F40009E0709F40BC0431740F4531710F000FF3D
:100F500001C010C020E207FF08C020E3006102FFCB
:100F600004C00E94B40B09F051500E94740B503021
:100F700009F0515031500E94C60B0E94180E0E9479
:100F8000960BEC89A889B9898A899B89FF276627EE
:100F900077270E94E70D0E94AF0BE889F9896A89DB
:100FA0007B890E94620E09F0AFCF00FF08C050306D
:100FB00031F05150E0E2EA930E94890BF8CF10E043
:100FC0000CCEAE81BF810E94280E0E94720EEF9659
:100FD0006F960895FF92F82E26970E946D0E0E943C
:100FE000CF0B309719F4EFEFFFEF23C0DE01169619
:100FF0000E94A40D8D010E94CF0BEE83FF83E0E0E1
:10100000E887E987DE011A960E94A40D0E94280E47
:10101000FA93EA931A930A93E4ECF4E0FA93EA93CE
:10102000DE011A96BDDD9F01AE81BF81E0E0EC9349
:10103000F9010E94740E2A96FF9008950E94110BE8
:10104000E0E0EA83EFE3EB831A930A93EB85FC85F8
:10105000EF3FAFEFFA0739F40E94D60BAAE9B0E0F0
:101060000E94DC08A5C0EF3FAFE7FA0739F40E9401
:10107000D60BABE9B0E00E94DC089AC0AC85AA238D
:1010800052F40E947B090E94FB0B0E9480090E947F
:10109000DB0BEDE2EC93A885A73010F0E6E0E887E3
:1010A0001885E12F1150E03039F00E94E20B0E94C8
:1010B000560B0E94E70BF5CF0E94EC0B0E94A10C8F
:1010C0000E94800910E0E0E0F0E060E87FE30E9429
:1010D000E70B0E94EC0B0E94840D88F00E94E20B4B
:1010E0000E94430B0E94E70B1F5F173238F00E94EB
:1010F000D60BAFE9B0E00E94DC085AC0EACF10304E
:1011000029F40E94DB0BE0E3EC9329C0E12F11509E
:10111000E03029F10E94E20B0E94560B0E944F0B17
:10112000DF01CB010E9433090E94E70B0E94EC0B08
:101130000E943F0D0E942E0C0E2F0E94DB0B0E947E
:10114000640BF0E00E94E20B0E94F00A0E94F10C96
:101150000E949E090E94690B0E948009D7CFE885F2
:10116000E03011F10E94DB0BEEE2EC93E885E150F8
:10117000E887EF5FC9F00E949E090E94430B0E941E
:1011800080090E947B090E942E0C0E2F0E94DB0B0F
:101190000E94640BF0E00E949E090E94F00A0E94E7
:1011A000690B0E948009E2CFAE81BF81E0E0EC9341
:1011B000198108812D960895BA93AA93E991F9911E
:1011C000A991B991CD0105900D920020E1F7FC01A4
:1011D0000895BA93AA93A991B991EE27FF276D912B
:1011E000662311F03196FBCF0895BA93AA93AA27EC
:1011F000BB27E991F9910590002011F01196FBCFE2
:10120000FD0108950E944B0E7B816A81F981E8817E
:1012100077FB770F67FD7160972F9E5781F078F00D
:10122000983190F4AA27BB27882708948795B7950B
:10123000A7959A95D1F7EA23FB23682305C0E89484
:101240007727EE27FF2766276F77769508F4606883
:1012500077F9A991B99189919991EA17FB076807E4
:10126000790797FB08950E944B0E0E943C0E0E9446
:1012700002090E94410E19F40E94370E09C0E6F7D8
:101280000E94370EA0E0B0E080E89FE30E949A0C35
:1012900024960895E0919002F0919102609192025B
:1012A000709193020E94460E0895FA93EA93E6E73E
:1012B000F0E0FA93EA930895662777270E94460E96
:1012C00084E00E94EA0728960895E0919402F09144
:1012D000950260919602709197020E94460E0895C1
:1012E000E0919802F091990260919A0270919B02AC
:1012F0000E94460E0895E985FA856B857C850895E0
:10130000E987FA876B877C870895ED81FE816F817D
:1013100078850895ED83FE836F8378870895E9814A
:10132000FA816B817C810895E983FA836B837C83E6
:101330000895EF5FFF4F6F4F7F4F0895A985BA85DE
:101340008B859C850895E0E0F0E060E870E00E9405
:10135000B20D0895E0937802F093790260937A02D7
:1013600070937B020895E0937C02F0937D0260937A
:101370007E0270937F020895E0938002F0938102D1
:1013800060938202709383020895E0E0E093840208
:10139000E0938502E0938602E0938702E09388025F
:1013A000E0938902E0938A02E0938B02E0938C023F
:1013B000E0938D02E0938E02E0938F020895A09156
:1013C0007802B091790280917A0290917B0208951F
:1013D000E4E6F0E060E070E00E94E70D0895E0913F
:1013E0007802F091790260917A0270917B020895FF
:1013F000E0936002F0936102609362027093630273
:101400000895E0916002F091610260916202709132
:1014100063020895F6DF0E94650CDF01CB01089599
:10142000EDE4F0EA68EB7EE30E943F0D08950E9430
:101430002E0C0E94320EF80108950E94BF0DEA0F93
:10144000FB1F0895E0E0F0E060E271E40E943F0DD0
:1014500008950E94BF0DAE0FBF1FE0E0F0E060E016
:1014600070E00895A0917C02B0917D0280917E028F
:1014700090917F020895E0917C02F0917D0260914D
:101480007E0270917F020895E0936802F0936902F2
:1014900060936A0270936B020895E0916802F09184
:1014A000690260916A0270916B020895F6DF0E94F2
:1014B000650CDF01CB010895A0918002B0918102FB
:1014C00080918202909183020895E0918002F091D0
:1014D000810260918202709183020895E09370020C
:1014E000F093710260937202709373020895E09119
:1014F0007002F0917102609172027091730208950E
:10150000F6DF0E94650CDF01CB010895FA93EA93A0
:10151000A9E1B0E00C94B803E0E0F0E068EC72E41C
:101520000E943F0D0895A0918402B09185028091A0
:1015300086029091870208950E94500E0E94A10C8D
:101540000895E0938402F09385026093860270937D
:1015500087020895A0918802B091890280918A0241
:1015600090918B020895E0938802F0938902609332
:101570008A0270938B020895A0918C02B0918D0223
:1015800080918E0290918F020895E0938C02F093E7
:101590008D0260938E0270938F0208950E94650CF5
:1015A000DF01CB01E0E0F0E060E870E40E943F0D75
:1015B0000895EAE0F0E060E070E00E94E70D089531
:1015C000AE81BF810E94BF0DAE0FBF1F0E942C0EC7
:1015D0000895A885B9850E94BF0DAE0FBF1F08955D
:1015E0000E94CF0D0E94670C08950E942D04A3E075
:1015F000B0E00C94F10BA981BA81ED91A983BA8373
:101600001E2FE0300895A0E30E94180488EC90E0BB
:101610000197F1F70895ED91FD913196FE93EE93C8
:101620000895BA93AA932497E0E0E883E9830895A4
:10163000AC81BD818E819F81E0E0F0E060E271E4E9
:101640000E94F10CEC83FD836E837F830895EC810F
:10165000FD816E817F81AC85BD858E859F850E94D1
:10166000840D0895AC85BD858E859F850895EDEC2C
:10167000FCEC6CEC7DE30E94F10CEC87FD876E873F
:101680007F873F5F0895E0E0F0E060E271E40E9450
:10169000F10C0895EC87FD876E877F870895A0E0A1
:1016A000B0E080E09FE30E94A10C0895EDECFCEC1B
:1016B0006CEC7DE30E94F10C0895A885B985119624
:1016C000A887B98711970895E02FE05DEC93E02F8C
:1016D00008950E94550E0E949A0C0895E885F98598
:1016E0003196E887F98708952A93AF81B885E9850F
:1016F000FA8509950895FE01E65AFF4F0190F081A1
:10170000E02D08953497DE01A65ABF4FED93FC9368
:101710000895AF81B885E985FA8509950895DE01B8
:10172000A65ABF4F0D90BC91A02D0895EA87FB8764
:101730006C877D870895DFDFE5CFEA85FB856C85C3
:101740007D850895EE87FF87AE85BF850E94E908F5
:101750001E2F0895E4DF14960E94280E0895E88B4A
:10176000F98B6A8B7B8B08950B7FED89EA93DE0101
:10177000A95ABF4F0D90BC91A02DFE01E75AFF4F13
:101780000190F081E02D099550300895E889F9899C
:101790006A897B89AA85BB858C859D850895DE0134
:1017A0001C960E94A40D0E94280E0895EE81FF81D0
:1017B000FA93EA930895AE81BF811196AE83BF83F9
:1017C00011970895AA81BB818C819D810895EA8338
:1017D000FB836C837D830895EA81FB816C817D812D
:1017E000ADCD109639F080ED97E00197F1F7A8950F
:1017F0001197C9F7089530976040704009F070580C
:101800000895552342F4503811F4E0FF04C0319696
:10181000691F791F6BF050E8572711F45F93CFC011
:101820005F3F31F0660F000C57956795752F08954F
:101830005F9300200AF0CFC0C8C050E8192E1522CF
:10184000880F991F9527550F879550E8072E052279
:10185000660F771F7527550F67950895689401C027
:10186000E8945F93F2DF703818F07F3F08F4A7C068
:1018700056E1571BAAF4519558300EF4593030F008
:10188000EFEFFFEF6FEF7FE777F91AC07727552368
:10189000B9F0EE0FFF1F661F771F5A95D1F710C0E2
:1018A0007727583028F0EF2FF62F672F5850F9CFB1
:1018B000552331F076956795F795E7955A95D1F7C9
:1018C00000200AF454D15F910895689401C0E8940F
:1018D000309760407040B1F0002426F0772312F476
:1018E000009445D1172E7EE1112032F07A95EE0F4B
:1018F000FF1F661F111CF9CFEF2FF62F612D5F938D
:101900008ADF5F9108954F93AF01FD01DA01AB01CA
:10191000BC01CA01402D012C142E4F910895EA0FED
:10192000FB1F681F0895E095F0956095EF5FFF4FEE
:101930006F4F08955F9381DF903871F150E815265D
:1019400004C05F937ADF903839F1703821F1572F56
:10195000591B2BF112F4D7DFFACF583118F0AA2710
:10196000BB278827583028F0AB2FB82F882758502E
:10197000F9CF552329F08695B795A7955A95D9F7AC
:10198000502D512572F0CBDF38F46795F795E79528
:10199000739513F420C0B7DF3EDF5F910895D8F749
:1019A000FBCFEA1BFB0B680B51F010F40094BBDF7C
:1019B000662392F3EE0FFF1F661F7A95CBF7EE2793
:1019C000FF27662777275F910895EFEFFFEF6FE717
:1019D0007FEF5F910895EFEFFFEF6FE77FE75F9194
:1019E00008955F932ADF703851F3903841F3012452
:1019F0000894791F23F41CF300203AF3ECCF0F92E4
:101A00001F932F933F934F93112722279927689F66
:101A1000A0018F9F302D410D591F6B9F300D411D2F
:101A2000591F8E9F27D0BF9F25D06A9F23D0BE9F6E
:101A30001DD0AF9F1BD0AE9F110D291F391F491F0D
:101A4000591FE32FF42F652F522F4F913F912F9164
:101A50001F910F9066232AF0550FEE1FFF1F661F80
:101A600002C073954BF2CDDE5F910895100D211DDC
:101A7000391F02C0200D311D491F591F08955F9362
:101A8000DCDE703821F411200AF49FCFA4CF903807
:101A900009F495CF01240894970B1BF4D4F300208C
:101AA000F3CF792F1F932F933F934F931124112737
:101AB000222733274427552790E2AE17BF07860712
:101AC000410730F0AE1BBF0B860B410B089401C0E1
:101AD0008894551F221F331F111CAA1FBB1F881F6C
:101AE000441F9A9551F7F901612D4F913F912F9124
:101AF0001F91662332F0550FEE1FFF1F661F7A9568
:101B000043F27FDE5F91089599239AF0772342F0A4
:101B1000971748F029F4AE17BF07860720F031F079
:101B200098948894089598940894089518948894A3
:101B300008957723C2F7971798F3A9F7EA17FB07D9
:101B4000680788F399F3ECCF0024AF0DB01D08951A
:101B5000EA0FFB1F681F791F0895EA1BFB0B680B38
:101B6000790B0895EA27FB27682779270895F095D0
:101B700060957095E195FF4F6F4F7F4F0895EE0F81
:101B8000FF1FEE0FFF1F0895EE0FFF1F661F771F49
:101B90000895FE2FFF0FFF0B6F2F7F2F08956F2FDC
:101BA000660F660B762F0895002498E0AA0F001C9C
:101BB0000E1A10F40E0E01C0A1609A95B9F7EA2F23
:101BC000A02D089539D0F0DF0EF4E19508953F93EC
:101BD0004F935F93002411244427552730E2AA0F26
:101BE000BB1F881F991F001C111C441F551F0E1A74
:101BF0001F0A460B570B28F40E0E1F1E461F571FB9
:101C000001C0A1603A9559F7FD01BC01D001CA019C
:101C10005F914F913F910895E894A7FF02C0A1956D
:101C20006894E7FDE195C0DFEA2F0EF4E195089591
:101C3000CEDFFD01BC010895E894E7FF02C0E19505
:101C40006894A7FF04C0A19500F8039400FA0895D2
:101C5000ED91FC9111970895ED91FD916D917C911D
:101C600013970895ED93FD936D937C930895E88108
:101C7000F9816A817B810895A881B9818A819B81DC
:101C80000895E883F9836A837B8308957A936A933E
:101C9000FA93EA9308959A938A93BA93AA9308952C
:101CA000689401C0E89401D013DE182E862F612DB0
:101CB000192E972F712D1B2EBF2FF12D1A2EAE2FFF
:101CC000E12D08953097604070400895EA17FB07B2
:101CD0006807790708955A934A933A932A931A9377
:101CE0000A9308955D814C813B812A811981088185
:101CF0000895AC0FBD1F05900D928A95E1F70895E8
:00000001FF
