:080000000C9459000C9400005F
:100008000C9400000C9400000C9400000C948800E0
:100018000C9400000C9400000C9400000C94000058
:100028000C9400000C9400000C9400000C949E00AA
:100038000C9400000C9400000C9400000C94000038
:100048000C9400000C9400000C94000000004B007D
:1000580000000000446F63746F72206E6164657203
:1000680069002573002025342E3166672025342E3B
:100078003166672025342E316667000080C02D4E1A
:10008800414E000001002D4E414E00494E460000F1
:100098000100020054000600060056000200080392
:1000A800840001000C038C000000F894EE27ECBBE0
:1000B800F1E0F5BFE5BFF8E1F1BDE1BD8DE0A2E0FB
:1000C800BB27ED938A95E9F780E098E0A0E6ED93E9
:1000D8000197E9F7E8E9F0E085919591009761F0DB
:1000E800A591B59105901590BF01F00105900D926D
:1000F8000197E1F7FB01F0CFEFE5EDBFE8E0EEBFD8
:10010800C0E6D2E00C94C100EA93FA93EFB7EA9301
:10011800E2EBE4BD6414750409F4A998F201319680
:100128002F01E4E6F0E04E165F0618F0442455244B
:10013800A99A1EC0EA93FA93EFB7EA931A930A931F
:100148001BB10CB1E12FEC7189F4E92D9394F0E027
:10015800E051FD4F0083E8E1E91509F49924B394CF
:10016800E8E1EB1519F4BB24689420F8099119917A
:10017800E991EFBFF991E9911895E0E0EBBBEABB93
:10018800E1E0E7BBE0E0E8BBE3E0E4BBE0E0E5BBDF
:10019800E6E1E1BBE0E0E2BBEBB9E8E9EAB9E6E8B1
:1001A800E0BDE0E0E0BDE3E3E9B9C6D1EED116D2A7
:1001B800A0E10E94A903ACE5B0E00E949803A8EE74
:1001C800B3E00E94A60AE0E0E2BDE7E0E5BDE2EBAD
:1001D800E4BDE0E0E3BDE0E4E9BF7894C0D00ED12F
:1001E8005CD10E947908E2E0EA93A2EDB2E00E94B5
:1001F8004507E0E9F2E00E948408E2EDF2E00E949F
:100208008B080E949408E2E0EA93ACEDB2E00E9409
:100218004507ECE9F2E00E948408ECEDF2E00E9468
:100228008B080E949F08E2E0EA93A6EEB2E00E94E3
:100238004507E8EAF2E00E948408E6EEF2E00E9450
:100248008B08E0E9F2E0FA93EA93ECE9F2E0FA933A
:10025800EA93A8EAB2E0EDD1E4EBF2E0FA93EA938C
:10026800EDE6F0E0FA93EA930E9479080E94940878
:100278000E949F088CE00E94110760960E946D03FF
:10028800E0E0EA93A0E00E946003A4EBB2E00E94E1
:100298008E03AAE0B0E00E94A60AA0CFFFCF249761
:1002A8001A93839A92980E94AA088399FECF10E025
:1002B800183160F4929A0E94B0080E94B50892988A
:1002C800839B02C00E94BC081F5FF2CF929A0E94D3
:1002D800C60892980E94B00818810C9423042497A9
:1002E8001A93859A94980E94AA088599FECF10E0DF
:1002F800183160F4949A0E94B0080E94B508949846
:10030800859B02C00E94BC081F5FF2CF949A0E948E
:10031800C60894980E94B00818810C942304249766
:100328001A93B19AC0980E94AA08B199FECF10E01A
:10033800183160F4C09A0E94B0080E94B508C098AD
:10034800B19B02C00E94BC081F5FF2CFC09A0E94F6
:10035800C608C0980E94B00818810C9423040E9413
:10036800D5089DDF0E94DF080E94E8080E94F10876
:100378000E94DF08E0916402F091650260916602D4
:10038800709167020E94E8080E94110D68F5E091DB
:100398007802F091790260917A0270917B020E9452
:1003A800F808A0916402B09165028091660290916C
:1003B80067020E9401090E94620C0E94F8080E94CC
:1003C8000A090E941009A0E6B2E00E9417090E94DB
:1003D8000A090E941C09E0938402F0938502609345
:1003E80086027093870209C0E0E0E0938402E093FC
:1003F8008502E0938602E093870208950E9423090C
:100408006EDF0E942D090E9436090E94F1080E94A1
:100418002D09E0916C02F0916D0260916E0270916D
:100428006F020E9436090E94110D68F5E0917C0266
:10043800F0917D0260917E0270917F020E943F09D7
:10044800A0916C02B0916D0280916E0290916F0242
:100458000E9448090E94620C0E943F090E945109AB
:100468000E941009A8E6B2E00E9417090E945109EB
:100478000E941C09E0938802F093890260938A0223
:1004880070938B0209C0E0E0E0938802E093890250
:10049800E0938A02E0938B0208950E9457093FDF98
:1004A8000E9461090E946A090E94F1080E9461097C
:1004B800E0917402F0917502609176027091770272
:1004C8000E946A090E94110D68F5E0918002F0917E
:1004D800810260918202709183020E947309A09147
:1004E8007402B091750280917602909177020E9411
:1004F8007C090E94620C0E9473090E9485090E946F
:100508001009A0E7B2E00E9417090E9485090E941D
:100518001C09E0938C02F0938D0260938E02709315
:100528008F0209C0E0E0E0938C02E0938D02E09333
:100538008E02E0938F0208950E948B090E94D508CD
:1005480000E010E00A30E0E01E0764F4A8DE0E9434
:10055800E8080E945D0C0E94DF080E9490090F5F66
:100568001F4FF0CF0E94E8080E9495090E94DF08FB
:100578000E94E8080E94F108E0936402F093650283
:10058800609366027093670251C00E948B090E94B3
:10059800230900E010E00A30E0E01E0764F49FDE63
:1005A8000E9436090E945D0C0E942D090E94900944
:1005B8000F5F1F4FF0CF0E9436090E9495090E94D5
:1005C8002D090E9436090E94F108E0936C02F0930D
:1005D8006D0260936E0270936F0228C00E948B09AF
:1005E8000E94570900E010E00A30E0E01E0764F4BA
:1005F80096DE0E946A090E945D0C0E9461090E94B1
:1006080090090F5F1F4FF0CF0E946A090E94950959
:100618000E9461090E946A090E94F108E09374022D
:10062800F09375026093760270937702099119919D
:100638000895BA93AA93A1E40E94D603AC81BD8120
:100648000E94DD03A5E40E94D603A2E40E94D6031B
:10065800AA81BB810E94DD03A5E40E94D603A3E41E
:100668000E94D603A881B9810E94DD03AEE40E94EE
:10067800D60326960895AA93EBB3EF70AE2FE881C0
:10068800E07FEA2BEBBB8DE08A95F1F7DA9A8DE0F3
:100698008A95F1F7DA988DE08A95F1F70C94DB03E7
:1006A800AA93A881E8DFE881E295E883A881E3DFDF
:1006B80085E88A95F1F77BC0AA93E881F0E0E85FC6
:1006C800FC4FE081A981AE0FEBDFA980D88022968C
:1006D8000895A2E00E949C09ACE0E2DFA1E00E943C
:1006E8009C09E0E0DE2EAE2E0895AA93A881AA30D8
:1006F80011F0AC1448F0E0E0EA93D394AD2DDCDFC0
:10070800A881AA3009F453C0A394D89AA881C8DF55
:10071800D8984DC0BA93AA931A930E94A20919F0C7
:10072800A12FE3DFFACF50C0BA93AA931A93E981B5
:10073800FA813196E983FA833197E4911E2FE030EC
:1007480019F0A12FD2DFF3CF3FC0AA93EAB3E06F2D
:10075800EABBD29AD09AD19ADA98D898D998C88010
:10076800E881E058E0930A03E881E054E0930B0342
:10077800A4E1B0E00E94A60A0E94AA090E94AA0960
:100788000E94AA09A0E277DF88EC90E00197F1F7D0
:10079800A8E286DFA4E084DFA5E882DFA6E080DFA8
:1007A80098DF05C0AA935D9BFECFE881ECB921963E
:1007B8000895BA93AA931A930E94A20919F0A12F37
:1007C800F1DFFACFAAE0EEDF188123960895BA93F5
:1007D800AA931A930A93AA81BB8112960E94D80CF5
:1007E800309729F1AA81BB8114960E94D80C8F01F9
:1007F800309761F00230E0E01E0780F0F801319791
:100808008F01AA81BB811496ED93FC93AA81BB81C9
:1008180012960E94B2093197AC81A083AA81BB814C
:100828000E94D80CFF2312F00E94B20906C0AA81C8
:10083800BB81EFEFFFEFED93FC93198108812596BB
:1008480008950E94B809E0E8EA83EFE3EB830E9489
:10085800180DEE85FF85EF3FAFEFFA0749F4E885FD
:10086800F985FA93EA93A6E8B0E00E940B08B7C0AE
:10087800EF3FAFE7FA0749F4E885F985FA93EA9379
:10088800A7E8B0E00E940B08AAC0AB85A73010F01B
:10089800E6E0EB871B85E12F1150E03019F00E944C
:1008A800BF09F9CFEC85FD856E857F850E940D0D0A
:1008B80021F430E00E94BF092DC03B850E94CE097B
:1008C80009F008F40BC00E94BF090E94CE0928F065
:1008D8000E94D9090E94DE09F8CF0DC00E94CE09F6
:1008E80040F40E94D9090E94EA090E94F109315096
:1008F800F5CF0E94BF09EC85FD856E857F850E9436
:10090800F6090E94F1090E94CE0920F00E94D90937
:100918000E94DE0910E0EB85E117A8F1AC81BD81EA
:100928008E819F810E94FD090E94F609DF01CB019B
:100938000E946208EC83FD836E837F830E94D9093D
:100948000E94F40B0E94E30A0E2F0E94040A0E94E0
:100958000B0AFF27662777270E941C0BAC81BD81F5
:100968008E819F810E94A60B0E94D9090E94100ABD
:100978000E94F109E12F1F5FE03069F60E94040A26
:10098800EEE2EC93C8CF0E94150A3197AA85A0839E
:1009980030302CF43195A885B985EDE203C0A885DF
:1009A800B985EBE2EC930E94150A0E94150A31976B
:1009B800BF01A32FEAE00E94920CE05DDB01EC93FB
:1009C8000E94150A3197BF01A32FEAE00E94BC0CD0
:1009D800E05DDB01EC93A885B985E0E0EC930E942B
:1009E8001F0D60960895BA93AA93EF9761970E9496
:1009F800160D10E0FE01E85AFF4F0190F081E02D3E
:100A0800E887F987FE01EA5AFF4F0190F081E02D4F
:100A1800EE83FF83AE81BF81E0E0F0E0ED93FC93CD
:100A2800DE01A45ABF4F0E94B2093197E4912E2FDC
:100A3800E03009F4E9C1E12FE03039F4253211F44E
:100A480011E002C00E941B0ADEC1E130C1F4253268
:100A580019F40E941B0AD6C112E0E0E0ED8B00E019
:100A68002D3211F401E0CFC12B3219F4EBE2ED8BFA
:100A7800CAC1203219F4E0E2ED8BC5C102C0E230F0
:100A880039F450E013E0203311F40068BCC102C00F
:100A9800E33091F4203310F02A3308F007C0AAE0BD
:100AA8005A9F502DE22FE0535E0FADC140E02E3229
:100AB80011F414E0A8C10FC0E43099F4203310F009
:100AC8002A3308F008C00062AAE04A9F402DE22FAE
:100AD800E0534E0F98C12C3619F4026015E093C10B
:100AE80003C0E53009F08FC1E22FE33659F40E94C4
:100AF800220A0E94290A0E94220AA481AA930E941B
:100B0800300A80C1E53411F0E53609F403C0E63651
:100B180009F048C0FE017696EE87FF870E94360AE4
:100B28000E94DC0C0E943D0A0E94420AAD85AA235D
:100B380032F0AD89AB3259F0A03281F017C00E9473
:100B4800440A0E94B00A0E943D0AEDE2ED8B07FFBD
:100B580005C0ED89EA930E94300A08C0EE85FF853A
:100B68003196EE87FF873197AD89A08305FF46E070
:100B7800263651F40E94440A0E94F60C4A93AB8927
:100B8800BC890E94450709C00E94440A0E94F60CCD
:100B98004A932A93AC89BD8954DEFE0176960E9459
:100BA800490A1EC0E33739F40E94420A0E94510ADA
:100BB8000E94490A0EC0E037C1F40E94420A0E940E
:100BC800510AEE87FF87AE85BF850E9424081E2F35
:100BD80008600F77403011F0411708F001C0142F5A
:100BE80040E0E0E0EC8B30E06DC0E43611F0E9362F
:100BF80011F4046002C0E537A1F4EAE0EC8B01FFD0
:100C080008C0E0E0FAEC6AE97BE30E94560A1AE0C1
:100C180022C0E0E1F7E260E070E00E94560A15E0C9
:100C28001AC0E83511F4086003C0E83709F0EAC0D3
:100C3800E0E1EC8B01FF08C0E0E0F0E060E070E18B
:100C48000E94560A18E007C0E0E0F0E160E070E0BA
:100C58000E94560A14E0403011F00F7701C041E0BD
:100C680001FF08C00E94420A0E94360A14960E9498
:100C7800DC0C0FC002FF07C00E94420A0E94510A02
:100C88000E947F0C06C00E94420A0E94510A6627F1
:100C98007727EA87FB876C877D8702FF12C0AD85BF
:100CA800AA2342F40E94440A0E946C0C0E943D0A46
:100CB800EDE2ED8BED89E03019F01F5F4F5F01C069
:100CC8000B7F342F00FD14C0151710F4351708F0EA
:100CD8000FC007FF08C002FF04C00B7F2D89115009
:100CE80001C020E301C020E20E941B0A5150ECCF52
:100CF800141790F4006102FF06C00E945B0A09F015
:100D0800515011504150E0E3EA930E94300A5030AC
:100D180009F051504150ECCF312FEC89E030B9F453
:100D28003030A1F003FF06C0EE85FF852591EE87E0
:100D3800FF8705C0AE85BF852D91AE87BF870E940E
:100D48001B0A503009F051503150EACF51C00E946F
:100D58006D0A0E94970C2E2F2A3030F003FF02C034
:100D6800295C01C0295A01C0205D04FD21C021333E
:100D780060F4A889B9898A899B89A130E0E0BE0717
:100D8800E0E08E07E0E09E0709F40BC0431740F44B
:100D9800531710F000FF01C010C020E207FF08C081
:100DA80020E3006102FF04C00E945B0A09F0515071
:100DB8000E941B0A503009F0515031500E946D0AB0
:100DC8000E94C80C0E943D0AEC89A889B9898A89C1
:100DD8009B89FF27662777270E94970C0E94560A4F
:100DE800E889F9896A897B890E940D0D09F0AFCFDE
:100DF80000FF08C0503031F05150E0E2EA930E9401
:100E0800300AF8CF10E00CCEAE81BF810E94D80C1A
:100E18000E941D0DEF966F960895FF92F82E269763
:100E28000E94180D0E94760A309719F4EFEFFFEF31
:100E380023C0DE0116960E94590C8D010E94760A85
:100E4800EE83FF83E0E0E887E987DE011A960E94D7
:100E5800590C0E94D80CFA93EA931A930A93EBEE72
:100E6800F3E0FA93EA93DE011A96BDDD9F01AE81A5
:100E7800BF81E0E0EC93F9010E941F0D2A96FF90D4
:100E880008950E94B809E0E0EA83EFE3EB831A9340
:100E98000A93EB85FC85EF3FAFEFFA0739F40E9420
:100EA8007D0AAEE8B0E00E940B08ADC0EF3FAFE7A7
:100EB800FA0739F40E947D0AAFE8B0E00E940B08F7
:100EC800A2C0AC85AA2362F4E985FA856B857C8586
:100ED8000E94B00A0E94820A0E94870AEDE2EC93FF
:100EE800A885A73010F0E6E0E8871885E12F1150B3
:100EF800E03039F00E948E0A0E94FD090E94930A90
:100F0800F5CF0E94980A0E94560B0E94820A10E0B0
:100F1800E0E0F0E060E87FE30E94930A0E94980A0C
:100F28000E94390C88F00E948E0A0E94EA090E94E9
:100F3800930A1F5F173238F00E947D0AA3E9B0E0D8
:100F48000E940B0860C0EACF103029F40E94870A7B
:100F5800E0E3EC932BC0E12F1150E03039F10E940F
:100F68008E0A0E94FD090E94F609DF01CB010E944A
:100F780062080E94930A0E94980A0E94F40B0E9439
:100F8800E30A0E2F0E94870A0E940B0AF0E00E94D3
:100F98008E0A0E947F0C0E941C0B0E94A60B0E94C6
:100FA800A10A0E94100A0E94820AD5CFE885E03083
:100FB80031F10E94870AEEE2EC93E885E150E88778
:100FC800EF5FE9F00E94A10A0E94EA090E94820AE2
:100FD800E985FA856B857C850E94E30A0E2F0E94BD
:100FE800870A0E940B0AF0E00E94A10A0E947F0C67
:100FF8000E941C0B0E94100A0E94820ADECFAE815A
:10100800BF81E0E0EC93198108812D960895BA9389
:10101800AA93E991F991A991B991CD0105900D9201
:101028000020E1F7FC010895BA93AA93A991B99118
:10103800EE27FF276D91662311F03196FBCF0895B7
:10104800BA93AA93AA27BB27E991F99105900020A2
:1010580011F01196FBCFFD0108950E94FB0C7B81D6
:101068006A81F981E88177FB770F67FD7160972FB7
:101078009E5781F078F0983190F4AA27BB278827EB
:1010880008948795B795A7959A95D1F7EA23FB23F6
:10109800682305C0E8947727EE27FF2766276F7730
:1010A800769508F4606877F9A991B9918991999131
:1010B800EA17FB076807790797FB08950E94FB0C5E
:1010C8000E94EC0C0E9431080E94F10C19F40E9455
:1010D800E70C09C0E6F70E94E70CA0E0B0E080E862
:1010E8009FE30E944F0B24960895E0918402F091AB
:1010F800850260918602709187020E94F60C08951D
:10110800FA93EA93EAE6F0E0FA93EA9308956627F9
:1011180077270E94F60C84E00E941107289608950C
:10112800E0918802F091890260918A0270918B02A5
:101138000E94F60C0895E0918C02F0918D02609166
:101148008E0270918F020E94F60C0895E0E0E98308
:10115800EA83EB83EC830895E981FA816B817C81D2
:1011680008950E94740CE983FA836B837C83089545
:10117800F3DFEF5FFF4F6F4F7F4FE983FA836B8396
:101188007C830895A981BA818B819C81E0E0F0E09D
:1011980060E870E00E94670CE983FA836B837C83C4
:1011A8000895E0E0E0937802E0937902E0937A0210
:1011B800E0937B020895E0937802F09379026093BC
:1011C8007A0270937B020895A0917802B091790217
:1011D80080917A0290917B020895E4E6F0E060E065
:1011E80070E00E94970C0895E0936002F09361020A
:1011F80060936202709363020895E0916002F09137
:10120800610260916202709163020895F6DF0E94A4
:101218001A0BDF01CB010895EDE4F0EA68EB7EE3F9
:101228000E94F40B08950E94E30A0E94E20C0895BC
:10123800E0E0F0E068EC72E40E94F40B0895E0E06E
:10124800E0937C02E0937D02E0937E02E0937F02CC
:101258000895E0937C02F0937D0260937E02709380
:101268007F020895A0917C02B0917D0280917E0258
:1012780090917F020895E0936802F0936902609369
:101288006A0270936B020895E0916802F091690216
:1012980060916A0270916B020895F6DF0E941A0B42
:1012A800DF01CB010895E0E0E0938002E093810242
:1012B800E0938202E09383020895E0938002F09322
:1012C800810260938202709383020895A091800244
:1012D800B091810280918202909183020895E093F7
:1012E8007002F09371026093720270937302089512
:1012F800E0917002F0917102609172027091730234
:101308000895F6DF0E941A0BDF01CB0108951A93A6
:101318000A9300E010E0089588EE93E00197F1F752
:101328000895EAE0F0E060E070E00E94970C08950C
:101338000E945403A3E0B0E00C94A60AA981BA81E4
:10134800ED91A983BA831E2FE0300895A0E30E948F
:101358003F0388EC90E00197F1F70895ED91FD9136
:101368003196FE93EE930895BA93AA932497E0E0FA
:10137800E883E9830895AC81BD818E819F81E0E097
:10138800F0E060E271E40E94A60BEC83FD836E83BB
:101398007F830895EC81FD816E817F81AC85BD8559
:1013A8008E859F850E94390C0895AC85BD858E85F4
:1013B8009F850895EDECFCEC6CEC7DE30E94A60B98
:1013C800EC87FD876E877F873F5F0895E0E0F0E058
:1013D80060E271E40E94A60B0895EC87FD876E8792
:1013E8007F870895A0E0B0E080E09FE30E94560B5D
:1013F8000895EDECFCEC6CEC7DE30E94A60B0895DF
:10140800A885B9851196A887B98711970895E02FFF
:10141800E05DEC93E02F08950E94000D0E944F0BB1
:101428000895E885F9853196E887F98708952A931C
:10143800AF81B885E985FA8509950895FE01E65AD0
:10144800FF4F0190F081E02D08953497DE01A65AF0
:10145800BF4FED93FC930895AF81B885E985FA8570
:1014680009950895DE01A65ABF4F0D90BC91A02D95
:101478000895EA87FB876C877D870895DFDFE5CFCE
:10148800EA85FB856C857D850895EE87FF87AE85A7
:10149800BF850E9418081E2F0895E4DF14960E9445
:1014A800D80C0895E88BF98B6A8B7B8B08950B7F9A
:1014B800ED89EA93DE01A95ABF4F0D90BC91A02D8A
:1014C800FE01E75AFF4F0190F081E02D0995503059
:1014D8000895E889F9896A897B89AA85BB858C85FD
:1014E8009D850895DE011C960E94590C0E94D80C17
:1014F8000895EE81FF81FA93EA930895E987FA87C0
:101508006B877C870895AE81BF811196AE83BF83B8
:1015180011970895AA81BB818C819D810895EA83E2
:10152800FB836C837D830895EA81FB816C817D81D7
:10153800A985BA858B859C850895A985BA858B85EB
:101548009C850895109639F080ED97E00197F1F7A2
:10155800A8951197C9F7089530976040704009F031
:1015680070580895552342F4503811F4E0FF04C030
:101578003196691F791F6BF050E8572711F45F9374
:10158800CFC05F3F31F0660F000C57956795752FF8
:1015980008955F9300200AF0CFC0C8C050E8192E04
:1015A8001522880F991F9527550F879550E8072E04
:1015B8000522660F771F7527550F6795089568945C
:1015C80001C0E8945F93F2DF703818F07F3F08F4A9
:1015D800A7C056E1571BAAF4519558300EF459305C
:1015E80030F0EFEFFFEF6FEF7FE777F91AC077275B
:1015F8005523B9F0EE0FFF1F661F771F5A95D1F7D5
:1016080010C07727583028F0EF2FF62F672F585043
:10161800F9CF552331F076956795F795E7955A9563
:10162800D1F700200AF454D15F910895689401C05D
:10163800E894309760407040B1F0002426F077239A
:1016480012F4009445D1172E7EE1112032F07A95DC
:10165800EE0FFF1F661F111CF9CFEF2FF62F612D1C
:101668005F938ADF5F9108954F93AF01FD01DA011F
:10167800AB01BC01CA01402D012C142E4F910895D5
:10168800EA0FFB1F681F0895E095F0956095EF5FDE
:10169800FF4F6F4F08955F9381DF903871F150E8E5
:1016A800152604C05F937ADF903839F1703821F13C
:1016B800572F591B2BF112F4D7DFFACF583118F0F6
:1016C800AA27BB278827583028F0AB2FB82F8827A0
:1016D8005850F9CF552329F08695B795A7955A956F
:1016E800D9F7502D512572F0CBDF38F46795F7956F
:1016F800E795739513F420C0B7DF3EDF5F91089537
:10170800D8F7FBCFEA1BFB0B680B51F010F40094E1
:10171800BBDF662392F3EE0FFF1F661F7A95CBF7A8
:10172800EE27FF27662777275F910895EFEFFFEFF2
:101738006FE77FEF5F910895EFEFFFEF6FE77FE7C8
:101748005F9108955F932ADF703851F3903841F321
:1017580001240894791F23F41CF300203AF3ECCFFA
:101768000F921F932F933F934F9311272227992767
:10177800689FA0018F9F302D410D591F6B9F300D21
:10178800411D591F8E9F27D0BF9F25D06A9F23D008
:10179800BE9F1DD0AF9F1BD0AE9F110D291F391FB3
:1017A800491F591FE32FF42F652F522F4F913F9157
:1017B8002F911F910F9066232AF0550FEE1FFF1FE0
:1017C800661F02C073954BF2CDDE5F910895100D30
:1017D800211D391F02C0200D311D491F591F0895B1
:1017E8005F93DCDE703821F411200AF49FCFA4CF78
:1017F800903809F495CF01240894970B1BF4D4F37F
:101808000020F3CF792F1F932F933F934F931124E9
:101818001127222733274427552790E2AE17BF0701
:101828008607410730F0AE1BBF0B860B410B0894AF
:1018380001C08894551F221F331F111CAA1FBB1FEC
:10184800881F441F9A9551F7F901612D4F913F91D7
:101858002F911F91662332F0550FEE1FFF1F661F51
:101868007A9543F27FDE5F91089599239AF0772362
:1018780042F0971748F029F4AE17BF07860720F003
:1018880031F0989488940895989408940895189439
:10189800889408957723C2F7971798F3A9F7EA175A
:1018A800FB07680788F399F3ECCF0024AF0DB01D50
:1018B8000895EA0FFB1F681F791F0895EA1BFB0BA9
:1018C800680B790B0895EA27FB276827792708957D
:1018D800F09560957095E195FF4F6F4F7F4F089594
:1018E800EE0FFF1F661F771F0895FE2FFF0FFF0BD8
:1018F8006F2F7F2F08956F2F660F660B762F089531
:10190800002498E0AA0F001C0E1A10F40E0E01C055
:10191800A1609A95B9F7EA2FA02D089539D0F0DF84
:101928000EF4E19508953F934F935F93002411249B
:101938004427552730E2AA0FBB1F881F991F001C98
:10194800111C441F551F0E1A1F0A460B570B28F46B
:101958000E0E1F1E461F571F01C0A1603A9559F76A
:10196800FD01BC01D001CA015F914F913F910895DB
:10197800E894A7FF02C0A1956894E7FDE195C0DF50
:10198800EA2F0EF4E1950895CEDFFD01BC0108951C
:10199800E894E7FF02C0E1956894A7FF04C0A19509
:1019A80000F8039400FA0895ED91FC9111970895B9
:1019B800ED91FD916D917C9113970895ED93FD93B1
:1019C8006D937C930895E881F9816A817B810895FC
:1019D800A881B9818A819B810895E883F9836A8304
:1019E8007B8308957A936A93FA93EA9308959A9376
:1019F8008A93BA93AA930895182E862F612D192ECB
:101A0800972F712D1B2EBF2FF12D1A2EAE2FE12DE2
:101A180008953097604070400895EA17FB076807FB
:101A2800790708955A934A933A932A931A930A93F3
:101A380008955D814C813B812A811981088108952F
:00000001FF
