:0E0000000C945C000C9400000C9400000C9416
:10000E0000000C9400000C948B000C9400000C94D7
:10001E0000000C9400000C9400000C9400000C9452
:10002E0000000C9400000C94A1000C9400000C94A1
:10003E0000000C9400000C9400000C9400000C9432
:10004E0000000C94000000004B0000000000446F04
:10005E0063746F72206E61646572690025732C255E
:10006E00732C2573002025342E3166672025342EFF
:10007E003166672025342E316667000080C02D4E14
:10008E00414E000001002D4E414E00494E460000EB
:10009E000100020054000600060056000200100384
:1000AE008A000100140392000000F894EE27ECBBC6
:1000BE00F1E0F5BFE5BFF8E1F1BDE1BD8DE0A2E0F5
:1000CE00BB27ED938A95E9F780E098E0A0E6ED93E3
:1000DE000197E9F7EEE9F0E085919591009761F0CF
:1000EE00A591B59105901590BF01F00105900D9267
:1000FE000197E1F7FB01F0CFEFE5EDBFE8E0EEBFD2
:10010E00C0E6D2E00C94C400EA93FA93EFB7EA93F8
:10011E00E2EBE4BD6414750409F4A998F20131967A
:10012E002F01E4E6F0E04E165F0618F04424552445
:10013E00A99A1EC0EA93FA93EFB7EA931A930A9319
:10014E001BB10CB1E12FEC7189F4E92D9394F0E021
:10015E00E850FD4F0083E8E1E91509F49924B394C2
:10016E00E8E1EB1519F4BB24689420F80991199174
:10017E00E991EFBFF991E9911895E0E0EBBBEABB8D
:10018E00E1E0E7BBE0E0E8BBE3E0E4BBE0E0E5BBD9
:10019E00E6E1E1BBE0E0E2BBEBB9E8E9EAB9E6E8AB
:1001AE00E0BDE0E0E0BDE3E3E9B9A0D1C8D1F0D114
:1001BE00A0E10E946403ACE5B0E00E945303A8EEF8
:1001CE00B3E00E94560AE0E0E2BDE7E0E5BDE2EBF7
:1001DE00E4BDE0E0E3BDE0E4E9BF78942297BAD055
:1001EE00FCD03ED10E943408E2E0EA93AAEDB2E0E0
:1001FE000E9400070E943F08E2E0EA93A4EEB2E0FC
:10020E000E9400070E944A08E2E0EA93AEEEB2E0D6
:10021E000E940007EAEBF2E0FA93EA93EAE6F0E0D6
:10022E00FA93EA93EAEDF2E00E945508E4EEF2E06A
:10023E000E945508EEEEF2E00E9455088CE00E94F6
:10024E00CC066096AAEBB2E00E949803ECE9F2E0CD
:10025E00FA93EA93E3E7F0E0FA93EA930E94340804
:10026E000E943F080E944A088CE00E94CC066096CD
:10027E000E942803E0E0EA93A0E00E941B03ACE991
:10028E00B2E00E944903AAE0B0E00E94560A22960C
:10029E00A5CFFFCF24971A93839A92980E945A085B
:1002AE008399FECF10E0183160F4929A0E94600894
:1002BE000E9465089298839B02C00E946C081F5F83
:1002CE00F2CF929A0E94760892980E946008188146
:1002DE000C94DE0324971A93859A94980E945A08D8
:1002EE008599FECF10E0183160F4949A0E94600850
:1002FE000E9465089498859B02C00E946C081F5F3F
:10030E00F2CF949A0E94760894980E946008188101
:10031E000C94DE0324971A93B19AC0980E945A083F
:10032E00B199FECF10E0183160F4C09A0E946008B7
:10033E000E946508C098B19B02C00E946C081F5FA6
:10034E00F2CFC09A0E947608C0980E946008188169
:10035E000C94DE030E94C30CE0E0E0939002E09365
:10036E009102E0939202E09393020E94850892DF3D
:10037E000E948F080E9498080E94A1080E948F0870
:10038E00E0917802F091790260917A0270917B028D
:10039E000E94A808A0916402B09165028091660245
:1003AE00909167020E94B1080E94120C0E94A80848
:1003BE000E94BA080E94C008A0E6B2E00E94C708D8
:1003CE000E94BA080E94CC08E0938402F093850242
:1003DE00609386027093870285C00E94C30CE0E092
:1003EE00E0939402E0939502E0939602E0939702D5
:1003FE000E94D3086FDF0E94DD080E94E6080E946B
:10040E00A1080E94DD08E0917C02F0917D026091CE
:10041E007E0270917F020E94EF08A0916C02B09153
:10042E006D0280916E0290916F020E94F8080E94F8
:10043E00120C0E94EF080E9401090E94C008A8E653
:10044E00B2E00E94C7080E9401090E94CC08E09306
:10045E008802F093890260938A0270938B0242C0E5
:10046E000E94C30CE0E0E0939802E0939902E093BF
:10047E009A02E0939B020E9407094CDF0E94110929
:10048E000E941A090E94A1080E941109E09180029F
:10049E00F091810260918202709183020E94230981
:1004AE00A0917402B09175028091760290917702BC
:1004BE000E942C090E94120C0E9423090E943509E9
:1004CE000E94C008A0E7B2E00E94C7080E9435094A
:1004DE000E94CC08E0938C02F0938D0260938E0202
:1004EE0070938F020E94CA0C249608950E943B09B5
:1004FE000E94850800E010E00A30E0E01E0764F478
:10050E00C9DE0E9498080E940D0C0E948F080E945E
:10051E0040090F5F1F4FF0CF0E9498080E944509B7
:10052E000E948F080E9498080E94A108E09364021E
:10053E00F0936502609366027093670251C00E9449
:10054E003B090E94D30800E010E00A30E0E01E07ED
:10055E0064F4C0DE0E94E6080E940D0C0E94DD08C5
:10056E000E9440090F5F1F4FF0CF0E94E6080E94C5
:10057E0045090E94DD080E94E6080E94A108E0934A
:10058E006C02F0936D0260936E0270936F0228C03E
:10059E000E943B090E94070900E010E00A30E0E0EB
:1005AE001E0764F4B7DE0E941A090E940D0C0E9409
:1005BE0011090E9440090F5F1F4FF0CF0E941A09C8
:1005CE000E9445090E9411090E941A090E94A10861
:1005DE00E0937402F0937502609376027093770243
:1005EE00099119910895AA93EBB3EF70AE2FE8819C
:1005FE00E07FEA2BEBBB8DE08A95F1F7DA9A8DE07E
:10060E008A95F1F7DA988DE08A95F1F70C949603B6
:10061E00AA93A881E8DFE881E295E883A881E3DF69
:10062E0085E88A95F1F77BC0AA93E881F0E0E05F58
:10063E00FC4FE081A981AE0FEBDFA980D880229616
:10064E000895A2E00E944C09ACE0E2DFA1E00E9416
:10065E004C09E0E0DE2EAE2E0895AA93A881AA30B2
:10066E0011F0AC1448F0E0E0EA93D394AD2DDCDF4A
:10067E00A881AA3009F453C0A394D89AA881C8DFE0
:10068E00D8984DC0BA93AA931A930E94520919F0A2
:10069E00A12FE3DFFACF50C0BA93AA931A93E98140
:1006AE00FA813196E983FA833197E4911E2FE03077
:1006BE0019F0A12FD2DFF3CF3FC0AA93EAB3E06FB8
:1006CE00EABBD29AD09AD19ADA98D898D998C8809B
:1006DE00E881E058E0931203E881E054E0931303BD
:1006EE00A4E1B0E00E94560A0E945A090E945A09DB
:1006FE000E945A09A0E277DF88EC90E00197F1F7AB
:10070E00A8E286DFA4E084DFA5E882DFA6E080DF32
:10071E0098DF05C0AA935D9BFECFE881ECB92196C8
:10072E000895BA93AA931A930E94520919F0A12F11
:10073E00F1DFFACFAAE0EEDF188123960895BA937F
:10074E00AA931A930A93AA81BB8112960E94880CCF
:10075E00309729F1AA81BB8114960E94880C8F01D3
:10076E00309761F00230E0E01E0780F0F80131971B
:10077E008F01AA81BB811496ED93FC93AA81BB8154
:10078E0012960E9462093197AC81A083AA81BB8127
:10079E000E94880CFF2312F00E94620906C0AA81F3
:1007AE00BB81EFEFFFEFED93FC9319810881259646
:1007BE0008950E946809E0E8EA83EFE3EB830E9464
:1007CE00C30CEE85FF85EF3FAFEFFA0749F4E885DE
:1007DE00F985FA93EA93ACE8B0E00E94C607B7C079
:1007EE00EF3FAFE7FA0749F4E885F985FA93EA9304
:1007FE00ADE8B0E00E94C607AAC0AB85A73010F0E6
:10080E00E6E0EB871B85E12F1150E03019F00E94D6
:10081E006F09F9CFEC85FD856E857F850E94BD0C35
:10082E0021F430E00E946F092DC03B850E947E09A5
:10083E0009F008F40BC00E946F090E947E0928F08F
:10084E000E9489090E948E09F8CF0DC00E947E0970
:10085E0040F40E9489090E949A090E94A109315010
:10086E00F5CF0E946F09EC85FD856E857F850E9410
:10087E00A6090E94A1090E947E0920F00E94890902
:10088E000E948E0910E0EB85E117A8F1AC81BD81C5
:10089E008E819F810E94AD090E94A609DF01CB01C6
:1008AE000E941D08EC83FD836E837F830E9489095D
:1008BE000E94A40B0E94930A0E2F0E94B4090E945C
:1008CE00BB09FF27662777270E94CC0AAC81BD8122
:1008DE008E819F810E94560B0E9489090E94C00939
:1008EE000E94A109E12F1F5FE03069F60E94B40952
:1008FE00EEE2EC93C8CF0E94C5093197AA85A0837A
:10090E0030302CF43195A885B985EDE203C0A88569
:10091E00B985EBE2EC930E94C5090E94C509319797
:10092E00BF01A32FEAE00E94420CE05DDB01EC93D5
:10093E000E94C5093197BF01A32FEAE00E946C0CFB
:10094E00E05DDB01EC93A885B985E0E0EC930E94B5
:10095E00CA0C60960895BA93AA93EF9761970E9476
:10096E00C10C10E0FE01E85AFF4F0190F081E02D1E
:10097E00E887F987FE01EA5AFF4F0190F081E02DDA
:10098E00EE83FF83AE81BF81E0E0F0E0ED93FC9358
:10099E00DE01A45ABF4F0E9462093197E4912E2FB7
:1009AE00E03009F4E9C1E12FE03039F4253211F4D9
:1009BE0011E002C00E94CB09DEC1E130C1F4253244
:1009CE0019F40E94CB09D6C112E0E0E0ED8B00E0F5
:1009DE002D3211F401E0CFC12B3219F4EBE2ED8B85
:1009EE00CAC1203219F4E0E2ED8BC5C102C0E2307B
:1009FE0039F450E013E0203311F40068BCC102C09A
:100A0E00E33091F4203310F02A3308F007C0AAE047
:100A1E005A9F502DE22FE0535E0FADC140E02E32B3
:100A2E0011F414E0A8C10FC0E43099F4203310F093
:100A3E002A3308F008C00062AAE04A9F402DE22F38
:100A4E00E0534E0F98C12C3619F4026015E093C195
:100A5E0003C0E53009F08FC1E22FE33659F40E944E
:100A6E00D2090E94D9090E94D209A481AA930E9498
:100A7E00E00980C1E53411F0E53609F403C0E6362D
:100A8E0009F048C0FE017696EE87FF870E94E609C0
:100A9E000E948C0C0E94ED090E94F209AD85AA23DA
:100AAE0032F0AD89AB3259F0A03281F017C00E94FE
:100ABE00F4090E94600A0E94ED09EDE2ED8B07FF3A
:100ACE0005C0ED89EA930E94E00908C0EE85FF8516
:100ADE003196EE87FF873197AD89A08305FF46E0FB
:100AEE00263651F40E94F4090E94A60C4A93AB8953
:100AFE00BC890E94000709C00E94F4090E94A60C3E
:100B0E004A932A93AC89BD8954DEFE0176960E94E3
:100B1E00F9091EC0E33739F40E94F2090E94010A56
:100B2E000E94F9090EC0E037C1F40E94F2090E943A
:100B3E00010AEE87FF87AE85BF850E94DF071E2F55
:100B4E0008600F77403011F0411708F001C0142FE4
:100B5E0040E0E0E0EC8B30E06DC0E43611F0E936B9
:100B6E0011F4046002C0E537A1F4EAE0EC8B01FF5A
:100B7E0008C0E0E0FAEC6AE97BE30E94060A1AE09C
:100B8E0022C0E0E1F7E260E070E00E94060A15E0A4
:100B9E001AC0E83511F4086003C0E83709F0EAC05E
:100BAE00E0E1EC8B01FF08C0E0E0F0E060E070E116
:100BBE000E94060A18E007C0E0E0F0E160E070E095
:100BCE000E94060A14E0403011F00F7701C041E098
:100BDE0001FF08C00E94F2090E94E60914960E94C5
:100BEE008C0C0FC002FF07C00E94F2090E94010A7E
:100BFE000E942F0C06C00E94F2090E94010A66276D
:100C0E007727EA87FB876C877D8702FF12C0AD8549
:100C1E00AA2342F40E94F4090E941C0C0E94ED09C2
:100C2E00EDE2ED8BED89E03019F01F5F4F5F01C0F3
:100C3E000B7F342F00FD14C0151710F4351708F074
:100C4E000FC007FF08C002FF04C00B7F2D89115093
:100C5E0001C020E301C020E20E94CB095150ECCF2D
:100C6E00141790F4006102FF06C00E940B0A09F0EF
:100C7E00515011504150E0E3EA930E94E009503088
:100C8E0009F051504150ECCF312FEC89E030B9F4DE
:100C9E003030A1F003FF06C0EE85FF852591EE876B
:100CAE00FF8705C0AE85BF852D91AE87BF870E9499
:100CBE00CB09503009F051503150EACF51C00E944B
:100CCE001D0A0E94470C2E2F2A3030F003FF02C05F
:100CDE00295C01C0295A01C0205D04FD21C02133C9
:100CEE0060F4A889B9898A899B89A130E0E0BE07A2
:100CFE00E0E08E07E0E09E0709F40BC0431740F4D6
:100D0E00531710F000FF01C010C020E207FF08C00B
:100D1E0020E3006102FF04C00E940B0A09F051504B
:100D2E000E94CB09503009F0515031500E941D0ADB
:100D3E000E94780C0E94ED09EC89A889B9898A89EC
:100D4E009B89FF27662777270E94470C0E94060A79
:100D5E00E889F9896A897B890E94BD0C09F0AFCFB9
:100D6E0000FF08C0503031F05150E0E2EA930E948B
:100D7E00E009F8CF10E00CCEAE81BF810E94880C46
:100D8E000E94C80CEF966F960895FF92F82E269744
:100D9E000E94C30C0E94260A309719F4EFEFFFEF62
:100DAE0023C0DE0116960E94090C8D010E94260AB0
:100DBE00EE83FF83E0E0E887E987DE011A960E9462
:100DCE00090C0E94880CFA93EA931A930A93E6EAA6
:100DDE00F3E0FA93EA93DE011A96BDDD9F01AE8130
:100DEE00BF81E0E0EC93F9010E94CA0C2A96FF90B5
:100DFE0008950E946809E0E0EA83EFE3EB831A931B
:100E0E000A93EB85FC85EF3FAFEFFA0739F40E94AA
:100E1E002D0AA4E9B0E00E94C607ADC0EF3FAFE7D0
:100E2E00FA0739F40E942D0AA5E9B0E00E94C60720
:100E3E00A2C0AC85AA2362F4E985FA856B857C8510
:100E4E000E94600A0E94320A0E94370AEDE2EC9379
:100E5E00A885A73010F0E6E0E8871885E12F11503D
:100E6E00E03039F00E943E0A0E94AD090E94430A0A
:100E7E00F5CF0E94480A0E94060B0E94320A10E02B
:100E8E00E0E0F0E060E87FE30E94430A0E94480A37
:100E9E000E94E90B88F00E943E0A0E949A090E9465
:100EAE00430A1F5F173238F00E942D0AA9E9B0E0FD
:100EBE000E94C60760C0EACF103029F40E94370A9C
:100ECE00E0E3EC932BC0E12F1150E03039F10E949A
:100EDE003E0A0E94AD090E94A609DF01CB010E94C5
:100EEE001D080E94430A0E94480A0E94A40B0E94F9
:100EFE00930A0E2F0E94370A0E94BB09F0E00E944F
:100F0E003E0A0E942F0C0E94CC0A0E94560B0E9491
:100F1E00510A0E94C0090E94320AD5CFE885E030FE
:100F2E0031F10E94370AEEE2EC93E885E150E88752
:100F3E00EF5FE9F00E94510A0E949A090E94320A5C
:100F4E00E985FA856B857C850E94930A0E2F0E9497
:100F5E00370A0E94BB09F0E00E94510A0E942F0C32
:100F6E000E94CC0A0E94C0090E94320ADECFAE81D6
:100F7E00BF81E0E0EC93198108812D960895BA9314
:100F8E00AA93E991F991A991B991CD0105900D928C
:100F9E000020E1F7FC010895BA93AA93A991B991A3
:100FAE00EE27FF276D91662311F03196FBCF089542
:100FBE00BA93AA93AA27BB27E991F991059000202D
:100FCE0011F01196FBCFFD0108950E94AB0C7B81B1
:100FDE006A81F981E88177FB770F67FD7160972F42
:100FEE009E5781F078F0983190F4AA27BB27882776
:100FFE0008948795B795A7959A95D1F7EA23FB2381
:10100E00682305C0E8947727EE27FF2766276F77BA
:10101E00769508F4606877F9A991B99189919991BB
:10102E00EA17FB076807790797FB08950E94AB0C38
:10103E000E949C0C0E94EC070E94A10C19F40E94C5
:10104E00970C09C0E6F70E94970CA0E0B0E080E88C
:10105E009FE30E94FF0A24960895E0918402F09186
:10106E00850260918602709187020E94A60C0895F7
:10107E00E0918802F091890260918A0270918B0250
:10108E000E94A60C0895E0918C02F0918D02609161
:10109E008E0270918F020E94A60C08956627772704
:1010AE000E94A60C0895E0E0E983EA83EB83EC83CB
:1010BE000895E981FA816B817C8108950E94240C48
:1010CE00E983FA836B837C830895F3DFEF5FFF4F31
:1010DE006F4F7F4FE983FA836B837C830895A981D9
:1010EE00BA818B819C81E0E0F0E060E870E00E94C4
:1010FE00170CE983FA836B837C830895E0E0E09319
:10110E007802E0937902E0937A02E0937B020895ED
:10111E00E0937802F093790260937A0270937B02E7
:10112E000895A0917802B091790280917A029091FF
:10113E007B020895E4E6F0E060E070E00E94470C68
:10114E000895E0936002F0936102609362027093DF
:10115E0063020895E0916002F09161026091620273
:10116E00709163020895F6DF0E94CA0ADF01CB0177
:10117E000895EDE4F0EA68EB7EE30E94A40B089577
:10118E000E94930A0E94920C0895E0E0F0E060EF56
:10119E0071E40E94A40B0895E0E0E0937C02E093DA
:1011AE007D02E0937E02E0937F020895E0937C023D
:1011BE00F0937D0260937E0270937F020895A0915A
:1011CE007C02B0917D0280917E0290917F02089503
:1011DE00E0936802F093690260936A0270936B0267
:1011EE000895E0916802F091690260916A0270912F
:1011FE006B020895F6DF0E94CA0ADF01CB01089543
:10120E00E0E0E0938002E0938102E0938202E093BB
:10121E0083020895E0938002F0938102609382022C
:10122E00709383020895A0918002B0918102809103
:10123E008202909183020895E0937002F0937102FE
:10124E0060937202709373020895E0917002F091B0
:10125E00710260917202709173020895F6DF0E941E
:10126E00CA0ADF01CB0108951A930A9300E010E039
:10127E00089588EE93E00197F1F70895EAE0F0E023
:10128E0060E070E00E94470C08950E940F03A3E0F7
:10129E00B0E00C94560AA981BA81ED91A983BA8364
:1012AE001E2FE0300895A0E30E94FA0288EC90E031
:1012BE000197F1F70895ED91FD913196FE93EE931E
:1012CE000895BA93AA932497E0E0E883E9830895FA
:1012DE00AC81BD818E819F81E0E0F0E060E271E43F
:1012EE000E94560BEC83FD836E837F830895EC8101
:1012FE00FD816E817F81AC85BD858E859F850E9427
:10130E00E90B0895AC85BD858E859F850895EDEC1E
:10131E00FCEC6CEC7DE30E94560BEC87FD876E8730
:10132E007F873F5F0895E0E0F0E060E271E40E94A5
:10133E00560B0895EC87FD876E877F870895A0E092
:10134E00B0E080E09FE30E94060B0895EDECFCEC0C
:10135E006CEC7DE30E94560B0895A885B985119615
:10136E00A887B98711970895E02FE05DEC93E02FE1
:10137E0008950E94B00C0E94FF0A0895E885F98531
:10138E003196E887F98708952A93AF81B885E98564
:10139E00FA8509950895FE01E65AFF4F0190F081F6
:1013AE00E02D08953497DE01A65ABF4FED93FC93BE
:1013BE000895AF81B885E985FA8509950895DE010E
:1013CE00A65ABF4F0D90BC91A02D0895EA87FB87BA
:1013DE006C877D870895DFDFE5CFEA85FB856C8519
:1013EE007D850895EE87FF87AE85BF850E94D30762
:1013FE001E2F0895E4DF14960E94880C0895E88B42
:10140E00F98B6A8B7B8B08950B7FED89EA93DE0156
:10141E00A95ABF4F0D90BC91A02DFE01E75AFF4F68
:10142E000190F081E02D099550300895E889F989F1
:10143E006A897B89AA85BB858C859D850895DE0189
:10144E001C960E94090C0E94880C0895EE81FF8163
:10145E00FA93EA930895E987FA876B877C87089554
:10146E00AE81BF811196AE83BF8311970895AA8175
:10147E00BB818C819D810895EA83FB836C837D8380
:10148E000895EA81FB816C817D81A985BA858B8562
:10149E009C850895A985BA858B859C85089510969F
:1014AE0039F080ED97E00197F1F7A8951197C9F7FC
:1014BE00089530976040704009F070580895552394
:1014CE0042F4503811F4E0FF04C03196691F791FC1
:1014DE006BF050E8572711F45F93CFC05F3F31F0A8
:1014EE00660F000C57956795752F08955F93002032
:1014FE000AF0CFC0C8C050E8192E1522880F991FC8
:10150E009527550F879550E8072E0522660F771FF2
:10151E007527550F67950895689401C0E8945F93F9
:10152E00F2DF703818F07F3F08F4A7C056E1571B62
:10153E00AAF4519558300EF4593030F0EFEFFFEF1A
:10154E006FEF7FE777F91AC077275523B9F0EE0FC3
:10155E00FF1F661F771F5A95D1F710C07727583097
:10156E0028F0EF2FF62F672F5850F9CF552331F073
:10157E0076956795F795E7955A95D1F700200AF479
:10158E0054D15F910895689401C0E89430976040FB
:10159E007040B1F0002426F0772312F4009445D168
:1015AE00172E7EE1112032F07A95EE0FFF1F661F87
:1015BE00111CF9CFEF2FF62F612D5F938ADF5F910C
:1015CE0008954F93AF01FD01DA01AB01BC01CA01D1
:1015DE00402D012C142E4F910895EA0FFB1F681F0A
:1015EE000895E095F0956095EF5FFF4F6F4F08956A
:1015FE005F9381DF903871F150E8152604C05F9338
:10160E007ADF903839F1703821F1572F591B2BF1B1
:10161E0012F4D7DFFACF583118F0AA27BB27882744
:10162E00583028F0AB2FB82F88275850F9CF5523B4
:10163E0029F08695B795A7955A95D9F7502D51252E
:10164E0072F0CBDF38F46795F795E795739513F441
:10165E0020C0B7DF3EDF5F910895D8F7FBCFEA1BBE
:10166E00FB0B680B51F010F40094BBDF662392F372
:10167E00EE0FFF1F661F7A95CBF7EE27FF27662723
:10168E0077275F910895EFEFFFEF6FE77FEF5F91A1
:10169E000895EFEFFFEF6FE77FE75F9108955F9398
:1016AE002ADF703851F3903841F301240894791FE2
:1016BE0023F41CF300203AF3ECCF0F921F932F93D9
:1016CE003F934F93112722279927689FA0018F9F41
:1016DE00302D410D591F6B9F300D411D591F8E9F8F
:1016EE0027D0BF9F25D06A9F23D0BE9F1DD0AF9F0E
:1016FE001BD0AE9F110D291F391F491F591FE32FF4
:10170E00F42F652F522F4F913F912F911F910F90D4
:10171E0066232AF0550FEE1FFF1F661F02C073953A
:10172E004BF2CDDE5F910895100D211D391F02C0C1
:10173E00200D311D491F591F08955F93DCDE70384F
:10174E0021F411200AF49FCFA4CF903809F495CF3D
:10175E0001240894970B1BF4D4F30020F3CF792FB8
:10176E001F932F933F934F93112411272227332733
:10177E004427552790E2AE17BF078607410730F082
:10178E00AE1BBF0B860B410B089401C08894551FEE
:10179E00221F331F111CAA1FBB1F881F441F9A959F
:1017AE0051F7F901612D4F913F912F911F916623B2
:1017BE0032F0550FEE1FFF1F661F7A9543F27FDE44
:1017CE005F91089599239AF0772342F0971748F086
:1017DE0029F4AE17BF07860720F031F0989488944D
:1017EE0008959894089408951894889408957723EA
:1017FE00C2F7971798F3A9F7EA17FB07680788F35C
:10180E0099F3ECCF0024AF0DB01D0895EA0FFB1F26
:10181E00681F791F0895EA1BFB0B680B790B08955F
:10182E00EA27FB27682779270895F095609570952C
:10183E00E195FF4F6F4F7F4F0895EE0FFF1F661F0D
:10184E00771F0895FE2FFF0FFF0B6F2F7F2F089529
:10185E006F2F660F660B762F0895002498E0AA0F5F
:10186E00001C0E1A10F40E0E01C0A1609A95B9F765
:10187E00EA2FA02D089539D0F0DF0EF4E1950895EA
:10188E003F934F935F93002411244427552730E252
:10189E00AA0FBB1F881F991F001C111C441F551F28
:1018AE000E1A1F0A460B570B28F40E0E1F1E461F4C
:1018BE00571F01C0A1603A9559F7FD01BC01D00137
:1018CE00CA015F914F913F910895E894A7FF02C01E
:1018DE00A1956894E7FDE195C0DFEA2F0EF4E1953E
:1018EE000895CEDFFD01BC010895E894E7FF02C024
:1018FE00E1956894A7FF04C0A19500F8039400FA3F
:10190E000895ED91FC9111970895ED91FD916D91D2
:10191E007C9113970895ED93FD936D937C930895A9
:10192E00E881F9816A817B810895A881B9818A81D4
:10193E009B810895E883F9836A837B8308957A9364
:10194E006A93FA93EA9308959A938A93BA93AA9311
:10195E000895182E862F612D192E972F712D1B2E5F
:10196E00BF2FF12D1A2EAE2FE12D08953097604026
:10197E00704008955A934A933A932A931A930A936E
:10198E0008955D814C813B812A81198108810895DA
:00000001FF
