:060000000C9459000C9461
:1000060000000C9400000C9400000C9400000C946A
:1000160088000C9400000C9400000C9400000C94D2
:1000260000000C9400000C9400000C9400000C944A
:100036009E000C9400000C9400000C9400000C949C
:1000460000000C9400000C9400000C9400000000CA
:100056004B0000000000446F63746F72206E616491
:10006600657269002573002025342E3166672025C8
:10007600342E3166672025342E316667000080C035
:100086002D4E414E000001002D4E414E00494E4678
:10009600000001000200540006000600560002009F
:1000A6009803840001009C038C000000F894EE275E
:1000B600ECBBF1E0F5BFE5BFF8E1F1BDE1BD8DE0D8
:1000C600A2E0BB27ED938A95E9F780E098E0A0E6E9
:1000D600ED930197E9F7E8E9F0E0859195910097AE
:1000E60061F0A591B59105901590BF01F0010590BD
:1000F6000D920197E1F7FB01F0CFEFE5EDBFE8E0E8
:10010600EEBFC0E6D2E00C94C100EA93FA93EFB7D3
:10011600EA93E2EBE4BD6414750409F4A998F201CC
:1001260031962F01E4E6F0E04E165F0618F04424FF
:100136005524A99A1EC0EA93FA93EFB7EA931A9345
:100146000A931BB10CB1E12FEC7189F4E92D93945C
:10015600F0E0E058FC4F0083E8E1E91509F4992442
:10016600B394E8E1EB1519F4BB24689420F80991DF
:100176001991E991EFBFF991E9911895E0E0EBBB90
:10018600EABBE1E0E7BBE0E0E8BBE3E0E4BBE0E0DC
:10019600E5BBE6E1E1BBE0E0E2BBEBB9E8E9EAB9E1
:1001A600E6E8E0BDE0E0E0BDE3E3E9B98CD2B4D235
:1001B600DCD2A0E10E94C304ACE5B0E00E94B20428
:1001C600A8EEB3E00E94080CE0E0E2BDE7E0E5BD82
:1001D600E2EBE4BDE0E0E3BDE0E4E9BF7894C0D043
:1001E6004FD1DED10E948F09E2E0EA93A2E6B3E0A6
:1001F6000E945F08E0E2F3E00E949A09E2E6F3E07B
:100206000E94A1090E94AA09E2E0EA93ACE6B3E0E3
:100216000E945F08ECE2F3E00E949A09ECE6F3E044
:100226000E94A1090E94B509E2E0EA93A6E7B3E0BD
:100236000E945F08E8E3F3E00E949A09E6E7F3E02C
:100246000E94A109E0E2F3E0FA93EA93ECE2F3E01C
:10025600FA93EA93A8E3B3E0B3D2E4E4F3E0FA93C3
:10026600EA93EDE6F0E0FA93EA930E948F090E9482
:10027600AA090E94B5098CE00E942B0860960E948C
:100286008704E0E0EA93A0E00E947A04A4E4B3E0E5
:100296000E94A804AAE0B0E00E94080CA0CFFFCFFD
:1002A60024971A93839A92980E94C0098399FECF45
:1002B60010E0183160F4929A0E94C6090E94CB0998
:1002C6009298839B02C00E94D2091F5FF2CF929A36
:1002D6000E94DC0992980E94C60918810C943D057B
:1002E60024971A93859A94980E94C0098599FECFFF
:1002F60010E0183160F4949A0E94C6090E94CB0956
:100306009498859B02C00E94D2091F5FF2CF949AEF
:100316000E94DC0994980E94C60918810C943D0538
:1003260024971A93B19AC0980E94C009B199FECF3A
:1003360010E0183160F4C09A0E94C6090E94CB09E9
:10034600C098B19B02C00E94D2091F5FF2CFC09A2B
:100356000E94DC09C0980E94C60918810C943D05CC
:100366000E947F0EE0E0E0939002E0939102E0931A
:100376009202E093930220E030E02330E0E03E0773
:1003860008F071C000E010E00B30E0E01E0708F056
:100396004FC00E94EB0984DF0E94F5090E94FE0906
:1003A6000E94070A0E94F509E0916402F091650235
:1003B60060916602709167020E94FE090E94780EA3
:1003C60068F5E0917802F091790260917A02709175
:1003D6007B020E940E0AA0916402B0916502809190
:1003E6006602909167020E94170A0E94C40D0E943D
:1003F6000E0A0E94200A0E94260AA0E6B2E00E9487
:100406002D0AACE9B2E00E94330AFF93EF930E94F3
:10041600200A0E94380AAF91BF9105C0F801ACE9E5
:10042600B2E00E943F0A0E94490E0F5F1F4FACCFF9
:10043600ECE9F2E00E94480AE091B002F091B102C4
:100446006091B2027091B3020E944E0A0E94B80CEB
:10045600E0939002F093910260939202709393025C
:100466002F5F3F4F8ACF0E944E0A0E94570AE093A1
:100476008402F093850260938602709387021FC1FF
:100486000E947F0EE0E0E0939402E0939502E093F1
:100496009602E093970220E030E02330E0E03E074A
:1004A60008F071C000E010E00B30E0E01E0708F035
:1004B6004FC00E945E0A14DF0E94680A0E94710AF9
:1004C6000E94070A0E94680AE0916C02F0916D0290
:1004D60060916E0270916F020E94710A0E94780EFE
:1004E60068F5E0917C02F0917D0260917E02709148
:1004F6007F020E947A0AA0916C02B0916D028091EF
:100506006E0290916F020E94830A0E94C40D0E949F
:100516007A0A0E948C0A0E94260AA8E6B2E00E9485
:100526002D0AA8ECB2E00E94330AFF93EF930E94D3
:100536008C0A0E94380AAF91BF9105C0F801A8EC59
:10054600B2E00E943F0A0E94490E0F5F1F4FACCFD8
:10055600E8ECF2E00E94480AE091DC02F091DD024C
:100566006091DE027091DF020E94920A0E94B80C2E
:10057600E0939402F093950260939602709397022B
:100586002F5F3F4F8ACF0E94920A0E94570AE0933C
:100596008802F093890260938A0270938B028FC05F
:1005A6000E947F0EE0E0E0939802E0939902E093C8
:1005B6009A02E0939B0220E030E02330E0E03E0721
:1005C60008F071C000E010E00B30E0E01E0708F014
:1005D6004FC00E949B0AA4DE0E94A50A0E94AE0A92
:1005E6000E94070A0E94A50AE0917402F091750222
:1005F60060917602709177020E94AE0A0E94780E90
:1006060068F5E0918002F09181026091820270911A
:1006160083020E94B70AA0917402B091750280917C
:100626007602909177020E94C00A0E94C40D0E9431
:10063600B70A0E94C90A0E94260AA0E7B2E00E94F1
:100646002D0AA4EFB2E00E94330AFF93EF930E94B3
:10065600C90A0E94380AAF91BF9105C0F801A4EFFC
:10066600B2E00E943F0A0E94490E0F5F1F4FACCFB7
:10067600E4EFF2E00E94480AE0910803F0910903D2
:1006860060910A0370910B030E94CF0A0E94B80C76
:10069600E0939802F093990260939A0270939B02FA
:1006A6002F5F3F4F8ACF0E94CF0A0E94570AE093DE
:1006B6008C02F0938D0260938E0270938F020E94DB
:1006C600860E249608950E94D80A0E94EB0900E03F
:1006D60010E00A30E0E01E0764F4E2DD0E94FE0945
:1006E6000E94BF0D0E94F5090E94DD0A0F5F1F4F91
:1006F600F0CF0E94FE090E94E20A0E94F5090E94BC
:10070600FE090E94070AE0936402F0936502609373
:1007160066027093670251C00E94D80A0E945E0A60
:1007260000E010E00A30E0E01E0764F4D9DD0E9424
:10073600710A0E94BF0D0E94680A0E94DD0A0F5FBF
:100746001F4FF0CF0E94710A0E94E20A0E94680AB7
:100756000E94710A0E94070AE0936C02F0936D02F0
:1007660060936E0270936F0228C00E94D80A0E949E
:100776009B0A00E010E00A30E0E01E0764F4D0DDDA
:100786000E94AE0A0E94BF0D0E94A50A0E94DD0AC1
:100796000F5F1F4FF0CF0E94AE0A0E94E20A0E942E
:1007A600A50A0E94AE0A0E94070AE0937402F0931B
:1007B60075026093760270937702099119910895F4
:1007C600BA93AA93AC81BD810E94F704ACE20E9461
:1007D600F004AA81BB810E94F704ACE20E94F004F7
:1007E600A881B9810E94F70426960895BA93AA9320
:1007F6000E947F0E00E010E020E030E000E010E014
:10080600EC81FD8131970E171F070CF04BC020E0DD
:1008160030E0F8013196AC81BD810E946D0EEA1B75
:10082600FB0B2E173F07DCF5F9010E94E90A7F93BF
:100836006F93FF93EF93F90131960E94E90AAF9106
:10084600BF918F919F910E949B0D09F008F424C0DF
:100856002297F9010E94F20A0E943F0E0E94450C5F
:10086600E883F983F901A885B9850E94330A0F0147
:10087600F90131960E94F20A0E94430ED0010E94AD
:10088600490EF90131960E94F20AE881F9810E9427
:10089600F90A0E94490E22962F5F3F4FBACF0F5F8B
:1008A6001F4FAECF0E94860E28960895AA93EBB3EB
:1008B600EF70AE2FE881E07FEA2BEBBB8DE08A95E7
:1008C600F1F7DA9A8DE08A95F1F7DA988DE08A9554
:1008D600F1F70C94F504AA93A881E8DFE881E29584
:1008E600E883A881E3DF85E88A95F1F77BC0AA93C0
:1008F600E881F0E0E856FC4FE081A981AE0FEBDF1E
:10090600A980D88022960895A2E00E94FE0AACE053
:10091600E2DFA1E00E94FE0AE0E0DE2EAE2E0895A0
:10092600AA93A881AA3011F0AC1448F0E0E0EA934B
:10093600D394AD2DDCDFA881AA3009F453C0A3946B
:10094600D89AA881C8DFD8984DC0BA93AA931A93AB
:100956000E94040B19F0A12FE3DFFACF50C0BA931F
:10096600AA931A93E981FA813196E983FA8331973A
:10097600E4911E2FE03019F0A12FD2DFF3CF3FC054
:10098600AA93EAB3E06FEABBD29AD09AD19ADA98E0
:10099600D898D998C880E881E058E0939A03E8810E
:1009A600E054E0939B03A4E1B0E00E94080C0E948F
:1009B6000C0B0E940C0B0E940C0BA0E277DF88EC5C
:1009C60090E00197F1F7A8E286DFA4E084DFA5E8CE
:1009D60082DFA6E080DF98DF05C0AA935D9BFECF8D
:1009E600E881ECB921960895BA93AA931A930E94C6
:1009F600040B19F0A12FF1DFFACFAAE0EEDF188180
:100A060023960895BA93AA931A930A93AA81BB814F
:100A160012960E943F0E309729F1AA81BB81149647
:100A26000E943F0E8F01309761F00230E0E01E0712
:100A360080F0F80131978F01AA81BB811496ED935E
:100A4600FC93AA81BB8112960E94140B3197AC814C
:100A5600A083AA81BB810E943F0EFF2312F00E9451
:100A6600140B06C0AA81BB81EFEFFFEFED93FC9359
:100A760019810881259608950E941A0BE0E8EA83F9
:100A8600EFE3EB830E947F0EEE85FF85EF3FAFEF2E
:100A9600FA0749F4E885F985FA93EA93A6E8B0E0FF
:100AA6000E942109B7C0EF3FAFE7FA0749F4E8858E
:100AB600F985FA93EA93A7E8B0E00E942109AAC053
:100AC600AB85A73010F0E6E0EB871B85E12F1150D0
:100AD600E03019F00E94210BF9CFEC85FD856E857B
:100AE6007F850E94740E21F430E00E94210B2DC0F8
:100AF6003B850E94300B09F008F40BC00E94210BC5
:100B06000E94300B28F00E943B0B0E94400BF8CF4E
:100B16000DC00E94300B40F40E943B0B0E944C0B10
:100B26000E94530B3150F5CF0E94210BEC85FD85B9
:100B36006E857F850E94580B0E94530B0E94300BD6
:100B460020F00E943B0B0E94400B10E0EB85E11762
:100B5600A8F1AC81BD818E819F810E945F0B0E94AE
:100B6600580BDF01CB010E947809EC83FD836E836D
:100B76007F830E943B0B0E94560D0E94450C0E2F50
:100B86000E94660B0E946D0BFF27662777270E943F
:100B96007E0CAC81BD818E819F810E94080D0E94D2
:100BA6003B0B0E94720B0E94530BE12F1F5FE0303C
:100BB60069F60E94660BEEE2EC93C8CF0E94770BB3
:100BC6003197AA85A08330302CF43195A885B98554
:100BD600EDE203C0A885B985EBE2EC930E94770BA2
:100BE6000E94770B3197BF01A32FEAE00E94F90D0F
:100BF600E05DDB01EC930E94770B3197BF01A32FD9
:100C0600EAE00E94230EE05DDB01EC93A885B9853E
:100C1600E0E0EC930E94860E60960895BA93AA933C
:100C2600EF9761970E947D0E10E0FE01E85AFF4F94
:100C36000190F081E02DE887F987FE01EA5AFF4F1F
:100C46000190F081E02DEE83FF83AE81BF81E0E06D
:100C5600F0E0ED93FC93DE01A45ABF4F0E94140B03
:100C66003197E4912E2FE03009F4E9C1E12FE0300D
:100C760039F4253211F411E002C00E947D0BDEC169
:100C8600E130C1F4253219F40E947D0BD6C112E081
:100C9600E0E0ED8B00E02D3211F401E0CFC12B3204
:100CA60019F4EBE2ED8BCAC1203219F4E0E2ED8BC8
:100CB600C5C102C0E23039F450E013E0203311F42C
:100CC6000068BCC102C0E33091F4203310F02A332F
:100CD60008F007C0AAE05A9F502DE22FE0535E0F9E
:100CE600ADC140E02E3211F414E0A8C10FC0E430CB
:100CF60099F4203310F02A3308F008C00062AAE005
:100D06004A9F402DE22FE0534E0F98C12C3619F41E
:100D1600026015E093C103C0E53009F08FC1E22FF0
:100D2600E33659F40E94840B0E948B0B0E94840BBD
:100D3600A481AA930E94920B80C1E53411F0E53696
:100D460009F403C0E63609F048C0FE017696EE8740
:100D5600FF870E94980B0E94430E0E949F0B0E94E1
:100D6600A40BAD85AA2332F0AD89AB3259F0A0327F
:100D760081F017C00E94A60B0E94120C0E949F0BC6
:100D8600EDE2ED8B07FF05C0ED89EA930E94920B19
:100D960008C0EE85FF853196EE87FF873197AD89CE
:100DA600A08305FF46E0263651F40E94A60B0E945A
:100DB6005D0E4A93AB89BC890E945F0809C00E94F8
:100DC600A60B0E945D0E4A932A93AC89BD8954DE18
:100DD600FE0176960E94AB0B1EC0E33739F40E94E3
:100DE600A40B0E94B30B0E94AB0B0EC0E037C1F4FC
:100DF6000E94A40B0E94B30BEE87FF87AE85BF85CA
:100E06000E943A091E2F08600F77403011F04117F3
:100E160008F001C0142F40E0E0E0EC8B30E06DC03C
:100E2600E43611F0E93611F4046002C0E537A1F4A6
:100E3600EAE0EC8B01FF08C0E0E0FAEC6AE97BE34C
:100E46000E94B80B1AE022C0E0E1F7E260E070E031
:100E56000E94B80B15E01AC0E83511F4086003C00B
:100E6600E83709F0EAC0E0E1EC8B01FF08C0E0E0FA
:100E7600F0E060E070E10E94B80B18E007C0E0E027
:100E8600F0E160E070E00E94B80B14E0403011F031
:100E96000F7701C041E001FF08C00E94A40B0E9429
:100EA600980B14960E94430E0FC002FF07C00E94C3
:100EB600A40B0E94B30B0E94E60D06C00E94A40B71
:100EC6000E94B30B66277727EA87FB876C877D87A7
:100ED60002FF12C0AD85AA2342F40E94A60B0E940F
:100EE600CE0D0E949F0BEDE2ED8BED89E03019F0FF
:100EF6001F5F4F5F01C00B7F342F00FD14C0151715
:100F060010F4351708F00FC007FF08C002FF04C031
:100F16000B7F2D89115001C020E301C020E20E9401
:100F26007D0B5150ECCF141790F4006102FF06C000
:100F36000E94BD0B09F0515011504150E0E3EA9375
:100F46000E94920B503009F051504150ECCF312F96
:100F5600EC89E030B9F43030A1F003FF06C0EE852D
:100F6600FF852591EE87FF8705C0AE85BF852D914C
:100F7600AE87BF870E947D0B503009F0515031502B
:100F8600EACF51C00E94CF0B0E94FE0D2E2F2A30B1
:100F960030F003FF02C0295C01C0295A01C0205D60
:100FA60004FD21C0213360F4A889B9898A899B8907
:100FB600A130E0E0BE07E0E08E07E0E09E0709F41E
:100FC6000BC0431740F4531710F000FF01C010C0C8
:100FD60020E207FF08C020E3006102FF04C00E9470
:100FE600BD0B09F051500E947D0B503009F0515055
:100FF60031500E94CF0B0E942F0E0E949F0BEC894E
:10100600A889B9898A899B89FF27662777270E943D
:10101600FE0D0E94B80BE889F9896A897B890E94CE
:10102600740E09F0AFCF00FF08C0503031F05150B8
:10103600E0E2EA930E94920BF8CF10E00CCEAE816C
:10104600BF810E943F0E0E94840EEF966F96089510
:10105600FF92F82E26970E947F0E0E94D80B30979B
:1010660019F4EFEFFFEF23C0DE0116960E94BB0DC9
:101076008D010E94D80BEE83FF83E0E0E887E987C5
:10108600DE011A960E94BB0D0E943F0EFA93EA9368
:101096001A930A93E5E0F5E0FA93EA93DE011A96CD
:1010A600BDDD9F01AE81BF81E0E0EC93F9010E94B6
:1010B600860E2A96FF9008950E941A0BE0E0EA83B6
:1010C600EFE3EB831A930A93EB85FC85EF3FAFEFD3
:1010D600FA0739F40E94DF0BAEE8B0E00E9421095E
:1010E600A9C0EF3FAFE7FA0739F40E94DF0BAFE87C
:1010F600B0E00E9421099EC0AC85AA2362F4E9856E
:10110600FA856B857C850E94120C0E94E40B0E9476
:10111600E90BEDE2EC93A885A73010F0E6E0E8874E
:101126001885E12F1150E03039F00E94F00B0E9433
:101136005F0B0E94F50BF5CF0E94FA0B0E94B80CCC
:101146000E94E40B10E0E0E0F0E060E87FE30E943C
:10115600F50B0E94FA0B0E949B0D88F00E94F00B83
:101166000E944C0B0E94F50B1F5F173238F00E944D
:10117600DF0BA3E9B0E00E9421095CC0EACF103082
:1011860029F40E94E90BE0E3EC9329C0E12F11500A
:10119600E03029F10E94F00B0E945F0B0E94580B71
:1011A600DF01CB010E9478090E94F50B0E94FA0B21
:1011B6000E94560D0E94450C0E2F0E94E90B0E94BC
:1011C6006D0BF0E00E94F00B0E94F90A0E94080DD8
:1011D6000E94030C0E94720B0E94E40BD7CFE88595
:1011E600E03021F10E94E90BEEE2EC93E885E15054
:1011F600E887EF5FD9F00E94030C0E944C0B0E9417
:10120600E40BE985FA856B857C850E94450C0E2FDB
:101216000E94E90B0E946D0BF0E00E94030C0E94F5
:10122600F90A0E94720B0E94E40BE0CFAE81BF81E7
:10123600E0E0EC93198108812D960895BA93AA935C
:10124600E991F991A991B991CD0105900D920020EE
:10125600E1F7FC010895BA93AA93A991B991EE27F3
:10126600FF276D91662311F03196FBCF0895BA934F
:10127600AA93AA27BB27E991F9910590002011F0BE
:101286001196FBCFFD0108950E94620E7B816A8153
:10129600F981E88177FB770F67FD7160972F9E577D
:1012A60081F078F0983190F4AA27BB278827089414
:1012B6008795B795A7959A95D1F7EA23FB236823D7
:1012C60005C0E8947727EE27FF2766276F77769580
:1012D60008F4606877F9A991B99189919991EA170B
:1012E600FB076807790797FB08950E94620E0E9424
:1012F600530E0E9447090E94580E19F40E944E0E82
:1013060009C0E6F70E944E0EA0E0B0E080E89FE339
:101316000E94B10C24960895E0918402F091850212
:1013260060918602709187020E945D0E0895FA937D
:10133600EA93EAE6F0E0FA93EA93089566277727B8
:101346000E945D0E84E00E942B0828960895E09185
:101356008802F091890260918A0270918B020E9444
:101366005D0E0895E0918C02F0918D0260918E02DF
:1013760070918F020E945D0E0895E0E0E983EA8392
:10138600EB83EC830895E981FA816B817C81089572
:101396000E94DB0DE983FA836B837C830895F3DF78
:1013A600EF5FFF4F6F4F7F4FE983FA836B837C8339
:1013B6000895A981BA818B819C81E0E0F0E060E824
:1013C60070E00E94C90DE983FA836B837C830895DC
:1013D600E0E0E0937802E0937902E0937A02E0930A
:1013E6007B020895E0937802F093790260937A0283
:1013F60070937B020895A0917802B0917902809152
:101406007A0290917B020895E4E6F0E060E070E0F5
:101416000E94FE0D0895E0936002F09361026093CE
:101426006202709363020895E0916002F091610296
:1014360060916202709163020895F6DF0E947C0C4F
:10144600DF01CB010895EDE4F0EA68EB7EE30E944C
:10145600560D08950E94450C0E94490EF801089504
:101466000E94D60DEA0FFB1F0895E0E0F0E060EF62
:1014760071E40E94560D08950E94D60DAE0FBF1F4F
:10148600E0E0F0E060E070E00895FA93EA93ABE004
:10149600B0E00C94F903A0919002B0919102809172
:1014A6009202909193020895E0E0F0E060E470E427
:1014B6000E94560D0895E0E0E0937C02E0937D02E1
:1014C600E0937E02E0937F020895E0937C02F0931E
:1014D6007D0260937E0270937F020895A0917C0244
:1014E600B0917D0280917E0290917F020895E093F3
:1014F6006802F093690260936A0270936B02089522
:10150600E0916802F091690260916A0270916B0243
:101516000895F6DF0E947C0CDF01CB010895A091AF
:101526009402B09195028091960290919702089547
:10153600E0E0E0938002E0938102E0938202E09390
:1015460083020895E0938002F09381026093820201
:10155600709383020895A0918002B09181028091D8
:101566008202909183020895E0937002F0937102D3
:1015760060937202709373020895E0917002F09185
:10158600710260917202709173020895F6DF0E94F3
:101596007C0CDF01CB010895A0919802B0919902CD
:1015A60080919A0290919B0208951A930A9300E003
:1015B60010E0089588EE93E00197F1F70895EAE0C8
:1015C600F0E060E070E00E94FE0D0895AE81BF81FC
:1015D6000E94D60DAE0FBF1F0E94430E0895A88528
:1015E600B9850E94D60DAE0FBF1F08950E94E60D65
:1015F6000E947E0C08950E946E04A3E0B0E00C9455
:10160600080CA981BA81ED91A983BA831E2FE03017
:101616000895A0E30E94590488EC90E00197F1F741
:101626000895ED91FD913196FE93EE930895BA9348
:10163600AA932497E0E0E883E9830895AC81BD810D
:101646008E819F81E0E0F0E060E271E40E94080D87
:10165600EC83FD836E837F830895EC81FD816E812B
:101666007F81AC85BD858E859F850E949B0D0895E3
:10167600AC85BD858E859F850895EDECFCEC6CEC04
:101686007DE30E94080DEC87FD876E877F873F5FAD
:101696000895E0E0F0E060E271E40E94080D08952C
:1016A600EC87FD876E877F870895A0E0B0E080E035
:1016B6009FE30E94B80C0895EDECFCEC6CEC7DE326
:1016C6000E94080D0895A885B9851196A887B9873F
:1016D60011970895E02FE05DEC93E02F08950E94A6
:1016E600670E0E94B10C0895E885F9853196E88762
:1016F600F98708952A93AF81B885E985FA85099512
:101706000895FE01E65AFF4F0190F081E02D0895FD
:101716003497DE01A65ABF4FED93FC930895AF812F
:10172600B885E985FA8509950895DE01A65ABF4F61
:101736000D90BC91A02D0895EA87FB876C877D8765
:101746000895DFDFE5CFEA85FB856C857D85089505
:10175600EE87FF87AE85BF850E942E091E2F08954E
:10176600E4DF14960E943F0E0895E88BF98B6A8B8E
:101776007B8B08950B7FED89EA93DE01A95ABF4F53
:101786000D90BC91A02DFE01E75AFF4F0190F0810C
:10179600E02D099550300895E889F9896A897B8991
:1017A600AA85BB858C859D850895DE011C960E94C1
:1017B600BB0D0E943F0E0895EE81FF81FA93EA93D6
:1017C6000895E987FA876B877C870895AE81BF8184
:1017D6001196AE83BF8311970895AA81BB818C8130
:1017E6009D810895EA83FB836C837D830895EA8156
:1017F600FB816C817D81A985BA858B859C85089541
:10180600A985BA858B859C850895109639F080ED5B
:1018160097E00197F1F7A8951197C9F708953097C2
:101826006040704009F070580895552342F45038CE
:1018360011F4E0FF04C03196691F791F6BF050E880
:10184600572711F45F93CFC05F3F31F0660F000C4E
:1018560057956795752F08955F9300200AF0CFC0BE
:10186600C8C050E8192E1522880F991F9527550FC5
:10187600879550E8072E0522660F771F7527550FA7
:1018860067950895689401C0E8945F93F2DF703815
:1018960018F07F3F08F4A7C056E1571BAAF45195EC
:1018A60058300EF4593030F0EFEFFFEF6FEF7FE76F
:1018B60077F91AC077275523B9F0EE0FFF1F661F79
:1018C600771F5A95D1F710C07727583028F0EF2F99
:1018D600F62F672F5850F9CF552331F07695679537
:1018E600F795E7955A95D1F700200AF454D15F9100
:1018F6000895689401C0E894309760407040B1F054
:10190600002426F0772312F4009445D1172E7EE1A9
:10191600112032F07A95EE0FFF1F661F111CF9CFCA
:10192600EF2FF62F612D5F938ADF5F9108954F9316
:10193600AF01FD01DA01AB01BC01CA01402D012C4A
:10194600142E4F910895EA0FFB1F681F0895E09526
:10195600F0956095EF5FFF4F6F4F08955F9381DFBE
:10196600903871F150E8152604C05F937ADF9038FD
:1019760039F1703821F1572F591B2BF112F4D7DFAB
:10198600FACF583118F0AA27BB278827583028F0F5
:10199600AB2FB82F88275850F9CF552329F08695B5
:1019A600B795A7955A95D9F7502D512572F0CBDFEB
:1019B60038F46795F795E795739513F420C0B7DF6C
:1019C6003EDF5F910895D8F7FBCFEA1BFB0B680B50
:1019D60051F010F40094BBDF662392F3EE0FFF1F65
:1019E600661F7A95CBF7EE27FF27662777275F9145
:1019F6000895EFEFFFEF6FE77FEF5F910895EFEF49
:101A0600FFEF6FE77FE75F9108955F932ADF7038F6
:101A160051F3903841F301240894791F23F41CF301
:101A260000203AF3ECCF0F921F932F933F934F93DF
:101A3600112722279927689FA0018F9F302D410DDE
:101A4600591F6B9F300D411D591F8E9F27D0BF9F79
:101A560025D06A9F23D0BE9F1DD0AF9F1BD0AE9FBF
:101A6600110D291F391F491F591FE32FF42F652F09
:101A7600522F4F913F912F911F910F9066232AF07D
:101A8600550FEE1FFF1F661F02C073954BF2CDDE8A
:101A96005F910895100D211D391F02C0200D311DC3
:101AA600491F591F08955F93DCDE703821F4112019
:101AB6000AF49FCFA4CF903809F495CF0124089457
:101AC600970B1BF4D4F30020F3CF792F1F932F939A
:101AD6003F934F9311241127222733274427552755
:101AE60090E2AE17BF078607410730F0AE1BBF0B6B
:101AF600860B410B089401C08894551F221F331F83
:101B0600111CAA1FBB1F881F441F9A9551F7F90184
:101B1600612D4F913F912F911F91662332F0550F02
:101B2600EE1FFF1F661F7A9543F27FDE5F910895D1
:101B360099239AF0772342F0971748F029F4AE17C5
:101B4600BF07860720F031F09894889408959894FA
:101B5600089408951894889408957723C2F79717E0
:101B660098F3A9F7EA17FB07680788F399F3ECCF10
:101B76000024AF0DB01D0895EA0FFB1F681F791FE3
:101B86000895EA1BFB0B680B790B0895EA27FB27E0
:101B9600682779270895F09560957095E195FF4F30
:101BA6006F4F7F4F0895EE0FFF1FEE0FFF1F089533
:101BB600EE0FFF1F661F771F0895FE2FFF0FFF0B07
:101BC6006F2F7F2F08956F2F660F660B762F089560
:101BD600002498E0AA0F001C0E1A10F40E0E01C085
:101BE600A1609A95B9F7EA2FA02D089539D0F0DFB4
:101BF6000EF4E19508953F934F935F9300241124CB
:101C06004427552730E2AA0FBB1F881F991F001CC7
:101C1600111C441F551F0E1A1F0A460B570B28F49A
:101C26000E0E1F1E461F571F01C0A1603A9559F799
:101C3600FD01BC01D001CA015F914F913F9108950A
:101C4600E894A7FF02C0A1956894E7FDE195C0DF7F
:101C5600EA2F0EF4E1950895CEDFFD01BC0108954B
:101C6600E894E7FF02C0E1956894A7FF04C0A19538
:101C760000F8039400FA0895ED91FC9111970895E8
:101C8600ED91FD916D917C9113970895ED93FD93E0
:101C96006D937C930895E881F9816A817B8108952B
:101CA600A881B9818A819B810895E883F9836A8333
:101CB6007B8308957A936A93FA93EA9308959A93A5
:101CC6008A93BA93AA930895182E862F612D192EFA
:101CD600972F712D1B2EBF2FF12D1A2EAE2FE12D12
:101CE60008953097604070400895EA17FB0768072B
:101CF600790708955A934A933A932A931A930A9323
:101D060008955D814C813B812A811981088108955E
:00000001FF
