:080000000C9489100C9400001F
:100008000C9400000C9400000C9400000C94000068
:100018000C9400000C9400000C9400000C94000058
:100028000C9400000C9400000C9400000C94B81080
:100038000C9400000C9400000C9400000C94000038
:100048000C9400000C9400000C9400000B000B00B2
:100058000B000B000B000B000B000B000B000C003F
:100068000C000D000C000C000B000C000C000D0027
:100078000E000D000B0011001E001E001E001E00C9
:100088001E002C00330039003D00410046004600A8
:1000980046004600460046004600460046000B0063
:1000A8000B000B000B000B000B000B000B000B00F0
:1000B8000C000C000D000C000C000B000C000C00D8
:1000C8000D000E000D000B0011001E001E001E008A
:1000D8001E001E002C00330039003D004100460080
:1000E80046004600460046004600460046004600D8
:1000F8000B000B000B000B000B000B000B000B00A0
:100108000B000C000C000D000C000C000B000C0088
:100118000C000D000E000D000B0011001E001E004B
:100128001E001E001E002C00330039003D00410057
:100138004600460046004600460046004600460087
:1001480046000B000B000B000B000B000B000B0014
:100158000B000B000C000C000D000C000C000B0039
:100168000C000C000D000E000D000B0011001E000D
:100178001E001E001E001E002C00330039003D002A
:10018800410046004600460046004600460046003C
:10019800460046000B000B000B000B000B000B0089
:1001A8000B000B000B000C000C000D000C000C00E9
:1001B8000B000C000C000D000E000D000B001100D0
:1001C8001E001E001E001E001E002C0033003900F9
:1001D8003D004100460046004600460046004600F5
:1001E8004600460046000B000B000B000B000B00FE
:1001F8000B000B000B000B000C000C000D000C009A
:100208000C000B000C000C000D000E000D000B0084
:1002180011001E001E001E001E001E002C003300D0
:1002280039003D00410046004600460046004600B1
:1002380046004600460046000B000B000B000B0072
:100248000B000B000B000B000B000C000C000D004A
:100258000C000C000B000C000C000D000E000D0033
:100268000B0011001E001E001E001E001E002C00A8
:10027800330039003D004100460046004600460074
:10028800460046004600460046000B000B000B00E7
:100298000B000B000B000B000B000B000C000C00FC
:1002A8000D000C000C000B000C000C000D000E00E3
:1002B8000D000B0011001E001E001E001E001E0077
:1002C8002C00330039003D0041004600460046003E
:1002D8004600460046004600460046000B000B005C
:1002E8000B000B000B000B000B000B000B000C00AD
:1002F8000C000D000C000C000B000C000C000D0095
:100308000E000D000B0011001E001E001E001E0036
:100318001E002C00330039003D0041004600460015
:1003280046004600460046004600460046000B00D0
:100338000B000B000B000B000B000B000B000B005D
:100348000C000C000D000C000C000B000C000C0045
:100358000D000E000D000B0011001E001E001E00F7
:100368001E001E002C00330039003D0041004600ED
:100378004600460046004600460046004600460045
:100388000B000B000B000B000B000B000B000B000D
:100398000B000C000C000D000C000C000B000C00F6
:1003A8000C000D000E000D000B0011001E001E00B9
:1003B8001E001E001E002C00330039003D004100C5
:1003C80046004600460046004600460046004600F5
:1003D80046000C000C000C000C000C000C000C007B
:1003E8000C000C000C000C000D000C000C000C00A4
:1003F8000C000C000D000E000D000C0011001E007A
:100408001E001E001E001E002C00330039003D0097
:1004180041004600460046004600460046004600A9
:10042800460046000C000C000C000C000C000C00F0
:100438000C000C000C000C000C000D000C000C0053
:100448000C000C000C000D000E000D000C0011003B
:100458001E001E001E001E001E002C003300390066
:100468003D00410046004600460046004600460062
:100478004600460046000C000C000C000C000C0066
:100488000C000C000C000C000C000C000D000C0003
:100498000C000C000C000C000D000E000D000C00F0
:1004A80011001E001E001E001E001E002C0033003E
:1004B80039003D0042004700470047004700470019
:1004C80047004700470047000C000C000C000C00D8
:1004D8000C000C000C000C000C000C000C000D00B3
:1004E8000C000C000C000C000C000D000E000D00A0
:1004F8000C0011001E001E001E001E001E002C0015
:10050800330039003D0042004700470047004700DC
:10051800470047004700470047000C000C000C004C
:100528000C000C000C000C000C000C000C000C0063
:100538000D000C000C000C000C000C000D000E004F
:100548000D000C0011001E001E001E001E001E00E3
:100558002D00330039003D004200470047004700A6
:100568004700470047004700470047000D000D00BF
:100578000D000D000D000D000D000D000D000D000B
:100588000D000D000D000D000D000D000D000D00FB
:100598000E000D000D0011001E001E001E001E00A2
:1005A8001E002D00340039003D004300480048007B
:1005B80048004800480048004800480048000D002E
:1005C8000D000D000D000D000D000D000D000D00BB
:1005D8000D000D000D000D000D000D000D000D00AB
:1005E8000D000E000D000D0011001E001E001E0063
:1005F8001E001E002E00350039003E004300490051
:10060800490049004900490049004900490049009A
:100618000D000D000D000D000D000D000D000D006A
:100628000D000D000D000D000D000D000D000D005A
:100638000D000D000E000D000D0011001E001E0023
:100648001E001E001E002E00350039003E0043002B
:10065800490049004900490049004900490049004A
:1006680049000D000D000D000D000D000D000D00DE
:100678000D000D000D000D000D000D000D000D000A
:100688000D000D000D000E000D000D0011001E00E4
:100698001E001E001E001E002D00340039003D0003
:1006A8004300480048004800480048004800480007
:1006B800480048000C000C000C000C000C000C005A
:1006C8000C000C000C000C000C000D000C000C00C1
:1006D8000C000C000C000D000E000D000C001100A9
:1006E8001E001E001E001E001E002D0033003900D3
:1006F8003D004200470047004700470047004700C9
:100708004700470047000C000C000C000C000C00D0
:100718000C000C000C000C000C000C000D000C0070
:100728000C000C000C000C000D000E000D000C005D
:1007380011001E001E001E001E001E002C003300AB
:1007480039003D0042004700470047004700470086
:1007580047004700470047000C000C000C000C0045
:100768000C000C000C000C000C000C000C000D0020
:100778000C000C000C000C000C000D000E000D000D
:100788000C0011001E001E001E001E001E002C0082
:10079800330039003D00420047004700470047004A
:1007A800470047004700470047000C000C000C00BA
:1007B8000C000C000C000C000C000C000C000C00D1
:1007C8000D000C000C000C000C000C000D000E00BD
:1007D8000D000C0011001E001E001E001E001E0051
:1007E8002C00330039003D00410046004600460019
:1007F8004600460046004600460046000C000C0035
:100808000C000C000C000C000C000C000C000C0080
:100818000C000D000C000C000C000C000C000D006E
:100828000E000D000C0011001E001E001E001E0010
:100838001E002C00330039003D00410046004600F0
:1008480046004600460046004600460046000B00AB
:100858000B000B000B000B000B000B000B000B0038
:100868000C000C000D000C000C000B000C000C0020
:100878000D000E000D000B0011001E001E001E00D2
:100888001E001E002C00330039003D0041004600C8
:100898004600460046004600460046004600460020
:1008A8000C000C000C000C000C000C000C000C00E0
:1008B8000C000D000E000F000E000D000D000D00C5
:1008C8000E000F00100011000E001900280026006D
:1008D8002500240024002D00340039003D0042008A
:1008E80046004600460046004600460046004600D0
:1008F80046000C000C000C000C000C000C000C0056
:100908000C000C000E000F0010000F000E000E006F
:100918000E000F0010001200140011001E002D0020
:100928002A002900280028002E00350039003E0042
:100938004200460046004600460046004600460083
:10094800460046000C000C000C000C000C000C00CB
:100958000C000C000C000F001000110010000F001C
:100968000F000F00100011001300160013002100E3
:1009780031002E002C002C002C00300035003A00ED
:100988003E00420047004700470047004700470035
:100998004700470047000C000C000C000C000C003E
:1009A8000C000C000C000C000F00110012001100CC
:1009B800100010001000110012001400180015009B
:1009C8002100330030002E002E002E0032003600A9
:1009D8003A003E00420047004700470047004700F2
:1009E80047004700470047000C000C000C000C00B3
:1009F8000C000C000C000C000C000F00120013007F
:100A08001200120012001200120013001500190043
:100A1800170022003500320030003000300033006B
:100A280037003B003E0042004700470047004700B0
:100A3800470047004700470047000D000D000D0024
:100A48000D000D000D000D000D000D00100012002E
:100A580014001300130013001300130014001500F2
:100A68001A0019002300350033003200320032002A
:100A7800350038003B003F0043004800480048006C
:100A88004800480048004800480048000D000D0094
:100A98000D000D000D000D000D000D000D001000E3
:100AA800130014001400140014001400140014009F
:100AB80015001B001B0023003500340034003400EF
:100AC8003400370039003B003F004300490049002B
:100AD80049004900490049004900490049000D0002
:100AE8000D000D000D000D000D000D000D000D0096
:100AF800100013001400150015001500150015004E
:100B0800150015001C001C002400350035003500B8
:100B18003500350038003A003C003F0044004A00E8
:100B28004A004A004A004A004A004A004A004A006D
:100B38000D000D000D000D000D000D000D000D0045
:100B48000D00100012001400160016001600160002
:100B58001600160015001D001E0025003500360081
:100B680037003700370039003C003D0040004500A1
:100B78004B004B004B004B004B004B004B004B0015
:100B88004B000C000C000C000C000C000C000C00BE
:100B98000C000C000F0012001400170017001700BB
:100BA80017001700170015001F0020002700350048
:100BB80037003900390039003B003D003F00410053
:100BC80046004C004C004C004C004C004C004C00C3
:100BD8004C004C000C000C000C000C000C000C002D
:100BE8000C000C000C000F00120014001700190074
:100BF800190019001800180016002000220029000A
:100C0800360039003A003A003A003D003F00410002
:100C1800430047004E004E004E004E004E004E006E
:100C28004E004E004E000C000C000C000C000C0096
:100C38000C000C000C000C000F0012001400170030
:100C48001A001A001A001A001900180022002400BD
:100C58002B0038003B003C003C003C003E004000BC
:100C6800430045004900500050005000500050001B
:100C780050005000500050000C000C000C000C00FC
:100C88000C000C000C000C000C000F0012001400EB
:100C980017001A001B001B001B001A001900250072
:100CA80027002E003B003D003E003E003E00400075
:100CB8004300450048004B005300530053005300C5
:100CC800530053005300530053000C000C000C0059
:100CD8000C000C000C000C000C000C000F001200A3
:100CE800140017001A001D001C001C001C001B002B
:100CF8002700290031003F0040004000410041002A
:100D08004300450048004B004F005700570057006C
:100D18005700570057005700570057000B000B00AB
:100D28000B000B000B000B000B000B000B000F005F
:100D38001200140017001A001E001E001E001E00DC
:100D48001E0029002D0036004400440044004400E1
:100D58004400460049004C004F0054005B005B0013
:100D68005B005B005B005B005B005B005B000C00F2
:100D78000C000C000C000C000C000C000C000C000B
:100D880010001300160019001C001F001F0020008F
:100D9800200020002D0030003700450045004500A8
:100DA80045004500460049004C004F0054005B00D8
:100DB8005B005B005B005B005B005B005B005B0053
:100DC8000C000C000C000C000C000C000C000C00BB
:100DD8000C001200140017001A001D002100210049
:100DE800210021002200300033003900470046006E
:100DF800460046004600460049004C004F0054009B
:100E08005B005B005B005B005B005B005B005B0002
:100E18005B000C000C000C000C000C000C000C001B
:100E28000C000C001200160018001B001E00220007
:100E38002200220022002400330035003B00480035
:100E48004700470047004700470049004C004F0053
:100E580054005B005B005B005B005B005B005B00B9
:100E68005B005B000C000C000C000C000C000C007C
:100E78000C000C000C001300170019001C001F00C8
:100E880023002300230023002500340037003C0002
:100E980049004800480048004800480049004C0004
:100EA8004F0054005B005B005B005B005B005B0075
:100EB8005B005B005B000C000C000C000C000C00DD
:100EC8000C000C000C000C00140018001A001D0087
:100ED80020002300230023002400260036003800C9
:100EE8003D004B00490049004900490049004900BC
:100EF8004C004F0054005B005B005B005B005B0034
:100F08005B005B005B005B000D000D000D000D0039
:100F18000D000D000D000D000D00140018001B0041
:100F28001E0021002400240024002500260037008C
:100F38003A003D004B004A004A004A004A004A0075
:100F48004A004C004F0054005B005B005B005B00F4
:100F58005B005B005B005B005B000D000D000D009B
:100F68000D000D000D000D000D000D0015001900FD
:100F78001C001E0021002500250025002500260054
:100F880038003B003E004B004B004B004B004B0031
:100F98004B004B004C004F0054005B005B005B00B3
:100FA8005B005B005B005B005B005B000D000D00FD
:100FB8000D000D000D000D000D000D000D001500B9
:100FC80019001C001F00220026002600260026000B
:100FD800260038003C003E004B004C004C004C0002
:100FE8004C004C004C004C004F0054005B005B0070
:100FF8005B005B005B005B005B005B005B000D005F
:101008000D000D000D000D000D000D000D000D0070
:10101800140018001C001F002300270027002700C9
:101028002600260039003D003F004B004C004E00D2
:101038004E004E004E004E004C004F0054005B0026
:101048005B005B005B005B005B005B005B005B00C0
:101058000C000C000C000C000C000C000C000C0028
:101068000C00140018001C00200023002800280091
:1010780028002700260039003E0040004B004D00A4
:101088004F004F004F004F004F004D004F005400DD
:101098005B005B005B005B005B005B005B005B0070
:1010A8005B000C000C000C000C000C000C000C0089
:1010B8000C000C00130017001C002000240028005E
:1010C80028002800280026003A003F0041004C0074
:1010D8004E00500051005100510050004E00500089
:1010E80054005B005B005B005B005B005B005B0027
:1010F8005B005B000C000C000C000C000C000C00EA
:101108000C000C000C00120017001C002000250029
:10111800290029002900290027003B00400042003F
:101128004D0050005200530053005300520050002D
:10113800520054005B005B005B005B005B005B00DF
:101148005B005B005B000C000C000C000C000C004A
:101158000C000C000C000C00120017001C002000F2
:1011680025002A002A002A002A0029003C00410004
:1011780043005000520054005500550055005400DB
:101188005200540055005B005B005B005B005B0095
:101198005B005B005B005B000C000C000C000C00AB
:1011A8000C000C000C000C000C00120017001C00B6
:1011B800200025002C002C002B002B002B003E00CB
:1011C800430045005300550056005700580057008B
:1011D80056005500560057005B005B005B005B0043
:1011E8005B005B005B005B005B000B000B000B000F
:1011F8000B000B000B000B000B000B00120017007C
:101208001C00200025002D002D002D002D002D0094
:1012180040004400470059005A005A005B005B0038
:101228005B005A005A005A005B005B005B005B00E1
:101238005B005B005B005B005B005B001200120060
:101248001200120012001200120012001200160002
:101258001B001F0024002900310031003200330038
:10126800340041004500470059005A005A005B000D
:101278005B005B005A005A005A005B005B005B0091
:101288005B005B005B005B005B005B005B001700C2
:10129800170017001700170017001700170017008E
:1012A8001A001F00230027002C00350035003600E7
:1012B8003700390042004600470059005A005A00DA
:1012C8005B005B005B005A005A005A005B005B0041
:1012D8005B005B005B005B005B005B005B005B002E
:1012E8001C001C001C001C001C001C001C001C0016
:1012F8001C001E00210025002A002F00380038009D
:1013080039003A003D0043004700470059005A00A1
:101318005A005A005A005A005A005A005A005B00F4
:101328005B005B005B005B005B005B005B005B00DD
:101338005B0020002000200020002000200020006A
:10134800200020002200240028002C0032003B004E
:101358003B003B003D004000450048004800590064
:101368005A005A005A005A005A005A005A005A00A5
:101378005B005B005B005B005B005B005B005B008D
:101388005B005B00240024002400240024002400C7
:10139800240024002400250026002A002E00340002
:1013A8003D003D003D003F00420046004900490025
:1013B80059005A005A005A005A005A005A005A0056
:1013C8005A005B005B005B005B005B005B005B003E
:1013D8005B005B005B002700270027002700270031
:1013E8002700270027002700280029002B002F00AE
:1013F80036003F003F003F004100440047004A00DC
:101408004A0059005A005A005A005A005A005A0015
:101418005A005A005B005B005B005B005B005B00EE
:101428005B005B005B005B002B002B002B002B009C
:101438002B002B002B002B002B002B002C002C004A
:101448003100380042004200420042004600480095
:101458004B004B0059005A005A005A005A005A00D3
:101468005A005A005A005B005B005B005B005B009F
:101478005B005B005B005B005B002E002E002E0013
:101488002E002E002E002E002E002E002E002E00E4
:101498002E00330039004300430043004400470056
:1014A80048004C004C005A005A005A005A005A0092
:1014B8005A005A005A005A005B005B005B005B0050
:1014C8005B005B005B005B005B005B003000300092
:1014D8003000300030003000300030003000310083
:1014E8003100310034003A00430043004300450016
:1014F800480049004C004D005A005A005A005A0052
:101508005A005A005A005A005A005B005B005B0000
:101518005B005B005B005B005B005B005B00330013
:10152800330033003300330033003300330033001B
:1015380033003300340035003B00440044004400CD
:10154800460049004A004C004D005A005A005A0013
:101558005A005A005A005A005A005A005B005B00B1
:101568005B005B005B005B005B005B005B005B009B
:1015780036003600360036003600360036003600B3
:10158800360035003500360037003C004400440082
:10159800450047004A004B004D004E005A005A00D3
:1015A8005A005A005A005A005A005A005A005B0062
:1015B8005B005B005B005B005B005B005B005B004B
:1015C8005B00380038003800380038003800380030
:1015D800380038003800380039003A003D0045002E
:1015E8004500460047004B004B004D004E005A0096
:1015F8005A005A005A005A005A005A005A005A0013
:101608005B005B005B005B005B005B005B005B00FA
:101618005B005B003A003A003A003A003A003A00B0
:101628003A003A003A003A003A003B003C003E00DB
:1016380045004500460048004B004C004D004F0057
:101648005B005B005B005B005B005B005B005B00BA
:101658005B005B005B005B005B005B005B005B00AA
:101668005B005B005B003D003D003D003D003D0030
:101678003D003D003D003D003C003D003D003F0079
:10168800410046004600470049004C004C004D0010
:101698004F005B005B005B005B005B005B005B0076
:1016A8005B005B005B005B005B005B005B005B005A
:1016B8005B005B005B005B003F003F003F003F00BA
:1016C8003F003F003F003F003F003F003F00400019
:1016D8004100430046004600470049004C004C00CA
:1016E8004E0050005B005B005B005B005B005B0032
:1016F8005B005B005B005B005B005B005B005B000A
:101708005B005B005B005B005B003F003F003F004D
:101718003F003F003F003F003F003F003F003F00C9
:1017280040004100430046004600470049004C0085
:101738004C004E0050005B005B005B005B005B00F0
:101748005B005B005B005B005B005B005B005B00B9
:101758005B005B005B005B005B005B003F003F00E1
:101768003F003F003F003F003F003F003F003F0079
:101778003F00400041004300460046004700490042
:101788004C004C004E0050005B005B005B005B00AF
:101798005B005B005B005B005B005B005B005B0069
:1017A8005B005B005B005B005B005B005B003F0075
:1017B8003F003F003F003F003F003F003F003F0029
:1017C8003F003F00400041004300460046004700FC
:1017D80049004C004C004E0050005B005B005B0071
:1017E8005B005B005B005B005B005B005B005B0019
:1017F8005B005B005B005B005B005B005B005B0009
:101808003F003F003F003F003F003F003F003F00D8
:101818003F003F003F0040004100430046004600B3
:10182800470049004C004C004E0050005B005B0034
:101838005B005B005B005B005B005B005B005B00C8
:101848005B005B005B005B005B005B005B005B00B8
:101858005B003F003F003F003F003F003F003F006C
:101868003F003F003F003F0040004100430046006A
:101878004600470049004C004C004E0050005B00F9
:101888005B005B005B005B005B005B005B005B0078
:101898005B005B005B005B005B005B005B005B0068
:1018A8005B005B003F003F003F003F003F003F0000
:1018B8003F003F003F003F003F0040004100430021
:1018C80046004600470049004C004C004E005000BE
:1018D8005B005B005B005B005B005B005B005B0028
:1018E8005B005B005B005B005B005B005B005B0018
:1018F8005B005B005B003F003F003F003F003F0094
:101908003F003F003F003F003F003F0040004100D4
:10191800430046004600470049004C004C004E007A
:1019280050005B005B005B005B005B005B005B00E2
:101938005B005B005B005B005B005B005B005B00C7
:101948005B005B005B005B003F003F003F003F0027
:101958003F003F003F003F003F003F003F00400086
:101968004100430046004600470049004C004C0037
:101978004E0050005B005B005B005B005B005B009F
:101988005B005B005B005B005B005B005B005B0077
:101998005B005B005B005B005B003F003F003F00BB
:1019A8003F003F003F003F003F003F003F003F0037
:1019B80040004100430046004600470049004C00F3
:1019C8004C004E0050005B005B005B005B005B005E
:1019D8005B005B005B005B005B005B005B005B0027
:1019E8005B005B005B005B005B005B003F003F004F
:1019F8003F003F003F003F003F003F003F003F00E7
:101A08003F004000410043004600460047004900AF
:101A18004C004C004E0050005B005B005B005B001C
:101A28005B005B005B005B005B005B005B005B00D6
:101A38005B005B005B005B005B005B005B003F00E2
:101A48003F003F003F003F003F003F003F003F0096
:101A58003F003F0040004100430046004600470069
:101A680049004C004C004E0050005B005B005B00DE
:101A78005B005B005B005B005B005B005B005B0086
:101A88005B005B005B005B005B005B005B005B0076
:101A98003F003F003F003F003F003F003F003F0046
:101AA8003F003F003F004000410043004600460021
:101AB800470049004C004C004E0050005B005B00A2
:101AC8005B005B005B005B005B005B005B005B0036
:101AD8005B005B005B005B005B005B005B005B0026
:101AE8005B003F003F003F003F003F003F003F00DA
:101AF8003F003F003F003F004000410043004600D8
:101B08004600470049004C004C004E0050005B0066
:101B18005B005B005B005B005B005B005B005B00E5
:101B28005B005B005B005B005B005B005B005B00D5
:101B38005B005B003F003F003F003F003F003F006D
:101B48003F003F003F003F003F004000410043008E
:101B580046004600470049004C004C004E0050002B
:101B68005B005B005B005B005B005B005B005B0095
:101B78005B005B005B005B005B005B005B005B0085
:101B88005B005B005B003F003F003F003F003F0001
:101B98003F003F003F003F003F003F004000410042
:101BA800430046004600470049004C004C004E00E8
:101BB80050005B005B005B005B005B005B005B0050
:101BC8005B005B005B005B005B005B005B005B0035
:101BD8005B005B005B005B003F003F003F003F0095
:101BE8003F003F003F003F003F003F003F004000F4
:101BF8004100430046004600470049004C004C00A5
:101C08004E0050005B005B005B005B005B005B000C
:101C18005B005B005B005B005B005B005B005B00E4
:101C28005B005B005B005B005B003F003F003F0028
:101C38003F003F003F003F003F003F003F003F00A4
:101C480040004100430046004600470049004C0060
:101C58004C004E0050005B005B005B005B005B00CB
:101C68005B005B005B005B005B005B005B005B0094
:101C78005B005B005B005B005B005B003F003F00BC
:101C88003F003F003F003F003F003F003F003F0054
:101C98003F0040004100430046004600470049001D
:101CA8004C004C004E0050005B005B005B005B008A
:101CB8005B005B005B005B005B005B005B005B0044
:101CC8005B005B005B005B005B005B005B003F0050
:101CD8003F003F003F003F003F003F003F003F0004
:101CE8003F003F00400041004300460046004700D7
:101CF80049004C004C004E0050005B005B005B004C
:101D08005B005B005B005B005B005B005B005B00F3
:101D18005B005B005B005B005B005B005B005B00E3
:101D28003F003F003F003F003F003F003F003F00B3
:101D38003F003F003F00400041004300460046008E
:101D4800470049004C004C004E0050005B005B000F
:101D58005B005B005B005B005B005B005B005B00A3
:101D68005B005B005B005B005B005B005B005B0093
:101D78005B003F003F003F003F003F003F003F0047
:101D88003F003F003F003F00400041004300460045
:101D98004600470049004C004C004E0050005B00D4
:101DA8005B005B005B005B005B005B005B005B0053
:101DB8005B005B005B005B005B005B005B005B0043
:101DC8005B005B003F003F003F003F003F003F00DB
:101DD8003F003F003F003F003F00400041004300FC
:101DE80046004600470049004C004C004E00500099
:101DF8005B005B005B005B005B005B005B005B0003
:101E08005B005B005B005B005B005B005B005B00F2
:101E18005B005B005B003F003F003F003F003F006E
:101E28003F003F003F003F003F003F0040004100AF
:101E3800430046004600470049004C004C004E0055
:101E480050005B005B005B005B005B005B005B00BD
:101E58005B005B005B005B005B005B005B005B00A2
:101E68005B005B005B005B003F003F003F003F0002
:101E78003F003F003F003F003F003F003F00400061
:101E88004100430046004600470049004C004C0012
:101E98004E0050005B005B005B005B005B005B007A
:101EA8005B005B005B005B005B005B005B005B0052
:101EB8005B005B005B005B005B003F003F003F0096
:101EC8003F003F003F003F003F003F003F003F0012
:101ED80040004100430046004600470049004C00CE
:101EE8004C004E0050005B005B005B005B005B0039
:101EF8005B005B005B005B005B005B005B005B0002
:101F08005B005B005B005B005B005B003F003F0029
:101F18003F003F003F003F003F003F003F003F00C1
:101F28003F0040004100430046004600470049008A
:101F38004C004C004E0050005B005B005B005B00F7
:101F48005B005B005B005B005B005B005B005B00B1
:101F58005B005B005B005B005B005B005B003F00BD
:101F68003F003F003F003F003F003F003F003F0071
:101F78003F003F0040004100430046004600470044
:101F880049004C004C004E0050005B005B005B00B9
:101F98005B005B005B005B005B005B005B005B0061
:101FA8005B005B005B005B005B005B005B005B0051
:101FB8003F003F003F003F003F003F003F003F0021
:101FC8003F003F003F0040004100430046004600FC
:101FD800470049004C004C004E0050005B005B007D
:101FE8005B005B005B005B005B005B005B005B0011
:101FF8005B005B005B005B005B005B005B005B0001
:102008005B003F003F003F003F003F003F003F00B4
:102018003F003F003F003F004000410043004600B2
:102028004600470049004C004C004E0050005B0041
:102038005B005B005B005B005B005B005B005B00C0
:102048005B005B005B005B005B005B005B005B00B0
:102058005B005B003F003F003F003F003F003F0048
:102068003F003F003F003F003F0040004100430069
:1020780046004600470049004C004C004E00500006
:102088005B005B005B005B005B005B005B005B0070
:102098005B005B005B005B005B005B005B005B0060
:1020A8005B005B005B00000000000000446F63748D
:1020B8006F72206E61646572690025730025342E85
:1020C8003166672025342E3166672025342E316627
:1020D800672025342E3166672025690080C02D4E83
:1020E800414E000001002D4E414E00494E46000071
:1020F80001000200AE2004000400B02002003C03EE
:10210800E42001004003EC200000F894EE27ECBB2B
:10211800F1E0F5BFE5BFF8E1F1BDE1BD8DE0A2E07A
:10212800BB27ED938A95E9F780E098E0A0E6ED9368
:102138000197E9F7E8EFF0E285919591009761F052
:10214800A591B59105901590BF01F00105900D92EC
:102158000197E1F7FB01F0CFEFE5EDBFE8E0EEBF57
:10216800C0E6D2E00C94DB10EA93FA93EFB7EA9357
:102178001A930A931BB10CB1E12FEC7189F4E52D88
:102188005394F0E0EC5DFC4F0083E8E1E51509F4B9
:1021980055247394E8E1E71519F47724689420F836
:1021A80009911991E991EFBFF991E9911895E0E04A
:1021B800EBBBEABBE1E0E7BBE0E0E8BBE3E0E4BBA4
:1021C800E0E0E5BBE6E9E1BBE0E0E2BBEBB9E8E96A
:1021D800EAB9E6E8E0BDE0E0E0BDE3E3E9B993D2BF
:1021E800BBD2E3D2A0E10E94D514A4EBB0E20E94D6
:1021F800C414A8EEB3E00E94241CE0E0E2BDEEE6C1
:10220800E5BDE0E0E4BDE0E5E3BDE0E0E9BF7894EA
:1022180024972FD10E94D119A0918C02B0918D02E0
:1022280080918E0290918F020E94D41CA0919402FA
:10223800B091950280919602909197020E94D41CC9
:10224800E0938402F093850260938602709387027C
:10225800A0918402B09185028091860290918702B4
:102268000E94DA190E94721DDE0112960E94631CF8
:10227800ED93FC93A0918802B091890280918A0223
:1022880090918B020E94DF190E94CD1CA0E0B0E063
:1022980088EC92E40E94E819E0E0F0E060EA70E47B
:1022A8000E94721DDE010E94631CED93FC930E9444
:1022B800DF19E0938802F093890260938A02709391
:1022C8008B02AA81BB81E2E50E94071EEC5AFF4FF0
:1022D800DF01E881F981EE0FFF1FEA0FFB1F0E9463
:1022E800881E0E94ED19A3E3B3E383E290E40E9401
:1022F800241D0E94611CE3BDE3B5F0E0FA93EA9364
:10230800ACE1B3E00E947318E8EFF2E0FA93EA93C5
:10231800E2ECF0E2FA93EA93ECE1F3E06627772740
:102328000E949B1E84E00E943F182896A8EFB2E006
:1023380067D2ECEFF2E0FA93EA93E5ECF0E2FA9375
:10234800EA93E0918C02F0918D0260918E02709177
:102358008F020E949B1E0E94D1190E949B1EE09131
:102368009402F091950260919602709197020E94F2
:102378009B1E0E94DF190E949B1EE3B5FF2766275C
:1023880077270E949B1E84E10E943F1868960E944E
:102398009914E0E0EA93A0E00E948C14ACEFB2E05C
:1023A8000E94BA14AAE0B0E00E94241C249630CF00
:1023B800FFCF24971A93839A92980E94F2198399CF
:1023C800FECF10E0183160F4929A0E94F8190E942A
:1023D800FD199298839B02C00E94041A1F5FF2CFD6
:1023E800929A0E940E1A92980E94F81918810C94D9
:1023F8004F1524971A93859A94980E94F2198599F3
:10240800FECF10E0183160F4949A0E94F8190E94E7
:10241800FD199498859B02C00E94041A1F5FF2CF91
:10242800949A0E940E1A94980E94F81918810C9494
:102438004F1524971A93B19AC0980E94F219B1992E
:10244800FECF10E0183160F4C09A0E94F8190E947B
:10245800FD19C098B19B02C00E94041A1F5FF2CFF9
:10246800C09A0E940E1AC0980E94F81918810C94FC
:102478004F150E94B81EE0E0E0939802E09399029D
:10248800E0939A02E0939B02E0939C02E0939D0202
:10249800E0939E02E0939F02E093A002E093A102E2
:1024A800E093A202E093A30220E030E02230E0E0D3
:1024B8003E0708F000C100E010E00730E0E01E072A
:1024C80008F0AEC00E941D1A74DF0E94271A0E94ED
:1024D800301A0E94391A0E94271AE0917802F09166
:1024E800790260917A0270917B020E94401AA09151
:1024F8006402B091650280916602909167020E9421
:10250800491A0E94E01D0E94401A0E94521A0E9415
:10251800581AA0E6B2E00E945F1AA4EAB2E00E944C
:10252800651AFF93EF930E94521A0E946A1AAF919C
:10253800BF910E94831E0E94711A5BDF0E947B1A62
:102548000E94841A0E94391A0E947B1AE0917C0228
:10255800F0917D0260917E0270917F020E948D1A37
:10256800A0916C02B0916D0280916E0290916F0201
:102578000E94961A0E94E01D0E948D1A0E949F1ABE
:102588000E94581AA8E6B2E00E945F1AA0ECB2E0D6
:102598000E94651AFF93EF930E949F1A0E946A1A7D
:1025A800AF91BF910E94831E0E94A51A42DF0E942C
:1025B800AF1A0E94B81A0E94391A0E94AF1AE09105
:1025C8008002F091810260918202709183020E94E0
:1025D800C11AA0917402B09175028091760290910F
:1025E80077020E94CA1A0E94E01D0E94C11A0E9426
:1025F800D31A0E94581AA0E7B2E00E945F1AACED05
:10260800B2E00E94651AFF93EF930E94D31A0E94CA
:102618006A1AAF91BF910E94831E0F5F1F4F4DCF63
:10262800E4EAF2E00E94D91AE091B002F091B10216
:102638006091B2027091B3020E94DF1A0E94D41C0A
:10264800E0939802F093990260939A0270939B0228
:10265800E0ECF2E00E94D91AE091CC02F091CD02B0
:102668006091CE027091CF020E94E81A0E94D41C99
:10267800E0939C02F0939D0260939E0270939F02E8
:10268800ECEDF2E00E94D91AE091E802F091E9023B
:102698006091EA027091EB020E94F11A0E94D41C28
:1026A800E093A002F093A1026093A2027093A302A8
:1026B8002F5F3F4FFBCE0E94DF1A0E94FA1AE09369
:1026C8008C02F0938D0260938E0270938F020E94A9
:1026D800E81A0E94FA1AE0939002F093910260932C
:1026E8009202709393020E94F11A0E94FA1AE093E0
:1026F8009402F093950260939602709397020E9459
:10270800BF1E249608950E94011B0E941D1A00E016
:1027180010E00A30E0E01E0764F44BDE0E94301A35
:102728000E94DB1D0E94271A0E94061B0F5F1F4F85
:10273800F0CF0E94301A0E940B1B0E94271A0E9499
:10274800301A0E94391AE0936402F093650260938C
:1027580066027093670251C00E94011B0E94711AA1
:1027680000E010E00A30E0E01E0764F442DE0E9458
:10277800841A0E94DB1D0E947B1A0E94061B0F5FB1
:102788001F4FF0CF0E94841A0E940B1B0E947B1AD5
:102798000E94841A0E94391AE0936C02F0936D0229
:1027A80060936E0270936F0228C00E94011B0E9402
:1027B800A51A00E010E00A30E0E01E0764F439DEF4
:1027C8000E94B81A0E94DB1D0E94AF1A0E94061BC5
:1027D8000F5F1F4FF0CF0E94B81A0E940B1B0E9478
:1027E800AF1A0E94B81A0E94391AE0937402F09343
:1027F8007502609376027093770209911991089592
:10280800BA93AA93A881B9810E9409158CC0BA937A
:10281800AA930E94B81E00E010E020E030E000E03B
:1028280010E0EC81FD8131970E171F070CF04BC0AB
:1028380020E030E0F8013196AC81BD810E94AB1EEA
:10284800EA1BFB0B2E173F07DCF5F9010E94121B50
:102858007F936F93FF93EF93F90131960E94121BB8
:10286800AF91BF918F919F910E94B71D09F008F415
:1028780024C02297F9010E941B1B0E94791E0E9406
:10288800611CE883F983F901A885B9850E94651A56
:102898000F01F90131960E941B1B0E947D1ED00179
:1028A8000E94831EF90131960E941B1BE881F98161
:1028B8000E94ED190E94831E22962F5F3F4FBACFC8
:1028C8000F5F1F4FAECF0E94BF1E28960895AA9390
:1028D800EBB3EF70AE2FE881E07FEA2BEBBB8DE026
:1028E8008A95F1F7DA9A8DE08A95F1F7DA988DE012
:1028F8008A95F1F70C940715AA93A881E8DFE88177
:10290800E295E883A881E3DF85E88A95F1F77BC043
:10291800AA93E881F0E0E45CFC4FE081A981AE0F66
:10292800EBDF6980988022960895A2E00E94221B1E
:10293800ACE0E2DFA1E00E94221BE0E09E2E6E2EBA
:102948000895AA93A881AA3011F0681448F0E0E02D
:10295800EA939394A92DDCDFA881AA3009F453C027
:102968006394D89AA881C8DFD8984DC0BA93AA931F
:102978001A930E94281B19F0A12FE3DFFACF50C049
:10298800BA93AA931A93E981FA813196E983FA8373
:102998003197E4911E2FE03019F0A12FD2DFF3CF49
:1029A8003FC0AA93EAB3E06FEABBD29AD09AD19A11
:1029B800DA98D898D9988880E881E058E0933E035F
:1029C800E881E054E0933F03A4E1B0E00E94241CB6
:1029D8000E94301B0E94301B0E94301BA0E277DF50
:1029E80088EC90E00197F1F7A8E286DFA4E084DFA5
:1029F800A5E882DFA6E080DF98DF05C0AA935D9B8B
:102A0800FECFE881ECB921960895BA93AA931A9358
:102A18000E94281B19F0A12FF1DFFACFAAE0EEDF00
:102A2800188123960895BA93AA931A930A93AA81B0
:102A3800BB8112960E94791E309729F1AA81BB8129
:102A480014960E94791E8F01309761F00230E0E001
:102A58001E0780F0F80131978F01AA81BB81149677
:102A6800ED93FC93AA81BB8112960E94381B319783
:102A7800AC81A083AA81BB810E94791EFF2312F03A
:102A88000E94381B06C0AA81BB81EFEFFFEFED93D0
:102A9800FC9319810881259608950E943E1BE0E861
:102AA800EA83EFE3EB830E94B81EEE85FF85EF3FD4
:102AB800AFEFFA0749F4E885F985FA93EA93A6EEA9
:102AC800B0E20E946319B9C0EF3FAFE7FA0749F4D3
:102AD800E885F985FA93EA93A7EEB0E20E946319B4
:102AE800ACC0AB85A73010F0E6E0EB871B85E12F83
:102AF8001150E03019F00E94451BF9CFEC85FD8597
:102B08006E857F850E94B21E21F430E00E94451B2D
:102B18002FC03B850E94511B09F008F40BC00E948E
:102B2800451B0E94511B28F00E945C1B0E94611BE0
:102B3800F8CF0DC00E94511B40F40E945C1B0E94FC
:102B48006D1B0E94711B3150F5CF0E94451BEC850F
:102B5800FD856E857F850E94761B0E94D41C0E948D
:102B6800711B0E94511B20F00E945C1B0E94611B7C
:102B780010E0EB85E117A8F1AC81BD818E819F81C2
:102B88000E947B1B0E94761B0E94E8190E94BA19BA
:102B9800EC83FD836E837F830E945C1B0E94721D01
:102BA8000E94611C0E2F0E94821B0E94891BFF2716
:102BB800662777270E949A1CAC81BD818E819F81F0
:102BC8000E94241D0E945C1B0E948E1B0E94711B88
:102BD800E12F1F5FE03069F60E94821BEEE2EC9362
:102BE800C8CF0E94931B3197AA85A08330302CF45C
:102BF8003195A885B985EDE203C0A885B985EBE2D2
:102C0800EC930E94931B0E94931B3197BF01A32F43
:102C1800EAE00E941B1EE05DDB01EC930E94931B1F
:102C28003197BF01A32FEAE00E944A1EE05DDB0155
:102C3800EC93A885B985E0E0EC930E94BF1E6096EE
:102C48000895BA93AA93EF9761970E94B61E10E071
:102C5800FE01E85AFF4F0190F081E02DE887F987DF
:102C6800FE01EA5AFF4F0190F081E02DEE83FF83C9
:102C7800AE81BF81E0E0F0E0ED93FC93DE01A45A61
:102C8800BF4F0E94381B3197E4912E2FE03009F492
:102C9800E9C1E12FE03039F4253211F411E002C026
:102CA8000E94991BDEC1E130C1F4253219F40E945B
:102CB800991BD6C112E0E0E0ED8B00E02D3211F453
:102CC80001E0CFC12B3219F4EBE2ED8BCAC12032FF
:102CD80019F4E0E2ED8BC5C102C0E23039F450E0EE
:102CE80013E0203311F40068BCC102C0E33091F452
:102CF800203310F02A3308F007C0AAE05A9F502D5D
:102D0800E22FE0535E0FADC140E02E3211F414E023
:102D1800A8C10FC0E43099F4203310F02A3308F02A
:102D280008C00062AAE04A9F402DE22FE0534E0FF0
:102D380098C12C3619F4026015E093C103C0E53040
:102D480009F08FC1E22FE33659F40E94A01B0E94BC
:102D5800A71B0E94A01BA481AA930E94AE1B80C13E
:102D6800E53411F0E53609F403C0E63609F048C049
:102D7800FE017696EE87FF870E94B41B0E947D1E97
:102D88000E94BB1B0E94C01BAD85AA2332F0AD89EF
:102D9800AB3259F0A03281F017C00E94C21B0E94CA
:102DA8002E1C0E94BB1BEDE2ED8B07FF05C0ED89D1
:102DB800EA930E94AE1B08C0EE85FF853196EE8728
:102DC800FF873197AD89A08305FF46E0263651F489
:102DD8000E94C21B0E949B1E4A93AB89BC890E9419
:102DE800A11809C00E94C21B0E949B1E4A932A93E5
:102DF800AC89BD8952DEFE0176960E94C71B1EC0B3
:102E0800E33739F40E94C01B0E94CF1B0E94C71BE6
:102E18000EC0E037C1F40E94C01B0E94CF1BEE8792
:102E2800FF87AE85BF850E947C191E2F08600F772B
:102E3800403011F0411708F001C0142F40E0E0E0E5
:102E4800EC8B30E06DC0E43611F0E93611F4046023
:102E580002C0E537A1F4EAE0EC8B01FF08C0E0E02E
:102E6800FAEC6AE97BE30E94D41B1AE022C0E0E195
:102E7800F7E260E070E00E94D41B15E01AC0E83564
:102E880011F4086003C0E83709F0EAC0E0E1EC8B10
:102E980001FF08C0E0E0F0E060E070E10E94D41BB0
:102EA80018E007C0E0E0F0E160E070E00E94D41BA9
:102EB80014E0403011F00F7701C041E001FF08C075
:102EC8000E94C01B0E94B41B14960E947D1E0FC056
:102ED80002FF07C00E94C01B0E94CF1B0E94021E57
:102EE80006C00E94C01B0E94CF1B66277727EA876F
:102EF800FB876C877D8702FF12C0AD85AA2342F449
:102F08000E94C21B0E94EA1D0E94BB1BEDE2ED8BD2
:102F1800ED89E03019F01F5F4F5F01C00B7F342F40
:102F280000FD14C0151710F4351708F00FC007FF7F
:102F380008C002FF04C00B7F2D89115001C020E397
:102F480001C020E20E94991B5150ECCF141790F455
:102F5800006102FF06C00E94D91B09F051501150B0
:102F68004150E0E3EA930E94AE1B503009F0515003
:102F78004150ECCF312FEC89E030B9F43030A1F07A
:102F880003FF06C0EE85FF852591EE87FF8705C004
:102F9800AE85BF852D91AE87BF870E94991B5030A3
:102FA80009F051503150EACF51C00E94EB1B0E94EA
:102FB800201E2E2F2A3030F003FF02C0295C01C0EA
:102FC800295A01C0205D04FD21C0213360F4A8897D
:102FD800B9898A899B89A130E0E0BE07E0E08E07C5
:102FE800E0E09E0709F40BC0431740F4531710F0B4
:102FF80000FF01C010C020E207FF08C020E3006105
:1030080002FF04C00E94D91B09F051500E94991B6D
:10301800503009F0515031500E94EB1B0E94561E4F
:103028000E94BB1BEC89A889B9898A899B89FF27DB
:10303800662777270E94201E0E94D41BE889F989F9
:103048006A897B890E94B21E09F0AFCF00FF08C0D1
:10305800503031F05150E0E2EA930E94AE1BF8CFB5
:1030680010E00CCEAE81BF810E94791E0E94BD1E69
:10307800EF966F960895FF92F82E26970E94B81E35
:103088000E94F41B309719F4EFEFFFEF23C0DE0125
:1030980016960E94D71D8D010E94F41BEE83FF83B4
:1030A800E0E0E887E987DE011A960E94D71D0E94B2
:1030B800791EFA93EA931A930A93E7E1F5E1FA93F2
:1030C800EA93DE011A96BDDD9F01AE81BF81E0E083
:1030D800EC93F9010E94BF1E2A96FF900895BA93B7
:1030E800AA93A991B991E991F99130962AF4E095BA
:1030F800F09531966DE26D93E89480E197E20DD0FA
:1031080088EE93E00AD084E6992707D08AE005D0B4
:103118006E2F10D066276C9308956627E817F90775
:1031280020F06395E81BF90BC9F7662311F416F034
:1031380008956894605D6D9308950E943E1BE0E0D9
:10314800EA83EFE3EB831A930A93EB85FC85EF3F61
:10315800AFEFFA0739F40E94FB1BAEEEB0E20E9413
:103168006319A9C0EF3FAFE7FA0739F40E94FB1BC8
:10317800AFEEB0E20E9463199EC0AC85AA2362F448
:10318800E985FA856B857C850E942E1C0E94001CAF
:103198000E94051CEDE2EC93A885A73010F0E6E04C
:1031A800E8871885E12F1150E03039F00E940C1C97
:1031B8000E947B1B0E94111CF5CF0E94161C0E94C6
:1031C800D41C0E94001C10E0E0E0F0E060E87FE31F
:1031D8000E94111C0E94161C0E94B71D88F00E94B4
:1031E8000C1C0E946D1B0E94111C1F5F173238F0C7
:1031F8000E94FB1BA3EFB0E20E9463195CC0EACFF8
:10320800103029F40E94051CE0E3EC9329C0E12F5B
:103218001150E03029F10E940C1C0E947B1B0E9477
:10322800761B0E94E8190E94BA190E94111C0E947C
:10323800161C0E94721D0E94611C0E2F0E94051C04
:103248000E94891BF0E00E940C1C0E94ED190E944C
:10325800241D0E941F1C0E948E1B0E94001CD7CF99
:10326800E885E03021F10E94051CEEE2EC93E88548
:10327800E150E887EF5FD9F00E941F1C0E946D1B88
:103288000E94001CE985FA856B857C850E94611C7B
:103298000E2F0E94051C0E94891BF0E00E941F1C33
:1032A8000E94ED190E948E1B0E94001CE0CFAE8187
:1032B800BF81E0E0EC93198108812D960895BA93B7
:1032C800AA93E991F991A991B991CD0105900D922F
:1032D8000020E1F7FC010895BA93AA93A991B99146
:1032E800EE27FF276D91662311F03196FBCF0895E5
:1032F800BA93AA93AA27BB27E991F99105900020D0
:1033080011F01196FBCFFD0108950E94A01E7B814C
:103318006A81F981E88177FB770F67FD7160972FE4
:103328009E5781F078F0983190F4AA27BB27882718
:1033380008948795B795A7959A95D1F7EA23FB2323
:10334800682305C0E8947727EE27FF2766276F775D
:10335800769508F4606877F9A991B991899199915E
:10336800EA17FB076807790797FB08950E94A01ED4
:103378000E94911E0E9489190E94961E19F40E94AB
:103388008C1E09C0E6F70E948C1EA0E0B0E080E821
:103398009FE30E94CD1C24960895E0919002F0913D
:1033A800910260919202709193020895E0E0F0E03A
:1033B80060E271E40895E0918402F09185026091E1
:1033C80086027091870208950E94D41CDF01CB0108
:1033D80008950E94021E0E949A1C0895E0E0E98365
:1033E800EA83EB83EC830895E981FA816B817C8120
:1033F80008950E94F71DE983FA836B837C830895FF
:10340800F3DFEF5FFF4F6F4F7F4FE983FA836B83E3
:103418007C830895A981BA818B819C81E0E0F0E0EA
:1034280060E870E00E94E51DE983FA836B837C8382
:103438000895E0E0E0937802E0937902E0937A025D
:10344800E0937B020895E0937802F0937902609309
:103458007A0270937B020895A0917802B091790264
:1034680080917A0290917B020895E4E6F0E060E0B2
:1034780070E00E94451E0895E0936002F093610297
:1034880060936202709363020895E0916002F09184
:10349800610260916202709163020895F6DF0E94F2
:1034A8009A1CDF01CB010895EDE4F0EA68EB7EE3B6
:1034B8000E94721D08950E94631C0E94831EF801D9
:1034C80008950E94F21DEA0FFB1F0895E0E0F0E066
:1034D80060EF71E40E94721D0895E0E0E0937C02C1
:1034E800E0937D02E0937E02E0937F020895E093EB
:1034F8007C02F0937D0260937E0270937F020895B0
:10350800A0917C02B0917D0280917E0290917F0211
:103518000895E0936802F093690260936A027093D9
:103528006B020895E0916802F091690260916A0265
:1035380070916B020895F6DF0E949A1CDF01CB019F
:103548000895E0E0E0938002E0938102E093820234
:10355800E09383020895E0938002F09381026093E0
:103568008202709383020895A0918002B091810233
:1035780080918202909183020895E0937002F09303
:10358800710260937202709373020895E091700261
:10359800F091710260917202709173020895F6DFE2
:1035A8000E949A1CDF01CB010895FA93EA93A7E0E1
:1035B800B0E00C940B14A0919802B09199028091FC
:1035C8009A0290919B020895A0919C02B0919D024D
:1035D80080919E0290919F020895A091A002B091BF
:1035E800A1028091A2029091A3020895E0E0F0E088
:1035F80060E070E40E94721D08951A930A9300E037
:1036080010E0089588EE93E00197F1F70895EAE055
:10361800F0E060E070E00E94451E0895AE81BF8131
:103628000E94F21DAE0FBF1F0E947D1E0895A8853F
:10363800B9850E94F21DAE0FBF1F08950E94801425
:10364800A3E0B0E00C94241CA981BA81ED91A98370
:10365800BA831E2FE0300895A0E30E946B1488EC13
:1036680090E00197F1F70895ED91FD913196FE9361
:10367800EE930895BA93AA932497E0E0E883E98348
:103688000895AC81BD818E819F8190DE0E94241DAA
:10369800EC83FD836E837F830895EC81FD816E81C9
:1036A8007F81AC85BD858E859F850E94B71D089555
:1036B800AC85BD858E859F850895EDECFCEC6CECA2
:1036C8007DE30E94241DEC87FD876E877F873F5F1F
:1036D80008956CDE0E94241D0895EC87FD876E878F
:1036E8007F870895A0E0B0E080E09FE30895EDECC7
:1036F800FCEC6CEC7DE30E94241D0895A885B98537
:103708001196A887B98711970895E02FE05DEC938B
:10371800E02F08950E94A51E0E94CD1C0895E885FB
:10372800F9853196E887F98708952A93AF81B88596
:10373800E985FA8509950895FE01E65AFF4F01903B
:10374800F081E02D08953497DE01A65ABF4FED931E
:10375800FC930895AF81B885E985FA8509950895A0
:10376800DE01A65ABF4F0D90BC91A02D0895EA879F
:10377800FB876C877D870895DFDFE5CFEA85FB85CA
:103788006C857D850895EE87FF87AE85BF850E948D
:1037980070191E2F0895E4DF14960E94791E08956B
:1037A800E88BF98B6A8B7B8B08950B7FED89EA9305
:1037B800DE01A95ABF4F0D90BC91A02DFE01E75A1A
:1037C800FF4F0190F081E02D099550300895E88968
:1037D800F9896A897B89AA85BB858C859D85089529
:1037E800DE011C960E94D71D0E94791E0895EE8165
:1037F800FF81FA93EA930895E987FA876B877C87B4
:103808000895AE81BF811196AE83BF831197089545
:10381800AA81BB818C819D810895EA83FB836C8397
:103828007D830895EA81FB816C817D81A985BA85B4
:103838008B859C850895A985BA858B859C85089577
:10384800109639F080ED97E00197F1F7A895119758
:10385800C9F7089530976040704009F0705808958E
:10386800552342F4503811F4E0FF04C03196691F23
:10387800791F6BF050E8572711F45F93CFC05F3F73
:1038880031F0660F000C57956795752F08955F9373
:1038980000200AF0CFC0C8C050E8192E1522880FA2
:1038A800991F9527550F879550E8072E0522660F13
:1038B800771F7527550F67950895689401C0E89498
:1038C8005F93F2DF703818F07F3F08F4A7C056E125
:1038D800571BAAF4519558300EF4593030F0EFEFD9
:1038E800FFEF6FEF7FE777F91AC077275523B9F015
:1038F800EE0FFF1F661F771F5A95D1F710C0772765
:10390800583028F0EF2FF62F672F5850F9CF55234E
:1039180031F076956795F795E7955A95D1F7002098
:103928000AF454D15F910895689401C0E8943097DF
:1039380060407040B1F0002426F0772312F4009420
:1039480045D1172E7EE1112032F07A95EE0FFF1F38
:10395800661F111CF9CFEF2FF62F612D5F938ADFB9
:103968005F9108954F93AF01FD01DA01AB01BC01EE
:10397800CA01402D012C142E4F910895EA0FFB1F08
:10398800681F0895E095F0956095EF5FFF4F6F4FC2
:1039980008955F9381DF903871F150E8152604C0CF
:1039A8005F937ADF903839F1703821F1572F591B1E
:1039B8002BF112F4D7DFFACF583118F0AA27BB271A
:1039C8008827583028F0AB2FB82F88275850F9CFC0
:1039D800552329F08695B795A7955A95D9F7502D6F
:1039E800512572F0CBDF38F46795F795E795739515
:1039F80013F420C0B7DF3EDF5F910895D8F7FBCFFF
:103A0800EA1BFB0B680B51F010F40094BBDF662334
:103A180092F3EE0FFF1F661F7A95CBF7EE27FF276D
:103A2800662777275F910895EFEFFFEF6FE77FEF46
:103A38005F910895EFEFFFEF6FE77FE75F910895DC
:103A48005F932ADF703851F3903841F301240894CA
:103A5800791F23F41CF300203AF3ECCF0F921F9345
:103A68002F933F934F93112722279927689FA001EF
:103A78008F9F302D410D591F6B9F300D411D591FD0
:103A88008E9F27D0BF9F25D06A9F23D0BE9F1DD071
:103A9800AF9F1BD0AE9F110D291F391F491F591FFA
:103AA800E32FF42F652F522F4F913F912F911F91A4
:103AB8000F9066232AF0550FEE1FFF1F661F02C0E6
:103AC80073954BF2CDDE5F910895100D211D391FBE
:103AD80002C0200D311D491F591F08955F93DCDE78
:103AE800703821F411200AF49FCFA4CF903809F43C
:103AF80095CF01240894970B1BF4D4F30020F3CF3F
:103B0800792F1F932F933F934F9311241127222727
:103B180033274427552790E2AE17BF07860741078A
:103B280030F0AE1BBF0B860B410B089401C0889484
:103B3800551F221F331F111CAA1FBB1F881F441F9C
:103B48009A9551F7F901612D4F913F912F911F914E
:103B5800662332F0550FEE1FFF1F661F7A9543F25A
:103B68007FDE5F91089599239AF0772342F09717A3
:103B780048F029F4AE17BF07860720F031F0989473
:103B880088940895989408940895189488940895AA
:103B98007723C2F7971798F3A9F7EA17FB0768077F
:103BA80088F399F3ECCF0024AF0DB01D0895EA0F08
:103BB800FB1F681F791F0895EA1BFB0B680B790B25
:103BC8000895EA27FB27682779270895F0956095D7
:103BD8007095E195FF4F6F4F7F4F0895EE0FFF1FD0
:103BE800EE0FFF1F0895EE0FFF1F661F771F089542
:103BF800FE2FFF0FFF0B6F2F7F2F08956F2F660F7C
:103C0800660B762F08956E2F6A9FF0016B9FF00D5B
:103C18000895002498E0AA0F001C0E1A10F40E0E46
:103C280001C0A1609A95B9F7EA2FA02D08953ED05A
:103C3800F0DF0EF4E19508953F934F935F930024CE
:103C480011244427552730E2AA0FBB1F881F991F4C
:103C5800001C111C441F551F0E1A1F0A460B570B38
:103C680028F40E0E1F1E461F571F01C0A1603A956B
:103C780059F7FD01BC01D001CA015F914F913F91F5
:103C8800089520D0D9DF0EF4A1DF0895E894A7FFA6
:103C980002C0A1956894E7FDE195BBDFEA2F0EF419
:103CA800E1950895C9DFFD01BC010895E894E7FF97
:103CB80002C0E1956894A7FF04C0A19500F8039499
:103CC80000FA0895E89477FF02C080DF689497FFB0
:103CD8000BC00024A095B095809590951196801DF5
:103CE800901D00F8039400FA0895ED91FC91119746
:103CF8000895ED91FD916D917C9113970895ED9341
:103D0800FD936D937C9308950590F491E02D0895AB
:103D1800E881F9816A817B810895A881B9818A81C6
:103D28009B810895E883F9836A837B8308957A9356
:103D38006A93FA93EA9308959A938A93BA93AA9303
:103D48000895182E862F612D192E972F712D1B2E51
:103D5800BF2FF12D1A2EAE2FE12D08953097604018
:103D6800704008955A934A933A932A931A930A9360
:103D780008955D814C813B812A81198108810895CC
:00000001FF
