:060000000C9459000C9461
:1000060000000C9400000C9400000C9400000C946A
:1000160088000C9400000C9400000C9400000C94D2
:1000260000000C9400000C9400000C9400000C944A
:100036009E000C9400000C9400000C9400000C949C
:1000460000000C9400000C9400000C9400000000CA
:100056004B0000000000446F63746F72206E616491
:10006600657269002573002025342E3166672025C8
:10007600342E3166672025342E316667000080C035
:100086002D4E414E000001002D4E414E00494E4678
:10009600000001000200540006000600560002009F
:1000A6007C048400010080048C000000F894EE2794
:1000B600ECBBF1E0F5BFE5BFF8E1F1BDE1BD8DE0D8
:1000C600A2E0BB27ED938A95E9F780E098E0A0E6E9
:1000D600ED930197E9F7E8E9F0E0859195910097AE
:1000E60061F0A591B59105901590BF01F0010590BD
:1000F6000D920197E1F7FB01F0CFEFE5EDBFE8E0E8
:10010600EEBFC0E6D2E00C94C100EA93FA93EFB7D3
:10011600EA93E2EBE4BD6414750409F4A998F201CC
:1001260031962F01E4E6F0E04E165F0618F04424FF
:100136005524A99A1EC0EA93FA93EFB7EA931A9345
:100146000A931BB10CB1E12FEC7189F4E92D93945C
:10015600F0E0EC59FB4F0083E8E1E91509F4992436
:10016600B394E8E1EB1519F4BB24689420F80991DF
:100176001991E991EFBFF991E9911895E0E0EBBB90
:10018600EABBE1E0E7BBE0E0E8BBE3E0E4BBE0E0DC
:10019600E5BBE6E1E1BBE0E0E2BBEBB9E8E9EAB9E1
:1001A600E6E8E0BDE0E0E0BDE3E3E9B91AD242D219
:1001B6006AD2A0E10E945D04ACE5B0E00E944C0466
:1001C600A8EEB3E00E94800BE0E0E2BDE7E0E5BD0B
:1001D600E2EBE4BDE0E0E3BDE0E4E9BF7894C0D043
:1001E6002AD194D10E942909E2E0EA93A6E4B4E078
:1001F6000E94F907E4E0F4E00E943409E6E4F4E042
:100206000E943B090E944409E2E0EA93A0E5B4E0BB
:100216000E94F907E0E1F4E00E943409E0E5F4E029
:100226000E943B090E944F09E2E0EA93AAE5B4E086
:100236000E94F907ECE1F4E00E943409EAE5F4E0F3
:100246000E943B09E4E0F4E0FA93EA93E0E1F4E08B
:10025600FA93EA93ACE1B4E041D2E8E2F4E0FA932F
:10026600EA93EDE6F0E0FA93EA930E9429090E94E8
:1002760044090E944F098CE00E94C50760960E94BF
:100286002104E0E0EA93A0E00E941404A8E2B4E0AE
:100296000E944204AAE0B0E00E94800BA0CFFFCFEC
:1002A60024971A93839A92980E945A098399FECFAB
:1002B60010E0183160F4929A0E9460090E94650964
:1002C6009298839B02C00E946C091F5FF2CF929A9C
:1002D6000E94760992980E94600918810C94D704AE
:1002E60024971A93859A94980E945A098599FECF65
:1002F60010E0183160F4949A0E9460090E94650922
:100306009498859B02C00E946C091F5FF2CF949A55
:100316000E94760994980E94600918810C94D7046B
:1003260024971A93B19AC0980E945A09B199FECFA0
:1003360010E0183160F4C09A0E9460090E946509B5
:10034600C098B19B02C00E946C091F5FF2CFC09A91
:100356000E947609C0980E94600918810C94D704FF
:100366000E9485090F31E0E01E0708F04FC00E9489
:100376008A0996DF0E9494090E949D090E94A60997
:100386000E949409E0916402F09165026091660210
:10039600709167020E949D090E94F00D68F5E09138
:1003A6007802F091790260917A0270917B020E9444
:1003B600AD09A0916402B0916502809166029091A8
:1003C60067020E94B6090E943C0D0E94AD090E9478
:1003D600BF090E94C509A0E6B2E00E94CC09A0E9C7
:1003E600B2E00E94D209FF93EF930E94BF090E94D8
:1003F600D709AF91BF9105C0F801A0E9B2E00E940C
:10040600DE090E94C10D0F5F1F4FACCFE0E9F2E09D
:100416000E94E709E091CC02F091CD026091CE02F4
:100426007091CF02E0938402F09385026093860276
:100436007093870250C10E9485090F31E0E01E07C4
:1004460008F04FC00E94ED094BDF0E94F7090E9499
:10045600000A0E94A6090E94F709E0916C02F09139
:100466006D0260916E0270916F020E94000A0E94F6
:10047600F00D68F5E0917C02F0917D0260917E02BC
:1004860070917F020E94090AA0916C02B0916D02E0
:1004960080916E0290916F020E94120A0E943C0D9A
:1004A6000E94090A0E941B0A0E94C509A8E6B2E03A
:1004B6000E94CC09ACE0B3E00E94D209FF93EF930F
:1004C6000E941B0A0E94D709AF91BF9105C0F8018F
:1004D600ACE0B3E00E94DE090E94C10D0F5F1F4F22
:1004E600ACCFECE0F3E00E94E709E0914803F0911D
:1004F600490360914A0370914B03E0938802F0939D
:10050600890260938A0270938B02E5C00E94850976
:100516000F31E0E01E0708F04FC00E94210A00DFFD
:100526000E942B0A0E94340A0E94A6090E942B0AE6
:10053600E0917402F09175026091760270917702F3
:100546000E94340A0E94F00D68F5E0918002F09155
:10055600810260918202709183020E943D0AA091FD
:100566007402B091750280917602909177020E9492
:10057600460A0E943C0D0E943D0A0E944F0A0E94B4
:10058600C509A0E7B2E00E94CC09A8E8B3E00E9442
:10059600D209FF93EF930E944F0A0E94D709AF91A9
:1005A600BF9105C0F801A8E8B3E00E94DE090E94E9
:1005B600C10D0F5F1F4FACCFE8E8F3E00E94E709DB
:1005C600E091C403F091C5036091C6037091C7031F
:1005D600E0938C02F0938D0260938E0270938F02EB
:1005E6007AC00E9485090E948A0900E010E00A305C
:1005F600E0E01E0764F454DE0E949D090E94370D58
:100606000E9494090E94550A0F5F1F4FF0CF0E9467
:100616009D090E945A0A0E9494090E949D090E94FF
:10062600A609E0936402F0936502609366027093F4
:10063600670251C00E9485090E94ED0900E010E0A2
:100646000A30E0E01E0764F44BDE0E94000A0E94B6
:10065600370D0E94F7090E94550A0F5F1F4FF0CF12
:100666000E94000A0E945A0A0E94F7090E94000A84
:100676000E94A609E0936C02F0936D0260936E02ED
:1006860070936F0228C00E9485090E94210A00E02B
:1006960010E00A30E0E01E0764F442DE0E94340AED
:1006A6000E94370D0E942B0A0E94550A0F5F1F4FAA
:1006B600F0CF0E94340A0E945A0A0E942B0A0E9416
:1006C600340A0E94A609E0937402F09375026093BF
:1006D600760270937702099119910895BA93AA93B5
:1006E600A1E40E948A04AC81BD810E949104A5E424
:1006F6000E948A04A2E40E948A04AA81BB810E9405
:100706009104A5E40E948A04A3E40E948A04A881B5
:10071600B9810E949104AEE40E948A042696089547
:10072600BA93AA930E94F70D00E010E020E030E0B3
:1007360000E010E0EC81FD8131970E171F070CF0E9
:100746004BC020E030E0F8013196AC81BD810E94BB
:10075600E50DEA1BFB0B2E173F07DCF5F9010E949E
:10076600610A7F936F93FF93EF93F90131960E948D
:10077600610AAF91BF918F919F910E94130D09F06D
:1007860008F424C02297F9010E946A0A0E94B70D54
:100796000E94BD0BE883F983F901A885B9850E94FB
:1007A600D2090F01F90131960E946A0A0E94BB0D17
:1007B600D0010E94C10DF90131960E946A0AE881B2
:1007C600F9810E94710A0E94C10D22962F5F3F4F48
:1007D600BACF0F5F1F4FAECF0E94FE0D2896089529
:1007E600AA93EBB3EF70AE2FE881E07FEA2BEBBB69
:1007F6008DE08A95F1F7DA9A8DE08A95F1F7DA9825
:100806008DE08A95F1F70C948F04AA93A881E8DF0E
:10081600E881E295E883A881E3DF85E88A95F1F728
:100826007BC0AA93E881F0E0E458FB4FE081A98100
:10083600AE0FEBDFA980D88022960895A2E00E9431
:10084600760AACE0E2DFA1E00E94760AE0E0DE2E66
:10085600AE2E0895AA93A881AA3011F0AC1448F0E0
:10086600E0E0EA93D394AD2DDCDFA881AA3009F449
:1008760053C0A394D89AA881C8DFD8984DC0BA931C
:10088600AA931A930E947C0A19F0A12FE3DFFACFEC
:1008960050C0BA93AA931A93E981FA813196E983F3
:1008A600FA833197E4911E2FE03019F0A12FD2DFA1
:1008B600F3CF3FC0AA93EAB3E06FEABBD29AD09ACD
:1008C600D19ADA98D898D998C880E881E058E09308
:1008D6007E04E881E054E0937F04A4E1B0E00E9446
:1008E600800B0E94840A0E94840A0E94840AA0E265
:1008F60077DF88EC90E00197F1F7A8E286DFA4E0C5
:1009060084DFA5E882DFA6E080DF98DF05C0AA9332
:100916005D9BFECFE881ECB921960895BA93AA9320
:100926001A930E947C0A19F0A12FF1DFFACFAAE0F0
:10093600EEDF188123960895BA93AA931A930A9321
:10094600AA81BB8112960E94B70D309729F1AA8120
:10095600BB8114960E94B70D8F01309761F002306B
:10096600E0E01E0780F0F80131978F01AA81BB8174
:100976001496ED93FC93AA81BB8112960E948C0A71
:100986003197AC81A083AA81BB810E94B70DFF235A
:1009960012F00E948C0A06C0AA81BB81EFEFFFEF1E
:1009A600ED93FC9319810881259608950E94920A79
:1009B600E0E8EA83EFE3EB830E94F70DEE85FF851F
:1009C600EF3FAFEFFA0749F4E885F985FA93EA9322
:1009D600A6E8B0E00E94BB08B7C0EF3FAFE7FA0752
:1009E60049F4E885F985FA93EA93A7E8B0E00E940E
:1009F600BB08AAC0AB85A73010F0E6E0EB871B85E5
:100A0600E12F1150E03019F00E94990AF9CFEC85D8
:100A1600FD856E857F850E94EC0D21F430E00E94F5
:100A2600990A2DC03B850E94A80A09F008F40BC05C
:100A36000E94990A0E94A80A28F00E94B30A0E94FE
:100A4600B80AF8CF0DC00E94A80A40F40E94B30A63
:100A56000E94C40A0E94CB0A3150F5CF0E94990A1F
:100A6600EC85FD856E857F850E94D00A0E94CB0AA3
:100A76000E94A80A20F00E94B30A0E94B80A10E059
:100A8600EB85E117A8F1AC81BD818E819F810E9423
:100A9600D70A0E94D00ADF01CB010E941209EC831B
:100AA600FD836E837F830E94B30A0E94CE0C0E9450
:100AB600BD0B0E2F0E94DE0A0E94E50AFF2766275D
:100AC60077270E94F60BAC81BD818E819F810E94A3
:100AD600800C0E94B30A0E94EA0A0E94CB0AE12F08
:100AE6001F5FE03069F60E94DE0AEEE2EC93C8CFA3
:100AF6000E94EF0A3197AA85A08330302CF43195F5
:100B0600A885B985EDE203C0A885B985EBE2EC932B
:100B16000E94EF0A0E94EF0A3197BF01A32FEAE075
:100B26000E94710DE05DDB01EC930E94EF0A3197A4
:100B3600BF01A32FEAE00E949B0DE05DDB01EC9371
:100B4600A885B985E0E0EC930E94FE0D60960895B5
:100B5600BA93AA93EF9761970E94F50D10E0FE01F4
:100B6600E85AFF4F0190F081E02DE887F987FE01F2
:100B7600EA5AFF4F0190F081E02DEE83FF83AE81AC
:100B8600BF81E0E0F0E0ED93FC93DE01A45ABF4F95
:100B96000E948C0A3197E4912E2FE03009F4E9C1C6
:100BA600E12FE03039F4253211F411E002C00E9441
:100BB600F50ADEC1E130C1F4253219F40E94F50AC6
:100BC600D6C112E0E0E0ED8B00E02D3211F401E039
:100BD600CFC12B3219F4EBE2ED8BCAC1203219F4E6
:100BE600E0E2ED8BC5C102C0E23039F450E013E01B
:100BF600203311F40068BCC102C0E33091F4203305
:100C060010F02A3308F007C0AAE05A9F502DE22FB1
:100C1600E0535E0FADC140E02E3211F414E0A8C1DE
:100C26000FC0E43099F4203310F02A3308F008C0DE
:100C36000062AAE04A9F402DE22FE0534E0F98C172
:100C46002C3619F4026015E093C103C0E53009F0B3
:100C56008FC1E22FE33659F40E94FC0A0E94030B6F
:100C66000E94FC0AA481AA930E940A0B80C1E53463
:100C760011F0E53609F403C0E63609F048C0FE0176
:100C86007696EE87FF870E94100B0E94BB0D0E948E
:100C9600170B0E941C0BAD85AA2332F0AD89AB322F
:100CA60059F0A03281F017C00E941E0B0E948A0BD9
:100CB6000E94170BEDE2ED8B07FF05C0ED89EA9365
:100CC6000E940A0B08C0EE85FF853196EE87FF87E6
:100CD6003197AD89A08305FF46E0263651F40E9480
:100CE6001E0B0E94D50D4A93AB89BC890E94F90759
:100CF60009C00E941E0B0E94D50D4A932A93AC8907
:100D0600BD8954DEFE0176960E94230B1EC0E33792
:100D160039F40E941C0B0E942B0B0E94230B0EC061
:100D2600E037C1F40E941C0B0E942B0BEE87FF8755
:100D3600AE85BF850E94D4081E2F08600F7740300D
:100D460011F0411708F001C0142F40E0E0E0EC8BF1
:100D560030E06DC0E43611F0E93611F4046002C0EB
:100D6600E537A1F4EAE0EC8B01FF08C0E0E0FAEC1D
:100D76006AE97BE30E94300B1AE022C0E0E1F7E269
:100D860060E070E00E94300B15E01AC0E83511F4FF
:100D9600086003C0E83709F0EAC0E0E1EC8B01FF28
:100DA60008C0E0E0F0E060E070E10E94300B18E07F
:100DB60007C0E0E0F0E160E070E00E94300B14E074
:100DC600403011F00F7701C041E001FF08C00E94DA
:100DD6001C0B0E94100B14960E94BB0D0FC002FF45
:100DE60007C00E941C0B0E942B0B0E945E0D06C0C2
:100DF6000E941C0B0E942B0B66277727EA87FB872E
:100E06006C877D8702FF12C0AD85AA2342F40E943B
:100E16001E0B0E94460D0E94170BEDE2ED8BED892D
:100E2600E03019F01F5F4F5F01C00B7F342F00FDCC
:100E360014C0151710F4351708F00FC007FF08C0C7
:100E460002FF04C00B7F2D89115001C020E301C0B1
:100E560020E20E94F50A5150ECCF141790F400617D
:100E660002FF06C00E94350B09F051501150415047
:100E7600E0E3EA930E940A0B503009F051504150CA
:100E8600ECCF312FEC89E030B9F43030A1F003FF1C
:100E960006C0EE85FF852591EE87FF8705C0AE85E6
:100EA600BF852D91AE87BF870E94F50A503009F0A5
:100EB60051503150EACF51C00E94470B0E94760D27
:100EC6002E2F2A3030F003FF02C0295C01C0295AB8
:100ED60001C0205D04FD21C0213360F4A889B989D1
:100EE6008A899B89A130E0E0BE07E0E08E07E0E05A
:100EF6009E0709F40BC0431740F4531710F000FF88
:100F060001C010C020E207FF08C020E3006102FF15
:100F160004C00E94350B09F051500E94F50A50306A
:100F260009F0515031500E94470B0E94A70D0E94B4
:100F3600170BEC89A889B9898A899B89FF276627B7
:100F460077270E94760D0E94300BE889F9896A8915
:100F56007B890E94EC0D09F0AFCF00FF08C050302E
:100F660031F05150E0E2EA930E940A0BF8CF10E00C
:100F76000CCEAE81BF810E94B70D0E94FC0DEF968C
:100F86006F960895FF92F82E26970E94F70D0E94FD
:100F9600500B309719F4EFEFFFEF23C0DE011696E2
:100FA6000E94330D8D010E94500BEE83FF83E0E01B
:100FB600E887E987DE011A960E94330D0E94B70D75
:100FC600FA93EA931A930A93EFE9F4E0FA93EA9311
:100FD600DE011A96BDDD9F01AE81BF81E0E0EC9394
:100FE600F9010E94FE0D2A96FF9008950E94920A2A
:100FF600E0E0EA83EFE3EB831A930A93EB85FC8543
:10100600EF3FAFEFFA0739F40E94570BAEE8B0E0B6
:101016000E94BB08A9C0EF3FAFE7FA0739F40E9468
:10102600570BAFE8B0E00E94BB089EC0AC85AA2370
:1010360062F4E985FA856B857C850E948A0B0E949D
:101046005C0B0E94610BEDE2EC93A885A73010F0D3
:10105600E6E0E8871885E12F1150E03039F00E946C
:10106600680B0E94D70A0E946D0BF5CF0E94720B87
:101076000E94300C0E945C0B10E0E0E0F0E060E8BB
:101086007FE30E946D0B0E94720B0E94130D88F085
:101096000E94680B0E94C40A0E946D0B1F5F1732E4
:1010A60038F00E94570BA3E9B0E00E94BB085CC071
:1010B600EACF103029F40E94610BE0E3EC9329C0DB
:1010C600E12F1150E03029F10E94680B0E94D70AE7
:1010D6000E94D00ADF01CB010E9412090E946D0B0B
:1010E6000E94720B0E94CE0C0E94BD0B0E2F0E9416
:1010F600610B0E94E50AF0E00E94680B0E94710AEB
:101106000E94800C0E947B0B0E94EA0A0E945C0BE4
:10111600D7CFE885E03021F10E94610BEEE2EC9337
:10112600E885E150E887EF5FD9F00E947B0B0E94CB
:10113600C40A0E945C0BE985FA856B857C850E9452
:10114600BD0B0E2F0E94610B0E94E50AF0E00E9483
:101156007B0B0E94710A0E94EA0A0E945C0BE0CF98
:10116600AE81BF81E0E0EC93198108812D96089548
:10117600BA93AA93E991F991A991B991CD010590F4
:101186000D920020E1F7FC010895BA93AA93A99164
:10119600B991EE27FF276D91662311F03196FBCFAB
:1011A6000895BA93AA93AA27BB27E991F9910590C6
:1011B600002011F01196FBCFFD0108950E94DA0D73
:1011C6007B816A81F981E88177FB770F67FD716022
:1011D600972F9E5781F078F0983190F4AA27BB2775
:1011E600882708948795B795A7959A95D1F7EA2306
:1011F600FB23682305C0E8947727EE27FF27662799
:101206006F77769508F4606877F9A991B991899115
:101216009991EA17FB076807790797FB08950E94DB
:10122600DA0D0E94CB0D0E94E1080E94D00D19F440
:101236000E94C60D09C0E6F70E94C60DA0E0B0E008
:1012460080E89FE30E94290C24960895E091840289
:10125600F091850260918602709187020E94D50DF9
:101266000895FA93EA93EAE6F0E0FA93EA9308958A
:10127600662777270E94D50D84E00E94C507289629
:101286000895E0918802F091890260918A02709136
:101296008B020E94D50D0895E0918C02F0918D028B
:1012A60060918E0270918F020E94D50D0895E0E044
:1012B600E983EA83EB83EC830895E981FA816B8104
:1012C6007C8108950E94530DE983FA836B837C83A6
:1012D6000895F3DFEF5FFF4F6F4F7F4FE983FA8388
:1012E6006B837C830895A981BA818B819C81E0E020
:1012F600F0E060E870E00E94410DE983FA836B83B9
:101306007C8308951A930A9300E010E00895E0E0C4
:10131600E0937802E0937902E0937A02E0937B020D
:101326000895E0937802F093790260937A027093BD
:101336007B020895A0917802B091790280917A0299
:1013460090917B020895E4E6F0E060E070E00E9490
:10135600760D0895E0936002F09361026093620255
:10136600709363020895E0916002F09161026091CA
:101376006202709163020895F6DF0E94F40BDF01AA
:10138600CB010895EDE4F0EA68EB7EE30E94CE0C13
:1013960008950E94BD0B0E94C10DF80108950E9498
:1013A6004E0DEA0FFB1F0895E0E0F0E060E271E405
:1013B6000E94CE0C08950E944E0DAE0FBF1FE0E0B6
:1013C600F0E060E070E00895FA93EA93AFE1B0E0F0
:1013D6000C949303E0E0E0937C02E0937D02E093BB
:1013E6007E02E0937F020895E0937C02F0937D02F3
:1013F60060937E0270937F020895A0917C02B09163
:101406007D0280917E0290917F020895E0936802AA
:10141600F093690260936A0270936B020895E091FB
:101426006802F091690260916A0270916B020895F8
:10143600F6DF0E94F40BDF01CB010895E0E0E093B4
:101446008002E0938102E0938202E0938302089592
:10145600E0938002F093810260938202709383028C
:101466000895A0918002B0918102809182029091AC
:1014760083020895E0937002F09371026093720202
:10148600709373020895E0917002F0917102609179
:101496007202709173020895F6DF0E94F40BDF0169
:1014A600CB01089588EE93E00197F1F70895EAE0FD
:1014B600F0E060E070E00E94760D0895AE81BF8195
:1014C6000E944E0DAE0FBF1F0E94BB0D0895A8854A
:1014D600B9850E944E0DAE0FBF1F08950E945E0D86
:1014E6000E94F60B08950E940804A3E0B0E00C9455
:1014F600800BA981BA81ED91A983BA831E2FE030B2
:101506000895A0E30E94F30388EC90E00197F1F7B9
:101516000895ED91FD913196FE93EE930895BA9359
:10152600AA932497E0E0E883E9830895AC81BD811E
:101536008E819F81E0E0F0E060E271E40E94800C21
:10154600EC83FD836E837F830895EC81FD816E813C
:101556007F81AC85BD858E859F850E94130D08957C
:10156600AC85BD858E859F850895EDECFCEC6CEC15
:101576007DE30E94800CEC87FD876E877F873F5F47
:101586000895E0E0F0E060E271E40E94800C0895C6
:10159600EC87FD876E877F870895A0E0B0E080E046
:1015A6009FE30E94300C0895EDECFCEC6CEC7DE3BF
:1015B6000E94800C0895A885B9851196A887B987D9
:1015C60011970895E02FE05DEC93E02F08950E94B7
:1015D600DF0D0E94290C0895E885F9853196E88784
:1015E600F98708952A93AF81B885E985FA85099523
:1015F6000895FE01E65AFF4F0190F081E02D08950F
:101606003497DE01A65ABF4FED93FC930895AF8140
:10161600B885E985FA8509950895DE01A65ABF4F72
:101626000D90BC91A02D0895EA87FB876C877D8776
:101636000895DFDFE5CFEA85FB856C857D85089516
:10164600EE87FF87AE85BF850E94C8081E2F0895C6
:10165600E4DF14960E94B70D0895E88BF98B6A8B28
:101666007B8B08950B7FED89EA93DE01A95ABF4F64
:101676000D90BC91A02DFE01E75AFF4F0190F0811D
:10168600E02D099550300895E889F9896A897B89A2
:10169600AA85BB858C859D850895DE011C960E94D2
:1016A600330D0E94B70D0895EE81FF81FA93EA93F8
:1016B6000895E987FA876B877C870895AE81BF8195
:1016C6001196AE83BF8311970895AA81BB818C8141
:1016D6009D810895EA83FB836C837D830895EA8167
:1016E600FB816C817D81A985BA858B859C85089552
:1016F600A985BA858B859C850895109639F080ED6D
:1017060097E00197F1F7A8951197C9F708953097D3
:101716006040704009F070580895552342F45038DF
:1017260011F4E0FF04C03196691F791F6BF050E891
:10173600572711F45F93CFC05F3F31F0660F000C5F
:1017460057956795752F08955F9300200AF0CFC0CF
:10175600C8C050E8192E1522880F991F9527550FD6
:10176600879550E8072E0522660F771F7527550FB8
:1017760067950895689401C0E8945F93F2DF703826
:1017860018F07F3F08F4A7C056E1571BAAF45195FD
:1017960058300EF4593030F0EFEFFFEF6FEF7FE780
:1017A60077F91AC077275523B9F0EE0FFF1F661F8A
:1017B600771F5A95D1F710C07727583028F0EF2FAA
:1017C600F62F672F5850F9CF552331F07695679548
:1017D600F795E7955A95D1F700200AF454D15F9111
:1017E6000895689401C0E894309760407040B1F065
:1017F600002426F0772312F4009445D1172E7EE1BB
:10180600112032F07A95EE0FFF1F661F111CF9CFDB
:10181600EF2FF62F612D5F938ADF5F9108954F9327
:10182600AF01FD01DA01AB01BC01CA01402D012C5B
:10183600142E4F910895EA0FFB1F681F0895E09537
:10184600F0956095EF5FFF4F6F4F08955F9381DFCF
:10185600903871F150E8152604C05F937ADF90380E
:1018660039F1703821F1572F591B2BF112F4D7DFBC
:10187600FACF583118F0AA27BB278827583028F006
:10188600AB2FB82F88275850F9CF552329F08695C6
:10189600B795A7955A95D9F7502D512572F0CBDFFC
:1018A60038F46795F795E795739513F420C0B7DF7D
:1018B6003EDF5F910895D8F7FBCFEA1BFB0B680B61
:1018C60051F010F40094BBDF662392F3EE0FFF1F76
:1018D600661F7A95CBF7EE27FF27662777275F9156
:1018E6000895EFEFFFEF6FE77FEF5F910895EFEF5A
:1018F600FFEF6FE77FE75F9108955F932ADF703808
:1019060051F3903841F301240894791F23F41CF312
:1019160000203AF3ECCF0F921F932F933F934F93F0
:10192600112722279927689FA0018F9F302D410DEF
:10193600591F6B9F300D411D591F8E9F27D0BF9F8A
:1019460025D06A9F23D0BE9F1DD0AF9F1BD0AE9FD0
:10195600110D291F391F491F591FE32FF42F652F1A
:10196600522F4F913F912F911F910F9066232AF08E
:10197600550FEE1FFF1F661F02C073954BF2CDDE9B
:101986005F910895100D211D391F02C0200D311DD4
:10199600491F591F08955F93DCDE703821F411202A
:1019A6000AF49FCFA4CF903809F495CF0124089468
:1019B600970B1BF4D4F30020F3CF792F1F932F93AB
:1019C6003F934F9311241127222733274427552766
:1019D60090E2AE17BF078607410730F0AE1BBF0B7C
:1019E600860B410B089401C08894551F221F331F94
:1019F600111CAA1FBB1F881F441F9A9551F7F90196
:101A0600612D4F913F912F911F91662332F0550F13
:101A1600EE1FFF1F661F7A9543F27FDE5F910895E2
:101A260099239AF0772342F0971748F029F4AE17D6
:101A3600BF07860720F031F098948894089598940B
:101A4600089408951894889408957723C2F79717F1
:101A560098F3A9F7EA17FB07680788F399F3ECCF21
:101A66000024AF0DB01D0895EA0FFB1F681F791FF4
:101A76000895EA1BFB0B680B790B0895EA27FB27F1
:101A8600682779270895F09560957095E195FF4F41
:101A96006F4F7F4F0895EE0FFF1FEE0FFF1F089544
:101AA600EE0FFF1F661F771F0895FE2FFF0FFF0B18
:101AB6006F2F7F2F08956F2F660F660B762F089571
:101AC600002498E0AA0F001C0E1A10F40E0E01C096
:101AD600A1609A95B9F7EA2FA02D089539D0F0DFC5
:101AE6000EF4E19508953F934F935F9300241124DC
:101AF6004427552730E2AA0FBB1F881F991F001CD9
:101B0600111C441F551F0E1A1F0A460B570B28F4AB
:101B16000E0E1F1E461F571F01C0A1603A9559F7AA
:101B2600FD01BC01D001CA015F914F913F9108951B
:101B3600E894A7FF02C0A1956894E7FDE195C0DF90
:101B4600EA2F0EF4E1950895CEDFFD01BC0108955C
:101B5600E894E7FF02C0E1956894A7FF04C0A19549
:101B660000F8039400FA0895ED91FC9111970895F9
:101B7600ED91FD916D917C9113970895ED93FD93F1
:101B86006D937C930895E881F9816A817B8108953C
:101B9600A881B9818A819B810895E883F9836A8344
:101BA6007B8308957A936A93FA93EA9308959A93B6
:101BB6008A93BA93AA930895182E862F612D192E0B
:101BC600972F712D1B2EBF2FF12D1A2EAE2FE12D23
:101BD60008953097604070400895EA17FB0768073C
:101BE600790708955A934A933A932A931A930A9334
:101BF60008955D814C813B812A8119810881089570
:00000001FF
