:020000000C945E
:100002005D000C9400000C9400000C94AF000C9462
:1000120000000C9400000C9400000C9400000C945E
:1000220000000C94B5000C9400000C9400000C9499
:1000320000000C948C000C9400000C9400000C94B2
:1000420000000C9400000C9400000C9400000C942E
:10005200000000000000000025342E3166670025F4
:10006200342E3166672025342E3166672025342EE2
:100072003166672025342E3166672000446F637431
:100082006F72206E61646572690080C02D4E414EB0
:10009200000001002D4E414E00494E460000010075
:1000A2000200540004000800560002008C038C0079
:1000B2000100900394000000F894EE27ECBBF1E0FD
:1000C200F5BFE5BFF8E1F1BDE1BD8DE0A2E0BB27E0
:1000D200ED938A95E9F780E098E0A0E6ED93019729
:1000E200E9F7E0EAF0E085919591009761F0A5913A
:1000F200B59105901590BF01F00105900D92019701
:10010200E1F7FB01F0CFEFE5EDBFE8E0EEBFC0E6BF
:10011200D2E00C942901EA93FA93EFB7EA931A9387
:100122000A931BB10CB1E12FEC7189F4E92D939480
:10013200F0E0EC58FC4F0083E8E1E91509F499245A
:10014200B394E8E1EB1519F4BB24689420F8099103
:100152001991E991EFBFF991E99118950E9412095D
:10016200A8E4B3E0C1D266C00E941209EFECEDBD73
:10017200ECE2ECBDF30131963F01E3E3F0E0E6157A
:10018200F70509F057C0F2010E9420096627772778
:100192000E94D90B0E94B10C0E942909E8E4F3E005
:1001A200FA93EA93EAE5F0E0FA93EA930E943209BD
:1001B20084E00E94AE072896E4E5F3E0FA93EA931E
:1001C200E1E6F0E0FA93EA93E0918802F091890285
:1001D20060918A0270918B020E94D00D0E943D09AB
:1001E2000E94D00DE0919002F091910260919202F2
:1001F200709193020E94D00D0E94320980E10E9408
:10020200AE0764960E940A04E0E0EA93A0E00E942E
:10021200FD03A4E5B3E00E942B0444245524E0E04E
:10022200E0938402E0938502E0938602E0938702E2
:1002320066247724E991EFBFF991E991B991A991E7
:100242009991899179916991F990199009901895EC
:10025200E0E0EBBBEABBE1E0E7BBE4E0E8BBE3E004
:10026200E4BBE0E0E5BBE6E9E1BBE0E0E2BBEBB921
:10027200E8E9EAB9E6E8E0BDE0E0E0BDE3E3E9B9D8
:10028200B6D1DED106D2A0E10E944604AEE7B0E0CC
:100292000E943504A8EEB3E00E94630BE0E0EFBDDC
:1002A200E3E0EEBDEFECEDBDECE2ECBDE0E0E7BD7E
:1002B200E6BDEBBDEABDE9BDE8BDE2BDEEE6E5BDEA
:1002C200E0E0E4BDE0E5E3BDE4E0E9BFEBB7E06216
:1002D200EBBFE0E0E5BFE4BFE0E2EABFEFEFE3BD82
:1002E200789481D00E943D09A0918802B091890240
:1002F20080918A0290918B020E94130CA09190022D
:10030200B091910280919202909193020E94130CFB
:100312000E9420090E94130C0E942909F2013196C1
:100322002F01DFCFFFCF24971A93839A92980E94CE
:1003320046098399FECF10E0183160F4929A0E9428
:100342004C090E9451099298839B02C00E9458094D
:100352001F5FF2CF929A0E94620992980E944C0902
:1003620018810C94C00424971A93859A94980E9439
:1003720046098599FECF10E0183160F4949A0E94E4
:100382004C090E9451099498859B02C00E94580909
:100392001F5FF2CF949A0E94620994980E944C09BE
:1003A20018810C94C00424971A93B19AC0980E94A1
:1003B2004609B199FECF10E0183160F4C09A0E944C
:1003C2004C090E945109C098B19B02C00E94580971
:1003D2001F5FF2CFC09A0E946209C0980E944C0926
:1003E20018810C94C0040E9471090F30E0E01E07CE
:1003F20008F0AEC00E94760996DF0E9480090E9432
:1004020089090E9492090E948009E0917802F09184
:10041200790260917A0270917B020E949909A091FF
:100422006402B091650280916602909167020E9417
:10043200A2090E941F0D0E9499090E94AB090E9405
:10044200B109A0E6B2E00E94B809A4E9B2E00E94B4
:10045200BE09FF93EF930E94AB090E94C309AF91BB
:10046200BF910E94BC0D0E94CA097DDF0E94D4097F
:100472000E94DD090E9492090E94D409E0917C0247
:10048200F0917D0260917E0270917F020E94E609E6
:10049200A0916C02B0916D0280916E0290916F02F8
:1004A2000E94EF090E941F0D0E94E6090E94F809AE
:1004B2000E94B109A8E6B2E00E94B809A0EDB2E03C
:1004C2000E94BE09FF93EF930E94F8090E94C3099C
:1004D200AF91BF910E94BC0D0E94FE0964DF0E9491
:1004E200080A0E94110A0E9492090E94080AE091D9
:1004F2008002F091810260918202709183020E94D7
:100502001A0AA0917402B0917502809176029091BC
:1005120077020E94230A0E941F0D0E941A0A0E945B
:100522002C0A0E94B109A0E7B2E00E94B809ACE02F
:10053200B3E00E94BE09FF93EF930E942C0A0E942F
:10054200C309AF91BF910E94BC0D0F5F1F4F4DCFEA
:10055200E4E9F2E00E94320AE091B002F091B102C5
:100562006091B2027091B302A6E8B9EC84EA9FE30B
:100572000E94630CE0938802F093890260938A02DE
:1005820070938B02E0EDF2E00E94320AE091EC02FD
:10059200F091ED026091EE027091EF02A2EFB0EBEA
:1005A20088E99FE30E94630CE0938C02F0938D0232
:1005B20060938E0270938F02ECE0F3E00E94320AA5
:1005C200E0912803F091290360912A0370912B0393
:1005D200A8E9BCE48DE89FE30E94630CE0939002DB
:1005E200F093910260939202709393027AC00E94F8
:1005F20071090E94760900E010E00A30E0E01E076F
:1006020064F491DE0E9489090E941A0D0E948009F9
:100612000E94380A0F5F1F4FF0CF0E9489090E9483
:100622003D0A0E9480090E9489090E949209E09372
:100632006402F0936502609366027093670251C090
:100642000E9471090E94CA0900E010E00A30E0E04D
:100652001E0764F488DE0E94DD090E941A0D0E94C2
:10066200D4090E94380A0F5F1F4FF0CF0E94DD09A4
:100672000E943D0A0E94D4090E94DD090E9492094B
:10068200E0936C02F0936D0260936E0270936F02BE
:1006920028C00E9471090E94FE0900E010E00A30A1
:1006A200E0E01E0764F47FDE0E94110A0E941A0D28
:1006B2000E94080A0E94380A0F5F1F4FF0CF0E9463
:1006C200110A0E943D0A0E94080A0E94110A0E9411
:1006D2009209E0937402F09375026093760270932C
:1006E2007702099119910895BA93AA93A881B981C1
:1006F2000E947A048CC0BA93AA930E94ED0D00E086
:1007020010E020E030E000E010E0EC81FD81319764
:100712000E171F070CF04BC020E030E0F8013196B5
:10072200AC81BD810E94E00DEA1BFB0B2E173F0737
:10073200DCF5F9010E94440A7F936F93FF93EF93D4
:10074200F90131960E94440AAF91BF918F919F9116
:100752000E94F60C09F008F424C02297F9010E94C5
:100762004D0A0E94B20D0E94A00BE883F983F901A1
:10077200A885B9850E94BE090F01F90131960E9430
:100782004D0A0E94B60DD0010E94BC0DF9013196AE
:100792000E944D0AE881F9810E94540A0E94BC0D10
:1007A20022962F5F3F4FBACF0F5F1F4FAECF0E94EF
:1007B200F40D28960895AA93EBB3EF70AE2FE8815B
:1007C200E07FEA2BEBBB8DE08A95F1F7DA9A8DE0B8
:1007D2008A95F1F7DA988DE08A95F1F70C9478040E
:1007E200AA93A881E8DFE881E295E883A881E3DFA4
:1007F20085E88A95F1F77BC0AA93E881F0E0E45797
:10080200FC4FE081A981AE0FEBDFA980D880229650
:100812000895A2E00E94590AACE0E2DFA1E00E9442
:10082200590AE0E0DE2EAE2E0895AA93A881AA30DE
:1008320011F0AC1448F0E0E0EA93D394AD2DDCDF84
:10084200A881AA3009F453C0A394D89AA881C8DF1A
:10085200D8984DC0BA93AA931A930E945F0A19F0CE
:10086200A12FE3DFFACF50C0BA93AA931A93E9817A
:10087200FA813196E983FA833197E4911E2FE030B1
:1008820019F0A12FD2DFF3CF3FC0AA93EAB3E06FF2
:10089200EABBD29AD09AD19ADA98D898D998C880D5
:1008A200E881E058E0938E03E881E054E0938F03FF
:1008B200A4E1B0E00E94630B0E94670A0E94670AEB
:1008C2000E94670AA0E277DF88EC90E00197F1F7D7
:1008D200A8E286DFA4E084DFA5E882DFA6E080DF6D
:1008E20098DF05C0AA935D9BFECFE881ECB9219603
:1008F2000895BA93AA931A930E945F0A19F0A12F3E
:10090200F1DFFACFAAE0EEDF188123960895BA93B9
:10091200AA931A930A93AA81BB8112960E94B20DDE
:10092200309729F1AA81BB8114960E94B20D8F01E2
:10093200309761F00230E0E01E0780F0F801319755
:100942008F01AA81BB811496ED93FC93AA81BB818E
:1009520012960E946F0A3197AC81A083AA81BB8153
:100962000E94B20DFF2312F00E946F0A06C0AA81F4
:10097200BB81EFEFFFEFED93FC9319810881259680
:1009820008950E94750AE0E8EA83EFE3EB830E9490
:10099200ED0DEE85FF85EF3FAFEFFA0749F4E885ED
:1009A200F985FA93EA93AEE8B0E00E94A408B7C0D2
:1009B200EF3FAFE7FA0749F4E885F985FA93EA933E
:1009C200AFE8B0E00E94A408AAC0AB85A73010F03F
:1009D200E6E0EB871B85E12F1150E03019F00E9411
:1009E2007C0AF9CFEC85FD856E857F850E94E70D37
:1009F20021F430E00E947C0A2DC03B850E948B0AC4
:100A020009F008F40BC00E947C0A0E948B0A28F0AD
:100A12000E94960A0E949B0AF8CF0DC00E948B0A80
:100A220040F40E94960A0E94A70A0E94AE0A315020
:100A3200F5CF0E947C0AEC85FD856E857F850E943C
:100A4200B30A0E94AE0A0E948B0A20F00E94960A04
:100A52000E949B0A10E0EB85E117A8F1AC81BD81F1
:100A62008E819F810E94BA0A0E94B30ADF01CB01E4
:100A72000E94FB08EC83FD836E837F830E94960AAB
:100A82000E94B10C0E94A00B0E2F0E94C10A0E946C
:100A9200C80AFF27662777270E94D90BAC81BD8140
:100AA2008E819F810E94630C0E94960A0E94CD0A49
:100AB2000E94AE0AE12F1F5FE03069F60E94C10A70
:100AC200EEE2EC93C8CF0E94D20A3197AA85A083A6
:100AD20030302CF43195A885B985EDE203C0A885A4
:100AE200B985EBE2EC930E94D20A0E94D20A3197B6
:100AF200BF01A32FEAE00E94540DE05DDB01EC93FD
:100B02000E94D20A3197BF01A32FEAE00E94830D0F
:100B1200E05DDB01EC93A885B985E0E0EC930E94EF
:100B2200F40D60960895BA93AA93EF9761970E9485
:100B3200EB0D10E0FE01E85AFF4F0190F081E02D2D
:100B4200E887F987FE01EA5AFF4F0190F081E02D14
:100B5200EE83FF83AE81BF81E0E0F0E0ED93FC9392
:100B6200DE01A45ABF4F0E946F0A3197E4912E2FE3
:100B7200E03009F4E9C1E12FE03039F4253211F413
:100B820011E002C00E94D80ADEC1E130C1F4253270
:100B920019F40E94D80AD6C112E0E0E0ED8B00E021
:100BA2002D3211F401E0CFC12B3219F4EBE2ED8BBF
:100BB200CAC1203219F4E0E2ED8BC5C102C0E230B5
:100BC20039F450E013E0203311F40068BCC102C0D4
:100BD200E33091F4203310F02A3308F007C0AAE082
:100BE2005A9F502DE22FE0535E0FADC140E02E32EE
:100BF20011F414E0A8C10FC0E43099F4203310F0CE
:100C02002A3308F008C00062AAE04A9F402DE22F72
:100C1200E0534E0F98C12C3619F4026015E093C1CF
:100C220003C0E53009F08FC1E22FE33659F40E9488
:100C3200DF0A0E94E60A0E94DF0AA481AA930E94A8
:100C4200ED0A80C1E53411F0E53609F403C0E63659
:100C520009F048C0FE017696EE87FF870E94F30AEC
:100C62000E94B60D0E94FA0A0E94FF0AAD85AA23CD
:100C720032F0AD89AB3259F0A03281F017C00E9438
:100C8200010B0E946D0B0E94FA0AEDE2ED8B07FF49
:100C920005C0ED89EA930E94ED0A08C0EE85FF8542
:100CA2003196EE87FF873197AD89A08305FF46E035
:100CB200263651F40E94010B0E94D00D4A93AB8953
:100CC200BC890E94E20709C00E94010B0E94D00D5C
:100CD2004A932A93AC89BD8954DEFE0176960E941E
:100CE200060B1EC0E33739F40E94FF0A0E940E0B66
:100CF2000E94060B0EC0E037C1F40E94FF0A0E9458
:100D02000E0BEE87FF87AE85BF850E94BD081E2FA2
:100D120008600F77403011F0411708F001C0142F1E
:100D220040E0E0E0EC8B30E06DC0E43611F0E936F3
:100D320011F4046002C0E537A1F4EAE0EC8B01FF94
:100D420008C0E0E0FAEC6AE97BE30E94130B1AE0C8
:100D520022C0E0E1F7E260E070E00E94130B15E0D0
:100D62001AC0E83511F4086003C0E83709F0EAC098
:100D7200E0E1EC8B01FF08C0E0E0F0E060E070E150
:100D82000E94130B18E007C0E0E0F0E160E070E0C1
:100D92000E94130B14E0403011F00F7701C041E0C4
:100DA20001FF08C00E94FF0A0E94F30A14960E94E3
:100DB200B60D0FC002FF07C00E94FF0A0E940E0B71
:100DC2000E94410D06C00E94FF0A0E940E0B662778
:100DD2007727EA87FB876C877D8702FF12C0AD8584
:100DE200AA2342F40E94010B0E94290D0E94FA0AD2
:100DF200EDE2ED8BED89E03019F01F5F4F5F01C02E
:100E02000B7F342F00FD14C0151710F4351708F0AE
:100E12000FC007FF08C002FF04C00B7F2D891150CD
:100E220001C020E301C020E20E94D80A5150ECCF59
:100E3200141790F4006102FF06C00E94180B09F01B
:100E4200515011504150E0E3EA930E94ED0A5030B4
:100E520009F051504150ECCF312FEC89E030B9F418
:100E62003030A1F003FF06C0EE85FF852591EE87A5
:100E7200FF8705C0AE85BF852D91AE87BF870E94D3
:100E8200D80A503009F051503150EACF51C00E9477
:100E92002A0B0E94590D2E2F2A3030F003FF02C078
:100EA200295C01C0295A01C0205D04FD21C0213303
:100EB20060F4A889B9898A899B89A130E0E0BE07DC
:100EC200E0E08E07E0E09E0709F40BC0431740F410
:100ED200531710F000FF01C010C020E207FF08C046
:100EE20020E3006102FF04C00E94180B09F0515078
:100EF2000E94D80A503009F0515031500E942A0BFA
:100F02000E948F0D0E94FA0AEC89A889B9898A8900
:100F12009B89FF27662777270E94590D0E94130B92
:100F2200E889F9896A897B890E94E70D09F0AFCFC8
:100F320000FF08C0503031F05150E0E2EA930E94C5
:100F4200ED0AF8CF10E00CCEAE81BF810E94B20D47
:100F52000E94F20DEF966F960895FF92F82E269753
:100F62000E94ED0D0E94330B309719F4EFEFFFEF63
:100F720023C0DE0116960E94160D8D010E94330BCE
:100F8200EE83FF83E0E0E887E987DE011A960E949C
:100F9200160D0E94B20DFA93EA931A930A93E8E8A7
:100FA200F4E0FA93EA93DE011A96BDDD9F01AE8169
:100FB200BF81E0E0EC93F9010E94F40D2A96FF90C4
:100FC20008950E94750AE0E0EA83EFE3EB831A9347
:100FD2000A93EB85FC85EF3FAFEFFA0739F40E94E5
:100FE2003A0BA6E9B0E00E94A408A9C0EF3FAFE720
:100FF200FA0739F40E943A0BA7E9B0E00E94A4086C
:101002009EC0AC85AA2362F4E985FA856B857C854E
:101012000E946D0B0E943F0B0E94440BEDE2EC9389
:10102200A885A73010F0E6E0E8871885E12F115077
:10103200E03039F00E944B0B0E94BA0A0E94500B1A
:10104200F5CF0E94550B0E94130C0E943F0B10E03B
:10105200E0E0F0E060E87FE30E94500B0E94550B55
:101062000E94F60C88F00E944B0B0E94A70A0E9475
:10107200500B1F5F173238F00E943A0BABE9B0E019
:101082000E94A4085CC0EACF103029F40E94440BED
:10109200E0E3EC9329C0E12F1150E03029F10E94E6
:1010A2004B0B0E94BA0A0E94B30ADF01CB010E94D5
:1010B200FB080E94500B0E94550B0E94B10C0E942B
:1010C200A00B0E2F0E94440B0E94C80AF0E00E945F
:1010D2004B0B0E94540A0E94630C0E945E0B0E94FA
:1010E200CD0A0E943F0BD7CFE885E03021F10E9464
:1010F200440BEEE2EC93E885E150E887EF5FD9F02C
:101102000E945E0B0E94A70A0E943F0BE985FA85A6
:101112006B857C850E94A00B0E2F0E94440B0E94BF
:10112200C80AF0E00E945E0B0E94540A0E94CD0A97
:101132000E943F0BE0CFAE81BF81E0E0EC931981CA
:1011420008812D960895BA93AA93E991F991A991EC
:10115200B991CD0105900D920020E1F7FC010895AF
:10116200BA93AA93A991B991EE27FF276D916623AD
:1011720011F03196FBCF0895BA93AA93AA27BB2701
:10118200E991F9910590002011F01196FBCFFD0134
:1011920008950E94D50D7B816A81F981E88177FBF0
:1011A200770F67FD7160972F9E5781F078F0983125
:1011B20090F4AA27BB27882708948795B795A79507
:1011C2009A95D1F7EA23FB23682305C0E894772791
:1011D200EE27FF2766276F77769508F4606877F920
:1011E200A991B99189919991EA17FB076807790743
:1011F20097FB08950E94D50D0E94C60D0E94CA0851
:101202000E94CB0D19F40E94C10D09C0E6F70E949D
:10121200C10DA0E0B0E080E89FE30E940C0C249690
:1012220008950A921A92FA926A937A938A939A93F7
:10123200AA93BA93EA93FA93EFB7EA930895A09127
:101242008402B0918502809186029091870208956E
:10125200E0938402F0938502609386027093870282
:101262000895E0918402F091850260918602709166
:1012720087020E94D00D0895E0918C02F0918D02B8
:1012820060918E0270918F020895E0E0E983EA8313
:10129200EB83EC830895E981FA816B817C81089567
:1012A2000E94360DE983FA836B837C830895F3DF12
:1012B200EF5FFF4F6F4F7F4FE983FA836B837C832E
:1012C2000895A981BA818B819C81E0E0F0E060E819
:1012D20070E00E94240DE983FA836B837C83089576
:1012E2001A930A9300E010E00895E0E0E093780298
:1012F200E0937902E0937A02E0937B020895E0930F
:101302007802F093790260937A0270937B020895D7
:10131200A0917802B091790280917A0290917B0239
:101322000895E4E6F0E060E070E00E947E0D08952A
:10133200E0936002F0936102609362027093630231
:101342000895E0916002F0916102609162027091F1
:1013520063020895F6DF0E94D90BDF01CB010895E5
:10136200EDE4F0EA68EB7EE30E94B10C08950E947E
:10137200A20B0E94BC0DF80108950E94310DEA0FE4
:10138200FB1F0895E0E0F0E060EF71E40E94B10C11
:101392000895E0E0E0937C02E0937D02E0937E0218
:1013A200E0937F020895E0937C02F0937D026093C4
:1013B2007E0270937F020895A0917C02B0917D021B
:1013C20080917E0290917F020895E0936802F093EB
:1013D200690260936A0270936B020895E091680259
:1013E200F091690260916A0270916B020895F6DFD2
:1013F2000E94D90BDF01CB010895E0E0E093800267
:10140200E0938102E0938202E09383020895E093E5
:101412008002F093810260938202709383020895A6
:10142200A0918002B0918102809182029091830208
:101432000895E0937002F0937102609372027093C8
:1014420073020895E0917002F0917102609172024C
:10145200709173020895F6DF0E94D90BDF01CB0170
:101462000895FA93EA93AFE0B0E00C947C0388EE1F
:1014720093E00197F1F70895EAE0F0E060E070E0B0
:101482000E947E0D0895AE81BF810E94310DAE0F84
:10149200BF1F0E94B60D0895A885B9850E94310D1F
:1014A200AE0FBF1F08950E94410D0E94D90B0895EF
:1014B2000E94F103A3E0B0E00C94630BA981BA810E
:1014C200ED91A983BA831E2FE0300895A0E30E9414
:1014D200DC0388EC90E00197F1F70895ED91FD911E
:1014E2003196FE93EE930895BA93AA932497E0E07F
:1014F200E883E9830895AC81BD818E819F81E0E01C
:10150200F0E060E271E40E94630CEC83FD836E8381
:101512007F830895EC81FD816E817F81AC85BD85DD
:101522008E859F850E94F60C0895AC85BD858E85BB
:101532009F850895EDECFCEC6CEC7DE30E94630C5E
:10154200EC87FD876E877F873F5F0895E0E0F0E0DC
:1015520060E271E40E94630C0895EC87FD876E8758
:101562007F870895A0E0B0E080E09FE30E94130C23
:101572000895EDECFCEC6CEC7DE30E94630C0895A5
:10158200A885B9851196A887B98711970895E02F84
:10159200E05DEC93E02F08950E94DA0D0E940C0C9E
:1015A2000895E885F9853196E887F98708952A93A1
:1015B200AF81B885E985FA8509950895FE01E65A55
:1015C200FF4F0190F081E02D08953497DE01A65A75
:1015D200BF4FED93FC930895AF81B885E985FA85F5
:1015E20009950895DE01A65ABF4F0D90BC91A02D1A
:1015F2000895EA87FB876C877D870895DFDFE5CF53
:10160200EA85FB856C857D850895EE87FF87AE852B
:10161200BF850E94B1081E2F0895E4DF14960E9430
:10162200B20D0895E88BF98B6A8B7B8B08950B7F43
:10163200ED89EA93DE01A95ABF4F0D90BC91A02D0E
:10164200FE01E75AFF4F0190F081E02D09955030DD
:101652000895E889F9896A897B89AA85BB858C8581
:101662009D850895DE011C960E94160D0E94B20D02
:101672000895EE81FF81FA93EA930895E987FA8744
:101682006B877C870895AE81BF811196AE83BF833D
:1016920011970895AA81BB818C819D810895EA8367
:1016A200FB836C837D830895EA81FB816C817D815C
:1016B200A985BA858B859C850895A985BA858B8570
:1016C2009C850895109639F080ED97E00197F1F727
:1016D200A8951197C9F7089530976040704009F0B6
:1016E20070580895552342F4503811F4E0FF04C0B5
:1016F2003196691F791F6BF050E8572711F45F93F9
:10170200CFC05F3F31F0660F000C57956795752F7C
:1017120008955F9300200AF0CFC0C8C050E8192E88
:101722001522880F991F9527550F879550E8072E88
:101732000522660F771F7527550F679508956894E0
:1017420001C0E8945F93F2DF703818F07F3F08F42D
:10175200A7C056E1571BAAF4519558300EF45930E0
:1017620030F0EFEFFFEF6FEF7FE777F91AC07727DF
:101772005523B9F0EE0FFF1F661F771F5A95D1F759
:1017820010C07727583028F0EF2FF62F672F5850C8
:10179200F9CF552331F076956795F795E7955A95E8
:1017A200D1F700200AF454D15F910895689401C0E2
:1017B200E894309760407040B1F0002426F077231F
:1017C20012F4009445D1172E7EE1112032F07A9561
:1017D200EE0FFF1F661F111CF9CFEF2FF62F612DA1
:1017E2005F938ADF5F9108954F93AF01FD01DA01A4
:1017F200AB01BC01CA01402D012C142E4F9108955A
:10180200EA0FFB1F681F0895E095F0956095EF5F62
:10181200FF4F6F4F08955F9381DF903871F150E869
:10182200152604C05F937ADF903839F1703821F1C0
:10183200572F591B2BF112F4D7DFFACF583118F07A
:10184200AA27BB278827583028F0AB2FB82F882724
:101852005850F9CF552329F08695B795A7955A95F3
:10186200D9F7502D512572F0CBDF38F46795F795F3
:10187200E795739513F420C0B7DF3EDF5F910895BB
:10188200D8F7FBCFEA1BFB0B680B51F010F4009466
:10189200BBDF662392F3EE0FFF1F661F7A95CBF72D
:1018A200EE27FF27662777275F910895EFEFFFEF77
:1018B2006FE77FEF5F910895EFEFFFEF6FE77FE74D
:1018C2005F9108955F932ADF703851F3903841F3A6
:1018D20001240894791F23F41CF300203AF3ECCF7F
:1018E2000F921F932F933F934F93112722279927EC
:1018F200689FA0018F9F302D410D591F6B9F300DA6
:10190200411D591F8E9F27D0BF9F25D06A9F23D08C
:10191200BE9F1DD0AF9F1BD0AE9F110D291F391F37
:10192200491F591FE32FF42F652F522F4F913F91DB
:101932002F911F910F9066232AF0550FEE1FFF1F64
:10194200661F02C073954BF2CDDE5F910895100DB4
:10195200211D391F02C0200D311D491F591F089535
:101962005F93DCDE703821F411200AF49FCFA4CFFC
:10197200903809F495CF01240894970B1BF4D4F303
:101982000020F3CF792F1F932F933F934F9311246E
:101992001127222733274427552790E2AE17BF0786
:1019A2008607410730F0AE1BBF0B860B410B089434
:1019B20001C08894551F221F331F111CAA1FBB1F71
:1019C200881F441F9A9551F7F901612D4F913F915C
:1019D2002F911F91662332F0550FEE1FFF1F661FD6
:1019E2007A9543F27FDE5F91089599239AF07723E7
:1019F20042F0971748F029F4AE17BF07860720F088
:101A020031F09894889408959894089408951894BD
:101A1200889408957723C2F7971798F3A9F7EA17DE
:101A2200FB07680788F399F3ECCF0024AF0DB01DD4
:101A32000895EA0FFB1F681F791F0895EA1BFB0B2D
:101A4200680B790B0895EA27FB2768277927089501
:101A5200F09560957095E195FF4F6F4F7F4F089518
:101A6200EE0FFF1FEE0FFF1F0895EE0FFF1F661F01
:101A7200771F0895FE2FFF0FFF0B6F2F7F2F089503
:101A82006F2F660F660B762F0895002498E0AA0F39
:101A9200001C0E1A10F40E0E01C0A1609A95B9F73F
:101AA200EA2FA02D08953ED0F0DF0EF4E1950895BF
:101AB2003F934F935F93002411244427552730E22C
:101AC200AA0FBB1F881F991F001C111C441F551F02
:101AD2000E1A1F0A460B570B28F40E0E1F1E461F26
:101AE200571F01C0A1603A9559F7FD01BC01D00111
:101AF200CA015F914F913F91089520D0D9DF0EF432
:101B0200A7DF0895E894A7FF02C0A1956894E7FDB6
:101B1200E195BBDFEA2F0EF4E1950895C9DFFD01DF
:101B2200BC010895E894E7FF02C0E1956894A7FF1D
:101B320004C0A19500F8039400FA0895E89477FF91
:101B420002C086DF689497FF0BC00024A095B09571
:101B5200809590951196801D901D00F8039400FACF
:101B62000895ED91FC9111970895ED91FD916D917C
:101B72007C9113970895ED93FD936D937C93089553
:101B8200E881F9816A817B810895A881B9818A817E
:101B92009B810895E883F9836A837B8308957A930E
:101BA2006A93FA93EA9308959A938A93BA93AA93BB
:101BB2000895182E862F612D192E972F712D1B2E09
:101BC200BF2FF12D1A2EAE2FE12D089530976040D0
:101BD200704008955A934A933A932A931A930A9318
:101BE20008955D814C813B812A8119810881089584
:00000001FF
